{
  "_format": "hh3-artifact-1",
  "contractName": "AgroVault",
  "sourceName": "contracts/AgroVault.sol",
  "abi": [
    {
      "inputs": [
        {
          "internalType": "contract IERC20Metadata",
          "name": "asset_",
          "type": "address"
        },
        {
          "internalType": "contract InvestorWhitelist",
          "name": "investorWhitelist_",
          "type": "address"
        },
        {
          "internalType": "contract FarmerRegistry",
          "name": "farmerRegistry_",
          "type": "address"
        },
        {
          "internalType": "contract FarmerNote",
          "name": "farmerNote_",
          "type": "address"
        },
        {
          "internalType": "uint8",
          "name": "riskTierMin_",
          "type": "uint8"
        },
        {
          "internalType": "uint8",
          "name": "riskTierMax_",
          "type": "uint8"
        },
        {
          "internalType": "enum AgroTypes.CropType[]",
          "name": "allowedCropTypes_",
          "type": "uint8[]"
        },
        {
          "internalType": "string",
          "name": "name_",
          "type": "string"
        },
        {
          "internalType": "string",
          "name": "symbol_",
          "type": "string"
        },
        {
          "internalType": "address",
          "name": "initialOwner",
          "type": "address"
        }
      ],
      "stateMutability": "nonpayable",
      "type": "constructor"
    },
    {
      "inputs": [
        {
          "internalType": "address",
          "name": "spender",
          "type": "address"
        },
        {
          "internalType": "uint256",
          "name": "allowance",
          "type": "uint256"
        },
        {
          "internalType": "uint256",
          "name": "needed",
          "type": "uint256"
        }
      ],
      "name": "ERC20InsufficientAllowance",
      "type": "error"
    },
    {
      "inputs": [
        {
          "internalType": "address",
          "name": "sender",
          "type": "address"
        },
        {
          "internalType": "uint256",
          "name": "balance",
          "type": "uint256"
        },
        {
          "internalType": "uint256",
          "name": "needed",
          "type": "uint256"
        }
      ],
      "name": "ERC20InsufficientBalance",
      "type": "error"
    },
    {
      "inputs": [
        {
          "internalType": "address",
          "name": "approver",
          "type": "address"
        }
      ],
      "name": "ERC20InvalidApprover",
      "type": "error"
    },
    {
      "inputs": [
        {
          "internalType": "address",
          "name": "receiver",
          "type": "address"
        }
      ],
      "name": "ERC20InvalidReceiver",
      "type": "error"
    },
    {
      "inputs": [
        {
          "internalType": "address",
          "name": "sender",
          "type": "address"
        }
      ],
      "name": "ERC20InvalidSender",
      "type": "error"
    },
    {
      "inputs": [
        {
          "internalType": "address",
          "name": "spender",
          "type": "address"
        }
      ],
      "name": "ERC20InvalidSpender",
      "type": "error"
    },
    {
      "inputs": [
        {
          "internalType": "address",
          "name": "receiver",
          "type": "address"
        },
        {
          "internalType": "uint256",
          "name": "assets",
          "type": "uint256"
        },
        {
          "internalType": "uint256",
          "name": "max",
          "type": "uint256"
        }
      ],
      "name": "ERC4626ExceededMaxDeposit",
      "type": "error"
    },
    {
      "inputs": [
        {
          "internalType": "address",
          "name": "receiver",
          "type": "address"
        },
        {
          "internalType": "uint256",
          "name": "shares",
          "type": "uint256"
        },
        {
          "internalType": "uint256",
          "name": "max",
          "type": "uint256"
        }
      ],
      "name": "ERC4626ExceededMaxMint",
      "type": "error"
    },
    {
      "inputs": [
        {
          "internalType": "address",
          "name": "owner",
          "type": "address"
        },
        {
          "internalType": "uint256",
          "name": "shares",
          "type": "uint256"
        },
        {
          "internalType": "uint256",
          "name": "max",
          "type": "uint256"
        }
      ],
      "name": "ERC4626ExceededMaxRedeem",
      "type": "error"
    },
    {
      "inputs": [
        {
          "internalType": "address",
          "name": "owner",
          "type": "address"
        },
        {
          "internalType": "uint256",
          "name": "assets",
          "type": "uint256"
        },
        {
          "internalType": "uint256",
          "name": "max",
          "type": "uint256"
        }
      ],
      "name": "ERC4626ExceededMaxWithdraw",
      "type": "error"
    },
    {
      "inputs": [
        {
          "internalType": "address",
          "name": "owner",
          "type": "address"
        }
      ],
      "name": "OwnableInvalidOwner",
      "type": "error"
    },
    {
      "inputs": [
        {
          "internalType": "address",
          "name": "account",
          "type": "address"
        }
      ],
      "name": "OwnableUnauthorizedAccount",
      "type": "error"
    },
    {
      "inputs": [],
      "name": "ReentrancyGuardReentrantCall",
      "type": "error"
    },
    {
      "inputs": [
        {
          "internalType": "address",
          "name": "token",
          "type": "address"
        }
      ],
      "name": "SafeERC20FailedOperation",
      "type": "error"
    },
    {
      "anonymous": false,
      "inputs": [
        {
          "indexed": true,
          "internalType": "address",
          "name": "owner",
          "type": "address"
        },
        {
          "indexed": true,
          "internalType": "address",
          "name": "spender",
          "type": "address"
        },
        {
          "indexed": false,
          "internalType": "uint256",
          "name": "value",
          "type": "uint256"
        }
      ],
      "name": "Approval",
      "type": "event"
    },
    {
      "anonymous": false,
      "inputs": [
        {
          "indexed": true,
          "internalType": "address",
          "name": "sender",
          "type": "address"
        },
        {
          "indexed": true,
          "internalType": "address",
          "name": "owner",
          "type": "address"
        },
        {
          "indexed": false,
          "internalType": "uint256",
          "name": "assets",
          "type": "uint256"
        },
        {
          "indexed": false,
          "internalType": "uint256",
          "name": "shares",
          "type": "uint256"
        }
      ],
      "name": "Deposit",
      "type": "event"
    },
    {
      "anonymous": false,
      "inputs": [
        {
          "indexed": true,
          "internalType": "uint256",
          "name": "noteId",
          "type": "uint256"
        },
        {
          "indexed": false,
          "internalType": "uint256",
          "name": "writeOffAmount",
          "type": "uint256"
        }
      ],
      "name": "NoteDefaulted",
      "type": "event"
    },
    {
      "anonymous": false,
      "inputs": [
        {
          "indexed": true,
          "internalType": "uint256",
          "name": "noteId",
          "type": "uint256"
        },
        {
          "indexed": true,
          "internalType": "address",
          "name": "farmer",
          "type": "address"
        },
        {
          "indexed": false,
          "internalType": "uint256",
          "name": "principal",
          "type": "uint256"
        },
        {
          "indexed": false,
          "internalType": "uint256",
          "name": "interestRateBps",
          "type": "uint256"
        },
        {
          "indexed": false,
          "internalType": "uint256",
          "name": "maturityTimestamp",
          "type": "uint256"
        },
        {
          "indexed": false,
          "internalType": "address",
          "name": "recipient",
          "type": "address"
        }
      ],
      "name": "NoteFunded",
      "type": "event"
    },
    {
      "anonymous": false,
      "inputs": [
        {
          "indexed": true,
          "internalType": "uint256",
          "name": "noteId",
          "type": "uint256"
        },
        {
          "indexed": false,
          "internalType": "uint256",
          "name": "amount",
          "type": "uint256"
        },
        {
          "indexed": false,
          "internalType": "uint256",
          "name": "principalReduction",
          "type": "uint256"
        }
      ],
      "name": "NoteRepaymentRecorded",
      "type": "event"
    },
    {
      "anonymous": false,
      "inputs": [
        {
          "indexed": true,
          "internalType": "address",
          "name": "previousOwner",
          "type": "address"
        },
        {
          "indexed": true,
          "internalType": "address",
          "name": "newOwner",
          "type": "address"
        }
      ],
      "name": "OwnershipTransferred",
      "type": "event"
    },
    {
      "anonymous": false,
      "inputs": [
        {
          "indexed": true,
          "internalType": "address",
          "name": "from",
          "type": "address"
        },
        {
          "indexed": true,
          "internalType": "address",
          "name": "to",
          "type": "address"
        },
        {
          "indexed": false,
          "internalType": "uint256",
          "name": "value",
          "type": "uint256"
        }
      ],
      "name": "Transfer",
      "type": "event"
    },
    {
      "anonymous": false,
      "inputs": [
        {
          "indexed": true,
          "internalType": "address",
          "name": "sender",
          "type": "address"
        },
        {
          "indexed": true,
          "internalType": "address",
          "name": "receiver",
          "type": "address"
        },
        {
          "indexed": true,
          "internalType": "address",
          "name": "owner",
          "type": "address"
        },
        {
          "indexed": false,
          "internalType": "uint256",
          "name": "assets",
          "type": "uint256"
        },
        {
          "indexed": false,
          "internalType": "uint256",
          "name": "shares",
          "type": "uint256"
        }
      ],
      "name": "Withdraw",
      "type": "event"
    },
    {
      "inputs": [
        {
          "internalType": "address",
          "name": "owner",
          "type": "address"
        },
        {
          "internalType": "address",
          "name": "spender",
          "type": "address"
        }
      ],
      "name": "allowance",
      "outputs": [
        {
          "internalType": "uint256",
          "name": "",
          "type": "uint256"
        }
      ],
      "stateMutability": "view",
      "type": "function"
    },
    {
      "inputs": [],
      "name": "anyCropTypeAllowed",
      "outputs": [
        {
          "internalType": "bool",
          "name": "",
          "type": "bool"
        }
      ],
      "stateMutability": "view",
      "type": "function"
    },
    {
      "inputs": [
        {
          "internalType": "address",
          "name": "spender",
          "type": "address"
        },
        {
          "internalType": "uint256",
          "name": "value",
          "type": "uint256"
        }
      ],
      "name": "approve",
      "outputs": [
        {
          "internalType": "bool",
          "name": "",
          "type": "bool"
        }
      ],
      "stateMutability": "nonpayable",
      "type": "function"
    },
    {
      "inputs": [],
      "name": "asset",
      "outputs": [
        {
          "internalType": "address",
          "name": "",
          "type": "address"
        }
      ],
      "stateMutability": "view",
      "type": "function"
    },
    {
      "inputs": [
        {
          "internalType": "address",
          "name": "account",
          "type": "address"
        }
      ],
      "name": "balanceOf",
      "outputs": [
        {
          "internalType": "uint256",
          "name": "",
          "type": "uint256"
        }
      ],
      "stateMutability": "view",
      "type": "function"
    },
    {
      "inputs": [
        {
          "internalType": "uint256",
          "name": "shares",
          "type": "uint256"
        }
      ],
      "name": "convertToAssets",
      "outputs": [
        {
          "internalType": "uint256",
          "name": "",
          "type": "uint256"
        }
      ],
      "stateMutability": "view",
      "type": "function"
    },
    {
      "inputs": [
        {
          "internalType": "uint256",
          "name": "assets",
          "type": "uint256"
        }
      ],
      "name": "convertToShares",
      "outputs": [
        {
          "internalType": "uint256",
          "name": "",
          "type": "uint256"
        }
      ],
      "stateMutability": "view",
      "type": "function"
    },
    {
      "inputs": [],
      "name": "decimals",
      "outputs": [
        {
          "internalType": "uint8",
          "name": "",
          "type": "uint8"
        }
      ],
      "stateMutability": "view",
      "type": "function"
    },
    {
      "inputs": [
        {
          "internalType": "uint256",
          "name": "noteId",
          "type": "uint256"
        }
      ],
      "name": "defaultNote",
      "outputs": [],
      "stateMutability": "nonpayable",
      "type": "function"
    },
    {
      "inputs": [
        {
          "internalType": "uint256",
          "name": "assets",
          "type": "uint256"
        },
        {
          "internalType": "address",
          "name": "receiver",
          "type": "address"
        }
      ],
      "name": "deposit",
      "outputs": [
        {
          "internalType": "uint256",
          "name": "",
          "type": "uint256"
        }
      ],
      "stateMutability": "nonpayable",
      "type": "function"
    },
    {
      "inputs": [],
      "name": "farmerNote",
      "outputs": [
        {
          "internalType": "contract FarmerNote",
          "name": "",
          "type": "address"
        }
      ],
      "stateMutability": "view",
      "type": "function"
    },
    {
      "inputs": [],
      "name": "farmerRegistry",
      "outputs": [
        {
          "internalType": "contract FarmerRegistry",
          "name": "",
          "type": "address"
        }
      ],
      "stateMutability": "view",
      "type": "function"
    },
    {
      "inputs": [
        {
          "internalType": "address",
          "name": "farmer",
          "type": "address"
        },
        {
          "internalType": "uint256",
          "name": "principal",
          "type": "uint256"
        },
        {
          "internalType": "uint256",
          "name": "interestRateBps",
          "type": "uint256"
        },
        {
          "internalType": "uint256",
          "name": "maturityTimestamp",
          "type": "uint256"
        },
        {
          "internalType": "address",
          "name": "recipient",
          "type": "address"
        }
      ],
      "name": "fundNote",
      "outputs": [
        {
          "internalType": "uint256",
          "name": "noteId",
          "type": "uint256"
        }
      ],
      "stateMutability": "nonpayable",
      "type": "function"
    },
    {
      "inputs": [
        {
          "internalType": "address",
          "name": "farmer",
          "type": "address"
        }
      ],
      "name": "getFarmerNoteIds",
      "outputs": [
        {
          "internalType": "uint256[]",
          "name": "",
          "type": "uint256[]"
        }
      ],
      "stateMutability": "view",
      "type": "function"
    },
    {
      "inputs": [],
      "name": "getNoteCount",
      "outputs": [
        {
          "internalType": "uint256",
          "name": "",
          "type": "uint256"
        }
      ],
      "stateMutability": "view",
      "type": "function"
    },
    {
      "inputs": [
        {
          "internalType": "uint256",
          "name": "index",
          "type": "uint256"
        }
      ],
      "name": "getNoteIdAt",
      "outputs": [
        {
          "internalType": "uint256",
          "name": "",
          "type": "uint256"
        }
      ],
      "stateMutability": "view",
      "type": "function"
    },
    {
      "inputs": [
        {
          "internalType": "uint256",
          "name": "offset",
          "type": "uint256"
        },
        {
          "internalType": "uint256",
          "name": "limit",
          "type": "uint256"
        }
      ],
      "name": "getNoteIds",
      "outputs": [
        {
          "internalType": "uint256[]",
          "name": "",
          "type": "uint256[]"
        }
      ],
      "stateMutability": "view",
      "type": "function"
    },
    {
      "inputs": [
        {
          "internalType": "address",
          "name": "farmer",
          "type": "address"
        }
      ],
      "name": "getTotalFundedToFarmer",
      "outputs": [
        {
          "internalType": "uint256",
          "name": "",
          "type": "uint256"
        }
      ],
      "stateMutability": "view",
      "type": "function"
    },
    {
      "inputs": [],
      "name": "investorWhitelist",
      "outputs": [
        {
          "internalType": "contract InvestorWhitelist",
          "name": "",
          "type": "address"
        }
      ],
      "stateMutability": "view",
      "type": "function"
    },
    {
      "inputs": [
        {
          "internalType": "enum AgroTypes.CropType",
          "name": "",
          "type": "uint8"
        }
      ],
      "name": "isAllowedCropType",
      "outputs": [
        {
          "internalType": "bool",
          "name": "",
          "type": "bool"
        }
      ],
      "stateMutability": "view",
      "type": "function"
    },
    {
      "inputs": [
        {
          "internalType": "address",
          "name": "",
          "type": "address"
        }
      ],
      "name": "maxDeposit",
      "outputs": [
        {
          "internalType": "uint256",
          "name": "",
          "type": "uint256"
        }
      ],
      "stateMutability": "view",
      "type": "function"
    },
    {
      "inputs": [
        {
          "internalType": "address",
          "name": "",
          "type": "address"
        }
      ],
      "name": "maxMint",
      "outputs": [
        {
          "internalType": "uint256",
          "name": "",
          "type": "uint256"
        }
      ],
      "stateMutability": "view",
      "type": "function"
    },
    {
      "inputs": [
        {
          "internalType": "address",
          "name": "owner",
          "type": "address"
        }
      ],
      "name": "maxRedeem",
      "outputs": [
        {
          "internalType": "uint256",
          "name": "",
          "type": "uint256"
        }
      ],
      "stateMutability": "view",
      "type": "function"
    },
    {
      "inputs": [
        {
          "internalType": "address",
          "name": "owner",
          "type": "address"
        }
      ],
      "name": "maxWithdraw",
      "outputs": [
        {
          "internalType": "uint256",
          "name": "",
          "type": "uint256"
        }
      ],
      "stateMutability": "view",
      "type": "function"
    },
    {
      "inputs": [
        {
          "internalType": "uint256",
          "name": "shares",
          "type": "uint256"
        },
        {
          "internalType": "address",
          "name": "receiver",
          "type": "address"
        }
      ],
      "name": "mint",
      "outputs": [
        {
          "internalType": "uint256",
          "name": "",
          "type": "uint256"
        }
      ],
      "stateMutability": "nonpayable",
      "type": "function"
    },
    {
      "inputs": [],
      "name": "name",
      "outputs": [
        {
          "internalType": "string",
          "name": "",
          "type": "string"
        }
      ],
      "stateMutability": "view",
      "type": "function"
    },
    {
      "inputs": [
        {
          "internalType": "uint256",
          "name": "",
          "type": "uint256"
        }
      ],
      "name": "noteOutstandingPrincipal",
      "outputs": [
        {
          "internalType": "uint256",
          "name": "",
          "type": "uint256"
        }
      ],
      "stateMutability": "view",
      "type": "function"
    },
    {
      "inputs": [],
      "name": "owner",
      "outputs": [
        {
          "internalType": "address",
          "name": "",
          "type": "address"
        }
      ],
      "stateMutability": "view",
      "type": "function"
    },
    {
      "inputs": [
        {
          "internalType": "uint256",
          "name": "assets",
          "type": "uint256"
        }
      ],
      "name": "previewDeposit",
      "outputs": [
        {
          "internalType": "uint256",
          "name": "",
          "type": "uint256"
        }
      ],
      "stateMutability": "view",
      "type": "function"
    },
    {
      "inputs": [
        {
          "internalType": "uint256",
          "name": "shares",
          "type": "uint256"
        }
      ],
      "name": "previewMint",
      "outputs": [
        {
          "internalType": "uint256",
          "name": "",
          "type": "uint256"
        }
      ],
      "stateMutability": "view",
      "type": "function"
    },
    {
      "inputs": [
        {
          "internalType": "uint256",
          "name": "shares",
          "type": "uint256"
        }
      ],
      "name": "previewRedeem",
      "outputs": [
        {
          "internalType": "uint256",
          "name": "",
          "type": "uint256"
        }
      ],
      "stateMutability": "view",
      "type": "function"
    },
    {
      "inputs": [
        {
          "internalType": "uint256",
          "name": "assets",
          "type": "uint256"
        }
      ],
      "name": "previewWithdraw",
      "outputs": [
        {
          "internalType": "uint256",
          "name": "",
          "type": "uint256"
        }
      ],
      "stateMutability": "view",
      "type": "function"
    },
    {
      "inputs": [
        {
          "internalType": "uint256",
          "name": "noteId",
          "type": "uint256"
        },
        {
          "internalType": "uint256",
          "name": "amount",
          "type": "uint256"
        }
      ],
      "name": "recordRepayment",
      "outputs": [],
      "stateMutability": "nonpayable",
      "type": "function"
    },
    {
      "inputs": [
        {
          "internalType": "uint256",
          "name": "shares",
          "type": "uint256"
        },
        {
          "internalType": "address",
          "name": "receiver",
          "type": "address"
        },
        {
          "internalType": "address",
          "name": "owner",
          "type": "address"
        }
      ],
      "name": "redeem",
      "outputs": [
        {
          "internalType": "uint256",
          "name": "",
          "type": "uint256"
        }
      ],
      "stateMutability": "nonpayable",
      "type": "function"
    },
    {
      "inputs": [],
      "name": "renounceOwnership",
      "outputs": [],
      "stateMutability": "nonpayable",
      "type": "function"
    },
    {
      "inputs": [],
      "name": "riskTierMax",
      "outputs": [
        {
          "internalType": "uint8",
          "name": "",
          "type": "uint8"
        }
      ],
      "stateMutability": "view",
      "type": "function"
    },
    {
      "inputs": [],
      "name": "riskTierMin",
      "outputs": [
        {
          "internalType": "uint8",
          "name": "",
          "type": "uint8"
        }
      ],
      "stateMutability": "view",
      "type": "function"
    },
    {
      "inputs": [],
      "name": "symbol",
      "outputs": [
        {
          "internalType": "string",
          "name": "",
          "type": "string"
        }
      ],
      "stateMutability": "view",
      "type": "function"
    },
    {
      "inputs": [],
      "name": "totalAssets",
      "outputs": [
        {
          "internalType": "uint256",
          "name": "",
          "type": "uint256"
        }
      ],
      "stateMutability": "view",
      "type": "function"
    },
    {
      "inputs": [],
      "name": "totalOutstandingPrincipal",
      "outputs": [
        {
          "internalType": "uint256",
          "name": "",
          "type": "uint256"
        }
      ],
      "stateMutability": "view",
      "type": "function"
    },
    {
      "inputs": [],
      "name": "totalSupply",
      "outputs": [
        {
          "internalType": "uint256",
          "name": "",
          "type": "uint256"
        }
      ],
      "stateMutability": "view",
      "type": "function"
    },
    {
      "inputs": [
        {
          "internalType": "address",
          "name": "to",
          "type": "address"
        },
        {
          "internalType": "uint256",
          "name": "value",
          "type": "uint256"
        }
      ],
      "name": "transfer",
      "outputs": [
        {
          "internalType": "bool",
          "name": "",
          "type": "bool"
        }
      ],
      "stateMutability": "nonpayable",
      "type": "function"
    },
    {
      "inputs": [
        {
          "internalType": "address",
          "name": "from",
          "type": "address"
        },
        {
          "internalType": "address",
          "name": "to",
          "type": "address"
        },
        {
          "internalType": "uint256",
          "name": "value",
          "type": "uint256"
        }
      ],
      "name": "transferFrom",
      "outputs": [
        {
          "internalType": "bool",
          "name": "",
          "type": "bool"
        }
      ],
      "stateMutability": "nonpayable",
      "type": "function"
    },
    {
      "inputs": [
        {
          "internalType": "address",
          "name": "newOwner",
          "type": "address"
        }
      ],
      "name": "transferOwnership",
      "outputs": [],
      "stateMutability": "nonpayable",
      "type": "function"
    },
    {
      "inputs": [
        {
          "internalType": "uint256",
          "name": "assets",
          "type": "uint256"
        },
        {
          "internalType": "address",
          "name": "receiver",
          "type": "address"
        },
        {
          "internalType": "address",
          "name": "owner",
          "type": "address"
        }
      ],
      "name": "withdraw",
      "outputs": [
        {
          "internalType": "uint256",
          "name": "",
          "type": "uint256"
        }
      ],
      "stateMutability": "nonpayable",
      "type": "function"
    }
  ],
  "bytecode": "0x61018060405234801562000011575f80fd5b506040516200317f3803806200317f83398101604081905262000034916200063d565b808a84846003620000468382620007d5565b506004620000558282620007d5565b5050505f806200006b836200037260201b60201c565b91509150816200007d5760126200007f565b805b60ff1660a05250506001600160a01b039081166080528116620000bc57604051631e4fbdf760e01b81525f60048201526024015b60405180910390fd5b620000c78162000451565b5060016006556001600160a01b038916620001255760405162461bcd60e51b815260206004820152601960248201527f4167726f5661756c743a2077686974656c697374207a65726f000000000000006044820152606401620000b3565b6001600160a01b0388166200017d5760405162461bcd60e51b815260206004820152601860248201527f4167726f5661756c743a207265676973747279207a65726f00000000000000006044820152606401620000b3565b6001600160a01b038716620001d55760405162461bcd60e51b815260206004820152601460248201527f4167726f5661756c743a206e6f7465207a65726f0000000000000000000000006044820152606401620000b3565b60018660ff1610158015620001ee575060058660ff1611155b6200023c5760405162461bcd60e51b815260206004820152601760248201527f4167726f5661756c743a20626164206d696e20746965720000000000000000006044820152606401620000b3565b8560ff168560ff161015801562000257575060058560ff1611155b620002a55760405162461bcd60e51b815260206004820152601760248201527f4167726f5661756c743a20626164206d617820746965720000000000000000006044820152606401620000b3565b6001600160a01b03808a1660c05288811660e05287166101005260ff808716610120528516610140528351156101608190528062000361575f5b85518110156200035f575f868281518110620002ff57620002ff620008a1565b60200260200101519050600160075f836006811115620003235762000323620008b5565b6006811115620003375762000337620008b5565b815260208101919091526040015f20805460ff191691151591909117905550600101620002df565b505b5050505050505050505050620008fe565b60408051600481526024810182526020810180516001600160e01b031663313ce56760e01b17905290515f918291829182916001600160a01b03871691620003ba91620008c9565b5f60405180830381855afa9150503d805f8114620003f4576040519150601f19603f3d011682016040523d82523d5f602084013e620003f9565b606091505b50915091508180156200040e57506020815110155b1562000445575f818060200190518101906200042b9190620008e6565b905060ff811162000443576001969095509350505050565b505b505f9485945092505050565b600580546001600160a01b038381166001600160a01b0319831681179093556040519116919082907f8be0079c531659141344cd1fd0a4f28419497f9722a3daafe3b4186f6b6457e0905f90a35050565b80516001600160a01b0381168114620004b9575f80fd5b919050565b805160ff81168114620004b9575f80fd5b634e487b7160e01b5f52604160045260245ffd5b604051601f8201601f191681016001600160401b03811182821017156200050e576200050e620004cf565b604052919050565b5f82601f83011262000526575f80fd5b815160206001600160401b03821115620005445762000544620004cf565b8160051b62000555828201620004e3565b92835284810182019282810190878511156200056f575f80fd5b83870192505b848310156200059d578251600781106200058d575f80fd5b8252918301919083019062000575565b979650505050505050565b5f5b83811015620005c4578181015183820152602001620005aa565b50505f910152565b5f82601f830112620005dc575f80fd5b81516001600160401b03811115620005f857620005f8620004cf565b6200060d601f8201601f1916602001620004e3565b81815284602083860101111562000622575f80fd5b62000635826020830160208701620005a8565b949350505050565b5f805f805f805f805f806101408b8d03121562000658575f80fd5b620006638b620004a2565b99506200067360208c01620004a2565b98506200068360408c01620004a2565b97506200069360608c01620004a2565b9650620006a360808c01620004be565b9550620006b360a08c01620004be565b60c08c01519095506001600160401b0380821115620006d0575f80fd5b620006de8e838f0162000516565b955060e08d0151915080821115620006f4575f80fd5b620007028e838f01620005cc565b94506101008d015191508082111562000719575f80fd5b50620007288d828e01620005cc565b9250506200073a6101208c01620004a2565b90509295989b9194979a5092959850565b600181811c908216806200076057607f821691505b6020821081036200077f57634e487b7160e01b5f52602260045260245ffd5b50919050565b601f821115620007d057805f5260205f20601f840160051c81016020851015620007ac5750805b601f840160051c820191505b81811015620007cd575f8155600101620007b8565b50505b505050565b81516001600160401b03811115620007f157620007f1620004cf565b62000809816200080284546200074b565b8462000785565b602080601f8311600181146200083f575f8415620008275750858301515b5f19600386901b1c1916600185901b17855562000899565b5f85815260208120601f198616915b828110156200086f578886015182559484019460019091019084016200084e565b50858210156200088d57878501515f19600388901b60f8161c191681555b505060018460011b0185555b505050505050565b634e487b7160e01b5f52603260045260245ffd5b634e487b7160e01b5f52602160045260245ffd5b5f8251620008dc818460208701620005a8565b9190910192915050565b5f60208284031215620008f7575f80fd5b5051919050565b60805160a05160c05160e051610100516101205161014051610160516127bc620009c35f395f818161064b0152610bc401525f81816104ed0152610b3f01525f81816103990152610b0a01525f818161044201528181610e6d01528181611041015281816115f6015261174601525f81816102f80152610a4a01525f818161035f01528181611132015261120801525f61088501525f81816103d70152818161069201528181610cdc015281816114f901528181611ac00152611d7901526127bc5ff3fe608060405234801561000f575f80fd5b5060043610610276575f3560e01c8063715018a611610156578063c63d75b6116100ca578063d905777e11610084578063d905777e146105fb578063dd62ed3e1461060e578063e4dd501d14610646578063ef8b30f71461058d578063f2fde38b1461066d578063f51c879b14610680575f80fd5b8063c63d75b6146103fb578063c6e6f5921461058d578063cad45a41146105a0578063ccff2e6f146105b3578063ce96cb77146105c6578063d8b025ac146105d9575f80fd5b8063a9059cbb1161011b578063a9059cbb1461050f578063ac0f066214610522578063b3d7f6b914610535578063b460af9414610548578063ba0876521461055b578063bcbaed4f1461056e575f80fd5b8063715018a6146104b25780638da5cb5b146104bc57806394bf804d146104cd57806395d89b41146104e0578063a2b44190146104e8575f80fd5b8063313ce567116101ed57806347ec71b6116101b257806347ec71b61461042a5780634cdad506146102aa5780636affe1971461043d5780636d7f2544146104645780636e553f651461047757806370a082311461048a575f80fd5b8063313ce567146103cd57806338d52e0f146103d5578063402d267d146103fb57806341fb87fb1461040f57806344190dde14610417575f80fd5b80630da809801161023e5780630da80980146102f357806316803fc31461033257806318160ddd146103525780631ff1856c1461035a57806323b872dd146103815780632c4029a614610394575f80fd5b806301e1d1141461027a57806306fdde031461029557806307a2d13a146102aa578063095ea7b3146102bd5780630a28a477146102e0575b5f80fd5b610282610689565b6040519081526020015b60405180910390f35b61029d61072b565b60405161028c919061208f565b6102826102b83660046120c1565b6107bb565b6102d06102cb3660046120ec565b6107cc565b604051901515815260200161028c565b6102826102ee3660046120c1565b6107e3565b61031a7f000000000000000000000000000000000000000000000000000000000000000081565b6040516001600160a01b03909116815260200161028c565b610345610340366004612116565b6107ef565b60405161028c9190612131565b600254610282565b61031a7f000000000000000000000000000000000000000000000000000000000000000081565b6102d061038f366004612174565b610858565b6103bb7f000000000000000000000000000000000000000000000000000000000000000081565b60405160ff909116815260200161028c565b6103bb61087d565b7f000000000000000000000000000000000000000000000000000000000000000061031a565b610282610409366004612116565b505f1990565b600a54610282565b6102826104253660046120c1565b6108a9565b6102826104383660046121b2565b610924565b61031a7f000000000000000000000000000000000000000000000000000000000000000081565b610282610472366004612116565b610fd1565b610282610485366004612204565b61110a565b610282610498366004612116565b6001600160a01b03165f9081526020819052604090205490565b6104ba6111cd565b005b6005546001600160a01b031661031a565b6102826104db366004612204565b6111e0565b61029d611297565b6103bb7f000000000000000000000000000000000000000000000000000000000000000081565b6102d061051d3660046120ec565b6112a6565b610345610530366004612232565b6112b3565b6102826105433660046120c1565b61139f565b610282610556366004612252565b6113ab565b610282610569366004612252565b6113f8565b61028261057c3660046120c1565b60086020525f908152604090205481565b61028261059b3660046120c1565b611445565b6104ba6105ae366004612232565b611450565b6104ba6105c13660046120c1565b6116a2565b6102826105d4366004612116565b6117ed565b6102d06105e736600461229d565b60076020525f908152604090205460ff1681565b610282610609366004612116565b61180f565b61028261061c3660046122b8565b6001600160a01b039182165f90815260016020908152604080832093909416825291909152205490565b6102d07f000000000000000000000000000000000000000000000000000000000000000081565b6104ba61067b366004612116565b61182c565b61028260095481565b5f6009546106b47f000000000000000000000000000000000000000000000000000000000000000090565b6040516370a0823160e01b81523060048201526001600160a01b0391909116906370a0823190602401602060405180830381865afa1580156106f8573d5f803e3d5ffd5b505050506040513d601f19601f8201168201806040525081019061071c91906122e4565b610726919061230f565b905090565b60606003805461073a90612322565b80601f016020809104026020016040519081016040528092919081815260200182805461076690612322565b80156107b15780601f10610788576101008083540402835291602001916107b1565b820191905f5260205f20905b81548152906001019060200180831161079457829003601f168201915b5050505050905090565b5f6107c6825f611866565b92915050565b5f336107d981858561189f565b5060019392505050565b5f6107c68260016118b1565b6001600160a01b0381165f908152600b602090815260409182902080548351818402810184019094528084526060939283018282801561084c57602002820191905f5260205f20905b815481526020019060010190808311610838575b50505050509050919050565b5f336108658582856118e1565b61087085858561194a565b60019150505b9392505050565b5f61072660097f000000000000000000000000000000000000000000000000000000000000000061235a565b600a545f9082106109015760405162461bcd60e51b815260206004820152601e60248201527f4167726f5661756c743a20696e646578206f7574206f6620626f756e6473000060448201526064015b60405180910390fd5b600a828154811061091457610914612373565b905f5260205f2001549050919050565b5f61092d6119a7565b6109356119d1565b6001600160a01b0386166109845760405162461bcd60e51b815260206004820152601660248201527520b3b937ab30bab63a1d103d32b937903330b936b2b960511b60448201526064016108f8565b6001600160a01b0382166109da5760405162461bcd60e51b815260206004820152601960248201527f4167726f5661756c743a207a65726f20726563697069656e740000000000000060448201526064016108f8565b5f8511610a295760405162461bcd60e51b815260206004820152601960248201527f4167726f5661756c743a207a65726f207072696e636970616c0000000000000060448201526064016108f8565b6040516373b04e0b60e11b81526001600160a01b0387811660048301525f917f00000000000000000000000000000000000000000000000000000000000000009091169063e7609c16906024015f60405180830381865afa158015610a90573d5f803e3d5ffd5b505050506040513d5f823e601f3d908101601f19168201604052610ab7919081019061246b565b8051909150610b085760405162461bcd60e51b815260206004820152601e60248201527f4167726f5661756c743a206661726d6572206e6f7420617070726f766564000060448201526064016108f8565b7f000000000000000000000000000000000000000000000000000000000000000060ff16816020015160ff1610158015610b6c57507f000000000000000000000000000000000000000000000000000000000000000060ff16816020015160ff1611155b610bc25760405162461bcd60e51b815260206004820152602160248201527f4167726f5661756c743a207269736b2074696572206f7574206f662072616e676044820152606560f81b60648201526084016108f8565b7f0000000000000000000000000000000000000000000000000000000000000000610c755760075f82604001516006811115610c0057610c00612520565b6006811115610c1157610c11612520565b815260208101919091526040015f205460ff16610c705760405162461bcd60e51b815260206004820181905260248201527f4167726f5661756c743a2063726f702074797065206e6f7420616c6c6f77656460448201526064016108f8565b610cd9565b5f81604001516006811115610c8c57610c8c612520565b03610cd95760405162461bcd60e51b815260206004820152601760248201527f4167726f5661756c743a20756e6b6e6f776e2063726f7000000000000000000060448201526064016108f8565b5f7f00000000000000000000000000000000000000000000000000000000000000006040516370a0823160e01b81523060048201529091505f906001600160a01b038316906370a0823190602401602060405180830381865afa158015610d42573d5f803e3d5ffd5b505050506040513d601f19601f82011682018060405250810190610d6691906122e4565b905087811015610dc25760405162461bcd60e51b815260206004820152602160248201527f4167726f5661756c743a20696e73756666696369656e74206c697175696469746044820152607960f81b60648201526084016108f8565b60405163a9059cbb60e01b81526001600160a01b038681166004830152602482018a905283169063a9059cbb906044016020604051808303815f875af1158015610e0e573d5f803e3d5ffd5b505050506040513d601f19601f82011682018060405250810190610e329190612534565b5060405163056039c560e21b81523060048201526001600160a01b038a81166024830152604482018a905260648201899052608482018890527f00000000000000000000000000000000000000000000000000000000000000001690631580e7149060a4016020604051808303815f875af1158015610eb3573d5f803e3d5ffd5b505050506040513d601f19601f82011682018060405250810190610ed791906122e4565b5f8181526008602052604081208a9055600980549296508a92909190610efe90849061230f565b9091555050600a8054600180820183557fc65a7bb8d6351c1cf70c95a316cc6a92839c986682d98bc35f958f4883f9d2a890910186905590545f868152600c60209081526040808320939093556001600160a01b038d8116808452600b83528484208054968701815584529282902090940188905582518c81529081018b9052918201899052918716606082015285907f1837fc5e84169e03b38edc46be6a96e2160ae96d3d57f2db28003eba9a4d20509060800160405180910390a3505050610fc86001600655565b95945050505050565b6001600160a01b0381165f908152600b602090815260408083208054825181850281018501909352808352849383018282801561102b57602002820191905f5260205f20905b815481526020019060010190808311611017575b505050505090505f805b8251811015611102575f7f00000000000000000000000000000000000000000000000000000000000000006001600160a01b031663a965a94185848151811061108057611080612373565b60200260200101516040518263ffffffff1660e01b81526004016110a691815260200190565b60c060405180830381865afa1580156110c1573d5f803e3d5ffd5b505050506040513d601f19601f820116820180604052508101906110e5919061254d565b90508060200151836110f7919061230f565b925050600101611035565b509392505050565b5f6111136119a7565b604051633af32abf60e01b81526001600160a01b0383811660048301527f00000000000000000000000000000000000000000000000000000000000000001690633af32abf90602401602060405180830381865afa158015611177573d5f803e3d5ffd5b505050506040513d601f19601f8201168201806040525081019061119b9190612534565b6111b75760405162461bcd60e51b81526004016108f8906125e0565b6111c183836119fe565b90506107c66001600655565b6111d56119d1565b6111de5f611a21565b565b5f6111e96119a7565b604051633af32abf60e01b81526001600160a01b0383811660048301527f00000000000000000000000000000000000000000000000000000000000000001690633af32abf90602401602060405180830381865afa15801561124d573d5f803e3d5ffd5b505050506040513d601f19601f820116820180604052508101906112719190612534565b61128d5760405162461bcd60e51b81526004016108f8906125e0565b6111c18383611a72565b60606004805461073a90612322565b5f336107d981858561194a565b600a546060908084106112d5575050604080515f8152602081019091526107c6565b5f6112e0848661230f565b9050818111156112ed5750805b5f6112f88683612623565b90505f8167ffffffffffffffff81111561131457611314612387565b60405190808252806020026020018201604052801561133d578160200160208202803683370190505b5090505f5b8281101561139457600a611356828a61230f565b8154811061136657611366612373565b905f5260205f20015482828151811061138157611381612373565b6020908102919091010152600101611342565b509695505050505050565b5f6107c6826001611866565b5f806113b6836117ed565b9050808511156113df57828582604051633fa733bb60e21b81526004016108f893929190612636565b5f6113e9866107e3565b9050610fc83386868985611a8d565b5f806114038361180f565b90508085111561142c57828582604051632e52afbb60e21b81526004016108f893929190612636565b5f611436866107bb565b9050610fc8338686848a611a8d565b5f6107c6825f6118b1565b6114586119a7565b5f81116114a05760405162461bcd60e51b81526020600482015260166024820152751059dc9bd5985d5b1d0e881e995c9bc8185b5bdd5b9d60521b60448201526064016108f8565b5f82815260086020526040902054806114f75760405162461bcd60e51b81526020600482015260196024820152784167726f5661756c743a206e6f206f75747374616e64696e6760381b60448201526064016108f8565b7f00000000000000000000000000000000000000000000000000000000000000006040516323b872dd60e01b8152336004820152306024820152604481018490526001600160a01b0391909116906323b872dd906064016020604051808303815f875af115801561156a573d5f803e3d5ffd5b505050506040513d601f19601f8201168201806040525081019061158e9190612534565b505f81831161159d578261159f565b815b90505f6115ac8284612623565b5f8681526008602052604081208290556009805492935084929091906115d3908490612623565b90915550505f8190036116565760405163b2b3be9960e01b8152600481018690527f00000000000000000000000000000000000000000000000000000000000000006001600160a01b03169063b2b3be99906024015f604051808303815f87803b15801561163f575f80fd5b505af1158015611651573d5f803e3d5ffd5b505050505b604080518581526020810184905286917f8bacbe6051e7205a511dd3beb96381ae1d8eebaa3774c6af64b357036542a06b910160405180910390a250505061169e6001600655565b5050565b6116aa6119a7565b6116b26119d1565b5f81815260086020526040902054806117095760405162461bcd60e51b81526020600482015260196024820152784167726f5661756c743a206e6f206f75747374616e64696e6760381b60448201526064016108f8565b5f8281526008602052604081208190556009805483929061172b908490612623565b909155505060405163894a9fa560e01b8152600481018390527f00000000000000000000000000000000000000000000000000000000000000006001600160a01b03169063894a9fa5906024015f604051808303815f87803b15801561178f575f80fd5b505af11580156117a1573d5f803e3d5ffd5b50505050817f415e19ed3f57e0736902662598da6063a362d92dbb7e2263be7c46f840ec7e1c826040516117d791815260200190565b60405180910390a2506117ea6001600655565b50565b6001600160a01b0381165f908152602081905260408120546107c6905f611866565b6001600160a01b0381165f908152602081905260408120546107c6565b6118346119d1565b6001600160a01b03811661185d57604051631e4fbdf760e01b81525f60048201526024016108f8565b6117ea81611a21565b5f610876611872610689565b61187d90600161230f565b6118896009600a612737565b600254611896919061230f565b85919085611b4d565b6118ac8383836001611b8f565b505050565b5f6108766118c16009600a612737565b6002546118ce919061230f565b6118d6610689565b61189690600161230f565b6001600160a01b038381165f908152600160209081526040808320938616835292905220545f19811015611944578181101561193657828183604051637dc7a0d960e11b81526004016108f893929190612636565b61194484848484035f611b8f565b50505050565b6001600160a01b03831661197357604051634b637e8f60e11b81525f60048201526024016108f8565b6001600160a01b03821661199c5760405163ec442f0560e01b81525f60048201526024016108f8565b6118ac838383611c61565b6002600654036119ca57604051633ee5aeb560e01b815260040160405180910390fd5b6002600655565b6005546001600160a01b031633146111de5760405163118cdaa760e01b81523360048201526024016108f8565b5f5f195f611a0b85611445565b9050611a1933858784611d74565b949350505050565b600580546001600160a01b038381166001600160a01b0319831681179093556040519116919082907f8be0079c531659141344cd1fd0a4f28419497f9722a3daafe3b4186f6b6457e0905f90a35050565b5f5f195f611a7f8561139f565b9050611a1933858388611d74565b826001600160a01b0316856001600160a01b031614611ab157611ab18386836118e1565b611abb8382611df8565b611ae67f00000000000000000000000000000000000000000000000000000000000000008584611e2c565b826001600160a01b0316846001600160a01b0316866001600160a01b03167ffbde797d201c681b91056529119e0b02407c7bb96a4a2c75c01fc9667232c8db8585604051611b3e929190918252602082015260400190565b60405180910390a45050505050565b5f611b7a611b5a83611e8b565b8015611b7557505f8480611b7057611b70612745565b868809115b151590565b611b85868686611eb7565b610fc8919061230f565b6001600160a01b038416611bb85760405163e602df0560e01b81525f60048201526024016108f8565b6001600160a01b038316611be157604051634a1406b160e11b81525f60048201526024016108f8565b6001600160a01b038085165f908152600160209081526040808320938716835292905220829055801561194457826001600160a01b0316846001600160a01b03167f8c5be1e5ebec7d5bd14f71427d1e84f3dd0314c0f7b2291e5b200ac8c7c3b92584604051611c5391815260200190565b60405180910390a350505050565b6001600160a01b038316611c8b578060025f828254611c80919061230f565b90915550611ce89050565b6001600160a01b0383165f9081526020819052604090205481811015611cca5783818360405163391434e360e21b81526004016108f893929190612636565b6001600160a01b0384165f9081526020819052604090209082900390555b6001600160a01b038216611d0457600280548290039055611d22565b6001600160a01b0382165f9081526020819052604090208054820190555b816001600160a01b0316836001600160a01b03167fddf252ad1be2c89b69c2b068fc378daa952ba7f163c4a11628f55a4df523b3ef83604051611d6791815260200190565b60405180910390a3505050565b611da07f0000000000000000000000000000000000000000000000000000000000000000853085611f67565b611daa8382611fa0565b826001600160a01b0316846001600160a01b03167fdcbc1c05240f31ff3ad067ef1ee35ce4997762752e3a095284754544f4c709d78484604051611c53929190918252602082015260400190565b6001600160a01b038216611e2157604051634b637e8f60e11b81525f60048201526024016108f8565b61169e825f83611c61565b6040516001600160a01b038381166024830152604482018390526118ac91859182169063a9059cbb906064015b604051602081830303815290604052915060e01b6020820180516001600160e01b038381831617835250505050611fd4565b5f6002826003811115611ea057611ea0612520565b611eaa9190612759565b60ff166001149050919050565b5f805f611ec48686612040565b91509150815f03611ee857838181611ede57611ede612745565b0492505050610876565b818411611eff57611eff600385150260111861205c565b5f848688095f868103871696879004966002600389028118808a02820302808a02820302808a02820302808a02820302808a02820302808a02909103029181900381900460010185841190960395909502919093039390930492909217029150509392505050565b6040516001600160a01b0384811660248301528381166044830152606482018390526119449186918216906323b872dd90608401611e59565b6001600160a01b038216611fc95760405163ec442f0560e01b81525f60048201526024016108f8565b61169e5f8383611c61565b5f8060205f8451602086015f885af180611ff3576040513d5f823e3d81fd5b50505f513d9150811561200a578060011415612017565b6001600160a01b0384163b155b1561194457604051635274afe760e01b81526001600160a01b03851660048201526024016108f8565b5f805f1983850993909202808410938190039390930393915050565b634e487b715f52806020526024601cfd5b5f5b8381101561208757818101518382015260200161206f565b50505f910152565b602081525f82518060208401526120ad81604085016020870161206d565b601f01601f19169190910160400192915050565b5f602082840312156120d1575f80fd5b5035919050565b6001600160a01b03811681146117ea575f80fd5b5f80604083850312156120fd575f80fd5b8235612108816120d8565b946020939093013593505050565b5f60208284031215612126575f80fd5b8135610876816120d8565b602080825282518282018190525f9190848201906040850190845b818110156121685783518352928401929184019160010161214c565b50909695505050505050565b5f805f60608486031215612186575f80fd5b8335612191816120d8565b925060208401356121a1816120d8565b929592945050506040919091013590565b5f805f805f60a086880312156121c6575f80fd5b85356121d1816120d8565b945060208601359350604086013592506060860135915060808601356121f6816120d8565b809150509295509295909350565b5f8060408385031215612215575f80fd5b823591506020830135612227816120d8565b809150509250929050565b5f8060408385031215612243575f80fd5b50508035926020909101359150565b5f805f60608486031215612264575f80fd5b833592506020840135612276816120d8565b91506040840135612286816120d8565b809150509250925092565b600781106117ea575f80fd5b5f602082840312156122ad575f80fd5b813561087681612291565b5f80604083850312156122c9575f80fd5b82356122d4816120d8565b91506020830135612227816120d8565b5f602082840312156122f4575f80fd5b5051919050565b634e487b7160e01b5f52601160045260245ffd5b808201808211156107c6576107c66122fb565b600181811c9082168061233657607f821691505b60208210810361235457634e487b7160e01b5f52602260045260245ffd5b50919050565b60ff81811683821601908111156107c6576107c66122fb565b634e487b7160e01b5f52603260045260245ffd5b634e487b7160e01b5f52604160045260245ffd5b60405160a0810167ffffffffffffffff811182821017156123be576123be612387565b60405290565b805180151581146123d3575f80fd5b919050565b8051600681106123d3575f80fd5b5f82601f8301126123f5575f80fd5b815167ffffffffffffffff8082111561241057612410612387565b604051601f8301601f19908116603f0116810190828211818310171561243857612438612387565b81604052838152866020858801011115612450575f80fd5b61246184602083016020890161206d565b9695505050505050565b5f6020828403121561247b575f80fd5b815167ffffffffffffffff80821115612492575f80fd5b9083019060a082860312156124a5575f80fd5b6124ad61239b565b6124b6836123c4565b8152602083015160ff811681146124cb575f80fd5b602082015260408301516124de81612291565b60408201526124ef606084016123d8565b6060820152608083015182811115612505575f80fd5b612511878286016123e6565b60808301525095945050505050565b634e487b7160e01b5f52602160045260245ffd5b5f60208284031215612544575f80fd5b610876826123c4565b5f60c0828403121561255d575f80fd5b60405160c0810181811067ffffffffffffffff8211171561258057612580612387565b604052825161258e816120d8565b808252506020830151602082015260408301516040820152606083015160608201526080830151600481106125c1575f80fd5b608082015260a08301516125d4816120d8565b60a08201529392505050565b60208082526023908201527f4167726f5661756c743a207265636569766572206e6f742077686974656c69736040820152621d195960ea1b606082015260800190565b818103818111156107c6576107c66122fb565b6001600160a01b039390931683526020830191909152604082015260600190565b600181815b8085111561269157815f1904821115612677576126776122fb565b8085161561268457918102915b93841c939080029061265c565b509250929050565b5f826126a7575060016107c6565b816126b357505f6107c6565b81600181146126c957600281146126d3576126ef565b60019150506107c6565b60ff8411156126e4576126e46122fb565b50506001821b6107c6565b5060208310610133831016604e8410600b8410161715612712575081810a6107c6565b61271c8383612657565b805f190482111561272f5761272f6122fb565b029392505050565b5f61087660ff841683612699565b634e487b7160e01b5f52601260045260245ffd5b5f60ff83168061277757634e487b7160e01b5f52601260045260245ffd5b8060ff8416069150509291505056fea264697066735822122018f9a2ed43abe090b08b49c81444d6fc7cafe025867c7752e63d19cada5104f164736f6c63430008180033",
  "linkReferences": {},
  "deployedLinkReferences": {},
  "immutableReferences": {
    "1160": [
      {
        "length": 32,
        "start": 983
      },
      {
        "length": 32,
        "start": 1682
      },
      {
        "length": 32,
        "start": 3292
      },
      {
        "length": 32,
        "start": 5369
      },
      {
        "length": 32,
        "start": 6848
      },
      {
        "length": 32,
        "start": 7545
      }
    ],
    "1162": [
      {
        "length": 32,
        "start": 2181
      }
    ],
    "8736": [
      {
        "length": 32,
        "start": 863
      },
      {
        "length": 32,
        "start": 4402
      },
      {
        "length": 32,
        "start": 4616
      }
    ],
    "8739": [
      {
        "length": 32,
        "start": 760
      },
      {
        "length": 32,
        "start": 2634
      }
    ],
    "8742": [
      {
        "length": 32,
        "start": 1090
      },
      {
        "length": 32,
        "start": 3693
      },
      {
        "length": 32,
        "start": 4161
      },
      {
        "length": 32,
        "start": 5622
      },
      {
        "length": 32,
        "start": 5958
      }
    ],
    "8744": [
      {
        "length": 32,
        "start": 921
      },
      {
        "length": 32,
        "start": 2826
      }
    ],
    "8746": [
      {
        "length": 32,
        "start": 1261
      },
      {
        "length": 32,
        "start": 2879
      }
    ],
    "8748": [
      {
        "length": 32,
        "start": 1611
      },
      {
        "length": 32,
        "start": 3012
      }
    ]
  },
  "inputSourceName": "project/contracts/AgroVault.sol",
  "buildInfoId": "solc-0_8_24-753390e66bd2d21c4d61b4130f67486494fa694c"
}