{
  "_format": "hh3-artifact-1",
  "contractName": "AgroVault",
  "sourceName": "contracts/AgroVault.sol",
  "abi": [
    {
      "inputs": [
        {
          "internalType": "contract IERC20Metadata",
          "name": "asset_",
          "type": "address"
        },
        {
          "internalType": "contract InvestorWhitelist",
          "name": "investorWhitelist_",
          "type": "address"
        },
        {
          "internalType": "contract FarmerRegistry",
          "name": "farmerRegistry_",
          "type": "address"
        },
        {
          "internalType": "contract FarmerNote",
          "name": "farmerNote_",
          "type": "address"
        },
        {
          "internalType": "uint8",
          "name": "riskTierMin_",
          "type": "uint8"
        },
        {
          "internalType": "uint8",
          "name": "riskTierMax_",
          "type": "uint8"
        },
        {
          "internalType": "enum AgroTypes.CropType[]",
          "name": "allowedCropTypes_",
          "type": "uint8[]"
        },
        {
          "internalType": "string",
          "name": "name_",
          "type": "string"
        },
        {
          "internalType": "string",
          "name": "symbol_",
          "type": "string"
        },
        {
          "internalType": "address",
          "name": "initialOwner",
          "type": "address"
        }
      ],
      "stateMutability": "nonpayable",
      "type": "constructor"
    },
    {
      "inputs": [
        {
          "internalType": "address",
          "name": "spender",
          "type": "address"
        },
        {
          "internalType": "uint256",
          "name": "allowance",
          "type": "uint256"
        },
        {
          "internalType": "uint256",
          "name": "needed",
          "type": "uint256"
        }
      ],
      "name": "ERC20InsufficientAllowance",
      "type": "error"
    },
    {
      "inputs": [
        {
          "internalType": "address",
          "name": "sender",
          "type": "address"
        },
        {
          "internalType": "uint256",
          "name": "balance",
          "type": "uint256"
        },
        {
          "internalType": "uint256",
          "name": "needed",
          "type": "uint256"
        }
      ],
      "name": "ERC20InsufficientBalance",
      "type": "error"
    },
    {
      "inputs": [
        {
          "internalType": "address",
          "name": "approver",
          "type": "address"
        }
      ],
      "name": "ERC20InvalidApprover",
      "type": "error"
    },
    {
      "inputs": [
        {
          "internalType": "address",
          "name": "receiver",
          "type": "address"
        }
      ],
      "name": "ERC20InvalidReceiver",
      "type": "error"
    },
    {
      "inputs": [
        {
          "internalType": "address",
          "name": "sender",
          "type": "address"
        }
      ],
      "name": "ERC20InvalidSender",
      "type": "error"
    },
    {
      "inputs": [
        {
          "internalType": "address",
          "name": "spender",
          "type": "address"
        }
      ],
      "name": "ERC20InvalidSpender",
      "type": "error"
    },
    {
      "inputs": [
        {
          "internalType": "address",
          "name": "receiver",
          "type": "address"
        },
        {
          "internalType": "uint256",
          "name": "assets",
          "type": "uint256"
        },
        {
          "internalType": "uint256",
          "name": "max",
          "type": "uint256"
        }
      ],
      "name": "ERC4626ExceededMaxDeposit",
      "type": "error"
    },
    {
      "inputs": [
        {
          "internalType": "address",
          "name": "receiver",
          "type": "address"
        },
        {
          "internalType": "uint256",
          "name": "shares",
          "type": "uint256"
        },
        {
          "internalType": "uint256",
          "name": "max",
          "type": "uint256"
        }
      ],
      "name": "ERC4626ExceededMaxMint",
      "type": "error"
    },
    {
      "inputs": [
        {
          "internalType": "address",
          "name": "owner",
          "type": "address"
        },
        {
          "internalType": "uint256",
          "name": "shares",
          "type": "uint256"
        },
        {
          "internalType": "uint256",
          "name": "max",
          "type": "uint256"
        }
      ],
      "name": "ERC4626ExceededMaxRedeem",
      "type": "error"
    },
    {
      "inputs": [
        {
          "internalType": "address",
          "name": "owner",
          "type": "address"
        },
        {
          "internalType": "uint256",
          "name": "assets",
          "type": "uint256"
        },
        {
          "internalType": "uint256",
          "name": "max",
          "type": "uint256"
        }
      ],
      "name": "ERC4626ExceededMaxWithdraw",
      "type": "error"
    },
    {
      "inputs": [
        {
          "internalType": "address",
          "name": "owner",
          "type": "address"
        }
      ],
      "name": "OwnableInvalidOwner",
      "type": "error"
    },
    {
      "inputs": [
        {
          "internalType": "address",
          "name": "account",
          "type": "address"
        }
      ],
      "name": "OwnableUnauthorizedAccount",
      "type": "error"
    },
    {
      "inputs": [],
      "name": "ReentrancyGuardReentrantCall",
      "type": "error"
    },
    {
      "inputs": [
        {
          "internalType": "address",
          "name": "token",
          "type": "address"
        }
      ],
      "name": "SafeERC20FailedOperation",
      "type": "error"
    },
    {
      "anonymous": false,
      "inputs": [
        {
          "indexed": true,
          "internalType": "address",
          "name": "owner",
          "type": "address"
        },
        {
          "indexed": true,
          "internalType": "address",
          "name": "spender",
          "type": "address"
        },
        {
          "indexed": false,
          "internalType": "uint256",
          "name": "value",
          "type": "uint256"
        }
      ],
      "name": "Approval",
      "type": "event"
    },
    {
      "anonymous": false,
      "inputs": [
        {
          "indexed": true,
          "internalType": "address",
          "name": "sender",
          "type": "address"
        },
        {
          "indexed": true,
          "internalType": "address",
          "name": "owner",
          "type": "address"
        },
        {
          "indexed": false,
          "internalType": "uint256",
          "name": "assets",
          "type": "uint256"
        },
        {
          "indexed": false,
          "internalType": "uint256",
          "name": "shares",
          "type": "uint256"
        }
      ],
      "name": "Deposit",
      "type": "event"
    },
    {
      "anonymous": false,
      "inputs": [
        {
          "indexed": true,
          "internalType": "uint256",
          "name": "noteId",
          "type": "uint256"
        },
        {
          "indexed": true,
          "internalType": "address",
          "name": "farmer",
          "type": "address"
        },
        {
          "indexed": false,
          "internalType": "uint256",
          "name": "principal",
          "type": "uint256"
        },
        {
          "indexed": false,
          "internalType": "uint256",
          "name": "interestRateBps",
          "type": "uint256"
        },
        {
          "indexed": false,
          "internalType": "uint256",
          "name": "maturityTimestamp",
          "type": "uint256"
        },
        {
          "indexed": false,
          "internalType": "address",
          "name": "recipient",
          "type": "address"
        }
      ],
      "name": "NoteFunded",
      "type": "event"
    },
    {
      "anonymous": false,
      "inputs": [
        {
          "indexed": true,
          "internalType": "uint256",
          "name": "noteId",
          "type": "uint256"
        },
        {
          "indexed": false,
          "internalType": "uint256",
          "name": "amount",
          "type": "uint256"
        },
        {
          "indexed": false,
          "internalType": "uint256",
          "name": "principalReduction",
          "type": "uint256"
        }
      ],
      "name": "NoteRepaymentRecorded",
      "type": "event"
    },
    {
      "anonymous": false,
      "inputs": [
        {
          "indexed": true,
          "internalType": "address",
          "name": "previousOwner",
          "type": "address"
        },
        {
          "indexed": true,
          "internalType": "address",
          "name": "newOwner",
          "type": "address"
        }
      ],
      "name": "OwnershipTransferred",
      "type": "event"
    },
    {
      "anonymous": false,
      "inputs": [
        {
          "indexed": true,
          "internalType": "address",
          "name": "from",
          "type": "address"
        },
        {
          "indexed": true,
          "internalType": "address",
          "name": "to",
          "type": "address"
        },
        {
          "indexed": false,
          "internalType": "uint256",
          "name": "value",
          "type": "uint256"
        }
      ],
      "name": "Transfer",
      "type": "event"
    },
    {
      "anonymous": false,
      "inputs": [
        {
          "indexed": true,
          "internalType": "address",
          "name": "sender",
          "type": "address"
        },
        {
          "indexed": true,
          "internalType": "address",
          "name": "receiver",
          "type": "address"
        },
        {
          "indexed": true,
          "internalType": "address",
          "name": "owner",
          "type": "address"
        },
        {
          "indexed": false,
          "internalType": "uint256",
          "name": "assets",
          "type": "uint256"
        },
        {
          "indexed": false,
          "internalType": "uint256",
          "name": "shares",
          "type": "uint256"
        }
      ],
      "name": "Withdraw",
      "type": "event"
    },
    {
      "inputs": [
        {
          "internalType": "address",
          "name": "owner",
          "type": "address"
        },
        {
          "internalType": "address",
          "name": "spender",
          "type": "address"
        }
      ],
      "name": "allowance",
      "outputs": [
        {
          "internalType": "uint256",
          "name": "",
          "type": "uint256"
        }
      ],
      "stateMutability": "view",
      "type": "function"
    },
    {
      "inputs": [],
      "name": "anyCropTypeAllowed",
      "outputs": [
        {
          "internalType": "bool",
          "name": "",
          "type": "bool"
        }
      ],
      "stateMutability": "view",
      "type": "function"
    },
    {
      "inputs": [
        {
          "internalType": "address",
          "name": "spender",
          "type": "address"
        },
        {
          "internalType": "uint256",
          "name": "value",
          "type": "uint256"
        }
      ],
      "name": "approve",
      "outputs": [
        {
          "internalType": "bool",
          "name": "",
          "type": "bool"
        }
      ],
      "stateMutability": "nonpayable",
      "type": "function"
    },
    {
      "inputs": [],
      "name": "asset",
      "outputs": [
        {
          "internalType": "address",
          "name": "",
          "type": "address"
        }
      ],
      "stateMutability": "view",
      "type": "function"
    },
    {
      "inputs": [
        {
          "internalType": "address",
          "name": "account",
          "type": "address"
        }
      ],
      "name": "balanceOf",
      "outputs": [
        {
          "internalType": "uint256",
          "name": "",
          "type": "uint256"
        }
      ],
      "stateMutability": "view",
      "type": "function"
    },
    {
      "inputs": [
        {
          "internalType": "uint256",
          "name": "shares",
          "type": "uint256"
        }
      ],
      "name": "convertToAssets",
      "outputs": [
        {
          "internalType": "uint256",
          "name": "",
          "type": "uint256"
        }
      ],
      "stateMutability": "view",
      "type": "function"
    },
    {
      "inputs": [
        {
          "internalType": "uint256",
          "name": "assets",
          "type": "uint256"
        }
      ],
      "name": "convertToShares",
      "outputs": [
        {
          "internalType": "uint256",
          "name": "",
          "type": "uint256"
        }
      ],
      "stateMutability": "view",
      "type": "function"
    },
    {
      "inputs": [],
      "name": "decimals",
      "outputs": [
        {
          "internalType": "uint8",
          "name": "",
          "type": "uint8"
        }
      ],
      "stateMutability": "view",
      "type": "function"
    },
    {
      "inputs": [
        {
          "internalType": "uint256",
          "name": "assets",
          "type": "uint256"
        },
        {
          "internalType": "address",
          "name": "receiver",
          "type": "address"
        }
      ],
      "name": "deposit",
      "outputs": [
        {
          "internalType": "uint256",
          "name": "",
          "type": "uint256"
        }
      ],
      "stateMutability": "nonpayable",
      "type": "function"
    },
    {
      "inputs": [],
      "name": "farmerNote",
      "outputs": [
        {
          "internalType": "contract FarmerNote",
          "name": "",
          "type": "address"
        }
      ],
      "stateMutability": "view",
      "type": "function"
    },
    {
      "inputs": [],
      "name": "farmerRegistry",
      "outputs": [
        {
          "internalType": "contract FarmerRegistry",
          "name": "",
          "type": "address"
        }
      ],
      "stateMutability": "view",
      "type": "function"
    },
    {
      "inputs": [
        {
          "internalType": "address",
          "name": "farmer",
          "type": "address"
        },
        {
          "internalType": "uint256",
          "name": "principal",
          "type": "uint256"
        },
        {
          "internalType": "uint256",
          "name": "interestRateBps",
          "type": "uint256"
        },
        {
          "internalType": "uint256",
          "name": "maturityTimestamp",
          "type": "uint256"
        },
        {
          "internalType": "address",
          "name": "recipient",
          "type": "address"
        }
      ],
      "name": "fundNote",
      "outputs": [
        {
          "internalType": "uint256",
          "name": "noteId",
          "type": "uint256"
        }
      ],
      "stateMutability": "nonpayable",
      "type": "function"
    },
    {
      "inputs": [],
      "name": "investorWhitelist",
      "outputs": [
        {
          "internalType": "contract InvestorWhitelist",
          "name": "",
          "type": "address"
        }
      ],
      "stateMutability": "view",
      "type": "function"
    },
    {
      "inputs": [
        {
          "internalType": "enum AgroTypes.CropType",
          "name": "",
          "type": "uint8"
        }
      ],
      "name": "isAllowedCropType",
      "outputs": [
        {
          "internalType": "bool",
          "name": "",
          "type": "bool"
        }
      ],
      "stateMutability": "view",
      "type": "function"
    },
    {
      "inputs": [
        {
          "internalType": "address",
          "name": "",
          "type": "address"
        }
      ],
      "name": "maxDeposit",
      "outputs": [
        {
          "internalType": "uint256",
          "name": "",
          "type": "uint256"
        }
      ],
      "stateMutability": "view",
      "type": "function"
    },
    {
      "inputs": [
        {
          "internalType": "address",
          "name": "",
          "type": "address"
        }
      ],
      "name": "maxMint",
      "outputs": [
        {
          "internalType": "uint256",
          "name": "",
          "type": "uint256"
        }
      ],
      "stateMutability": "view",
      "type": "function"
    },
    {
      "inputs": [
        {
          "internalType": "address",
          "name": "owner",
          "type": "address"
        }
      ],
      "name": "maxRedeem",
      "outputs": [
        {
          "internalType": "uint256",
          "name": "",
          "type": "uint256"
        }
      ],
      "stateMutability": "view",
      "type": "function"
    },
    {
      "inputs": [
        {
          "internalType": "address",
          "name": "owner",
          "type": "address"
        }
      ],
      "name": "maxWithdraw",
      "outputs": [
        {
          "internalType": "uint256",
          "name": "",
          "type": "uint256"
        }
      ],
      "stateMutability": "view",
      "type": "function"
    },
    {
      "inputs": [
        {
          "internalType": "uint256",
          "name": "shares",
          "type": "uint256"
        },
        {
          "internalType": "address",
          "name": "receiver",
          "type": "address"
        }
      ],
      "name": "mint",
      "outputs": [
        {
          "internalType": "uint256",
          "name": "",
          "type": "uint256"
        }
      ],
      "stateMutability": "nonpayable",
      "type": "function"
    },
    {
      "inputs": [],
      "name": "name",
      "outputs": [
        {
          "internalType": "string",
          "name": "",
          "type": "string"
        }
      ],
      "stateMutability": "view",
      "type": "function"
    },
    {
      "inputs": [
        {
          "internalType": "uint256",
          "name": "",
          "type": "uint256"
        }
      ],
      "name": "noteOutstandingPrincipal",
      "outputs": [
        {
          "internalType": "uint256",
          "name": "",
          "type": "uint256"
        }
      ],
      "stateMutability": "view",
      "type": "function"
    },
    {
      "inputs": [],
      "name": "owner",
      "outputs": [
        {
          "internalType": "address",
          "name": "",
          "type": "address"
        }
      ],
      "stateMutability": "view",
      "type": "function"
    },
    {
      "inputs": [
        {
          "internalType": "uint256",
          "name": "assets",
          "type": "uint256"
        }
      ],
      "name": "previewDeposit",
      "outputs": [
        {
          "internalType": "uint256",
          "name": "",
          "type": "uint256"
        }
      ],
      "stateMutability": "view",
      "type": "function"
    },
    {
      "inputs": [
        {
          "internalType": "uint256",
          "name": "shares",
          "type": "uint256"
        }
      ],
      "name": "previewMint",
      "outputs": [
        {
          "internalType": "uint256",
          "name": "",
          "type": "uint256"
        }
      ],
      "stateMutability": "view",
      "type": "function"
    },
    {
      "inputs": [
        {
          "internalType": "uint256",
          "name": "shares",
          "type": "uint256"
        }
      ],
      "name": "previewRedeem",
      "outputs": [
        {
          "internalType": "uint256",
          "name": "",
          "type": "uint256"
        }
      ],
      "stateMutability": "view",
      "type": "function"
    },
    {
      "inputs": [
        {
          "internalType": "uint256",
          "name": "assets",
          "type": "uint256"
        }
      ],
      "name": "previewWithdraw",
      "outputs": [
        {
          "internalType": "uint256",
          "name": "",
          "type": "uint256"
        }
      ],
      "stateMutability": "view",
      "type": "function"
    },
    {
      "inputs": [
        {
          "internalType": "uint256",
          "name": "noteId",
          "type": "uint256"
        },
        {
          "internalType": "uint256",
          "name": "amount",
          "type": "uint256"
        }
      ],
      "name": "recordRepayment",
      "outputs": [],
      "stateMutability": "nonpayable",
      "type": "function"
    },
    {
      "inputs": [
        {
          "internalType": "uint256",
          "name": "shares",
          "type": "uint256"
        },
        {
          "internalType": "address",
          "name": "receiver",
          "type": "address"
        },
        {
          "internalType": "address",
          "name": "owner",
          "type": "address"
        }
      ],
      "name": "redeem",
      "outputs": [
        {
          "internalType": "uint256",
          "name": "",
          "type": "uint256"
        }
      ],
      "stateMutability": "nonpayable",
      "type": "function"
    },
    {
      "inputs": [],
      "name": "renounceOwnership",
      "outputs": [],
      "stateMutability": "nonpayable",
      "type": "function"
    },
    {
      "inputs": [],
      "name": "riskTierMax",
      "outputs": [
        {
          "internalType": "uint8",
          "name": "",
          "type": "uint8"
        }
      ],
      "stateMutability": "view",
      "type": "function"
    },
    {
      "inputs": [],
      "name": "riskTierMin",
      "outputs": [
        {
          "internalType": "uint8",
          "name": "",
          "type": "uint8"
        }
      ],
      "stateMutability": "view",
      "type": "function"
    },
    {
      "inputs": [],
      "name": "symbol",
      "outputs": [
        {
          "internalType": "string",
          "name": "",
          "type": "string"
        }
      ],
      "stateMutability": "view",
      "type": "function"
    },
    {
      "inputs": [],
      "name": "totalAssets",
      "outputs": [
        {
          "internalType": "uint256",
          "name": "",
          "type": "uint256"
        }
      ],
      "stateMutability": "view",
      "type": "function"
    },
    {
      "inputs": [],
      "name": "totalOutstandingPrincipal",
      "outputs": [
        {
          "internalType": "uint256",
          "name": "",
          "type": "uint256"
        }
      ],
      "stateMutability": "view",
      "type": "function"
    },
    {
      "inputs": [],
      "name": "totalSupply",
      "outputs": [
        {
          "internalType": "uint256",
          "name": "",
          "type": "uint256"
        }
      ],
      "stateMutability": "view",
      "type": "function"
    },
    {
      "inputs": [
        {
          "internalType": "address",
          "name": "to",
          "type": "address"
        },
        {
          "internalType": "uint256",
          "name": "value",
          "type": "uint256"
        }
      ],
      "name": "transfer",
      "outputs": [
        {
          "internalType": "bool",
          "name": "",
          "type": "bool"
        }
      ],
      "stateMutability": "nonpayable",
      "type": "function"
    },
    {
      "inputs": [
        {
          "internalType": "address",
          "name": "from",
          "type": "address"
        },
        {
          "internalType": "address",
          "name": "to",
          "type": "address"
        },
        {
          "internalType": "uint256",
          "name": "value",
          "type": "uint256"
        }
      ],
      "name": "transferFrom",
      "outputs": [
        {
          "internalType": "bool",
          "name": "",
          "type": "bool"
        }
      ],
      "stateMutability": "nonpayable",
      "type": "function"
    },
    {
      "inputs": [
        {
          "internalType": "address",
          "name": "newOwner",
          "type": "address"
        }
      ],
      "name": "transferOwnership",
      "outputs": [],
      "stateMutability": "nonpayable",
      "type": "function"
    },
    {
      "inputs": [
        {
          "internalType": "uint256",
          "name": "assets",
          "type": "uint256"
        },
        {
          "internalType": "address",
          "name": "receiver",
          "type": "address"
        },
        {
          "internalType": "address",
          "name": "owner",
          "type": "address"
        }
      ],
      "name": "withdraw",
      "outputs": [
        {
          "internalType": "uint256",
          "name": "",
          "type": "uint256"
        }
      ],
      "stateMutability": "nonpayable",
      "type": "function"
    }
  ],
  "bytecode": "0x61018060405234801562000011575f80fd5b5060405162002b0c38038062002b0c83398101604081905262000034916200063d565b808a84846003620000468382620007d5565b506004620000558282620007d5565b5050505f806200006b836200037260201b60201c565b91509150816200007d5760126200007f565b805b60ff1660a05250506001600160a01b039081166080528116620000bc57604051631e4fbdf760e01b81525f60048201526024015b60405180910390fd5b620000c78162000451565b5060016006556001600160a01b038916620001255760405162461bcd60e51b815260206004820152601960248201527f4167726f5661756c743a2077686974656c697374207a65726f000000000000006044820152606401620000b3565b6001600160a01b0388166200017d5760405162461bcd60e51b815260206004820152601860248201527f4167726f5661756c743a207265676973747279207a65726f00000000000000006044820152606401620000b3565b6001600160a01b038716620001d55760405162461bcd60e51b815260206004820152601460248201527f4167726f5661756c743a206e6f7465207a65726f0000000000000000000000006044820152606401620000b3565b60018660ff1610158015620001ee575060058660ff1611155b6200023c5760405162461bcd60e51b815260206004820152601760248201527f4167726f5661756c743a20626164206d696e20746965720000000000000000006044820152606401620000b3565b8560ff168560ff161015801562000257575060058560ff1611155b620002a55760405162461bcd60e51b815260206004820152601760248201527f4167726f5661756c743a20626164206d617820746965720000000000000000006044820152606401620000b3565b6001600160a01b03808a1660c05288811660e05287166101005260ff808716610120528516610140528351156101608190528062000361575f5b85518110156200035f575f868281518110620002ff57620002ff620008a1565b60200260200101519050600160075f836006811115620003235762000323620008b5565b6006811115620003375762000337620008b5565b815260208101919091526040015f20805460ff191691151591909117905550600101620002df565b505b5050505050505050505050620008fe565b60408051600481526024810182526020810180516001600160e01b031663313ce56760e01b17905290515f918291829182916001600160a01b03871691620003ba91620008c9565b5f60405180830381855afa9150503d805f8114620003f4576040519150601f19603f3d011682016040523d82523d5f602084013e620003f9565b606091505b50915091508180156200040e57506020815110155b1562000445575f818060200190518101906200042b9190620008e6565b905060ff811162000443576001969095509350505050565b505b505f9485945092505050565b600580546001600160a01b038381166001600160a01b0319831681179093556040519116919082907f8be0079c531659141344cd1fd0a4f28419497f9722a3daafe3b4186f6b6457e0905f90a35050565b80516001600160a01b0381168114620004b9575f80fd5b919050565b805160ff81168114620004b9575f80fd5b634e487b7160e01b5f52604160045260245ffd5b604051601f8201601f191681016001600160401b03811182821017156200050e576200050e620004cf565b604052919050565b5f82601f83011262000526575f80fd5b815160206001600160401b03821115620005445762000544620004cf565b8160051b62000555828201620004e3565b92835284810182019282810190878511156200056f575f80fd5b83870192505b848310156200059d578251600781106200058d575f80fd5b8252918301919083019062000575565b979650505050505050565b5f5b83811015620005c4578181015183820152602001620005aa565b50505f910152565b5f82601f830112620005dc575f80fd5b81516001600160401b03811115620005f857620005f8620004cf565b6200060d601f8201601f1916602001620004e3565b81815284602083860101111562000622575f80fd5b62000635826020830160208701620005a8565b949350505050565b5f805f805f805f805f806101408b8d03121562000658575f80fd5b620006638b620004a2565b99506200067360208c01620004a2565b98506200068360408c01620004a2565b97506200069360608c01620004a2565b9650620006a360808c01620004be565b9550620006b360a08c01620004be565b60c08c01519095506001600160401b0380821115620006d0575f80fd5b620006de8e838f0162000516565b955060e08d0151915080821115620006f4575f80fd5b620007028e838f01620005cc565b94506101008d015191508082111562000719575f80fd5b50620007288d828e01620005cc565b9250506200073a6101208c01620004a2565b90509295989b9194979a5092959850565b600181811c908216806200076057607f821691505b6020821081036200077f57634e487b7160e01b5f52602260045260245ffd5b50919050565b601f821115620007d057805f5260205f20601f840160051c81016020851015620007ac5750805b601f840160051c820191505b81811015620007cd575f8155600101620007b8565b50505b505050565b81516001600160401b03811115620007f157620007f1620004cf565b62000809816200080284546200074b565b8462000785565b602080601f8311600181146200083f575f8415620008275750858301515b5f19600386901b1c1916600185901b17855562000899565b5f85815260208120601f198616915b828110156200086f578886015182559484019460019091019084016200084e565b50858210156200088d57878501515f19600388901b60f8161c191681555b505060018460011b0185555b505050505050565b634e487b7160e01b5f52603260045260245ffd5b634e487b7160e01b5f52602160045260245ffd5b5f8251620008dc818460208701620005a8565b9190910192915050565b5f60208284031215620008f7575f80fd5b5051919050565b60805160a05160c05160e05161010051610120516101405161016051612157620009b55f395f81816105950152610a2f01525f818161045d01526109aa01525f8181610337015261097501525f81816103c501528181610cd801526111de01525f81816102b601526108b501525f81816102fd01528181610e020152610ed801525f61076601525f8181610375015281816105dc01528181610b47015281816110e101528181611560015261181901526121575ff3fe608060405234801561000f575f80fd5b5060043610610234575f3560e01c80638da5cb5b11610135578063c6e6f592116100b4578063dd62ed3e11610079578063dd62ed3e14610558578063e4dd501d14610590578063ef8b30f7146104ea578063f2fde38b146105b7578063f51c879b146105ca575f80fd5b8063c6e6f592146104ea578063cad45a41146104fd578063ce96cb7714610510578063d8b025ac14610523578063d905777e14610545575f80fd5b8063b3d7f6b9116100fa578063b3d7f6b914610492578063b460af94146104a5578063ba087652146104b8578063bcbaed4f146104cb578063c63d75b614610399575f80fd5b80638da5cb5b1461042c57806394bf804d1461043d57806395d89b4114610450578063a2b4419014610458578063a9059cbb1461047f575f80fd5b80632c4029a6116101c15780634cdad506116101865780634cdad506146102685780636affe197146103c05780636e553f65146103e757806370a08231146103fa578063715018a614610422575f80fd5b80632c4029a614610332578063313ce5671461036b57806338d52e0f14610373578063402d267d1461039957806347ec71b6146103ad575f80fd5b80630a28a477116102075780630a28a4771461029e5780630da80980146102b157806318160ddd146102f05780631ff1856c146102f857806323b872dd1461031f575f80fd5b806301e1d1141461023857806306fdde031461025357806307a2d13a14610268578063095ea7b31461027b575b5f80fd5b6102406105d3565b6040519081526020015b60405180910390f35b61025b610675565b60405161024a9190611b2f565b610240610276366004611b61565b610705565b61028e610289366004611b93565b610716565b604051901515815260200161024a565b6102406102ac366004611b61565b61072d565b6102d87f000000000000000000000000000000000000000000000000000000000000000081565b6040516001600160a01b03909116815260200161024a565b600254610240565b6102d87f000000000000000000000000000000000000000000000000000000000000000081565b61028e61032d366004611bbb565b610739565b6103597f000000000000000000000000000000000000000000000000000000000000000081565b60405160ff909116815260200161024a565b61035961075e565b7f00000000000000000000000000000000000000000000000000000000000000006102d8565b6102406103a7366004611bf4565b505f1990565b6102406103bb366004611c0d565b61078a565b6102d87f000000000000000000000000000000000000000000000000000000000000000081565b6102406103f5366004611c59565b610dda565b610240610408366004611bf4565b6001600160a01b03165f9081526020819052604090205490565b61042a610e9d565b005b6005546001600160a01b03166102d8565b61024061044b366004611c59565b610eb0565b61025b610f67565b6103597f000000000000000000000000000000000000000000000000000000000000000081565b61028e61048d366004611b93565b610f76565b6102406104a0366004611b61565b610f83565b6102406104b3366004611c83565b610f8f565b6102406104c6366004611c83565b610fdc565b6102406104d9366004611b61565b60086020525f908152604090205481565b6102406104f8366004611b61565b611029565b61042a61050b366004611cbc565b611034565b61024061051e366004611bf4565b61128a565b61028e610531366004611ce8565b60076020525f908152604090205460ff1681565b610240610553366004611bf4565b6112ac565b610240610566366004611d03565b6001600160a01b039182165f90815260016020908152604080832093909416825291909152205490565b61028e7f000000000000000000000000000000000000000000000000000000000000000081565b61042a6105c5366004611bf4565b6112c9565b61024060095481565b5f6009546105fe7f000000000000000000000000000000000000000000000000000000000000000090565b6040516370a0823160e01b81523060048201526001600160a01b0391909116906370a0823190602401602060405180830381865afa158015610642573d5f803e3d5ffd5b505050506040513d601f19601f820116820180604052508101906106669190611d2b565b6106709190611d56565b905090565b60606003805461068490611d69565b80601f01602080910402602001604051908101604052809291908181526020018280546106b090611d69565b80156106fb5780601f106106d2576101008083540402835291602001916106fb565b820191905f5260205f20905b8154815290600101906020018083116106de57829003601f168201915b5050505050905090565b5f610710825f611306565b92915050565b5f3361072381858561133f565b5060019392505050565b5f610710826001611351565b5f33610746858285611381565b6107518585856113ea565b60019150505b9392505050565b5f61067060097f0000000000000000000000000000000000000000000000000000000000000000611da1565b5f610793611447565b61079b611471565b6001600160a01b0386166107ef5760405162461bcd60e51b815260206004820152601660248201527520b3b937ab30bab63a1d103d32b937903330b936b2b960511b60448201526064015b60405180910390fd5b6001600160a01b0382166108455760405162461bcd60e51b815260206004820152601960248201527f4167726f5661756c743a207a65726f20726563697069656e740000000000000060448201526064016107e6565b5f85116108945760405162461bcd60e51b815260206004820152601960248201527f4167726f5661756c743a207a65726f207072696e636970616c0000000000000060448201526064016107e6565b6040516373b04e0b60e11b81526001600160a01b0387811660048301525f917f00000000000000000000000000000000000000000000000000000000000000009091169063e7609c16906024015f60405180830381865afa1580156108fb573d5f803e3d5ffd5b505050506040513d5f823e601f3d908101601f191682016040526109229190810190611e99565b80519091506109735760405162461bcd60e51b815260206004820152601e60248201527f4167726f5661756c743a206661726d6572206e6f7420617070726f766564000060448201526064016107e6565b7f000000000000000000000000000000000000000000000000000000000000000060ff16816020015160ff16101580156109d757507f000000000000000000000000000000000000000000000000000000000000000060ff16816020015160ff1611155b610a2d5760405162461bcd60e51b815260206004820152602160248201527f4167726f5661756c743a207269736b2074696572206f7574206f662072616e676044820152606560f81b60648201526084016107e6565b7f0000000000000000000000000000000000000000000000000000000000000000610ae05760075f82604001516006811115610a6b57610a6b611f4e565b6006811115610a7c57610a7c611f4e565b815260208101919091526040015f205460ff16610adb5760405162461bcd60e51b815260206004820181905260248201527f4167726f5661756c743a2063726f702074797065206e6f7420616c6c6f77656460448201526064016107e6565b610b44565b5f81604001516006811115610af757610af7611f4e565b03610b445760405162461bcd60e51b815260206004820152601760248201527f4167726f5661756c743a20756e6b6e6f776e2063726f7000000000000000000060448201526064016107e6565b5f7f00000000000000000000000000000000000000000000000000000000000000006040516370a0823160e01b81523060048201529091505f906001600160a01b038316906370a0823190602401602060405180830381865afa158015610bad573d5f803e3d5ffd5b505050506040513d601f19601f82011682018060405250810190610bd19190611d2b565b905087811015610c2d5760405162461bcd60e51b815260206004820152602160248201527f4167726f5661756c743a20696e73756666696369656e74206c697175696469746044820152607960f81b60648201526084016107e6565b60405163a9059cbb60e01b81526001600160a01b038681166004830152602482018a905283169063a9059cbb906044016020604051808303815f875af1158015610c79573d5f803e3d5ffd5b505050506040513d601f19601f82011682018060405250810190610c9d9190611f62565b5060405163056039c560e21b81523060048201526001600160a01b038a81166024830152604482018a905260648201899052608482018890527f00000000000000000000000000000000000000000000000000000000000000001690631580e7149060a4016020604051808303815f875af1158015610d1e573d5f803e3d5ffd5b505050506040513d601f19601f82011682018060405250810190610d429190611d2b565b5f8181526008602052604081208a9055600980549296508a92909190610d69908490611d56565b909155505060408051898152602081018990529081018790526001600160a01b0386811660608301528a169085907f1837fc5e84169e03b38edc46be6a96e2160ae96d3d57f2db28003eba9a4d20509060800160405180910390a3505050610dd16001600655565b95945050505050565b5f610de3611447565b604051633af32abf60e01b81526001600160a01b0383811660048301527f00000000000000000000000000000000000000000000000000000000000000001690633af32abf90602401602060405180830381865afa158015610e47573d5f803e3d5ffd5b505050506040513d601f19601f82011682018060405250810190610e6b9190611f62565b610e875760405162461bcd60e51b81526004016107e690611f7b565b610e91838361149e565b90506107106001600655565b610ea5611471565b610eae5f6114c1565b565b5f610eb9611447565b604051633af32abf60e01b81526001600160a01b0383811660048301527f00000000000000000000000000000000000000000000000000000000000000001690633af32abf90602401602060405180830381865afa158015610f1d573d5f803e3d5ffd5b505050506040513d601f19601f82011682018060405250810190610f419190611f62565b610f5d5760405162461bcd60e51b81526004016107e690611f7b565b610e918383611512565b60606004805461068490611d69565b5f336107238185856113ea565b5f610710826001611306565b5f80610f9a8361128a565b905080851115610fc357828582604051633fa733bb60e21b81526004016107e693929190611fbe565b5f610fcd8661072d565b9050610dd1338686898561152d565b5f80610fe7836112ac565b90508085111561101057828582604051632e52afbb60e21b81526004016107e693929190611fbe565b5f61101a86610705565b9050610dd1338686848a61152d565b5f610710825f611351565b61103c611447565b5f81116110845760405162461bcd60e51b81526020600482015260166024820152751059dc9bd5985d5b1d0e881e995c9bc8185b5bdd5b9d60521b60448201526064016107e6565b5f82815260086020526040902054806110df5760405162461bcd60e51b815260206004820152601960248201527f4167726f5661756c743a206e6f206f75747374616e64696e670000000000000060448201526064016107e6565b7f00000000000000000000000000000000000000000000000000000000000000006040516323b872dd60e01b8152336004820152306024820152604481018490526001600160a01b0391909116906323b872dd906064016020604051808303815f875af1158015611152573d5f803e3d5ffd5b505050506040513d601f19601f820116820180604052508101906111769190611f62565b505f8183116111855782611187565b815b90505f6111948284611fdf565b5f8681526008602052604081208290556009805492935084929091906111bb908490611fdf565b90915550505f81900361123e5760405163b2b3be9960e01b8152600481018690527f00000000000000000000000000000000000000000000000000000000000000006001600160a01b03169063b2b3be99906024015f604051808303815f87803b158015611227575f80fd5b505af1158015611239573d5f803e3d5ffd5b505050505b604080518581526020810184905286917f8bacbe6051e7205a511dd3beb96381ae1d8eebaa3774c6af64b357036542a06b910160405180910390a25050506112866001600655565b5050565b6001600160a01b0381165f90815260208190526040812054610710905f611306565b6001600160a01b0381165f90815260208190526040812054610710565b6112d1611471565b6001600160a01b0381166112fa57604051631e4fbdf760e01b81525f60048201526024016107e6565b611303816114c1565b50565b5f6107576113126105d3565b61131d906001611d56565b6113296009600a6120d2565b6002546113369190611d56565b859190856115ed565b61134c838383600161162f565b505050565b5f6107576113616009600a6120d2565b60025461136e9190611d56565b6113766105d3565b611336906001611d56565b6001600160a01b038381165f908152600160209081526040808320938616835292905220545f198110156113e457818110156113d657828183604051637dc7a0d960e11b81526004016107e693929190611fbe565b6113e484848484035f61162f565b50505050565b6001600160a01b03831661141357604051634b637e8f60e11b81525f60048201526024016107e6565b6001600160a01b03821661143c5760405163ec442f0560e01b81525f60048201526024016107e6565b61134c838383611701565b60026006540361146a57604051633ee5aeb560e01b815260040160405180910390fd5b6002600655565b6005546001600160a01b03163314610eae5760405163118cdaa760e01b81523360048201526024016107e6565b5f5f195f6114ab85611029565b90506114b933858784611814565b949350505050565b600580546001600160a01b038381166001600160a01b0319831681179093556040519116919082907f8be0079c531659141344cd1fd0a4f28419497f9722a3daafe3b4186f6b6457e0905f90a35050565b5f5f195f61151f85610f83565b90506114b933858388611814565b826001600160a01b0316856001600160a01b03161461155157611551838683611381565b61155b8382611898565b6115867f000000000000000000000000000000000000000000000000000000000000000085846118cc565b826001600160a01b0316846001600160a01b0316866001600160a01b03167ffbde797d201c681b91056529119e0b02407c7bb96a4a2c75c01fc9667232c8db85856040516115de929190918252602082015260400190565b60405180910390a45050505050565b5f61161a6115fa8361192b565b801561161557505f8480611610576116106120e0565b868809115b151590565b611625868686611957565b610dd19190611d56565b6001600160a01b0384166116585760405163e602df0560e01b81525f60048201526024016107e6565b6001600160a01b03831661168157604051634a1406b160e11b81525f60048201526024016107e6565b6001600160a01b038085165f90815260016020908152604080832093871683529290522082905580156113e457826001600160a01b0316846001600160a01b03167f8c5be1e5ebec7d5bd14f71427d1e84f3dd0314c0f7b2291e5b200ac8c7c3b925846040516116f391815260200190565b60405180910390a350505050565b6001600160a01b03831661172b578060025f8282546117209190611d56565b909155506117889050565b6001600160a01b0383165f908152602081905260409020548181101561176a5783818360405163391434e360e21b81526004016107e693929190611fbe565b6001600160a01b0384165f9081526020819052604090209082900390555b6001600160a01b0382166117a4576002805482900390556117c2565b6001600160a01b0382165f9081526020819052604090208054820190555b816001600160a01b0316836001600160a01b03167fddf252ad1be2c89b69c2b068fc378daa952ba7f163c4a11628f55a4df523b3ef8360405161180791815260200190565b60405180910390a3505050565b6118407f0000000000000000000000000000000000000000000000000000000000000000853085611a07565b61184a8382611a40565b826001600160a01b0316846001600160a01b03167fdcbc1c05240f31ff3ad067ef1ee35ce4997762752e3a095284754544f4c709d784846040516116f3929190918252602082015260400190565b6001600160a01b0382166118c157604051634b637e8f60e11b81525f60048201526024016107e6565b611286825f83611701565b6040516001600160a01b0383811660248301526044820183905261134c91859182169063a9059cbb906064015b604051602081830303815290604052915060e01b6020820180516001600160e01b038381831617835250505050611a74565b5f600282600381111561194057611940611f4e565b61194a91906120f4565b60ff166001149050919050565b5f805f6119648686611ae0565b91509150815f036119885783818161197e5761197e6120e0565b0492505050610757565b81841161199f5761199f6003851502601118611afc565b5f848688095f868103871696879004966002600389028118808a02820302808a02820302808a02820302808a02820302808a02820302808a02909103029181900381900460010185841190960395909502919093039390930492909217029150509392505050565b6040516001600160a01b0384811660248301528381166044830152606482018390526113e49186918216906323b872dd906084016118f9565b6001600160a01b038216611a695760405163ec442f0560e01b81525f60048201526024016107e6565b6112865f8383611701565b5f8060205f8451602086015f885af180611a93576040513d5f823e3d81fd5b50505f513d91508115611aaa578060011415611ab7565b6001600160a01b0384163b155b156113e457604051635274afe760e01b81526001600160a01b03851660048201526024016107e6565b5f805f1983850993909202808410938190039390930393915050565b634e487b715f52806020526024601cfd5b5f5b83811015611b27578181015183820152602001611b0f565b50505f910152565b602081525f8251806020840152611b4d816040850160208701611b0d565b601f01601f19169190910160400192915050565b5f60208284031215611b71575f80fd5b5035919050565b80356001600160a01b0381168114611b8e575f80fd5b919050565b5f8060408385031215611ba4575f80fd5b611bad83611b78565b946020939093013593505050565b5f805f60608486031215611bcd575f80fd5b611bd684611b78565b9250611be460208501611b78565b9150604084013590509250925092565b5f60208284031215611c04575f80fd5b61075782611b78565b5f805f805f60a08688031215611c21575f80fd5b611c2a86611b78565b9450602086013593506040860135925060608601359150611c4d60808701611b78565b90509295509295909350565b5f8060408385031215611c6a575f80fd5b82359150611c7a60208401611b78565b90509250929050565b5f805f60608486031215611c95575f80fd5b83359250611ca560208501611b78565b9150611cb360408501611b78565b90509250925092565b5f8060408385031215611ccd575f80fd5b50508035926020909101359150565b60078110611303575f80fd5b5f60208284031215611cf8575f80fd5b813561075781611cdc565b5f8060408385031215611d14575f80fd5b611d1d83611b78565b9150611c7a60208401611b78565b5f60208284031215611d3b575f80fd5b5051919050565b634e487b7160e01b5f52601160045260245ffd5b8082018082111561071057610710611d42565b600181811c90821680611d7d57607f821691505b602082108103611d9b57634e487b7160e01b5f52602260045260245ffd5b50919050565b60ff818116838216019081111561071057610710611d42565b634e487b7160e01b5f52604160045260245ffd5b60405160a0810167ffffffffffffffff81118282101715611df157611df1611dba565b60405290565b80518015158114611b8e575f80fd5b805160068110611b8e575f80fd5b5f82601f830112611e23575f80fd5b815167ffffffffffffffff80821115611e3e57611e3e611dba565b604051601f8301601f19908116603f01168101908282118183101715611e6657611e66611dba565b81604052838152866020858801011115611e7e575f80fd5b611e8f846020830160208901611b0d565b9695505050505050565b5f60208284031215611ea9575f80fd5b815167ffffffffffffffff80821115611ec0575f80fd5b9083019060a08286031215611ed3575f80fd5b611edb611dce565b611ee483611df7565b8152602083015160ff81168114611ef9575f80fd5b60208201526040830151611f0c81611cdc565b6040820152611f1d60608401611e06565b6060820152608083015182811115611f33575f80fd5b611f3f87828601611e14565b60808301525095945050505050565b634e487b7160e01b5f52602160045260245ffd5b5f60208284031215611f72575f80fd5b61075782611df7565b60208082526023908201527f4167726f5661756c743a207265636569766572206e6f742077686974656c69736040820152621d195960ea1b606082015260800190565b6001600160a01b039390931683526020830191909152604082015260600190565b8181038181111561071057610710611d42565b600181815b8085111561202c57815f190482111561201257612012611d42565b8085161561201f57918102915b93841c9390800290611ff7565b509250929050565b5f8261204257506001610710565b8161204e57505f610710565b8160018114612064576002811461206e5761208a565b6001915050610710565b60ff84111561207f5761207f611d42565b50506001821b610710565b5060208310610133831016604e8410600b84101617156120ad575081810a610710565b6120b78383611ff2565b805f19048211156120ca576120ca611d42565b029392505050565b5f61075760ff841683612034565b634e487b7160e01b5f52601260045260245ffd5b5f60ff83168061211257634e487b7160e01b5f52601260045260245ffd5b8060ff8416069150509291505056fea26469706673582212207ab1876aff3cc1ccd9ebdd12ba330d1fdf6276704b1014ae6c20b0d97690bb4164736f6c63430008180033",
  "linkReferences": {},
  "deployedLinkReferences": {},
  "immutableReferences": {
    "1160": [
      {
        "length": 32,
        "start": 885
      },
      {
        "length": 32,
        "start": 1500
      },
      {
        "length": 32,
        "start": 2887
      },
      {
        "length": 32,
        "start": 4321
      },
      {
        "length": 32,
        "start": 5472
      },
      {
        "length": 32,
        "start": 6169
      }
    ],
    "1162": [
      {
        "length": 32,
        "start": 1894
      }
    ],
    "8736": [
      {
        "length": 32,
        "start": 765
      },
      {
        "length": 32,
        "start": 3586
      },
      {
        "length": 32,
        "start": 3800
      }
    ],
    "8739": [
      {
        "length": 32,
        "start": 694
      },
      {
        "length": 32,
        "start": 2229
      }
    ],
    "8742": [
      {
        "length": 32,
        "start": 965
      },
      {
        "length": 32,
        "start": 3288
      },
      {
        "length": 32,
        "start": 4574
      }
    ],
    "8744": [
      {
        "length": 32,
        "start": 823
      },
      {
        "length": 32,
        "start": 2421
      }
    ],
    "8746": [
      {
        "length": 32,
        "start": 1117
      },
      {
        "length": 32,
        "start": 2474
      }
    ],
    "8748": [
      {
        "length": 32,
        "start": 1429
      },
      {
        "length": 32,
        "start": 2607
      }
    ]
  },
  "inputSourceName": "project/contracts/AgroVault.sol",
  "buildInfoId": "solc-0_8_24-5e4343740534c91ed555ef9e475fa962abbb6213"
}