{
  "_format": "hh3-artifact-1",
  "contractName": "FarmerRegistry",
  "sourceName": "contracts/FarmerRegistry.sol",
  "abi": [
    {
      "inputs": [
        {
          "internalType": "address",
          "name": "initialOwner",
          "type": "address"
        }
      ],
      "stateMutability": "nonpayable",
      "type": "constructor"
    },
    {
      "inputs": [
        {
          "internalType": "address",
          "name": "owner",
          "type": "address"
        }
      ],
      "name": "OwnableInvalidOwner",
      "type": "error"
    },
    {
      "inputs": [
        {
          "internalType": "address",
          "name": "account",
          "type": "address"
        }
      ],
      "name": "OwnableUnauthorizedAccount",
      "type": "error"
    },
    {
      "anonymous": false,
      "inputs": [
        {
          "indexed": true,
          "internalType": "address",
          "name": "farmer",
          "type": "address"
        },
        {
          "components": [
            {
              "internalType": "bool",
              "name": "approved",
              "type": "bool"
            },
            {
              "internalType": "uint8",
              "name": "riskTier",
              "type": "uint8"
            },
            {
              "internalType": "enum AgroTypes.CropType",
              "name": "cropType",
              "type": "uint8"
            },
            {
              "internalType": "enum AgroTypes.Region",
              "name": "region",
              "type": "uint8"
            },
            {
              "internalType": "string",
              "name": "metadataURI",
              "type": "string"
            }
          ],
          "indexed": false,
          "internalType": "struct AgroTypes.FarmerData",
          "name": "data",
          "type": "tuple"
        }
      ],
      "name": "FarmerRegistered",
      "type": "event"
    },
    {
      "anonymous": false,
      "inputs": [
        {
          "indexed": true,
          "internalType": "address",
          "name": "farmer",
          "type": "address"
        },
        {
          "components": [
            {
              "internalType": "bool",
              "name": "approved",
              "type": "bool"
            },
            {
              "internalType": "uint8",
              "name": "riskTier",
              "type": "uint8"
            },
            {
              "internalType": "enum AgroTypes.CropType",
              "name": "cropType",
              "type": "uint8"
            },
            {
              "internalType": "enum AgroTypes.Region",
              "name": "region",
              "type": "uint8"
            },
            {
              "internalType": "string",
              "name": "metadataURI",
              "type": "string"
            }
          ],
          "indexed": false,
          "internalType": "struct AgroTypes.FarmerData",
          "name": "data",
          "type": "tuple"
        }
      ],
      "name": "FarmerUpdated",
      "type": "event"
    },
    {
      "anonymous": false,
      "inputs": [
        {
          "indexed": true,
          "internalType": "address",
          "name": "previousOwner",
          "type": "address"
        },
        {
          "indexed": true,
          "internalType": "address",
          "name": "newOwner",
          "type": "address"
        }
      ],
      "name": "OwnershipTransferred",
      "type": "event"
    },
    {
      "inputs": [
        {
          "internalType": "address",
          "name": "farmer",
          "type": "address"
        }
      ],
      "name": "getFarmer",
      "outputs": [
        {
          "components": [
            {
              "internalType": "bool",
              "name": "approved",
              "type": "bool"
            },
            {
              "internalType": "uint8",
              "name": "riskTier",
              "type": "uint8"
            },
            {
              "internalType": "enum AgroTypes.CropType",
              "name": "cropType",
              "type": "uint8"
            },
            {
              "internalType": "enum AgroTypes.Region",
              "name": "region",
              "type": "uint8"
            },
            {
              "internalType": "string",
              "name": "metadataURI",
              "type": "string"
            }
          ],
          "internalType": "struct AgroTypes.FarmerData",
          "name": "",
          "type": "tuple"
        }
      ],
      "stateMutability": "view",
      "type": "function"
    },
    {
      "inputs": [],
      "name": "owner",
      "outputs": [
        {
          "internalType": "address",
          "name": "",
          "type": "address"
        }
      ],
      "stateMutability": "view",
      "type": "function"
    },
    {
      "inputs": [
        {
          "internalType": "address",
          "name": "farmer",
          "type": "address"
        },
        {
          "internalType": "bool",
          "name": "approved",
          "type": "bool"
        },
        {
          "internalType": "uint8",
          "name": "riskTier",
          "type": "uint8"
        },
        {
          "internalType": "enum AgroTypes.CropType",
          "name": "cropType",
          "type": "uint8"
        },
        {
          "internalType": "enum AgroTypes.Region",
          "name": "region",
          "type": "uint8"
        },
        {
          "internalType": "string",
          "name": "metadataURI",
          "type": "string"
        }
      ],
      "name": "registerOrUpdateFarmer",
      "outputs": [],
      "stateMutability": "nonpayable",
      "type": "function"
    },
    {
      "inputs": [],
      "name": "renounceOwnership",
      "outputs": [],
      "stateMutability": "nonpayable",
      "type": "function"
    },
    {
      "inputs": [
        {
          "internalType": "address",
          "name": "newOwner",
          "type": "address"
        }
      ],
      "name": "transferOwnership",
      "outputs": [],
      "stateMutability": "nonpayable",
      "type": "function"
    }
  ],
  "bytecode": "0x608060405234801561000f575f80fd5b50604051610a4b380380610a4b83398101604081905261002e916100bb565b806001600160a01b03811661005c57604051631e4fbdf760e01b81525f600482015260240160405180910390fd5b6100658161006c565b50506100e8565b5f80546001600160a01b038381166001600160a01b0319831681178455604051919092169283917f8be0079c531659141344cd1fd0a4f28419497f9722a3daafe3b4186f6b6457e09190a35050565b5f602082840312156100cb575f80fd5b81516001600160a01b03811681146100e1575f80fd5b9392505050565b610956806100f55f395ff3fe608060405234801561000f575f80fd5b5060043610610055575f3560e01c8063715018a6146100595780638da5cb5b14610063578063acc5788714610082578063e7609c1614610095578063f2fde38b146100b5575b5f80fd5b6100616100c8565b005b5f546040516001600160a01b0390911681526020015b60405180910390f35b61006161009036600461056a565b6100db565b6100a86100a336600461060d565b6102d5565b6040516100799190610665565b6100616100c336600461060d565b610444565b6100d0610481565b6100d95f6104ad565b565b6100e3610481565b6001600160a01b03871661013e5760405162461bcd60e51b815260206004820152601c60248201527f4661726d657252656769737472793a207a65726f20616464726573730000000060448201526064015b60405180910390fd5b60018560ff1610158015610156575060058560ff1611155b6101ac5760405162461bcd60e51b815260206004820152602160248201527f4661726d657252656769737472793a20696e76616c6964207269736b207469656044820152603960f91b6064820152608401610135565b6001600160a01b0387165f908152600160205260409020805461ffff191687151561ff0019161761010060ff881602178082558590829062ff00001916620100008360068111156101ff576101ff61062d565b021790555080548490829063ff000000191663010000008360058111156102285761022861062d565b02179055506001810161023c838583610791565b50861561028957876001600160a01b03167fa9be815d66feda046138f54fc4d6795a3ac204d5ef613a29048c08dc3afa874d8260405161027c919061084b565b60405180910390a26102cb565b876001600160a01b03167f2d22bee710f7b8c560bd1e380bd99e3d0253787cb2d106e518a68f3a15678bab826040516102c2919061084b565b60405180910390a25b5050505050505050565b6103056040805160a0810182525f80825260208201819052909182019081526020015f8152602001606081525090565b6001600160a01b0382165f90815260016020908152604091829020825160a081018452815460ff8082161515835261010082048116948301949094529093919291840191620100009091041660068111156103625761036261062d565b60068111156103735761037361062d565b815281546020909101906301000000900460ff1660058111156103985761039861062d565b60058111156103a9576103a961062d565b81526020016001820180546103bd9061070d565b80601f01602080910402602001604051908101604052809291908181526020018280546103e99061070d565b80156104345780601f1061040b57610100808354040283529160200191610434565b820191905f5260205f20905b81548152906001019060200180831161041757829003601f168201915b5050505050815250509050919050565b61044c610481565b6001600160a01b03811661047557604051631e4fbdf760e01b81525f6004820152602401610135565b61047e816104ad565b50565b5f546001600160a01b031633146100d95760405163118cdaa760e01b8152336004820152602401610135565b5f80546001600160a01b038381166001600160a01b0319831681178455604051919092169283917f8be0079c531659141344cd1fd0a4f28419497f9722a3daafe3b4186f6b6457e09190a35050565b80356001600160a01b0381168114610512575f80fd5b919050565b803560068110610512575f80fd5b5f8083601f840112610535575f80fd5b50813567ffffffffffffffff81111561054c575f80fd5b602083019150836020828501011115610563575f80fd5b9250929050565b5f805f805f805f60c0888a031215610580575f80fd5b610589886104fc565b96506020880135801515811461059d575f80fd5b9550604088013560ff811681146105b2575f80fd5b94506060880135600781106105c5575f80fd5b93506105d360808901610517565b925060a088013567ffffffffffffffff8111156105ee575f80fd5b6105fa8a828b01610525565b989b979a50959850939692959293505050565b5f6020828403121561061d575f80fd5b610626826104fc565b9392505050565b634e487b7160e01b5f52602160045260245ffd5b600781106106515761065161062d565b9052565b600681106106515761065161062d565b5f602080835283511515602084015260ff602085015116604084015260408401516106936060850182610641565b5060608401516106a66080850182610655565b50608084015160a08085015280518060c08601525f5b818110156106d85782810184015186820160e0015283016106bc565b505f60e0828701015260e0601f19601f830116860101935050505092915050565b634e487b7160e01b5f52604160045260245ffd5b600181811c9082168061072157607f821691505b60208210810361073f57634e487b7160e01b5f52602260045260245ffd5b50919050565b601f82111561078c57805f5260205f20601f840160051c8101602085101561076a5750805b601f840160051c820191505b81811015610789575f8155600101610776565b50505b505050565b67ffffffffffffffff8311156107a9576107a96106f9565b6107bd836107b7835461070d565b83610745565b5f601f8411600181146107ee575f85156107d75750838201355b5f19600387901b1c1916600186901b178355610789565b5f83815260208120601f198716915b8281101561081d57868501358255602094850194600190920191016107fd565b5086821015610839575f1960f88860031b161c19848701351681555b505060018560011b0183555050505050565b5f6020808352835460ff81161515602085015260ff8160081c16604085015261087d6060850160ff8360101c16610641565b6108906080850160ff8360181c16610655565b50600180850160a0808601525f81546108a88161070d565b8060c089015260e0600183165f81146108c857600181146108e457610911565b60ff19841660e08b015260e083151560051b8b01019450610911565b855f5260205f205f5b848110156109085781548c82018501529088019089016108ed565b8b0160e0019550505b5092999850505050505050505056fea26469706673582212203526c957c12f877fed0803a540ab395113a98ed2bae6bbae71bb2b78bb78e60764736f6c63430008180033",
  "linkReferences": {},
  "deployedLinkReferences": {},
  "immutableReferences": {},
  "inputSourceName": "project/contracts/FarmerRegistry.sol",
  "buildInfoId": "solc-0_8_24-e21c2f5703c23a886933be0a1696d0986e80bbe6"
}