{"npm/@semaphore-protocol/contracts@4.14.0/Semaphore.sol":{"Semaphore":{"abi":[{"inputs":[{"internalType":"contract ISemaphoreVerifier","name":"_verifier","type":"address"}],"stateMutability":"nonpayable","type":"constructor"},{"inputs":[],"name":"LeafAlreadyExists","type":"error"},{"inputs":[],"name":"LeafCannotBeZero","type":"error"},{"inputs":[],"name":"LeafDoesNotExist","type":"error"},{"inputs":[],"name":"LeafGreaterThanSnarkScalarField","type":"error"},{"inputs":[],"name":"Semaphore__CallerIsNotTheGroupAdmin","type":"error"},{"inputs":[],"name":"Semaphore__CallerIsNotThePendingGroupAdmin","type":"error"},{"inputs":[],"name":"Semaphore__GroupDoesNotExist","type":"error"},{"inputs":[],"name":"Semaphore__GroupHasNoMembers","type":"error"},{"inputs":[],"name":"Semaphore__InvalidProof","type":"error"},{"inputs":[],"name":"Semaphore__MerkleTreeDepthIsNotSupported","type":"error"},{"inputs":[],"name":"Semaphore__MerkleTreeRootIsExpired","type":"error"},{"inputs":[],"name":"Semaphore__MerkleTreeRootIsNotPartOfTheGroup","type":"error"},{"inputs":[],"name":"Semaphore__YouAreUsingTheSameNullifierTwice","type":"error"},{"inputs":[],"name":"WrongSiblingNodes","type":"error"},{"anonymous":false,"inputs":[{"indexed":true,"internalType":"uint256","name":"groupId","type":"uint256"},{"indexed":true,"internalType":"address","name":"oldAdmin","type":"address"},{"indexed":true,"internalType":"address","name":"newAdmin","type":"address"}],"name":"GroupAdminPending","type":"event"},{"anonymous":false,"inputs":[{"indexed":true,"internalType":"uint256","name":"groupId","type":"uint256"},{"indexed":true,"internalType":"address","name":"oldAdmin","type":"address"},{"indexed":true,"internalType":"address","name":"newAdmin","type":"address"}],"name":"GroupAdminUpdated","type":"event"},{"anonymous":false,"inputs":[{"indexed":true,"internalType":"uint256","name":"groupId","type":"uint256"}],"name":"GroupCreated","type":"event"},{"anonymous":false,"inputs":[{"indexed":true,"internalType":"uint256","name":"groupId","type":"uint256"},{"indexed":false,"internalType":"uint256","name":"oldMerkleTreeDuration","type":"uint256"},{"indexed":false,"internalType":"uint256","name":"newMerkleTreeDuration","type":"uint256"}],"name":"GroupMerkleTreeDurationUpdated","type":"event"},{"anonymous":false,"inputs":[{"indexed":true,"internalType":"uint256","name":"groupId","type":"uint256"},{"indexed":false,"internalType":"uint256","name":"index","type":"uint256"},{"indexed":false,"internalType":"uint256","name":"identityCommitment","type":"uint256"},{"indexed":false,"internalType":"uint256","name":"merkleTreeRoot","type":"uint256"}],"name":"MemberAdded","type":"event"},{"anonymous":false,"inputs":[{"indexed":true,"internalType":"uint256","name":"groupId","type":"uint256"},{"indexed":false,"internalType":"uint256","name":"index","type":"uint256"},{"indexed":false,"internalType":"uint256","name":"identityCommitment","type":"uint256"},{"indexed":false,"internalType":"uint256","name":"merkleTreeRoot","type":"uint256"}],"name":"MemberRemoved","type":"event"},{"anonymous":false,"inputs":[{"indexed":true,"internalType":"uint256","name":"groupId","type":"uint256"},{"indexed":false,"internalType":"uint256","name":"index","type":"uint256"},{"indexed":false,"internalType":"uint256","name":"identityCommitment","type":"uint256"},{"indexed":false,"internalType":"uint256","name":"newIdentityCommitment","type":"uint256"},{"indexed":false,"internalType":"uint256","name":"merkleTreeRoot","type":"uint256"}],"name":"MemberUpdated","type":"event"},{"anonymous":false,"inputs":[{"indexed":true,"internalType":"uint256","name":"groupId","type":"uint256"},{"indexed":false,"internalType":"uint256","name":"startIndex","type":"uint256"},{"indexed":false,"internalType":"uint256[]","name":"identityCommitments","type":"uint256[]"},{"indexed":false,"internalType":"uint256","name":"merkleTreeRoot","type":"uint256"}],"name":"MembersAdded","type":"event"},{"anonymous":false,"inputs":[{"indexed":true,"internalType":"uint256","name":"groupId","type":"uint256"},{"indexed":false,"internalType":"uint256","name":"merkleTreeDepth","type":"uint256"},{"indexed":true,"internalType":"uint256","name":"merkleTreeRoot","type":"uint256"},{"indexed":false,"internalType":"uint256","name":"nullifier","type":"uint256"},{"indexed":false,"internalType":"uint256","name":"message","type":"uint256"},{"indexed":true,"internalType":"uint256","name":"scope","type":"uint256"},{"indexed":false,"internalType":"uint256[8]","name":"points","type":"uint256[8]"}],"name":"ProofValidated","type":"event"},{"inputs":[{"internalType":"uint256","name":"groupId","type":"uint256"}],"name":"acceptGroupAdmin","outputs":[],"stateMutability":"nonpayable","type":"function"},{"inputs":[{"internalType":"uint256","name":"groupId","type":"uint256"},{"internalType":"uint256","name":"identityCommitment","type":"uint256"}],"name":"addMember","outputs":[],"stateMutability":"nonpayable","type":"function"},{"inputs":[{"internalType":"uint256","name":"groupId","type":"uint256"},{"internalType":"uint256[]","name":"identityCommitments","type":"uint256[]"}],"name":"addMembers","outputs":[],"stateMutability":"nonpayable","type":"function"},{"inputs":[{"internalType":"address","name":"admin","type":"address"},{"internalType":"uint256","name":"merkleTreeDuration","type":"uint256"}],"name":"createGroup","outputs":[{"internalType":"uint256","name":"groupId","type":"uint256"}],"stateMutability":"nonpayable","type":"function"},{"inputs":[],"name":"createGroup","outputs":[{"internalType":"uint256","name":"groupId","type":"uint256"}],"stateMutability":"nonpayable","type":"function"},{"inputs":[{"internalType":"address","name":"admin","type":"address"}],"name":"createGroup","outputs":[{"internalType":"uint256","name":"groupId","type":"uint256"}],"stateMutability":"nonpayable","type":"function"},{"inputs":[{"internalType":"uint256","name":"groupId","type":"uint256"}],"name":"getGroupAdmin","outputs":[{"internalType":"address","name":"","type":"address"}],"stateMutability":"view","type":"function"},{"inputs":[{"internalType":"uint256","name":"groupId","type":"uint256"}],"name":"getMerkleTreeDepth","outputs":[{"internalType":"uint256","name":"","type":"uint256"}],"stateMutability":"view","type":"function"},{"inputs":[{"internalType":"uint256","name":"groupId","type":"uint256"}],"name":"getMerkleTreeRoot","outputs":[{"internalType":"uint256","name":"","type":"uint256"}],"stateMutability":"view","type":"function"},{"inputs":[{"internalType":"uint256","name":"groupId","type":"uint256"}],"name":"getMerkleTreeSize","outputs":[{"internalType":"uint256","name":"","type":"uint256"}],"stateMutability":"view","type":"function"},{"inputs":[],"name":"groupCounter","outputs":[{"internalType":"uint256","name":"","type":"uint256"}],"stateMutability":"view","type":"function"},{"inputs":[{"internalType":"uint256","name":"","type":"uint256"}],"name":"groups","outputs":[{"internalType":"uint256","name":"merkleTreeDuration","type":"uint256"}],"stateMutability":"view","type":"function"},{"inputs":[{"internalType":"uint256","name":"groupId","type":"uint256"},{"internalType":"uint256","name":"identityCommitment","type":"uint256"}],"name":"hasMember","outputs":[{"internalType":"bool","name":"","type":"bool"}],"stateMutability":"view","type":"function"},{"inputs":[{"internalType":"uint256","name":"groupId","type":"uint256"},{"internalType":"uint256","name":"identityCommitment","type":"uint256"}],"name":"indexOf","outputs":[{"internalType":"uint256","name":"","type":"uint256"}],"stateMutability":"view","type":"function"},{"inputs":[{"internalType":"uint256","name":"groupId","type":"uint256"},{"internalType":"uint256","name":"identityCommitment","type":"uint256"},{"internalType":"uint256[]","name":"merkleProofSiblings","type":"uint256[]"}],"name":"removeMember","outputs":[],"stateMutability":"nonpayable","type":"function"},{"inputs":[{"internalType":"uint256","name":"groupId","type":"uint256"},{"internalType":"address","name":"newAdmin","type":"address"}],"name":"updateGroupAdmin","outputs":[],"stateMutability":"nonpayable","type":"function"},{"inputs":[{"internalType":"uint256","name":"groupId","type":"uint256"},{"internalType":"uint256","name":"newMerkleTreeDuration","type":"uint256"}],"name":"updateGroupMerkleTreeDuration","outputs":[],"stateMutability":"nonpayable","type":"function"},{"inputs":[{"internalType":"uint256","name":"groupId","type":"uint256"},{"internalType":"uint256","name":"identityCommitment","type":"uint256"},{"internalType":"uint256","name":"newIdentityCommitment","type":"uint256"},{"internalType":"uint256[]","name":"merkleProofSiblings","type":"uint256[]"}],"name":"updateMember","outputs":[],"stateMutability":"nonpayable","type":"function"},{"inputs":[{"internalType":"uint256","name":"groupId","type":"uint256"},{"components":[{"internalType":"uint256","name":"merkleTreeDepth","type":"uint256"},{"internalType":"uint256","name":"merkleTreeRoot","type":"uint256"},{"internalType":"uint256","name":"nullifier","type":"uint256"},{"internalType":"uint256","name":"message","type":"uint256"},{"internalType":"uint256","name":"scope","type":"uint256"},{"internalType":"uint256[8]","name":"points","type":"uint256[8]"}],"internalType":"struct ISemaphore.SemaphoreProof","name":"proof","type":"tuple"}],"name":"validateProof","outputs":[],"stateMutability":"nonpayable","type":"function"},{"inputs":[],"name":"verifier","outputs":[{"internalType":"contract ISemaphoreVerifier","name":"","type":"address"}],"stateMutability":"view","type":"function"},{"inputs":[{"internalType":"uint256","name":"groupId","type":"uint256"},{"components":[{"internalType":"uint256","name":"merkleTreeDepth","type":"uint256"},{"internalType":"uint256","name":"merkleTreeRoot","type":"uint256"},{"internalType":"uint256","name":"nullifier","type":"uint256"},{"internalType":"uint256","name":"message","type":"uint256"},{"internalType":"uint256","name":"scope","type":"uint256"},{"internalType":"uint256[8]","name":"points","type":"uint256[8]"}],"internalType":"struct ISemaphore.SemaphoreProof","name":"proof","type":"tuple"}],"name":"verifyProof","outputs":[{"internalType":"bool","name":"","type":"bool"}],"stateMutability":"view","type":"function"}],"evm":{"bytecode":{"linkReferences":{"npm/poseidon-solidity@0.0.5/PoseidonT3.sol":{"PoseidonT3":[{"length":20,"start":4519},{"length":20,"start":5242},{"length":20,"start":5712},{"length":20,"start":5876},{"length":20,"start":6173},{"length":20,"start":6337}]}},"object":"608060405234801561000f575f80fd5b50604051611f8d380380611f8d83398101604081905261002e91610053565b600380546001600160a01b0319166001600160a01b0392909216919091179055610080565b5f60208284031215610063575f80fd5b81516001600160a01b0381168114610079575f80fd5b9392505050565b611f008061008d5f395ff3fe608060405234801561000f575f80fd5b5060043610610132575f3560e01c80636389e107116100b4578063a9961c9411610079578063a9961c94146102ac578063d0d898dd146102d4578063d24924fe146102e7578063da3cda52146102f0578063dabc4d5114610303578063fcf0b6ec14610316575f80fd5b80636389e107146102265780636cdd32fe146102485780637ee35a0c1461025b57806390509d441461027a57806396324bd41461028d575f80fd5b80634178c4d5116100fa5780634178c4d5146101c2578063456f4188146101d5578063568ee826146101f8578063575185ed1461020b5780635c3f3b6014610213575f80fd5b8063042453711461013657806306dd84851461014b5780631783efc3146101715780632b7ac3f3146101845780632c880363146101af575b5f80fd5b610149610144366004611994565b610329565b005b61015e6101593660046119dc565b61035a565b6040519081526020015b60405180910390f35b61014961017f3660046119dc565b61037a565b600354610197906001600160a01b031681565b6040516001600160a01b039091168152602001610168565b61015e6101bd366004611a17565b6103a9565b6101496101d0366004611a3f565b6103df565b6101e86101e3366004611a9b565b610414565b6040519015158152602001610168565b610149610206366004611ad2565b610673565b61015e610681565b61015e610221366004611afc565b6106b6565b61015e610234366004611b15565b5f9081526020819052604090206001015490565b610149610256366004611b2c565b6106ed565b61015e610269366004611b15565b5f9081526020819052604090205490565b6101e86102883660046119dc565b610720565b61015e61029b366004611b15565b60046020525f908152604090205481565b6101976102ba366004611b15565b5f908152600160205260409020546001600160a01b031690565b6101496102e2366004611a9b565b610741565b61015e60055481565b6101496102fe366004611b15565b610829565b61015e610311366004611b15565b610835565b6101496103243660046119dc565b610858565b5f6103358484846108e6565b5f94855260046020908152604080872092875260019092019052909320429055505050565b5f8281526020819052604081206103719083610982565b90505b92915050565b5f61038583836109cd565b5f938452600460209081526040808620928652600190920190529092204290555050565b600580545f91826103b983611b8f565b9190505590506103c98184610a6d565b5f81815260046020526040902091909155919050565b5f6103ed8686868686610af5565b5f968752600460209081526040808920928952600190920190529095204290555050505050565b5f8281526001602052604081205483906001600160a01b031661044a5760405163029f057960e01b815260040160405180910390fd5b60018335108061045b575060208335115b156104795760405163767b278960e11b815260040160405180910390fd5b5f84815260208190526040812054908190036104a85760405163c8b02e0160e01b815260040160405180910390fd5b5f6104b286610835565b905080856020013514610536575f868152600460208181526040808420898301358552600181018352908420548a855292909152549091829003610509576040516326994ac360e11b815260040160405180910390fd5b6105138183611ba7565b421115610533576040516309581a9960e41b815260040160405180910390fd5b50505b60035460408051808201825260a0880135815260c088013560208083019190915282516080808201855260e08b01358286019081526101008c0135606080850191909152908352855180870187526101208d013581526101408d01358186015283850152855180870187526101608d013581526101808d01358186015286519283018752848d013583528c870135948301949094526001600160a01b039096169563a23f0199959293928201906105ef908d0135610bb9565b81526020016106018c60800135610bb9565b90526040516001600160e01b031960e087901b16815261062a94939291908c3590600401611c18565b602060405180830381865afa158015610645573d5f803e3d5ffd5b505050506040513d601f19601f820116820180604052508101906106699190611ca8565b9695505050505050565b61067d8282610bef565b5050565b600580545f918261069183611b8f565b9190505590506106a18133610a6d565b5f818152600460205260409020610e10905590565b600580545f91826106c683611b8f565b9190505590506106d68183610a6d565b5f818152600460205260409020610e109055919050565b5f6106fa85858585610c81565b5f9586526004602090815260408088209288526001909201905290942042905550505050565b5f828152602081815260408083208484526003019091528120541515610371565b5f82815260046020908152604080832084820135845260020190915290205460ff16156107815760405163041162bd60e31b815260040160405180910390fd5b61078b8282610414565b6107a85760405163012a9af160e61b815260040160405180910390fd5b5f828152600460209081526040808320848201358085526002909101835292819020805460ff1916600117905551608084013592918401359185917f0c32e14cfe81a05d371c248d22de6b7ae849e981b76a1f8842e7b6da73fc405a9161081d918735919060608901359060a08a0190611cce565b60405180910390a45050565b61083281610d3c565b50565b5f8181526020818152604080832060018101548452600201909152812054610374565b5f8281526001602052604090205482906001600160a01b03163314610890576040516317737e4f60e31b815260040160405180910390fd5b5f8381526004602090815260409182902080549085905582518181529182018590529185917f264b2a8f6763c084235fe832ba903482b2ef1a521336881fc75b987c2dfd29c5910160405180910390a250505050565b5f8381526001602052604081205484906001600160a01b0316331461091e576040516317737e4f60e31b815260040160405180910390fd5b5f858152602081905260409020805490610939908686610ddf565b9250857f61e5e8054e3daf084a0c6c646c065e8bf5e7ca4d5567bda942309bd1652f349d828787876040516109719493929190611cf6565b60405180910390a250509392505050565b5f81815260038301602052604081205481036109b157604051631c811d5b60e21b815260040160405180910390fd5b5f82815260038401602052604090205461037190600190611d3a565b5f8281526001602052604081205483906001600160a01b03163314610a05576040516317737e4f60e31b815260040160405180910390fd5b5f848152602081905260409020805490610a1f90856112f0565b604080518381526020810187905290810182905290935085907f19239b3f93cd10558aaf11423af70c77763bf54f52bcc75bfa74d4d13548cde99060600160405180910390a2505092915050565b5f8281526001602052604080822080546001600160a01b0319166001600160a01b0385161790555183917ff0adfb94eab6daf835deb69c5738fe636150c3dfd08094a76f39b963dc8cb05a91a26040516001600160a01b038216905f9084907f0ba83579a0e79193ef649b9f5a8759d35af086ba62a3e207b52e4a8ae30d49e3908390a45050565b5f8581526001602052604081205486906001600160a01b03163314610b2d576040516317737e4f60e31b815260040160405180910390fd5b5f878152602081905260408120610b449088610982565b5f898152602081905260409020909150610b6190888888886114af565b60408051838152602081018a90529081018890526060810182905290935088907fea3588e4a2a0c93d6a0e69dfeaf7496f43ccccf02ad9ce0a5b7627cbca4b61b19060800160405180910390a2505095945050505050565b5f600882604051602001610bcf91815260200190565b60408051601f198184030181529190528051602090910120901c92915050565b5f8281526001602052604090205482906001600160a01b03163314610c27576040516317737e4f60e31b815260040160405180910390fd5b5f8381526002602052604080822080546001600160a01b0319166001600160a01b03861690811790915590519091339186917f1018365553cce55d9cb02ef73e18cc9311894f3fe1d1eafd235ac2d26cd8ba5891a4505050565b5f8481526001602052604081205485906001600160a01b03163314610cb9576040516317737e4f60e31b815260040160405180910390fd5b5f868152602081905260408120610cd09087610982565b5f888152602081905260409020909150610cec90878787611935565b604080518381526020810189905290810182905290935087907f3108849c053c77b8073a11256dffb5ffd5b55e93e105a355e1c9061db890d8719060600160405180910390a25050949350505050565b5f818152600260205260409020546001600160a01b03163314610d72576040516334c4245d60e01b815260040160405180910390fd5b5f8181526001602090815260408083208054336001600160a01b031980831682179093556002909452828520805490921690915590516001600160a01b0390911692839185917f0ba83579a0e79193ef649b9f5a8759d35af086ba62a3e207b52e4a8ae30d49e391a45050565b82545f90815b83811015610f0a575f80516020611eab833981519152858583818110610e0d57610e0d611bba565b9050602002013510610e32576040516361c0541760e11b815260040160405180910390fd5b848482818110610e4457610e44611bba565b905060200201355f03610e6a576040516314b48df160e11b815260040160405180910390fd5b610e9e86868684818110610e8057610e80611bba565b905060200201355f9081526003919091016020526040902054151590565b15610ebc576040516312c50cad60e11b815260040160405180910390fd5b80610ec8836001611ba7565b610ed29190611ba7565b866003015f878785818110610ee957610ee9611bba565b602090810292909201358352508101919091526040015f2055600101610de5565b5060608484808060200260200160405190810160405280939291908181526020018383602002808284375f9201919091525050506001880154919250505b610f528584611ba7565b610f5d826002611e2d565b1015610f7357610f6c81611b8f565b9050610f48565b60018701819055825f610f868783611ba7565b9050600182811c905f90610f9a8185611d3a565b610fa6911c6001611ba7565b90505f5b85811015611288575f610fbd8484611d3a565b90505f8167ffffffffffffffff811115610fd957610fd9611e38565b604051908082528060200260200182016040528015611002578160200160208202803683370190505b5090505f5b828110156111b7575f8861101b8884611ba7565b611026906002611e4c565b1015611047578f6002015f8681526020019081526020015f20549050611083565b8a896110538985611ba7565b61105e906002611e4c565b6110689190611d3a565b8151811061107857611078611bba565b602002602001015190505b5f8861108f8985611ba7565b61109a906002611e4c565b6110a5906001611ba7565b10156110f2578b8a6110b78a86611ba7565b6110c2906002611e4c565b6110cd906001611ba7565b6110d79190611d3a565b815181106110e7576110e7611bba565b602002602001015190505b5f811561118757604080518082018252848152602081018490529051632b0aac7f60e11b815273__$078c82ddf6c95d34ea184ef1dd6130d136$__9163561558fe916111419190600401611e63565b602060405180830381865af415801561115c573d5f803e3d5ffd5b505050506040513d601f19601f820116820180604052508101906111809190611e93565b905061118a565b50815b8085858151811061119d5761119d611bba565b602002602001018181525050836001019350505050611007565b5085600116600103611206578860018a516111d29190611d3a565b815181106111e2576111e2611bba565b60200260200101518e6002015f8581526020019081526020015f208190555061124f565b60018951111561124f578860028a5161121f9190611d3a565b8151811061122f5761122f611bba565b60200260200101518e6002015f8581526020019081526020015f20819055505b849650600185901c94508098508395506001808561126d9190611d3a565b611279911c6001611ba7565b93508260010192505050610faa565b506112938988611ba7565b8b55855186905f906112a7576112a7611bba565b60200260200101518b6002015f8781526020019081526020015f2081905550855f815181106112d8576112d8611bba565b60200260200101519750505050505050509392505050565b5f5f80516020611eab833981519152821061131e576040516361c0541760e11b815260040160405180910390fd5b815f0361133e576040516314b48df160e11b815260040160405180910390fd5b5f8281526003840160205260409020541561136c576040516312c50cad60e11b815260040160405180910390fd5b825460018085015490611380908390611ba7565b61138b826002611e2d565b101561139d5761139a81611b8f565b90505b60018501819055835f5b82811015611475578084901c60011660010361145a576040805180820182525f83815260028a0160209081529083902054825281018490529051632b0aac7f60e11b815273__$078c82ddf6c95d34ea184ef1dd6130d136$__9163561558fe916114149190600401611e63565b602060405180830381865af415801561142f573d5f803e3d5ffd5b505050506040513d601f19601f820116820180604052508101906114539190611e93565b915061146d565b5f81815260028801602052604090208290555b6001016113a7565b5061147f83611b8f565b8087555f928352600287016020908152604080852084905596845260039097019096529390209390935550919050565b5f5f80516020611eab83398151915284106114dd576040516361c0541760e11b815260040160405180910390fd5b5f85815260038701602052604090205461150a57604051631c811d5b60e21b815260040160405180910390fd5b5f84815260038701602052604090205415611538576040516312c50cad60e11b815260040160405180910390fd5b5f6115438787610982565b8754909150859087905f9061155a90600190611d3a565b60018b01549091505f90815b818110156118b0578087901c600116600103611714575f80516020611eab8339815191528a8a8581811061159c5761159c611bba565b90506020020135106115c1576040516361c0541760e11b815260040160405180910390fd5b73__$078c82ddf6c95d34ea184ef1dd6130d136$__63561558fe60405180604001604052808d8d888181106115f8576115f8611bba565b905060200201358152602001898152506040518263ffffffff1660e01b81526004016116249190611e63565b602060405180830381865af415801561163f573d5f803e3d5ffd5b505050506040513d601f19601f820116820180604052508101906116639190611e93565b955073__$078c82ddf6c95d34ea184ef1dd6130d136$__63561558fe60405180604001604052808d8d8881811061169c5761169c611bba565b905060200201358152602001888152506040518263ffffffff1660e01b81526004016116c89190611e63565b602060405180830381865af41580156116e3573d5f803e3d5ffd5b505050506040513d601f19601f820116820180604052508101906117079190611e93565b94508260010192506118a8565b86811c84821c14611895575f80516020611eab8339815191528a8a8581811061173f5761173f611bba565b9050602002013510611764576040516361c0541760e11b815260040160405180910390fd5b5f81815260028e01602052604090205485900361178e575f81815260028e01602052604090208690555b73__$078c82ddf6c95d34ea184ef1dd6130d136$__63561558fe60405180604001604052808981526020018d8d888181106117cb576117cb611bba565b905060200201358152506040518263ffffffff1660e01b81526004016117f19190611e63565b602060405180830381865af415801561180c573d5f803e3d5ffd5b505050506040513d601f19601f820116820180604052508101906118309190611e93565b955073__$078c82ddf6c95d34ea184ef1dd6130d136$__63561558fe60405180604001604052808881526020018d8d8881811061186f5761186f611bba565b905060200201358152506040518263ffffffff1660e01b81526004016116c89190611e63565b5f81815260028e01602052604090208690555b600101611566565b5060018c01545f90815260028d01602052604090205484146118e557604051631fd4986360e11b815260040160405180910390fd5b5f81815260028d01602052604090208590558915611915575f8b815260038d016020526040808220548c83529120555b5050505f88815260038a0160205260408120555091505095945050505050565b5f61194385855f86866114af565b95945050505050565b5f8083601f84011261195c575f80fd5b50813567ffffffffffffffff811115611973575f80fd5b6020830191508360208260051b850101111561198d575f80fd5b9250929050565b5f805f604084860312156119a6575f80fd5b83359250602084013567ffffffffffffffff8111156119c3575f80fd5b6119cf8682870161194c565b9497909650939450505050565b5f80604083850312156119ed575f80fd5b50508035926020909101359150565b80356001600160a01b0381168114611a12575f80fd5b919050565b5f8060408385031215611a28575f80fd5b611a31836119fc565b946020939093013593505050565b5f805f805f60808688031215611a53575f80fd5b853594506020860135935060408601359250606086013567ffffffffffffffff811115611a7e575f80fd5b611a8a8882890161194c565b969995985093965092949392505050565b5f808284036101c0811215611aae575f80fd5b833592506101a0601f1982011215611ac4575f80fd5b506020830190509250929050565b5f8060408385031215611ae3575f80fd5b82359150611af3602084016119fc565b90509250929050565b5f60208284031215611b0c575f80fd5b610371826119fc565b5f60208284031215611b25575f80fd5b5035919050565b5f805f8060608587031215611b3f575f80fd5b8435935060208501359250604085013567ffffffffffffffff811115611b63575f80fd5b611b6f8782880161194c565b95989497509550505050565b634e487b7160e01b5f52601160045260245ffd5b5f60018201611ba057611ba0611b7b565b5060010190565b8082018082111561037457610374611b7b565b634e487b7160e01b5f52603260045260245ffd5b805f5b6002811015611bf0578151845260209384019390910190600101611bd1565b50505050565b805f5b6004811015611bf0578151845260209384019390910190600101611bf9565b6101a08101611c278288611bce565b6040808301875f5b6002808210611c3e5750611c78565b8251845f5b83811015611c61578251825260209283019290910190600101611c43565b505050928401925060209190910190600101611c2f565b50505050611c8960c0830186611bce565b611c97610100830185611bf6565b826101808301529695505050505050565b5f60208284031215611cb8575f80fd5b81518015158114611cc7575f80fd5b9392505050565b8481526020810184905260408101839052610160810161010083606084013795945050505050565b84815260606020820181905281018390525f6001600160fb1b03841115611d1b575f80fd5b8360051b80866080850137604083019390935250016080019392505050565b8181038181111561037457610374611b7b565b600181815b80851115611d8757815f1904821115611d6d57611d6d611b7b565b80851615611d7a57918102915b93841c9390800290611d52565b509250929050565b5f82611d9d57506001610374565b81611da957505f610374565b8160018114611dbf5760028114611dc957611de5565b6001915050610374565b60ff841115611dda57611dda611b7b565b50506001821b610374565b5060208310610133831016604e8410600b8410161715611e08575081810a610374565b611e128383611d4d565b805f1904821115611e2557611e25611b7b565b029392505050565b5f6103718383611d8f565b634e487b7160e01b5f52604160045260245ffd5b808202811582820484141761037457610374611b7b565b6040810181835f5b6002811015611e8a578151835260209283019290910190600101611e6b565b50505092915050565b5f60208284031215611ea3575f80fd5b505191905056fe30644e72e131a029b85045b68181585d2833e84879b9709143e1f593f0000001a2646970667358221220267af6672ef473f6e62d02857c3951b1433d0a0d189db7819633a6458b9b0d5d64736f6c63430008180033","opcodes":"PUSH1 0x80 PUSH1 0x40 MSTORE CALLVALUE DUP1 ISZERO PUSH2 0xF JUMPI PUSH0 DUP1 REVERT JUMPDEST POP PUSH1 0x40 MLOAD PUSH2 0x1F8D CODESIZE SUB DUP1 PUSH2 0x1F8D DUP4 CODECOPY DUP2 ADD PUSH1 0x40 DUP2 SWAP1 MSTORE PUSH2 0x2E SWAP2 PUSH2 0x53 JUMP JUMPDEST PUSH1 0x3 DUP1 SLOAD PUSH1 0x1 PUSH1 0x1 PUSH1 0xA0 SHL SUB NOT AND PUSH1 0x1 PUSH1 0x1 PUSH1 0xA0 SHL SUB SWAP3 SWAP1 SWAP3 AND SWAP2 SWAP1 SWAP2 OR SWAP1 SSTORE PUSH2 0x80 JUMP JUMPDEST PUSH0 PUSH1 0x20 DUP3 DUP5 SUB SLT ISZERO PUSH2 0x63 JUMPI PUSH0 DUP1 REVERT JUMPDEST DUP2 MLOAD PUSH1 0x1 PUSH1 0x1 PUSH1 0xA0 SHL SUB DUP2 AND DUP2 EQ PUSH2 0x79 JUMPI PUSH0 DUP1 REVERT JUMPDEST SWAP4 SWAP3 POP POP POP JUMP JUMPDEST PUSH2 0x1F00 DUP1 PUSH2 0x8D PUSH0 CODECOPY PUSH0 RETURN INVALID PUSH1 0x80 PUSH1 0x40 MSTORE CALLVALUE DUP1 ISZERO PUSH2 0xF JUMPI PUSH0 DUP1 REVERT JUMPDEST POP PUSH1 0x4 CALLDATASIZE LT PUSH2 0x132 JUMPI PUSH0 CALLDATALOAD PUSH1 0xE0 SHR DUP1 PUSH4 0x6389E107 GT PUSH2 0xB4 JUMPI DUP1 PUSH4 0xA9961C94 GT PUSH2 0x79 JUMPI DUP1 PUSH4 0xA9961C94 EQ PUSH2 0x2AC JUMPI DUP1 PUSH4 0xD0D898DD EQ PUSH2 0x2D4 JUMPI DUP1 PUSH4 0xD24924FE EQ PUSH2 0x2E7 JUMPI DUP1 PUSH4 0xDA3CDA52 EQ PUSH2 0x2F0 JUMPI DUP1 PUSH4 0xDABC4D51 EQ PUSH2 0x303 JUMPI DUP1 PUSH4 0xFCF0B6EC EQ PUSH2 0x316 JUMPI PUSH0 DUP1 REVERT JUMPDEST DUP1 PUSH4 0x6389E107 EQ PUSH2 0x226 JUMPI DUP1 PUSH4 0x6CDD32FE EQ PUSH2 0x248 JUMPI DUP1 PUSH4 0x7EE35A0C EQ PUSH2 0x25B JUMPI DUP1 PUSH4 0x90509D44 EQ PUSH2 0x27A JUMPI DUP1 PUSH4 0x96324BD4 EQ PUSH2 0x28D JUMPI PUSH0 DUP1 REVERT JUMPDEST DUP1 PUSH4 0x4178C4D5 GT PUSH2 0xFA JUMPI DUP1 PUSH4 0x4178C4D5 EQ PUSH2 0x1C2 JUMPI DUP1 PUSH4 0x456F4188 EQ PUSH2 0x1D5 JUMPI DUP1 PUSH4 0x568EE826 EQ PUSH2 0x1F8 JUMPI DUP1 PUSH4 0x575185ED EQ PUSH2 0x20B JUMPI DUP1 PUSH4 0x5C3F3B60 EQ PUSH2 0x213 JUMPI PUSH0 DUP1 REVERT JUMPDEST DUP1 PUSH4 0x4245371 EQ PUSH2 0x136 JUMPI DUP1 PUSH4 0x6DD8485 EQ PUSH2 0x14B JUMPI DUP1 PUSH4 0x1783EFC3 EQ PUSH2 0x171 JUMPI DUP1 PUSH4 0x2B7AC3F3 EQ PUSH2 0x184 JUMPI DUP1 PUSH4 0x2C880363 EQ PUSH2 0x1AF JUMPI JUMPDEST PUSH0 DUP1 REVERT JUMPDEST PUSH2 0x149 PUSH2 0x144 CALLDATASIZE PUSH1 0x4 PUSH2 0x1994 JUMP JUMPDEST PUSH2 0x329 JUMP JUMPDEST STOP JUMPDEST PUSH2 0x15E PUSH2 0x159 CALLDATASIZE PUSH1 0x4 PUSH2 0x19DC JUMP JUMPDEST PUSH2 0x35A JUMP JUMPDEST PUSH1 0x40 MLOAD SWAP1 DUP2 MSTORE PUSH1 0x20 ADD JUMPDEST PUSH1 0x40 MLOAD DUP1 SWAP2 SUB SWAP1 RETURN JUMPDEST PUSH2 0x149 PUSH2 0x17F CALLDATASIZE PUSH1 0x4 PUSH2 0x19DC JUMP JUMPDEST PUSH2 0x37A JUMP JUMPDEST PUSH1 0x3 SLOAD PUSH2 0x197 SWAP1 PUSH1 0x1 PUSH1 0x1 PUSH1 0xA0 SHL SUB AND DUP2 JUMP JUMPDEST PUSH1 0x40 MLOAD PUSH1 0x1 PUSH1 0x1 PUSH1 0xA0 SHL SUB SWAP1 SWAP2 AND DUP2 MSTORE PUSH1 0x20 ADD PUSH2 0x168 JUMP JUMPDEST PUSH2 0x15E PUSH2 0x1BD CALLDATASIZE PUSH1 0x4 PUSH2 0x1A17 JUMP JUMPDEST PUSH2 0x3A9 JUMP JUMPDEST PUSH2 0x149 PUSH2 0x1D0 CALLDATASIZE PUSH1 0x4 PUSH2 0x1A3F JUMP JUMPDEST PUSH2 0x3DF JUMP JUMPDEST PUSH2 0x1E8 PUSH2 0x1E3 CALLDATASIZE PUSH1 0x4 PUSH2 0x1A9B JUMP JUMPDEST PUSH2 0x414 JUMP JUMPDEST PUSH1 0x40 MLOAD SWAP1 ISZERO ISZERO DUP2 MSTORE PUSH1 0x20 ADD PUSH2 0x168 JUMP JUMPDEST PUSH2 0x149 PUSH2 0x206 CALLDATASIZE PUSH1 0x4 PUSH2 0x1AD2 JUMP JUMPDEST PUSH2 0x673 JUMP JUMPDEST PUSH2 0x15E PUSH2 0x681 JUMP JUMPDEST PUSH2 0x15E PUSH2 0x221 CALLDATASIZE PUSH1 0x4 PUSH2 0x1AFC JUMP JUMPDEST PUSH2 0x6B6 JUMP JUMPDEST PUSH2 0x15E PUSH2 0x234 CALLDATASIZE PUSH1 0x4 PUSH2 0x1B15 JUMP JUMPDEST PUSH0 SWAP1 DUP2 MSTORE PUSH1 0x20 DUP2 SWAP1 MSTORE PUSH1 0x40 SWAP1 KECCAK256 PUSH1 0x1 ADD SLOAD SWAP1 JUMP JUMPDEST PUSH2 0x149 PUSH2 0x256 CALLDATASIZE PUSH1 0x4 PUSH2 0x1B2C JUMP JUMPDEST PUSH2 0x6ED JUMP JUMPDEST PUSH2 0x15E PUSH2 0x269 CALLDATASIZE PUSH1 0x4 PUSH2 0x1B15 JUMP JUMPDEST PUSH0 SWAP1 DUP2 MSTORE PUSH1 0x20 DUP2 SWAP1 MSTORE PUSH1 0x40 SWAP1 KECCAK256 SLOAD SWAP1 JUMP JUMPDEST PUSH2 0x1E8 PUSH2 0x288 CALLDATASIZE PUSH1 0x4 PUSH2 0x19DC JUMP JUMPDEST PUSH2 0x720 JUMP JUMPDEST PUSH2 0x15E PUSH2 0x29B CALLDATASIZE PUSH1 0x4 PUSH2 0x1B15 JUMP JUMPDEST PUSH1 0x4 PUSH1 0x20 MSTORE PUSH0 SWAP1 DUP2 MSTORE PUSH1 0x40 SWAP1 KECCAK256 SLOAD DUP2 JUMP JUMPDEST PUSH2 0x197 PUSH2 0x2BA CALLDATASIZE PUSH1 0x4 PUSH2 0x1B15 JUMP JUMPDEST PUSH0 SWAP1 DUP2 MSTORE PUSH1 0x1 PUSH1 0x20 MSTORE PUSH1 0x40 SWAP1 KECCAK256 SLOAD PUSH1 0x1 PUSH1 0x1 PUSH1 0xA0 SHL SUB AND SWAP1 JUMP JUMPDEST PUSH2 0x149 PUSH2 0x2E2 CALLDATASIZE PUSH1 0x4 PUSH2 0x1A9B JUMP JUMPDEST PUSH2 0x741 JUMP JUMPDEST PUSH2 0x15E PUSH1 0x5 SLOAD DUP2 JUMP JUMPDEST PUSH2 0x149 PUSH2 0x2FE CALLDATASIZE PUSH1 0x4 PUSH2 0x1B15 JUMP JUMPDEST PUSH2 0x829 JUMP JUMPDEST PUSH2 0x15E PUSH2 0x311 CALLDATASIZE PUSH1 0x4 PUSH2 0x1B15 JUMP JUMPDEST PUSH2 0x835 JUMP JUMPDEST PUSH2 0x149 PUSH2 0x324 CALLDATASIZE PUSH1 0x4 PUSH2 0x19DC JUMP JUMPDEST PUSH2 0x858 JUMP JUMPDEST PUSH0 PUSH2 0x335 DUP5 DUP5 DUP5 PUSH2 0x8E6 JUMP JUMPDEST PUSH0 SWAP5 DUP6 MSTORE PUSH1 0x4 PUSH1 0x20 SWAP1 DUP2 MSTORE PUSH1 0x40 DUP1 DUP8 KECCAK256 SWAP3 DUP8 MSTORE PUSH1 0x1 SWAP1 SWAP3 ADD SWAP1 MSTORE SWAP1 SWAP4 KECCAK256 TIMESTAMP SWAP1 SSTORE POP POP POP JUMP JUMPDEST PUSH0 DUP3 DUP2 MSTORE PUSH1 0x20 DUP2 SWAP1 MSTORE PUSH1 0x40 DUP2 KECCAK256 PUSH2 0x371 SWAP1 DUP4 PUSH2 0x982 JUMP JUMPDEST SWAP1 POP JUMPDEST SWAP3 SWAP2 POP POP JUMP JUMPDEST PUSH0 PUSH2 0x385 DUP4 DUP4 PUSH2 0x9CD JUMP JUMPDEST PUSH0 SWAP4 DUP5 MSTORE PUSH1 0x4 PUSH1 0x20 SWAP1 DUP2 MSTORE PUSH1 0x40 DUP1 DUP7 KECCAK256 SWAP3 DUP7 MSTORE PUSH1 0x1 SWAP1 SWAP3 ADD SWAP1 MSTORE SWAP1 SWAP3 KECCAK256 TIMESTAMP SWAP1 SSTORE POP POP JUMP JUMPDEST PUSH1 0x5 DUP1 SLOAD PUSH0 SWAP2 DUP3 PUSH2 0x3B9 DUP4 PUSH2 0x1B8F JUMP JUMPDEST SWAP2 SWAP1 POP SSTORE SWAP1 POP PUSH2 0x3C9 DUP2 DUP5 PUSH2 0xA6D JUMP JUMPDEST PUSH0 DUP2 DUP2 MSTORE PUSH1 0x4 PUSH1 0x20 MSTORE PUSH1 0x40 SWAP1 KECCAK256 SWAP2 SWAP1 SWAP2 SSTORE SWAP2 SWAP1 POP JUMP JUMPDEST PUSH0 PUSH2 0x3ED DUP7 DUP7 DUP7 DUP7 DUP7 PUSH2 0xAF5 JUMP JUMPDEST PUSH0 SWAP7 DUP8 MSTORE PUSH1 0x4 PUSH1 0x20 SWAP1 DUP2 MSTORE PUSH1 0x40 DUP1 DUP10 KECCAK256 SWAP3 DUP10 MSTORE PUSH1 0x1 SWAP1 SWAP3 ADD SWAP1 MSTORE SWAP1 SWAP6 KECCAK256 TIMESTAMP SWAP1 SSTORE POP POP POP POP POP JUMP JUMPDEST PUSH0 DUP3 DUP2 MSTORE PUSH1 0x1 PUSH1 0x20 MSTORE PUSH1 0x40 DUP2 KECCAK256 SLOAD DUP4 SWAP1 PUSH1 0x1 PUSH1 0x1 PUSH1 0xA0 SHL SUB AND PUSH2 0x44A JUMPI PUSH1 0x40 MLOAD PUSH4 0x29F0579 PUSH1 0xE0 SHL DUP2 MSTORE PUSH1 0x4 ADD PUSH1 0x40 MLOAD DUP1 SWAP2 SUB SWAP1 REVERT JUMPDEST PUSH1 0x1 DUP4 CALLDATALOAD LT DUP1 PUSH2 0x45B JUMPI POP PUSH1 0x20 DUP4 CALLDATALOAD GT JUMPDEST ISZERO PUSH2 0x479 JUMPI PUSH1 0x40 MLOAD PUSH4 0x767B2789 PUSH1 0xE1 SHL DUP2 MSTORE PUSH1 0x4 ADD PUSH1 0x40 MLOAD DUP1 SWAP2 SUB SWAP1 REVERT JUMPDEST PUSH0 DUP5 DUP2 MSTORE PUSH1 0x20 DUP2 SWAP1 MSTORE PUSH1 0x40 DUP2 KECCAK256 SLOAD SWAP1 DUP2 SWAP1 SUB PUSH2 0x4A8 JUMPI PUSH1 0x40 MLOAD PUSH4 0xC8B02E01 PUSH1 0xE0 SHL DUP2 MSTORE PUSH1 0x4 ADD PUSH1 0x40 MLOAD DUP1 SWAP2 SUB SWAP1 REVERT JUMPDEST PUSH0 PUSH2 0x4B2 DUP7 PUSH2 0x835 JUMP JUMPDEST SWAP1 POP DUP1 DUP6 PUSH1 0x20 ADD CALLDATALOAD EQ PUSH2 0x536 JUMPI PUSH0 DUP7 DUP2 MSTORE PUSH1 0x4 PUSH1 0x20 DUP2 DUP2 MSTORE PUSH1 0x40 DUP1 DUP5 KECCAK256 DUP10 DUP4 ADD CALLDATALOAD DUP6 MSTORE PUSH1 0x1 DUP2 ADD DUP4 MSTORE SWAP1 DUP5 KECCAK256 SLOAD DUP11 DUP6 MSTORE SWAP3 SWAP1 SWAP2 MSTORE SLOAD SWAP1 SWAP2 DUP3 SWAP1 SUB PUSH2 0x509 JUMPI PUSH1 0x40 MLOAD PUSH4 0x26994AC3 PUSH1 0xE1 SHL DUP2 MSTORE PUSH1 0x4 ADD PUSH1 0x40 MLOAD DUP1 SWAP2 SUB SWAP1 REVERT JUMPDEST PUSH2 0x513 DUP2 DUP4 PUSH2 0x1BA7 JUMP JUMPDEST TIMESTAMP GT ISZERO PUSH2 0x533 JUMPI PUSH1 0x40 MLOAD PUSH4 0x9581A99 PUSH1 0xE4 SHL DUP2 MSTORE PUSH1 0x4 ADD PUSH1 0x40 MLOAD DUP1 SWAP2 SUB SWAP1 REVERT JUMPDEST POP POP JUMPDEST PUSH1 0x3 SLOAD PUSH1 0x40 DUP1 MLOAD DUP1 DUP3 ADD DUP3 MSTORE PUSH1 0xA0 DUP9 ADD CALLDATALOAD DUP2 MSTORE PUSH1 0xC0 DUP9 ADD CALLDATALOAD PUSH1 0x20 DUP1 DUP4 ADD SWAP2 SWAP1 SWAP2 MSTORE DUP3 MLOAD PUSH1 0x80 DUP1 DUP3 ADD DUP6 MSTORE PUSH1 0xE0 DUP12 ADD CALLDATALOAD DUP3 DUP7 ADD SWAP1 DUP2 MSTORE PUSH2 0x100 DUP13 ADD CALLDATALOAD PUSH1 0x60 DUP1 DUP6 ADD SWAP2 SWAP1 SWAP2 MSTORE SWAP1 DUP4 MSTORE DUP6 MLOAD DUP1 DUP8 ADD DUP8 MSTORE PUSH2 0x120 DUP14 ADD CALLDATALOAD DUP2 MSTORE PUSH2 0x140 DUP14 ADD CALLDATALOAD DUP2 DUP7 ADD MSTORE DUP4 DUP6 ADD MSTORE DUP6 MLOAD DUP1 DUP8 ADD DUP8 MSTORE PUSH2 0x160 DUP14 ADD CALLDATALOAD DUP2 MSTORE PUSH2 0x180 DUP14 ADD CALLDATALOAD DUP2 DUP7 ADD MSTORE DUP7 MLOAD SWAP3 DUP4 ADD DUP8 MSTORE DUP5 DUP14 ADD CALLDATALOAD DUP4 MSTORE DUP13 DUP8 ADD CALLDATALOAD SWAP5 DUP4 ADD SWAP5 SWAP1 SWAP5 MSTORE PUSH1 0x1 PUSH1 0x1 PUSH1 0xA0 SHL SUB SWAP1 SWAP7 AND SWAP6 PUSH4 0xA23F0199 SWAP6 SWAP3 SWAP4 SWAP3 DUP3 ADD SWAP1 PUSH2 0x5EF SWAP1 DUP14 ADD CALLDATALOAD PUSH2 0xBB9 JUMP JUMPDEST DUP2 MSTORE PUSH1 0x20 ADD PUSH2 0x601 DUP13 PUSH1 0x80 ADD CALLDATALOAD PUSH2 0xBB9 JUMP JUMPDEST SWAP1 MSTORE PUSH1 0x40 MLOAD PUSH1 0x1 PUSH1 0x1 PUSH1 0xE0 SHL SUB NOT PUSH1 0xE0 DUP8 SWAP1 SHL AND DUP2 MSTORE PUSH2 0x62A SWAP5 SWAP4 SWAP3 SWAP2 SWAP1 DUP13 CALLDATALOAD SWAP1 PUSH1 0x4 ADD PUSH2 0x1C18 JUMP JUMPDEST PUSH1 0x20 PUSH1 0x40 MLOAD DUP1 DUP4 SUB DUP2 DUP7 GAS STATICCALL ISZERO DUP1 ISZERO PUSH2 0x645 JUMPI RETURNDATASIZE PUSH0 DUP1 RETURNDATACOPY RETURNDATASIZE PUSH0 REVERT JUMPDEST POP POP POP POP PUSH1 0x40 MLOAD RETURNDATASIZE PUSH1 0x1F NOT PUSH1 0x1F DUP3 ADD AND DUP3 ADD DUP1 PUSH1 0x40 MSTORE POP DUP2 ADD SWAP1 PUSH2 0x669 SWAP2 SWAP1 PUSH2 0x1CA8 JUMP JUMPDEST SWAP7 SWAP6 POP POP POP POP POP POP JUMP JUMPDEST PUSH2 0x67D DUP3 DUP3 PUSH2 0xBEF JUMP JUMPDEST POP POP JUMP JUMPDEST PUSH1 0x5 DUP1 SLOAD PUSH0 SWAP2 DUP3 PUSH2 0x691 DUP4 PUSH2 0x1B8F JUMP JUMPDEST SWAP2 SWAP1 POP SSTORE SWAP1 POP PUSH2 0x6A1 DUP2 CALLER PUSH2 0xA6D JUMP JUMPDEST PUSH0 DUP2 DUP2 MSTORE PUSH1 0x4 PUSH1 0x20 MSTORE PUSH1 0x40 SWAP1 KECCAK256 PUSH2 0xE10 SWAP1 SSTORE SWAP1 JUMP JUMPDEST PUSH1 0x5 DUP1 SLOAD PUSH0 SWAP2 DUP3 PUSH2 0x6C6 DUP4 PUSH2 0x1B8F JUMP JUMPDEST SWAP2 SWAP1 POP SSTORE SWAP1 POP PUSH2 0x6D6 DUP2 DUP4 PUSH2 0xA6D JUMP JUMPDEST PUSH0 DUP2 DUP2 MSTORE PUSH1 0x4 PUSH1 0x20 MSTORE PUSH1 0x40 SWAP1 KECCAK256 PUSH2 0xE10 SWAP1 SSTORE SWAP2 SWAP1 POP JUMP JUMPDEST PUSH0 PUSH2 0x6FA DUP6 DUP6 DUP6 DUP6 PUSH2 0xC81 JUMP JUMPDEST PUSH0 SWAP6 DUP7 MSTORE PUSH1 0x4 PUSH1 0x20 SWAP1 DUP2 MSTORE PUSH1 0x40 DUP1 DUP9 KECCAK256 SWAP3 DUP9 MSTORE PUSH1 0x1 SWAP1 SWAP3 ADD SWAP1 MSTORE SWAP1 SWAP5 KECCAK256 TIMESTAMP SWAP1 SSTORE POP POP POP POP JUMP JUMPDEST PUSH0 DUP3 DUP2 MSTORE PUSH1 0x20 DUP2 DUP2 MSTORE PUSH1 0x40 DUP1 DUP4 KECCAK256 DUP5 DUP5 MSTORE PUSH1 0x3 ADD SWAP1 SWAP2 MSTORE DUP2 KECCAK256 SLOAD ISZERO ISZERO PUSH2 0x371 JUMP JUMPDEST PUSH0 DUP3 DUP2 MSTORE PUSH1 0x4 PUSH1 0x20 SWAP1 DUP2 MSTORE PUSH1 0x40 DUP1 DUP4 KECCAK256 DUP5 DUP3 ADD CALLDATALOAD DUP5 MSTORE PUSH1 0x2 ADD SWAP1 SWAP2 MSTORE SWAP1 KECCAK256 SLOAD PUSH1 0xFF AND ISZERO PUSH2 0x781 JUMPI PUSH1 0x40 MLOAD PUSH4 0x41162BD PUSH1 0xE3 SHL DUP2 MSTORE PUSH1 0x4 ADD PUSH1 0x40 MLOAD DUP1 SWAP2 SUB SWAP1 REVERT JUMPDEST PUSH2 0x78B DUP3 DUP3 PUSH2 0x414 JUMP JUMPDEST PUSH2 0x7A8 JUMPI PUSH1 0x40 MLOAD PUSH4 0x12A9AF1 PUSH1 0xE6 SHL DUP2 MSTORE PUSH1 0x4 ADD PUSH1 0x40 MLOAD DUP1 SWAP2 SUB SWAP1 REVERT JUMPDEST PUSH0 DUP3 DUP2 MSTORE PUSH1 0x4 PUSH1 0x20 SWAP1 DUP2 MSTORE PUSH1 0x40 DUP1 DUP4 KECCAK256 DUP5 DUP3 ADD CALLDATALOAD DUP1 DUP6 MSTORE PUSH1 0x2 SWAP1 SWAP2 ADD DUP4 MSTORE SWAP3 DUP2 SWAP1 KECCAK256 DUP1 SLOAD PUSH1 0xFF NOT AND PUSH1 0x1 OR SWAP1 SSTORE MLOAD PUSH1 0x80 DUP5 ADD CALLDATALOAD SWAP3 SWAP2 DUP5 ADD CALLDATALOAD SWAP2 DUP6 SWAP2 PUSH32 0xC32E14CFE81A05D371C248D22DE6B7AE849E981B76A1F8842E7B6DA73FC405A SWAP2 PUSH2 0x81D SWAP2 DUP8 CALLDATALOAD SWAP2 SWAP1 PUSH1 0x60 DUP10 ADD CALLDATALOAD SWAP1 PUSH1 0xA0 DUP11 ADD SWAP1 PUSH2 0x1CCE JUMP JUMPDEST PUSH1 0x40 MLOAD DUP1 SWAP2 SUB SWAP1 LOG4 POP POP JUMP JUMPDEST PUSH2 0x832 DUP2 PUSH2 0xD3C JUMP JUMPDEST POP JUMP JUMPDEST PUSH0 DUP2 DUP2 MSTORE PUSH1 0x20 DUP2 DUP2 MSTORE PUSH1 0x40 DUP1 DUP4 KECCAK256 PUSH1 0x1 DUP2 ADD SLOAD DUP5 MSTORE PUSH1 0x2 ADD SWAP1 SWAP2 MSTORE DUP2 KECCAK256 SLOAD PUSH2 0x374 JUMP JUMPDEST PUSH0 DUP3 DUP2 MSTORE PUSH1 0x1 PUSH1 0x20 MSTORE PUSH1 0x40 SWAP1 KECCAK256 SLOAD DUP3 SWAP1 PUSH1 0x1 PUSH1 0x1 PUSH1 0xA0 SHL SUB AND CALLER EQ PUSH2 0x890 JUMPI PUSH1 0x40 MLOAD PUSH4 0x17737E4F PUSH1 0xE3 SHL DUP2 MSTORE PUSH1 0x4 ADD PUSH1 0x40 MLOAD DUP1 SWAP2 SUB SWAP1 REVERT JUMPDEST PUSH0 DUP4 DUP2 MSTORE PUSH1 0x4 PUSH1 0x20 SWAP1 DUP2 MSTORE PUSH1 0x40 SWAP2 DUP3 SWAP1 KECCAK256 DUP1 SLOAD SWAP1 DUP6 SWAP1 SSTORE DUP3 MLOAD DUP2 DUP2 MSTORE SWAP2 DUP3 ADD DUP6 SWAP1 MSTORE SWAP2 DUP6 SWAP2 PUSH32 0x264B2A8F6763C084235FE832BA903482B2EF1A521336881FC75B987C2DFD29C5 SWAP2 ADD PUSH1 0x40 MLOAD DUP1 SWAP2 SUB SWAP1 LOG2 POP POP POP POP JUMP JUMPDEST PUSH0 DUP4 DUP2 MSTORE PUSH1 0x1 PUSH1 0x20 MSTORE PUSH1 0x40 DUP2 KECCAK256 SLOAD DUP5 SWAP1 PUSH1 0x1 PUSH1 0x1 PUSH1 0xA0 SHL SUB AND CALLER EQ PUSH2 0x91E JUMPI PUSH1 0x40 MLOAD PUSH4 0x17737E4F PUSH1 0xE3 SHL DUP2 MSTORE PUSH1 0x4 ADD PUSH1 0x40 MLOAD DUP1 SWAP2 SUB SWAP1 REVERT JUMPDEST PUSH0 DUP6 DUP2 MSTORE PUSH1 0x20 DUP2 SWAP1 MSTORE PUSH1 0x40 SWAP1 KECCAK256 DUP1 SLOAD SWAP1 PUSH2 0x939 SWAP1 DUP7 DUP7 PUSH2 0xDDF JUMP JUMPDEST SWAP3 POP DUP6 PUSH32 0x61E5E8054E3DAF084A0C6C646C065E8BF5E7CA4D5567BDA942309BD1652F349D DUP3 DUP8 DUP8 DUP8 PUSH1 0x40 MLOAD PUSH2 0x971 SWAP5 SWAP4 SWAP3 SWAP2 SWAP1 PUSH2 0x1CF6 JUMP JUMPDEST PUSH1 0x40 MLOAD DUP1 SWAP2 SUB SWAP1 LOG2 POP POP SWAP4 SWAP3 POP POP POP JUMP JUMPDEST PUSH0 DUP2 DUP2 MSTORE PUSH1 0x3 DUP4 ADD PUSH1 0x20 MSTORE PUSH1 0x40 DUP2 KECCAK256 SLOAD DUP2 SUB PUSH2 0x9B1 JUMPI PUSH1 0x40 MLOAD PUSH4 0x1C811D5B PUSH1 0xE2 SHL DUP2 MSTORE PUSH1 0x4 ADD PUSH1 0x40 MLOAD DUP1 SWAP2 SUB SWAP1 REVERT JUMPDEST PUSH0 DUP3 DUP2 MSTORE PUSH1 0x3 DUP5 ADD PUSH1 0x20 MSTORE PUSH1 0x40 SWAP1 KECCAK256 SLOAD PUSH2 0x371 SWAP1 PUSH1 0x1 SWAP1 PUSH2 0x1D3A JUMP JUMPDEST PUSH0 DUP3 DUP2 MSTORE PUSH1 0x1 PUSH1 0x20 MSTORE PUSH1 0x40 DUP2 KECCAK256 SLOAD DUP4 SWAP1 PUSH1 0x1 PUSH1 0x1 PUSH1 0xA0 SHL SUB AND CALLER EQ PUSH2 0xA05 JUMPI PUSH1 0x40 MLOAD PUSH4 0x17737E4F PUSH1 0xE3 SHL DUP2 MSTORE PUSH1 0x4 ADD PUSH1 0x40 MLOAD DUP1 SWAP2 SUB SWAP1 REVERT JUMPDEST PUSH0 DUP5 DUP2 MSTORE PUSH1 0x20 DUP2 SWAP1 MSTORE PUSH1 0x40 SWAP1 KECCAK256 DUP1 SLOAD SWAP1 PUSH2 0xA1F SWAP1 DUP6 PUSH2 0x12F0 JUMP JUMPDEST PUSH1 0x40 DUP1 MLOAD DUP4 DUP2 MSTORE PUSH1 0x20 DUP2 ADD DUP8 SWAP1 MSTORE SWAP1 DUP2 ADD DUP3 SWAP1 MSTORE SWAP1 SWAP4 POP DUP6 SWAP1 PUSH32 0x19239B3F93CD10558AAF11423AF70C77763BF54F52BCC75BFA74D4D13548CDE9 SWAP1 PUSH1 0x60 ADD PUSH1 0x40 MLOAD DUP1 SWAP2 SUB SWAP1 LOG2 POP POP SWAP3 SWAP2 POP POP JUMP JUMPDEST PUSH0 DUP3 DUP2 MSTORE PUSH1 0x1 PUSH1 0x20 MSTORE PUSH1 0x40 DUP1 DUP3 KECCAK256 DUP1 SLOAD PUSH1 0x1 PUSH1 0x1 PUSH1 0xA0 SHL SUB NOT AND PUSH1 0x1 PUSH1 0x1 PUSH1 0xA0 SHL SUB DUP6 AND OR SWAP1 SSTORE MLOAD DUP4 SWAP2 PUSH32 0xF0ADFB94EAB6DAF835DEB69C5738FE636150C3DFD08094A76F39B963DC8CB05A SWAP2 LOG2 PUSH1 0x40 MLOAD PUSH1 0x1 PUSH1 0x1 PUSH1 0xA0 SHL SUB DUP3 AND SWAP1 PUSH0 SWAP1 DUP5 SWAP1 PUSH32 0xBA83579A0E79193EF649B9F5A8759D35AF086BA62A3E207B52E4A8AE30D49E3 SWAP1 DUP4 SWAP1 LOG4 POP POP JUMP JUMPDEST PUSH0 DUP6 DUP2 MSTORE PUSH1 0x1 PUSH1 0x20 MSTORE PUSH1 0x40 DUP2 KECCAK256 SLOAD DUP7 SWAP1 PUSH1 0x1 PUSH1 0x1 PUSH1 0xA0 SHL SUB AND CALLER EQ PUSH2 0xB2D JUMPI PUSH1 0x40 MLOAD PUSH4 0x17737E4F PUSH1 0xE3 SHL DUP2 MSTORE PUSH1 0x4 ADD PUSH1 0x40 MLOAD DUP1 SWAP2 SUB SWAP1 REVERT JUMPDEST PUSH0 DUP8 DUP2 MSTORE PUSH1 0x20 DUP2 SWAP1 MSTORE PUSH1 0x40 DUP2 KECCAK256 PUSH2 0xB44 SWAP1 DUP9 PUSH2 0x982 JUMP JUMPDEST PUSH0 DUP10 DUP2 MSTORE PUSH1 0x20 DUP2 SWAP1 MSTORE PUSH1 0x40 SWAP1 KECCAK256 SWAP1 SWAP2 POP PUSH2 0xB61 SWAP1 DUP9 DUP9 DUP9 DUP9 PUSH2 0x14AF JUMP JUMPDEST PUSH1 0x40 DUP1 MLOAD DUP4 DUP2 MSTORE PUSH1 0x20 DUP2 ADD DUP11 SWAP1 MSTORE SWAP1 DUP2 ADD DUP9 SWAP1 MSTORE PUSH1 0x60 DUP2 ADD DUP3 SWAP1 MSTORE SWAP1 SWAP4 POP DUP9 SWAP1 PUSH32 0xEA3588E4A2A0C93D6A0E69DFEAF7496F43CCCCF02AD9CE0A5B7627CBCA4B61B1 SWAP1 PUSH1 0x80 ADD PUSH1 0x40 MLOAD DUP1 SWAP2 SUB SWAP1 LOG2 POP POP SWAP6 SWAP5 POP POP POP POP POP JUMP JUMPDEST PUSH0 PUSH1 0x8 DUP3 PUSH1 0x40 MLOAD PUSH1 0x20 ADD PUSH2 0xBCF SWAP2 DUP2 MSTORE PUSH1 0x20 ADD SWAP1 JUMP JUMPDEST PUSH1 0x40 DUP1 MLOAD PUSH1 0x1F NOT DUP2 DUP5 SUB ADD DUP2 MSTORE SWAP2 SWAP1 MSTORE DUP1 MLOAD PUSH1 0x20 SWAP1 SWAP2 ADD KECCAK256 SWAP1 SHR SWAP3 SWAP2 POP POP JUMP JUMPDEST PUSH0 DUP3 DUP2 MSTORE PUSH1 0x1 PUSH1 0x20 MSTORE PUSH1 0x40 SWAP1 KECCAK256 SLOAD DUP3 SWAP1 PUSH1 0x1 PUSH1 0x1 PUSH1 0xA0 SHL SUB AND CALLER EQ PUSH2 0xC27 JUMPI PUSH1 0x40 MLOAD PUSH4 0x17737E4F PUSH1 0xE3 SHL DUP2 MSTORE PUSH1 0x4 ADD PUSH1 0x40 MLOAD DUP1 SWAP2 SUB SWAP1 REVERT JUMPDEST PUSH0 DUP4 DUP2 MSTORE PUSH1 0x2 PUSH1 0x20 MSTORE PUSH1 0x40 DUP1 DUP3 KECCAK256 DUP1 SLOAD PUSH1 0x1 PUSH1 0x1 PUSH1 0xA0 SHL SUB NOT AND PUSH1 0x1 PUSH1 0x1 PUSH1 0xA0 SHL SUB DUP7 AND SWAP1 DUP2 OR SWAP1 SWAP2 SSTORE SWAP1 MLOAD SWAP1 SWAP2 CALLER SWAP2 DUP7 SWAP2 PUSH32 0x1018365553CCE55D9CB02EF73E18CC9311894F3FE1D1EAFD235AC2D26CD8BA58 SWAP2 LOG4 POP POP POP JUMP JUMPDEST PUSH0 DUP5 DUP2 MSTORE PUSH1 0x1 PUSH1 0x20 MSTORE PUSH1 0x40 DUP2 KECCAK256 SLOAD DUP6 SWAP1 PUSH1 0x1 PUSH1 0x1 PUSH1 0xA0 SHL SUB AND CALLER EQ PUSH2 0xCB9 JUMPI PUSH1 0x40 MLOAD PUSH4 0x17737E4F PUSH1 0xE3 SHL DUP2 MSTORE PUSH1 0x4 ADD PUSH1 0x40 MLOAD DUP1 SWAP2 SUB SWAP1 REVERT JUMPDEST PUSH0 DUP7 DUP2 MSTORE PUSH1 0x20 DUP2 SWAP1 MSTORE PUSH1 0x40 DUP2 KECCAK256 PUSH2 0xCD0 SWAP1 DUP8 PUSH2 0x982 JUMP JUMPDEST PUSH0 DUP9 DUP2 MSTORE PUSH1 0x20 DUP2 SWAP1 MSTORE PUSH1 0x40 SWAP1 KECCAK256 SWAP1 SWAP2 POP PUSH2 0xCEC SWAP1 DUP8 DUP8 DUP8 PUSH2 0x1935 JUMP JUMPDEST PUSH1 0x40 DUP1 MLOAD DUP4 DUP2 MSTORE PUSH1 0x20 DUP2 ADD DUP10 SWAP1 MSTORE SWAP1 DUP2 ADD DUP3 SWAP1 MSTORE SWAP1 SWAP4 POP DUP8 SWAP1 PUSH32 0x3108849C053C77B8073A11256DFFB5FFD5B55E93E105A355E1C9061DB890D871 SWAP1 PUSH1 0x60 ADD PUSH1 0x40 MLOAD DUP1 SWAP2 SUB SWAP1 LOG2 POP POP SWAP5 SWAP4 POP POP POP POP JUMP JUMPDEST PUSH0 DUP2 DUP2 MSTORE PUSH1 0x2 PUSH1 0x20 MSTORE PUSH1 0x40 SWAP1 KECCAK256 SLOAD PUSH1 0x1 PUSH1 0x1 PUSH1 0xA0 SHL SUB AND CALLER EQ PUSH2 0xD72 JUMPI PUSH1 0x40 MLOAD PUSH4 0x34C4245D PUSH1 0xE0 SHL DUP2 MSTORE PUSH1 0x4 ADD PUSH1 0x40 MLOAD DUP1 SWAP2 SUB SWAP1 REVERT JUMPDEST PUSH0 DUP2 DUP2 MSTORE PUSH1 0x1 PUSH1 0x20 SWAP1 DUP2 MSTORE PUSH1 0x40 DUP1 DUP4 KECCAK256 DUP1 SLOAD CALLER PUSH1 0x1 PUSH1 0x1 PUSH1 0xA0 SHL SUB NOT DUP1 DUP4 AND DUP3 OR SWAP1 SWAP4 SSTORE PUSH1 0x2 SWAP1 SWAP5 MSTORE DUP3 DUP6 KECCAK256 DUP1 SLOAD SWAP1 SWAP3 AND SWAP1 SWAP2 SSTORE SWAP1 MLOAD PUSH1 0x1 PUSH1 0x1 PUSH1 0xA0 SHL SUB SWAP1 SWAP2 AND SWAP3 DUP4 SWAP2 DUP6 SWAP2 PUSH32 0xBA83579A0E79193EF649B9F5A8759D35AF086BA62A3E207B52E4A8AE30D49E3 SWAP2 LOG4 POP POP JUMP JUMPDEST DUP3 SLOAD PUSH0 SWAP1 DUP2 JUMPDEST DUP4 DUP2 LT ISZERO PUSH2 0xF0A JUMPI PUSH0 DUP1 MLOAD PUSH1 0x20 PUSH2 0x1EAB DUP4 CODECOPY DUP2 MLOAD SWAP2 MSTORE DUP6 DUP6 DUP4 DUP2 DUP2 LT PUSH2 0xE0D JUMPI PUSH2 0xE0D PUSH2 0x1BBA JUMP JUMPDEST SWAP1 POP PUSH1 0x20 MUL ADD CALLDATALOAD LT PUSH2 0xE32 JUMPI PUSH1 0x40 MLOAD PUSH4 0x61C05417 PUSH1 0xE1 SHL DUP2 MSTORE PUSH1 0x4 ADD PUSH1 0x40 MLOAD DUP1 SWAP2 SUB SWAP1 REVERT JUMPDEST DUP5 DUP5 DUP3 DUP2 DUP2 LT PUSH2 0xE44 JUMPI PUSH2 0xE44 PUSH2 0x1BBA JUMP JUMPDEST SWAP1 POP PUSH1 0x20 MUL ADD CALLDATALOAD PUSH0 SUB PUSH2 0xE6A JUMPI PUSH1 0x40 MLOAD PUSH4 0x14B48DF1 PUSH1 0xE1 SHL DUP2 MSTORE PUSH1 0x4 ADD PUSH1 0x40 MLOAD DUP1 SWAP2 SUB SWAP1 REVERT JUMPDEST PUSH2 0xE9E DUP7 DUP7 DUP7 DUP5 DUP2 DUP2 LT PUSH2 0xE80 JUMPI PUSH2 0xE80 PUSH2 0x1BBA JUMP JUMPDEST SWAP1 POP PUSH1 0x20 MUL ADD CALLDATALOAD PUSH0 SWAP1 DUP2 MSTORE PUSH1 0x3 SWAP2 SWAP1 SWAP2 ADD PUSH1 0x20 MSTORE PUSH1 0x40 SWAP1 KECCAK256 SLOAD ISZERO ISZERO SWAP1 JUMP JUMPDEST ISZERO PUSH2 0xEBC JUMPI PUSH1 0x40 MLOAD PUSH4 0x12C50CAD PUSH1 0xE1 SHL DUP2 MSTORE PUSH1 0x4 ADD PUSH1 0x40 MLOAD DUP1 SWAP2 SUB SWAP1 REVERT JUMPDEST DUP1 PUSH2 0xEC8 DUP4 PUSH1 0x1 PUSH2 0x1BA7 JUMP JUMPDEST PUSH2 0xED2 SWAP2 SWAP1 PUSH2 0x1BA7 JUMP JUMPDEST DUP7 PUSH1 0x3 ADD PUSH0 DUP8 DUP8 DUP6 DUP2 DUP2 LT PUSH2 0xEE9 JUMPI PUSH2 0xEE9 PUSH2 0x1BBA JUMP JUMPDEST PUSH1 0x20 SWAP1 DUP2 MUL SWAP3 SWAP1 SWAP3 ADD CALLDATALOAD DUP4 MSTORE POP DUP2 ADD SWAP2 SWAP1 SWAP2 MSTORE PUSH1 0x40 ADD PUSH0 KECCAK256 SSTORE PUSH1 0x1 ADD PUSH2 0xDE5 JUMP JUMPDEST POP PUSH1 0x60 DUP5 DUP5 DUP1 DUP1 PUSH1 0x20 MUL PUSH1 0x20 ADD PUSH1 0x40 MLOAD SWAP1 DUP2 ADD PUSH1 0x40 MSTORE DUP1 SWAP4 SWAP3 SWAP2 SWAP1 DUP2 DUP2 MSTORE PUSH1 0x20 ADD DUP4 DUP4 PUSH1 0x20 MUL DUP1 DUP3 DUP5 CALLDATACOPY PUSH0 SWAP3 ADD SWAP2 SWAP1 SWAP2 MSTORE POP POP POP PUSH1 0x1 DUP9 ADD SLOAD SWAP2 SWAP3 POP POP JUMPDEST PUSH2 0xF52 DUP6 DUP5 PUSH2 0x1BA7 JUMP JUMPDEST PUSH2 0xF5D DUP3 PUSH1 0x2 PUSH2 0x1E2D JUMP JUMPDEST LT ISZERO PUSH2 0xF73 JUMPI PUSH2 0xF6C DUP2 PUSH2 0x1B8F JUMP JUMPDEST SWAP1 POP PUSH2 0xF48 JUMP JUMPDEST PUSH1 0x1 DUP8 ADD DUP2 SWAP1 SSTORE DUP3 PUSH0 PUSH2 0xF86 DUP8 DUP4 PUSH2 0x1BA7 JUMP JUMPDEST SWAP1 POP PUSH1 0x1 DUP3 DUP2 SHR SWAP1 PUSH0 SWAP1 PUSH2 0xF9A DUP2 DUP6 PUSH2 0x1D3A JUMP JUMPDEST PUSH2 0xFA6 SWAP2 SHR PUSH1 0x1 PUSH2 0x1BA7 JUMP JUMPDEST SWAP1 POP PUSH0 JUMPDEST DUP6 DUP2 LT ISZERO PUSH2 0x1288 JUMPI PUSH0 PUSH2 0xFBD DUP5 DUP5 PUSH2 0x1D3A JUMP JUMPDEST SWAP1 POP PUSH0 DUP2 PUSH8 0xFFFFFFFFFFFFFFFF DUP2 GT ISZERO PUSH2 0xFD9 JUMPI PUSH2 0xFD9 PUSH2 0x1E38 JUMP JUMPDEST PUSH1 0x40 MLOAD SWAP1 DUP1 DUP3 MSTORE DUP1 PUSH1 0x20 MUL PUSH1 0x20 ADD DUP3 ADD PUSH1 0x40 MSTORE DUP1 ISZERO PUSH2 0x1002 JUMPI DUP2 PUSH1 0x20 ADD PUSH1 0x20 DUP3 MUL DUP1 CALLDATASIZE DUP4 CALLDATACOPY ADD SWAP1 POP JUMPDEST POP SWAP1 POP PUSH0 JUMPDEST DUP3 DUP2 LT ISZERO PUSH2 0x11B7 JUMPI PUSH0 DUP9 PUSH2 0x101B DUP9 DUP5 PUSH2 0x1BA7 JUMP JUMPDEST PUSH2 0x1026 SWAP1 PUSH1 0x2 PUSH2 0x1E4C JUMP JUMPDEST LT ISZERO PUSH2 0x1047 JUMPI DUP16 PUSH1 0x2 ADD PUSH0 DUP7 DUP2 MSTORE PUSH1 0x20 ADD SWAP1 DUP2 MSTORE PUSH1 0x20 ADD PUSH0 KECCAK256 SLOAD SWAP1 POP PUSH2 0x1083 JUMP JUMPDEST DUP11 DUP10 PUSH2 0x1053 DUP10 DUP6 PUSH2 0x1BA7 JUMP JUMPDEST PUSH2 0x105E SWAP1 PUSH1 0x2 PUSH2 0x1E4C JUMP JUMPDEST PUSH2 0x1068 SWAP2 SWAP1 PUSH2 0x1D3A JUMP JUMPDEST DUP2 MLOAD DUP2 LT PUSH2 0x1078 JUMPI PUSH2 0x1078 PUSH2 0x1BBA JUMP JUMPDEST PUSH1 0x20 MUL PUSH1 0x20 ADD ADD MLOAD SWAP1 POP JUMPDEST PUSH0 DUP9 PUSH2 0x108F DUP10 DUP6 PUSH2 0x1BA7 JUMP JUMPDEST PUSH2 0x109A SWAP1 PUSH1 0x2 PUSH2 0x1E4C JUMP JUMPDEST PUSH2 0x10A5 SWAP1 PUSH1 0x1 PUSH2 0x1BA7 JUMP JUMPDEST LT ISZERO PUSH2 0x10F2 JUMPI DUP12 DUP11 PUSH2 0x10B7 DUP11 DUP7 PUSH2 0x1BA7 JUMP JUMPDEST PUSH2 0x10C2 SWAP1 PUSH1 0x2 PUSH2 0x1E4C JUMP JUMPDEST PUSH2 0x10CD SWAP1 PUSH1 0x1 PUSH2 0x1BA7 JUMP JUMPDEST PUSH2 0x10D7 SWAP2 SWAP1 PUSH2 0x1D3A JUMP JUMPDEST DUP2 MLOAD DUP2 LT PUSH2 0x10E7 JUMPI PUSH2 0x10E7 PUSH2 0x1BBA JUMP JUMPDEST PUSH1 0x20 MUL PUSH1 0x20 ADD ADD MLOAD SWAP1 POP JUMPDEST PUSH0 DUP2 ISZERO PUSH2 0x1187 JUMPI PUSH1 0x40 DUP1 MLOAD DUP1 DUP3 ADD DUP3 MSTORE DUP5 DUP2 MSTORE PUSH1 0x20 DUP2 ADD DUP5 SWAP1 MSTORE SWAP1 MLOAD PUSH4 0x2B0AAC7F PUSH1 0xE1 SHL DUP2 MSTORE PUSH20 0x0 SWAP2 PUSH4 0x561558FE SWAP2 PUSH2 0x1141 SWAP2 SWAP1 PUSH1 0x4 ADD PUSH2 0x1E63 JUMP JUMPDEST PUSH1 0x20 PUSH1 0x40 MLOAD DUP1 DUP4 SUB DUP2 DUP7 GAS DELEGATECALL ISZERO DUP1 ISZERO PUSH2 0x115C JUMPI RETURNDATASIZE PUSH0 DUP1 RETURNDATACOPY RETURNDATASIZE PUSH0 REVERT JUMPDEST POP POP POP POP PUSH1 0x40 MLOAD RETURNDATASIZE PUSH1 0x1F NOT PUSH1 0x1F DUP3 ADD AND DUP3 ADD DUP1 PUSH1 0x40 MSTORE POP DUP2 ADD SWAP1 PUSH2 0x1180 SWAP2 SWAP1 PUSH2 0x1E93 JUMP JUMPDEST SWAP1 POP PUSH2 0x118A JUMP JUMPDEST POP DUP2 JUMPDEST DUP1 DUP6 DUP6 DUP2 MLOAD DUP2 LT PUSH2 0x119D JUMPI PUSH2 0x119D PUSH2 0x1BBA JUMP JUMPDEST PUSH1 0x20 MUL PUSH1 0x20 ADD ADD DUP2 DUP2 MSTORE POP POP DUP4 PUSH1 0x1 ADD SWAP4 POP POP POP POP PUSH2 0x1007 JUMP JUMPDEST POP DUP6 PUSH1 0x1 AND PUSH1 0x1 SUB PUSH2 0x1206 JUMPI DUP9 PUSH1 0x1 DUP11 MLOAD PUSH2 0x11D2 SWAP2 SWAP1 PUSH2 0x1D3A JUMP JUMPDEST DUP2 MLOAD DUP2 LT PUSH2 0x11E2 JUMPI PUSH2 0x11E2 PUSH2 0x1BBA JUMP JUMPDEST PUSH1 0x20 MUL PUSH1 0x20 ADD ADD MLOAD DUP15 PUSH1 0x2 ADD PUSH0 DUP6 DUP2 MSTORE PUSH1 0x20 ADD SWAP1 DUP2 MSTORE PUSH1 0x20 ADD PUSH0 KECCAK256 DUP2 SWAP1 SSTORE POP PUSH2 0x124F JUMP JUMPDEST PUSH1 0x1 DUP10 MLOAD GT ISZERO PUSH2 0x124F JUMPI DUP9 PUSH1 0x2 DUP11 MLOAD PUSH2 0x121F SWAP2 SWAP1 PUSH2 0x1D3A JUMP JUMPDEST DUP2 MLOAD DUP2 LT PUSH2 0x122F JUMPI PUSH2 0x122F PUSH2 0x1BBA JUMP JUMPDEST PUSH1 0x20 MUL PUSH1 0x20 ADD ADD MLOAD DUP15 PUSH1 0x2 ADD PUSH0 DUP6 DUP2 MSTORE PUSH1 0x20 ADD SWAP1 DUP2 MSTORE PUSH1 0x20 ADD PUSH0 KECCAK256 DUP2 SWAP1 SSTORE POP JUMPDEST DUP5 SWAP7 POP PUSH1 0x1 DUP6 SWAP1 SHR SWAP5 POP DUP1 SWAP9 POP DUP4 SWAP6 POP PUSH1 0x1 DUP1 DUP6 PUSH2 0x126D SWAP2 SWAP1 PUSH2 0x1D3A JUMP JUMPDEST PUSH2 0x1279 SWAP2 SHR PUSH1 0x1 PUSH2 0x1BA7 JUMP JUMPDEST SWAP4 POP DUP3 PUSH1 0x1 ADD SWAP3 POP POP POP PUSH2 0xFAA JUMP JUMPDEST POP PUSH2 0x1293 DUP10 DUP9 PUSH2 0x1BA7 JUMP JUMPDEST DUP12 SSTORE DUP6 MLOAD DUP7 SWAP1 PUSH0 SWAP1 PUSH2 0x12A7 JUMPI PUSH2 0x12A7 PUSH2 0x1BBA JUMP JUMPDEST PUSH1 0x20 MUL PUSH1 0x20 ADD ADD MLOAD DUP12 PUSH1 0x2 ADD PUSH0 DUP8 DUP2 MSTORE PUSH1 0x20 ADD SWAP1 DUP2 MSTORE PUSH1 0x20 ADD PUSH0 KECCAK256 DUP2 SWAP1 SSTORE POP DUP6 PUSH0 DUP2 MLOAD DUP2 LT PUSH2 0x12D8 JUMPI PUSH2 0x12D8 PUSH2 0x1BBA JUMP JUMPDEST PUSH1 0x20 MUL PUSH1 0x20 ADD ADD MLOAD SWAP8 POP POP POP POP POP POP POP POP SWAP4 SWAP3 POP POP POP JUMP JUMPDEST PUSH0 PUSH0 DUP1 MLOAD PUSH1 0x20 PUSH2 0x1EAB DUP4 CODECOPY DUP2 MLOAD SWAP2 MSTORE DUP3 LT PUSH2 0x131E JUMPI PUSH1 0x40 MLOAD PUSH4 0x61C05417 PUSH1 0xE1 SHL DUP2 MSTORE PUSH1 0x4 ADD PUSH1 0x40 MLOAD DUP1 SWAP2 SUB SWAP1 REVERT JUMPDEST DUP2 PUSH0 SUB PUSH2 0x133E JUMPI PUSH1 0x40 MLOAD PUSH4 0x14B48DF1 PUSH1 0xE1 SHL DUP2 MSTORE PUSH1 0x4 ADD PUSH1 0x40 MLOAD DUP1 SWAP2 SUB SWAP1 REVERT JUMPDEST PUSH0 DUP3 DUP2 MSTORE PUSH1 0x3 DUP5 ADD PUSH1 0x20 MSTORE PUSH1 0x40 SWAP1 KECCAK256 SLOAD ISZERO PUSH2 0x136C JUMPI PUSH1 0x40 MLOAD PUSH4 0x12C50CAD PUSH1 0xE1 SHL DUP2 MSTORE PUSH1 0x4 ADD PUSH1 0x40 MLOAD DUP1 SWAP2 SUB SWAP1 REVERT JUMPDEST DUP3 SLOAD PUSH1 0x1 DUP1 DUP6 ADD SLOAD SWAP1 PUSH2 0x1380 SWAP1 DUP4 SWAP1 PUSH2 0x1BA7 JUMP JUMPDEST PUSH2 0x138B DUP3 PUSH1 0x2 PUSH2 0x1E2D JUMP JUMPDEST LT ISZERO PUSH2 0x139D JUMPI PUSH2 0x139A DUP2 PUSH2 0x1B8F JUMP JUMPDEST SWAP1 POP JUMPDEST PUSH1 0x1 DUP6 ADD DUP2 SWAP1 SSTORE DUP4 PUSH0 JUMPDEST DUP3 DUP2 LT ISZERO PUSH2 0x1475 JUMPI DUP1 DUP5 SWAP1 SHR PUSH1 0x1 AND PUSH1 0x1 SUB PUSH2 0x145A JUMPI PUSH1 0x40 DUP1 MLOAD DUP1 DUP3 ADD DUP3 MSTORE PUSH0 DUP4 DUP2 MSTORE PUSH1 0x2 DUP11 ADD PUSH1 0x20 SWAP1 DUP2 MSTORE SWAP1 DUP4 SWAP1 KECCAK256 SLOAD DUP3 MSTORE DUP2 ADD DUP5 SWAP1 MSTORE SWAP1 MLOAD PUSH4 0x2B0AAC7F PUSH1 0xE1 SHL DUP2 MSTORE PUSH20 0x0 SWAP2 PUSH4 0x561558FE SWAP2 PUSH2 0x1414 SWAP2 SWAP1 PUSH1 0x4 ADD PUSH2 0x1E63 JUMP JUMPDEST PUSH1 0x20 PUSH1 0x40 MLOAD DUP1 DUP4 SUB DUP2 DUP7 GAS DELEGATECALL ISZERO DUP1 ISZERO PUSH2 0x142F JUMPI RETURNDATASIZE PUSH0 DUP1 RETURNDATACOPY RETURNDATASIZE PUSH0 REVERT JUMPDEST POP POP POP POP PUSH1 0x40 MLOAD RETURNDATASIZE PUSH1 0x1F NOT PUSH1 0x1F DUP3 ADD AND DUP3 ADD DUP1 PUSH1 0x40 MSTORE POP DUP2 ADD SWAP1 PUSH2 0x1453 SWAP2 SWAP1 PUSH2 0x1E93 JUMP JUMPDEST SWAP2 POP PUSH2 0x146D JUMP JUMPDEST PUSH0 DUP2 DUP2 MSTORE PUSH1 0x2 DUP9 ADD PUSH1 0x20 MSTORE PUSH1 0x40 SWAP1 KECCAK256 DUP3 SWAP1 SSTORE JUMPDEST PUSH1 0x1 ADD PUSH2 0x13A7 JUMP JUMPDEST POP PUSH2 0x147F DUP4 PUSH2 0x1B8F JUMP JUMPDEST DUP1 DUP8 SSTORE PUSH0 SWAP3 DUP4 MSTORE PUSH1 0x2 DUP8 ADD PUSH1 0x20 SWAP1 DUP2 MSTORE PUSH1 0x40 DUP1 DUP6 KECCAK256 DUP5 SWAP1 SSTORE SWAP7 DUP5 MSTORE PUSH1 0x3 SWAP1 SWAP8 ADD SWAP1 SWAP7 MSTORE SWAP4 SWAP1 KECCAK256 SWAP4 SWAP1 SWAP4 SSTORE POP SWAP2 SWAP1 POP JUMP JUMPDEST PUSH0 PUSH0 DUP1 MLOAD PUSH1 0x20 PUSH2 0x1EAB DUP4 CODECOPY DUP2 MLOAD SWAP2 MSTORE DUP5 LT PUSH2 0x14DD JUMPI PUSH1 0x40 MLOAD PUSH4 0x61C05417 PUSH1 0xE1 SHL DUP2 MSTORE PUSH1 0x4 ADD PUSH1 0x40 MLOAD DUP1 SWAP2 SUB SWAP1 REVERT JUMPDEST PUSH0 DUP6 DUP2 MSTORE PUSH1 0x3 DUP8 ADD PUSH1 0x20 MSTORE PUSH1 0x40 SWAP1 KECCAK256 SLOAD PUSH2 0x150A JUMPI PUSH1 0x40 MLOAD PUSH4 0x1C811D5B PUSH1 0xE2 SHL DUP2 MSTORE PUSH1 0x4 ADD PUSH1 0x40 MLOAD DUP1 SWAP2 SUB SWAP1 REVERT JUMPDEST PUSH0 DUP5 DUP2 MSTORE PUSH1 0x3 DUP8 ADD PUSH1 0x20 MSTORE PUSH1 0x40 SWAP1 KECCAK256 SLOAD ISZERO PUSH2 0x1538 JUMPI PUSH1 0x40 MLOAD PUSH4 0x12C50CAD PUSH1 0xE1 SHL DUP2 MSTORE PUSH1 0x4 ADD PUSH1 0x40 MLOAD DUP1 SWAP2 SUB SWAP1 REVERT JUMPDEST PUSH0 PUSH2 0x1543 DUP8 DUP8 PUSH2 0x982 JUMP JUMPDEST DUP8 SLOAD SWAP1 SWAP2 POP DUP6 SWAP1 DUP8 SWAP1 PUSH0 SWAP1 PUSH2 0x155A SWAP1 PUSH1 0x1 SWAP1 PUSH2 0x1D3A JUMP JUMPDEST PUSH1 0x1 DUP12 ADD SLOAD SWAP1 SWAP2 POP PUSH0 SWAP1 DUP2 JUMPDEST DUP2 DUP2 LT ISZERO PUSH2 0x18B0 JUMPI DUP1 DUP8 SWAP1 SHR PUSH1 0x1 AND PUSH1 0x1 SUB PUSH2 0x1714 JUMPI PUSH0 DUP1 MLOAD PUSH1 0x20 PUSH2 0x1EAB DUP4 CODECOPY DUP2 MLOAD SWAP2 MSTORE DUP11 DUP11 DUP6 DUP2 DUP2 LT PUSH2 0x159C JUMPI PUSH2 0x159C PUSH2 0x1BBA JUMP JUMPDEST SWAP1 POP PUSH1 0x20 MUL ADD CALLDATALOAD LT PUSH2 0x15C1 JUMPI PUSH1 0x40 MLOAD PUSH4 0x61C05417 PUSH1 0xE1 SHL DUP2 MSTORE PUSH1 0x4 ADD PUSH1 0x40 MLOAD DUP1 SWAP2 SUB SWAP1 REVERT JUMPDEST PUSH20 0x0 PUSH4 0x561558FE PUSH1 0x40 MLOAD DUP1 PUSH1 0x40 ADD PUSH1 0x40 MSTORE DUP1 DUP14 DUP14 DUP9 DUP2 DUP2 LT PUSH2 0x15F8 JUMPI PUSH2 0x15F8 PUSH2 0x1BBA JUMP JUMPDEST SWAP1 POP PUSH1 0x20 MUL ADD CALLDATALOAD DUP2 MSTORE PUSH1 0x20 ADD DUP10 DUP2 MSTORE POP PUSH1 0x40 MLOAD DUP3 PUSH4 0xFFFFFFFF AND PUSH1 0xE0 SHL DUP2 MSTORE PUSH1 0x4 ADD PUSH2 0x1624 SWAP2 SWAP1 PUSH2 0x1E63 JUMP JUMPDEST PUSH1 0x20 PUSH1 0x40 MLOAD DUP1 DUP4 SUB DUP2 DUP7 GAS DELEGATECALL ISZERO DUP1 ISZERO PUSH2 0x163F JUMPI RETURNDATASIZE PUSH0 DUP1 RETURNDATACOPY RETURNDATASIZE PUSH0 REVERT JUMPDEST POP POP POP POP PUSH1 0x40 MLOAD RETURNDATASIZE PUSH1 0x1F NOT PUSH1 0x1F DUP3 ADD AND DUP3 ADD DUP1 PUSH1 0x40 MSTORE POP DUP2 ADD SWAP1 PUSH2 0x1663 SWAP2 SWAP1 PUSH2 0x1E93 JUMP JUMPDEST SWAP6 POP PUSH20 0x0 PUSH4 0x561558FE PUSH1 0x40 MLOAD DUP1 PUSH1 0x40 ADD PUSH1 0x40 MSTORE DUP1 DUP14 DUP14 DUP9 DUP2 DUP2 LT PUSH2 0x169C JUMPI PUSH2 0x169C PUSH2 0x1BBA JUMP JUMPDEST SWAP1 POP PUSH1 0x20 MUL ADD CALLDATALOAD DUP2 MSTORE PUSH1 0x20 ADD DUP9 DUP2 MSTORE POP PUSH1 0x40 MLOAD DUP3 PUSH4 0xFFFFFFFF AND PUSH1 0xE0 SHL DUP2 MSTORE PUSH1 0x4 ADD PUSH2 0x16C8 SWAP2 SWAP1 PUSH2 0x1E63 JUMP JUMPDEST PUSH1 0x20 PUSH1 0x40 MLOAD DUP1 DUP4 SUB DUP2 DUP7 GAS DELEGATECALL ISZERO DUP1 ISZERO PUSH2 0x16E3 JUMPI RETURNDATASIZE PUSH0 DUP1 RETURNDATACOPY RETURNDATASIZE PUSH0 REVERT JUMPDEST POP POP POP POP PUSH1 0x40 MLOAD RETURNDATASIZE PUSH1 0x1F NOT PUSH1 0x1F DUP3 ADD AND DUP3 ADD DUP1 PUSH1 0x40 MSTORE POP DUP2 ADD SWAP1 PUSH2 0x1707 SWAP2 SWAP1 PUSH2 0x1E93 JUMP JUMPDEST SWAP5 POP DUP3 PUSH1 0x1 ADD SWAP3 POP PUSH2 0x18A8 JUMP JUMPDEST DUP7 DUP2 SHR DUP5 DUP3 SHR EQ PUSH2 0x1895 JUMPI PUSH0 DUP1 MLOAD PUSH1 0x20 PUSH2 0x1EAB DUP4 CODECOPY DUP2 MLOAD SWAP2 MSTORE DUP11 DUP11 DUP6 DUP2 DUP2 LT PUSH2 0x173F JUMPI PUSH2 0x173F PUSH2 0x1BBA JUMP JUMPDEST SWAP1 POP PUSH1 0x20 MUL ADD CALLDATALOAD LT PUSH2 0x1764 JUMPI PUSH1 0x40 MLOAD PUSH4 0x61C05417 PUSH1 0xE1 SHL DUP2 MSTORE PUSH1 0x4 ADD PUSH1 0x40 MLOAD DUP1 SWAP2 SUB SWAP1 REVERT JUMPDEST PUSH0 DUP2 DUP2 MSTORE PUSH1 0x2 DUP15 ADD PUSH1 0x20 MSTORE PUSH1 0x40 SWAP1 KECCAK256 SLOAD DUP6 SWAP1 SUB PUSH2 0x178E JUMPI PUSH0 DUP2 DUP2 MSTORE PUSH1 0x2 DUP15 ADD PUSH1 0x20 MSTORE PUSH1 0x40 SWAP1 KECCAK256 DUP7 SWAP1 SSTORE JUMPDEST PUSH20 0x0 PUSH4 0x561558FE PUSH1 0x40 MLOAD DUP1 PUSH1 0x40 ADD PUSH1 0x40 MSTORE DUP1 DUP10 DUP2 MSTORE PUSH1 0x20 ADD DUP14 DUP14 DUP9 DUP2 DUP2 LT PUSH2 0x17CB JUMPI PUSH2 0x17CB PUSH2 0x1BBA JUMP JUMPDEST SWAP1 POP PUSH1 0x20 MUL ADD CALLDATALOAD DUP2 MSTORE POP PUSH1 0x40 MLOAD DUP3 PUSH4 0xFFFFFFFF AND PUSH1 0xE0 SHL DUP2 MSTORE PUSH1 0x4 ADD PUSH2 0x17F1 SWAP2 SWAP1 PUSH2 0x1E63 JUMP JUMPDEST PUSH1 0x20 PUSH1 0x40 MLOAD DUP1 DUP4 SUB DUP2 DUP7 GAS DELEGATECALL ISZERO DUP1 ISZERO PUSH2 0x180C JUMPI RETURNDATASIZE PUSH0 DUP1 RETURNDATACOPY RETURNDATASIZE PUSH0 REVERT JUMPDEST POP POP POP POP PUSH1 0x40 MLOAD RETURNDATASIZE PUSH1 0x1F NOT PUSH1 0x1F DUP3 ADD AND DUP3 ADD DUP1 PUSH1 0x40 MSTORE POP DUP2 ADD SWAP1 PUSH2 0x1830 SWAP2 SWAP1 PUSH2 0x1E93 JUMP JUMPDEST SWAP6 POP PUSH20 0x0 PUSH4 0x561558FE PUSH1 0x40 MLOAD DUP1 PUSH1 0x40 ADD PUSH1 0x40 MSTORE DUP1 DUP9 DUP2 MSTORE PUSH1 0x20 ADD DUP14 DUP14 DUP9 DUP2 DUP2 LT PUSH2 0x186F JUMPI PUSH2 0x186F PUSH2 0x1BBA JUMP JUMPDEST SWAP1 POP PUSH1 0x20 MUL ADD CALLDATALOAD DUP2 MSTORE POP PUSH1 0x40 MLOAD DUP3 PUSH4 0xFFFFFFFF AND PUSH1 0xE0 SHL DUP2 MSTORE PUSH1 0x4 ADD PUSH2 0x16C8 SWAP2 SWAP1 PUSH2 0x1E63 JUMP JUMPDEST PUSH0 DUP2 DUP2 MSTORE PUSH1 0x2 DUP15 ADD PUSH1 0x20 MSTORE PUSH1 0x40 SWAP1 KECCAK256 DUP7 SWAP1 SSTORE JUMPDEST PUSH1 0x1 ADD PUSH2 0x1566 JUMP JUMPDEST POP PUSH1 0x1 DUP13 ADD SLOAD PUSH0 SWAP1 DUP2 MSTORE PUSH1 0x2 DUP14 ADD PUSH1 0x20 MSTORE PUSH1 0x40 SWAP1 KECCAK256 SLOAD DUP5 EQ PUSH2 0x18E5 JUMPI PUSH1 0x40 MLOAD PUSH4 0x1FD49863 PUSH1 0xE1 SHL DUP2 MSTORE PUSH1 0x4 ADD PUSH1 0x40 MLOAD DUP1 SWAP2 SUB SWAP1 REVERT JUMPDEST PUSH0 DUP2 DUP2 MSTORE PUSH1 0x2 DUP14 ADD PUSH1 0x20 MSTORE PUSH1 0x40 SWAP1 KECCAK256 DUP6 SWAP1 SSTORE DUP10 ISZERO PUSH2 0x1915 JUMPI PUSH0 DUP12 DUP2 MSTORE PUSH1 0x3 DUP14 ADD PUSH1 0x20 MSTORE PUSH1 0x40 DUP1 DUP3 KECCAK256 SLOAD DUP13 DUP4 MSTORE SWAP2 KECCAK256 SSTORE JUMPDEST POP POP POP PUSH0 DUP9 DUP2 MSTORE PUSH1 0x3 DUP11 ADD PUSH1 0x20 MSTORE PUSH1 0x40 DUP2 KECCAK256 SSTORE POP SWAP2 POP POP SWAP6 SWAP5 POP POP POP POP POP JUMP JUMPDEST PUSH0 PUSH2 0x1943 DUP6 DUP6 PUSH0 DUP7 DUP7 PUSH2 0x14AF JUMP JUMPDEST SWAP6 SWAP5 POP POP POP POP POP JUMP JUMPDEST PUSH0 DUP1 DUP4 PUSH1 0x1F DUP5 ADD SLT PUSH2 0x195C JUMPI PUSH0 DUP1 REVERT JUMPDEST POP DUP2 CALLDATALOAD PUSH8 0xFFFFFFFFFFFFFFFF DUP2 GT ISZERO PUSH2 0x1973 JUMPI PUSH0 DUP1 REVERT JUMPDEST PUSH1 0x20 DUP4 ADD SWAP2 POP DUP4 PUSH1 0x20 DUP3 PUSH1 0x5 SHL DUP6 ADD ADD GT ISZERO PUSH2 0x198D JUMPI PUSH0 DUP1 REVERT JUMPDEST SWAP3 POP SWAP3 SWAP1 POP JUMP JUMPDEST PUSH0 DUP1 PUSH0 PUSH1 0x40 DUP5 DUP7 SUB SLT ISZERO PUSH2 0x19A6 JUMPI PUSH0 DUP1 REVERT JUMPDEST DUP4 CALLDATALOAD SWAP3 POP PUSH1 0x20 DUP5 ADD CALLDATALOAD PUSH8 0xFFFFFFFFFFFFFFFF DUP2 GT ISZERO PUSH2 0x19C3 JUMPI PUSH0 DUP1 REVERT JUMPDEST PUSH2 0x19CF DUP7 DUP3 DUP8 ADD PUSH2 0x194C JUMP JUMPDEST SWAP5 SWAP8 SWAP1 SWAP7 POP SWAP4 SWAP5 POP POP POP POP JUMP JUMPDEST PUSH0 DUP1 PUSH1 0x40 DUP4 DUP6 SUB SLT ISZERO PUSH2 0x19ED JUMPI PUSH0 DUP1 REVERT JUMPDEST POP POP DUP1 CALLDATALOAD SWAP3 PUSH1 0x20 SWAP1 SWAP2 ADD CALLDATALOAD SWAP2 POP JUMP JUMPDEST DUP1 CALLDATALOAD PUSH1 0x1 PUSH1 0x1 PUSH1 0xA0 SHL SUB DUP2 AND DUP2 EQ PUSH2 0x1A12 JUMPI PUSH0 DUP1 REVERT JUMPDEST SWAP2 SWAP1 POP JUMP JUMPDEST PUSH0 DUP1 PUSH1 0x40 DUP4 DUP6 SUB SLT ISZERO PUSH2 0x1A28 JUMPI PUSH0 DUP1 REVERT JUMPDEST PUSH2 0x1A31 DUP4 PUSH2 0x19FC JUMP JUMPDEST SWAP5 PUSH1 0x20 SWAP4 SWAP1 SWAP4 ADD CALLDATALOAD SWAP4 POP POP POP JUMP JUMPDEST PUSH0 DUP1 PUSH0 DUP1 PUSH0 PUSH1 0x80 DUP7 DUP9 SUB SLT ISZERO PUSH2 0x1A53 JUMPI PUSH0 DUP1 REVERT JUMPDEST DUP6 CALLDATALOAD SWAP5 POP PUSH1 0x20 DUP7 ADD CALLDATALOAD SWAP4 POP PUSH1 0x40 DUP7 ADD CALLDATALOAD SWAP3 POP PUSH1 0x60 DUP7 ADD CALLDATALOAD PUSH8 0xFFFFFFFFFFFFFFFF DUP2 GT ISZERO PUSH2 0x1A7E JUMPI PUSH0 DUP1 REVERT JUMPDEST PUSH2 0x1A8A DUP9 DUP3 DUP10 ADD PUSH2 0x194C JUMP JUMPDEST SWAP7 SWAP10 SWAP6 SWAP9 POP SWAP4 SWAP7 POP SWAP3 SWAP5 SWAP4 SWAP3 POP POP POP JUMP JUMPDEST PUSH0 DUP1 DUP3 DUP5 SUB PUSH2 0x1C0 DUP2 SLT ISZERO PUSH2 0x1AAE JUMPI PUSH0 DUP1 REVERT JUMPDEST DUP4 CALLDATALOAD SWAP3 POP PUSH2 0x1A0 PUSH1 0x1F NOT DUP3 ADD SLT ISZERO PUSH2 0x1AC4 JUMPI PUSH0 DUP1 REVERT JUMPDEST POP PUSH1 0x20 DUP4 ADD SWAP1 POP SWAP3 POP SWAP3 SWAP1 POP JUMP JUMPDEST PUSH0 DUP1 PUSH1 0x40 DUP4 DUP6 SUB SLT ISZERO PUSH2 0x1AE3 JUMPI PUSH0 DUP1 REVERT JUMPDEST DUP3 CALLDATALOAD SWAP2 POP PUSH2 0x1AF3 PUSH1 0x20 DUP5 ADD PUSH2 0x19FC JUMP JUMPDEST SWAP1 POP SWAP3 POP SWAP3 SWAP1 POP JUMP JUMPDEST PUSH0 PUSH1 0x20 DUP3 DUP5 SUB SLT ISZERO PUSH2 0x1B0C JUMPI PUSH0 DUP1 REVERT JUMPDEST PUSH2 0x371 DUP3 PUSH2 0x19FC JUMP JUMPDEST PUSH0 PUSH1 0x20 DUP3 DUP5 SUB SLT ISZERO PUSH2 0x1B25 JUMPI PUSH0 DUP1 REVERT JUMPDEST POP CALLDATALOAD SWAP2 SWAP1 POP JUMP JUMPDEST PUSH0 DUP1 PUSH0 DUP1 PUSH1 0x60 DUP6 DUP8 SUB SLT ISZERO PUSH2 0x1B3F JUMPI PUSH0 DUP1 REVERT JUMPDEST DUP5 CALLDATALOAD SWAP4 POP PUSH1 0x20 DUP6 ADD CALLDATALOAD SWAP3 POP PUSH1 0x40 DUP6 ADD CALLDATALOAD PUSH8 0xFFFFFFFFFFFFFFFF DUP2 GT ISZERO PUSH2 0x1B63 JUMPI PUSH0 DUP1 REVERT JUMPDEST PUSH2 0x1B6F DUP8 DUP3 DUP9 ADD PUSH2 0x194C JUMP JUMPDEST SWAP6 SWAP9 SWAP5 SWAP8 POP SWAP6 POP POP POP POP JUMP JUMPDEST PUSH4 0x4E487B71 PUSH1 0xE0 SHL PUSH0 MSTORE PUSH1 0x11 PUSH1 0x4 MSTORE PUSH1 0x24 PUSH0 REVERT JUMPDEST PUSH0 PUSH1 0x1 DUP3 ADD PUSH2 0x1BA0 JUMPI PUSH2 0x1BA0 PUSH2 0x1B7B JUMP JUMPDEST POP PUSH1 0x1 ADD SWAP1 JUMP JUMPDEST DUP1 DUP3 ADD DUP1 DUP3 GT ISZERO PUSH2 0x374 JUMPI PUSH2 0x374 PUSH2 0x1B7B JUMP JUMPDEST PUSH4 0x4E487B71 PUSH1 0xE0 SHL PUSH0 MSTORE PUSH1 0x32 PUSH1 0x4 MSTORE PUSH1 0x24 PUSH0 REVERT JUMPDEST DUP1 PUSH0 JUMPDEST PUSH1 0x2 DUP2 LT ISZERO PUSH2 0x1BF0 JUMPI DUP2 MLOAD DUP5 MSTORE PUSH1 0x20 SWAP4 DUP5 ADD SWAP4 SWAP1 SWAP2 ADD SWAP1 PUSH1 0x1 ADD PUSH2 0x1BD1 JUMP JUMPDEST POP POP POP POP JUMP JUMPDEST DUP1 PUSH0 JUMPDEST PUSH1 0x4 DUP2 LT ISZERO PUSH2 0x1BF0 JUMPI DUP2 MLOAD DUP5 MSTORE PUSH1 0x20 SWAP4 DUP5 ADD SWAP4 SWAP1 SWAP2 ADD SWAP1 PUSH1 0x1 ADD PUSH2 0x1BF9 JUMP JUMPDEST PUSH2 0x1A0 DUP2 ADD PUSH2 0x1C27 DUP3 DUP9 PUSH2 0x1BCE JUMP JUMPDEST PUSH1 0x40 DUP1 DUP4 ADD DUP8 PUSH0 JUMPDEST PUSH1 0x2 DUP1 DUP3 LT PUSH2 0x1C3E JUMPI POP PUSH2 0x1C78 JUMP JUMPDEST DUP3 MLOAD DUP5 PUSH0 JUMPDEST DUP4 DUP2 LT ISZERO PUSH2 0x1C61 JUMPI DUP3 MLOAD DUP3 MSTORE PUSH1 0x20 SWAP3 DUP4 ADD SWAP3 SWAP1 SWAP2 ADD SWAP1 PUSH1 0x1 ADD PUSH2 0x1C43 JUMP JUMPDEST POP POP POP SWAP3 DUP5 ADD SWAP3 POP PUSH1 0x20 SWAP2 SWAP1 SWAP2 ADD SWAP1 PUSH1 0x1 ADD PUSH2 0x1C2F JUMP JUMPDEST POP POP POP POP PUSH2 0x1C89 PUSH1 0xC0 DUP4 ADD DUP7 PUSH2 0x1BCE JUMP JUMPDEST PUSH2 0x1C97 PUSH2 0x100 DUP4 ADD DUP6 PUSH2 0x1BF6 JUMP JUMPDEST DUP3 PUSH2 0x180 DUP4 ADD MSTORE SWAP7 SWAP6 POP POP POP POP POP POP JUMP JUMPDEST PUSH0 PUSH1 0x20 DUP3 DUP5 SUB SLT ISZERO PUSH2 0x1CB8 JUMPI PUSH0 DUP1 REVERT JUMPDEST DUP2 MLOAD DUP1 ISZERO ISZERO DUP2 EQ PUSH2 0x1CC7 JUMPI PUSH0 DUP1 REVERT JUMPDEST SWAP4 SWAP3 POP POP POP JUMP JUMPDEST DUP5 DUP2 MSTORE PUSH1 0x20 DUP2 ADD DUP5 SWAP1 MSTORE PUSH1 0x40 DUP2 ADD DUP4 SWAP1 MSTORE PUSH2 0x160 DUP2 ADD PUSH2 0x100 DUP4 PUSH1 0x60 DUP5 ADD CALLDATACOPY SWAP6 SWAP5 POP POP POP POP POP JUMP JUMPDEST DUP5 DUP2 MSTORE PUSH1 0x60 PUSH1 0x20 DUP3 ADD DUP2 SWAP1 MSTORE DUP2 ADD DUP4 SWAP1 MSTORE PUSH0 PUSH1 0x1 PUSH1 0x1 PUSH1 0xFB SHL SUB DUP5 GT ISZERO PUSH2 0x1D1B JUMPI PUSH0 DUP1 REVERT JUMPDEST DUP4 PUSH1 0x5 SHL DUP1 DUP7 PUSH1 0x80 DUP6 ADD CALLDATACOPY PUSH1 0x40 DUP4 ADD SWAP4 SWAP1 SWAP4 MSTORE POP ADD PUSH1 0x80 ADD SWAP4 SWAP3 POP POP POP JUMP JUMPDEST DUP2 DUP2 SUB DUP2 DUP2 GT ISZERO PUSH2 0x374 JUMPI PUSH2 0x374 PUSH2 0x1B7B JUMP JUMPDEST PUSH1 0x1 DUP2 DUP2 JUMPDEST DUP1 DUP6 GT ISZERO PUSH2 0x1D87 JUMPI DUP2 PUSH0 NOT DIV DUP3 GT ISZERO PUSH2 0x1D6D JUMPI PUSH2 0x1D6D PUSH2 0x1B7B JUMP JUMPDEST DUP1 DUP6 AND ISZERO PUSH2 0x1D7A JUMPI SWAP2 DUP2 MUL SWAP2 JUMPDEST SWAP4 DUP5 SHR SWAP4 SWAP1 DUP1 MUL SWAP1 PUSH2 0x1D52 JUMP JUMPDEST POP SWAP3 POP SWAP3 SWAP1 POP JUMP JUMPDEST PUSH0 DUP3 PUSH2 0x1D9D JUMPI POP PUSH1 0x1 PUSH2 0x374 JUMP JUMPDEST DUP2 PUSH2 0x1DA9 JUMPI POP PUSH0 PUSH2 0x374 JUMP JUMPDEST DUP2 PUSH1 0x1 DUP2 EQ PUSH2 0x1DBF JUMPI PUSH1 0x2 DUP2 EQ PUSH2 0x1DC9 JUMPI PUSH2 0x1DE5 JUMP JUMPDEST PUSH1 0x1 SWAP2 POP POP PUSH2 0x374 JUMP JUMPDEST PUSH1 0xFF DUP5 GT ISZERO PUSH2 0x1DDA JUMPI PUSH2 0x1DDA PUSH2 0x1B7B JUMP JUMPDEST POP POP PUSH1 0x1 DUP3 SHL PUSH2 0x374 JUMP JUMPDEST POP PUSH1 0x20 DUP4 LT PUSH2 0x133 DUP4 LT AND PUSH1 0x4E DUP5 LT PUSH1 0xB DUP5 LT AND OR ISZERO PUSH2 0x1E08 JUMPI POP DUP2 DUP2 EXP PUSH2 0x374 JUMP JUMPDEST PUSH2 0x1E12 DUP4 DUP4 PUSH2 0x1D4D JUMP JUMPDEST DUP1 PUSH0 NOT DIV DUP3 GT ISZERO PUSH2 0x1E25 JUMPI PUSH2 0x1E25 PUSH2 0x1B7B JUMP JUMPDEST MUL SWAP4 SWAP3 POP POP POP JUMP JUMPDEST PUSH0 PUSH2 0x371 DUP4 DUP4 PUSH2 0x1D8F JUMP JUMPDEST PUSH4 0x4E487B71 PUSH1 0xE0 SHL PUSH0 MSTORE PUSH1 0x41 PUSH1 0x4 MSTORE PUSH1 0x24 PUSH0 REVERT JUMPDEST DUP1 DUP3 MUL DUP2 ISZERO DUP3 DUP3 DIV DUP5 EQ OR PUSH2 0x374 JUMPI PUSH2 0x374 PUSH2 0x1B7B JUMP JUMPDEST PUSH1 0x40 DUP2 ADD DUP2 DUP4 PUSH0 JUMPDEST PUSH1 0x2 DUP2 LT ISZERO PUSH2 0x1E8A JUMPI DUP2 MLOAD DUP4 MSTORE PUSH1 0x20 SWAP3 DUP4 ADD SWAP3 SWAP1 SWAP2 ADD SWAP1 PUSH1 0x1 ADD PUSH2 0x1E6B JUMP JUMPDEST POP POP POP SWAP3 SWAP2 POP POP JUMP JUMPDEST PUSH0 PUSH1 0x20 DUP3 DUP5 SUB SLT ISZERO PUSH2 0x1EA3 JUMPI PUSH0 DUP1 REVERT JUMPDEST POP MLOAD SWAP2 SWAP1 POP JUMP INVALID ADDRESS PUSH5 0x4E72E131A0 0x29 0xB8 POP GASLIMIT 0xB6 DUP2 DUP2 PC TSTORE 0x28 CALLER 0xE8 BASEFEE PUSH26 0xB9709143E1F593F0000001A2646970667358221220267AF6672E DELEGATECALL PUSH20 0xF6E62D02857C3951B1433D0A0D189DB7819633A6 GASLIMIT DUP12 SWAP12 0xD TSTORE PUSH5 0x736F6C6343 STOP ADDMOD XOR STOP CALLER "},"methodIdentifiers":{"acceptGroupAdmin(uint256)":"da3cda52","addMember(uint256,uint256)":"1783efc3","addMembers(uint256,uint256[])":"04245371","createGroup()":"575185ed","createGroup(address)":"5c3f3b60","createGroup(address,uint256)":"2c880363","getGroupAdmin(uint256)":"a9961c94","getMerkleTreeDepth(uint256)":"6389e107","getMerkleTreeRoot(uint256)":"dabc4d51","getMerkleTreeSize(uint256)":"7ee35a0c","groupCounter()":"d24924fe","groups(uint256)":"96324bd4","hasMember(uint256,uint256)":"90509d44","indexOf(uint256,uint256)":"06dd8485","removeMember(uint256,uint256,uint256[])":"6cdd32fe","updateGroupAdmin(uint256,address)":"568ee826","updateGroupMerkleTreeDuration(uint256,uint256)":"fcf0b6ec","updateMember(uint256,uint256,uint256,uint256[])":"4178c4d5","validateProof(uint256,(uint256,uint256,uint256,uint256,uint256,uint256[8]))":"d0d898dd","verifier()":"2b7ac3f3","verifyProof(uint256,(uint256,uint256,uint256,uint256,uint256,uint256[8]))":"456f4188"}}}}}