{"project/contracts/InvestorWhitelist.sol":{"InvestorWhitelist":{"abi":[{"inputs":[{"internalType":"address","name":"initialOwner","type":"address"}],"stateMutability":"nonpayable","type":"constructor"},{"inputs":[{"internalType":"address","name":"owner","type":"address"}],"name":"OwnableInvalidOwner","type":"error"},{"inputs":[{"internalType":"address","name":"account","type":"address"}],"name":"OwnableUnauthorizedAccount","type":"error"},{"anonymous":false,"inputs":[{"indexed":true,"internalType":"address","name":"investor","type":"address"}],"name":"InvestorAdded","type":"event"},{"anonymous":false,"inputs":[{"indexed":true,"internalType":"address","name":"investor","type":"address"}],"name":"InvestorRemoved","type":"event"},{"anonymous":false,"inputs":[{"indexed":true,"internalType":"address","name":"previousOwner","type":"address"},{"indexed":true,"internalType":"address","name":"newOwner","type":"address"}],"name":"OwnershipTransferred","type":"event"},{"inputs":[{"internalType":"address","name":"investor","type":"address"}],"name":"addInvestor","outputs":[],"stateMutability":"nonpayable","type":"function"},{"inputs":[{"internalType":"address","name":"investor","type":"address"}],"name":"isWhitelisted","outputs":[{"internalType":"bool","name":"","type":"bool"}],"stateMutability":"view","type":"function"},{"inputs":[],"name":"owner","outputs":[{"internalType":"address","name":"","type":"address"}],"stateMutability":"view","type":"function"},{"inputs":[{"internalType":"address","name":"investor","type":"address"}],"name":"removeInvestor","outputs":[],"stateMutability":"nonpayable","type":"function"},{"inputs":[],"name":"renounceOwnership","outputs":[],"stateMutability":"nonpayable","type":"function"},{"inputs":[{"internalType":"address","name":"newOwner","type":"address"}],"name":"transferOwnership","outputs":[],"stateMutability":"nonpayable","type":"function"}],"evm":{"bytecode":{"linkReferences":{},"object":"608060405234801561000f575f80fd5b5060405161046238038061046283398101604081905261002e916100bb565b806001600160a01b03811661005c57604051631e4fbdf760e01b81525f600482015260240160405180910390fd5b6100658161006c565b50506100e8565b5f80546001600160a01b038381166001600160a01b0319831681178455604051919092169283917f8be0079c531659141344cd1fd0a4f28419497f9722a3daafe3b4186f6b6457e09190a35050565b5f602082840312156100cb575f80fd5b81516001600160a01b03811681146100e1575f80fd5b9392505050565b61036d806100f55f395ff3fe608060405234801561000f575f80fd5b5060043610610060575f3560e01c80633af32abf1461006457806342714978146100a4578063715018a6146100b95780638da5cb5b146100c1578063e641bde1146100db578063f2fde38b146100ee575b5f80fd5b61008f61007236600461030a565b6001600160a01b03165f9081526001602052604090205460ff1690565b60405190151581526020015b60405180910390f35b6100b76100b236600461030a565b610101565b005b6100b7610172565b5f546040516001600160a01b03909116815260200161009b565b6100b76100e936600461030a565b610185565b6100b76100fc36600461030a565b610255565b61010961028f565b6001600160a01b0381165f9081526001602052604090205460ff161561016f576001600160a01b0381165f81815260016020526040808220805460ff19169055517fba0013628ccb89af5bb18edf764d3a7b35c07b894848b8e6fd3434719de39c7d9190a25b50565b61017a61028f565b6101835f6102bb565b565b61018d61028f565b6001600160a01b0381166101e85760405162461bcd60e51b815260206004820152601f60248201527f496e766573746f7257686974656c6973743a207a65726f20616464726573730060448201526064015b60405180910390fd5b6001600160a01b0381165f9081526001602052604090205460ff1661016f576001600160a01b0381165f818152600160208190526040808320805460ff1916909217909155517f62e6a5118be03f9bfedb79b0ed7ed75ee4a9e15fc4c69d2c4976acde26fa2d5f9190a250565b61025d61028f565b6001600160a01b03811661028657604051631e4fbdf760e01b81525f60048201526024016101df565b61016f816102bb565b5f546001600160a01b031633146101835760405163118cdaa760e01b81523360048201526024016101df565b5f80546001600160a01b038381166001600160a01b0319831681178455604051919092169283917f8be0079c531659141344cd1fd0a4f28419497f9722a3daafe3b4186f6b6457e09190a35050565b5f6020828403121561031a575f80fd5b81356001600160a01b0381168114610330575f80fd5b939250505056fea2646970667358221220db377d77e7333541b3f67111d75488a36e048ebb87d8be5f833c717db51eac2864736f6c63430008180033","opcodes":"PUSH1 0x80 PUSH1 0x40 MSTORE CALLVALUE DUP1 ISZERO PUSH2 0xF JUMPI PUSH0 DUP1 REVERT JUMPDEST POP PUSH1 0x40 MLOAD PUSH2 0x462 CODESIZE SUB DUP1 PUSH2 0x462 DUP4 CODECOPY DUP2 ADD PUSH1 0x40 DUP2 SWAP1 MSTORE PUSH2 0x2E SWAP2 PUSH2 0xBB JUMP JUMPDEST DUP1 PUSH1 0x1 PUSH1 0x1 PUSH1 0xA0 SHL SUB DUP2 AND PUSH2 0x5C JUMPI PUSH1 0x40 MLOAD PUSH4 0x1E4FBDF7 PUSH1 0xE0 SHL DUP2 MSTORE PUSH0 PUSH1 0x4 DUP3 ADD MSTORE PUSH1 0x24 ADD PUSH1 0x40 MLOAD DUP1 SWAP2 SUB SWAP1 REVERT JUMPDEST PUSH2 0x65 DUP2 PUSH2 0x6C JUMP JUMPDEST POP POP PUSH2 0xE8 JUMP JUMPDEST PUSH0 DUP1 SLOAD PUSH1 0x1 PUSH1 0x1 PUSH1 0xA0 SHL SUB DUP4 DUP2 AND PUSH1 0x1 PUSH1 0x1 PUSH1 0xA0 SHL SUB NOT DUP4 AND DUP2 OR DUP5 SSTORE PUSH1 0x40 MLOAD SWAP2 SWAP1 SWAP3 AND SWAP3 DUP4 SWAP2 PUSH32 0x8BE0079C531659141344CD1FD0A4F28419497F9722A3DAAFE3B4186F6B6457E0 SWAP2 SWAP1 LOG3 POP POP JUMP JUMPDEST PUSH0 PUSH1 0x20 DUP3 DUP5 SUB SLT ISZERO PUSH2 0xCB JUMPI PUSH0 DUP1 REVERT JUMPDEST DUP2 MLOAD PUSH1 0x1 PUSH1 0x1 PUSH1 0xA0 SHL SUB DUP2 AND DUP2 EQ PUSH2 0xE1 JUMPI PUSH0 DUP1 REVERT JUMPDEST SWAP4 SWAP3 POP POP POP JUMP JUMPDEST PUSH2 0x36D DUP1 PUSH2 0xF5 PUSH0 CODECOPY PUSH0 RETURN INVALID PUSH1 0x80 PUSH1 0x40 MSTORE CALLVALUE DUP1 ISZERO PUSH2 0xF JUMPI PUSH0 DUP1 REVERT JUMPDEST POP PUSH1 0x4 CALLDATASIZE LT PUSH2 0x60 JUMPI PUSH0 CALLDATALOAD PUSH1 0xE0 SHR DUP1 PUSH4 0x3AF32ABF EQ PUSH2 0x64 JUMPI DUP1 PUSH4 0x42714978 EQ PUSH2 0xA4 JUMPI DUP1 PUSH4 0x715018A6 EQ PUSH2 0xB9 JUMPI DUP1 PUSH4 0x8DA5CB5B EQ PUSH2 0xC1 JUMPI DUP1 PUSH4 0xE641BDE1 EQ PUSH2 0xDB JUMPI DUP1 PUSH4 0xF2FDE38B EQ PUSH2 0xEE JUMPI JUMPDEST PUSH0 DUP1 REVERT JUMPDEST PUSH2 0x8F PUSH2 0x72 CALLDATASIZE PUSH1 0x4 PUSH2 0x30A JUMP JUMPDEST PUSH1 0x1 PUSH1 0x1 PUSH1 0xA0 SHL SUB AND PUSH0 SWAP1 DUP2 MSTORE PUSH1 0x1 PUSH1 0x20 MSTORE PUSH1 0x40 SWAP1 KECCAK256 SLOAD PUSH1 0xFF AND SWAP1 JUMP JUMPDEST PUSH1 0x40 MLOAD SWAP1 ISZERO ISZERO DUP2 MSTORE PUSH1 0x20 ADD JUMPDEST PUSH1 0x40 MLOAD DUP1 SWAP2 SUB SWAP1 RETURN JUMPDEST PUSH2 0xB7 PUSH2 0xB2 CALLDATASIZE PUSH1 0x4 PUSH2 0x30A JUMP JUMPDEST PUSH2 0x101 JUMP JUMPDEST STOP JUMPDEST PUSH2 0xB7 PUSH2 0x172 JUMP JUMPDEST PUSH0 SLOAD PUSH1 0x40 MLOAD PUSH1 0x1 PUSH1 0x1 PUSH1 0xA0 SHL SUB SWAP1 SWAP2 AND DUP2 MSTORE PUSH1 0x20 ADD PUSH2 0x9B JUMP JUMPDEST PUSH2 0xB7 PUSH2 0xE9 CALLDATASIZE PUSH1 0x4 PUSH2 0x30A JUMP JUMPDEST PUSH2 0x185 JUMP JUMPDEST PUSH2 0xB7 PUSH2 0xFC CALLDATASIZE PUSH1 0x4 PUSH2 0x30A JUMP JUMPDEST PUSH2 0x255 JUMP JUMPDEST PUSH2 0x109 PUSH2 0x28F JUMP JUMPDEST PUSH1 0x1 PUSH1 0x1 PUSH1 0xA0 SHL SUB DUP2 AND PUSH0 SWAP1 DUP2 MSTORE PUSH1 0x1 PUSH1 0x20 MSTORE PUSH1 0x40 SWAP1 KECCAK256 SLOAD PUSH1 0xFF AND ISZERO PUSH2 0x16F JUMPI PUSH1 0x1 PUSH1 0x1 PUSH1 0xA0 SHL SUB DUP2 AND PUSH0 DUP2 DUP2 MSTORE PUSH1 0x1 PUSH1 0x20 MSTORE PUSH1 0x40 DUP1 DUP3 KECCAK256 DUP1 SLOAD PUSH1 0xFF NOT AND SWAP1 SSTORE MLOAD PUSH32 0xBA0013628CCB89AF5BB18EDF764D3A7B35C07B894848B8E6FD3434719DE39C7D SWAP2 SWAP1 LOG2 JUMPDEST POP JUMP JUMPDEST PUSH2 0x17A PUSH2 0x28F JUMP JUMPDEST PUSH2 0x183 PUSH0 PUSH2 0x2BB JUMP JUMPDEST JUMP JUMPDEST PUSH2 0x18D PUSH2 0x28F JUMP JUMPDEST PUSH1 0x1 PUSH1 0x1 PUSH1 0xA0 SHL SUB DUP2 AND PUSH2 0x1E8 JUMPI PUSH1 0x40 MLOAD PUSH3 0x461BCD PUSH1 0xE5 SHL DUP2 MSTORE PUSH1 0x20 PUSH1 0x4 DUP3 ADD MSTORE PUSH1 0x1F PUSH1 0x24 DUP3 ADD MSTORE PUSH32 0x496E766573746F7257686974656C6973743A207A65726F206164647265737300 PUSH1 0x44 DUP3 ADD MSTORE PUSH1 0x64 ADD JUMPDEST PUSH1 0x40 MLOAD DUP1 SWAP2 SUB SWAP1 REVERT JUMPDEST PUSH1 0x1 PUSH1 0x1 PUSH1 0xA0 SHL SUB DUP2 AND PUSH0 SWAP1 DUP2 MSTORE PUSH1 0x1 PUSH1 0x20 MSTORE PUSH1 0x40 SWAP1 KECCAK256 SLOAD PUSH1 0xFF AND PUSH2 0x16F JUMPI PUSH1 0x1 PUSH1 0x1 PUSH1 0xA0 SHL SUB DUP2 AND PUSH0 DUP2 DUP2 MSTORE PUSH1 0x1 PUSH1 0x20 DUP2 SWAP1 MSTORE PUSH1 0x40 DUP1 DUP4 KECCAK256 DUP1 SLOAD PUSH1 0xFF NOT AND SWAP1 SWAP3 OR SWAP1 SWAP2 SSTORE MLOAD PUSH32 0x62E6A5118BE03F9BFEDB79B0ED7ED75EE4A9E15FC4C69D2C4976ACDE26FA2D5F SWAP2 SWAP1 LOG2 POP JUMP JUMPDEST PUSH2 0x25D PUSH2 0x28F JUMP JUMPDEST PUSH1 0x1 PUSH1 0x1 PUSH1 0xA0 SHL SUB DUP2 AND PUSH2 0x286 JUMPI PUSH1 0x40 MLOAD PUSH4 0x1E4FBDF7 PUSH1 0xE0 SHL DUP2 MSTORE PUSH0 PUSH1 0x4 DUP3 ADD MSTORE PUSH1 0x24 ADD PUSH2 0x1DF JUMP JUMPDEST PUSH2 0x16F DUP2 PUSH2 0x2BB JUMP JUMPDEST PUSH0 SLOAD PUSH1 0x1 PUSH1 0x1 PUSH1 0xA0 SHL SUB AND CALLER EQ PUSH2 0x183 JUMPI PUSH1 0x40 MLOAD PUSH4 0x118CDAA7 PUSH1 0xE0 SHL DUP2 MSTORE CALLER PUSH1 0x4 DUP3 ADD MSTORE PUSH1 0x24 ADD PUSH2 0x1DF JUMP JUMPDEST PUSH0 DUP1 SLOAD PUSH1 0x1 PUSH1 0x1 PUSH1 0xA0 SHL SUB DUP4 DUP2 AND PUSH1 0x1 PUSH1 0x1 PUSH1 0xA0 SHL SUB NOT DUP4 AND DUP2 OR DUP5 SSTORE PUSH1 0x40 MLOAD SWAP2 SWAP1 SWAP3 AND SWAP3 DUP4 SWAP2 PUSH32 0x8BE0079C531659141344CD1FD0A4F28419497F9722A3DAAFE3B4186F6B6457E0 SWAP2 SWAP1 LOG3 POP POP JUMP JUMPDEST PUSH0 PUSH1 0x20 DUP3 DUP5 SUB SLT ISZERO PUSH2 0x31A JUMPI PUSH0 DUP1 REVERT JUMPDEST DUP2 CALLDATALOAD PUSH1 0x1 PUSH1 0x1 PUSH1 0xA0 SHL SUB DUP2 AND DUP2 EQ PUSH2 0x330 JUMPI PUSH0 DUP1 REVERT JUMPDEST SWAP4 SWAP3 POP POP POP JUMP INVALID LOG2 PUSH5 0x6970667358 0x22 SLT KECCAK256 0xDB CALLDATACOPY PUSH30 0x77E7333541B3F67111D75488A36E048EBB87D8BE5F833C717DB51EAC2864 PUSH20 0x6F6C634300081800330000000000000000000000 "},"methodIdentifiers":{"addInvestor(address)":"e641bde1","isWhitelisted(address)":"3af32abf","owner()":"8da5cb5b","removeInvestor(address)":"42714978","renounceOwnership()":"715018a6","transferOwnership(address)":"f2fde38b"}}}}}