{"project/contracts/FarmerNote.sol":{"FarmerNote":{"abi":[{"inputs":[{"internalType":"address","name":"initialOwner","type":"address"}],"stateMutability":"nonpayable","type":"constructor"},{"inputs":[{"internalType":"address","name":"sender","type":"address"},{"internalType":"uint256","name":"tokenId","type":"uint256"},{"internalType":"address","name":"owner","type":"address"}],"name":"ERC721IncorrectOwner","type":"error"},{"inputs":[{"internalType":"address","name":"operator","type":"address"},{"internalType":"uint256","name":"tokenId","type":"uint256"}],"name":"ERC721InsufficientApproval","type":"error"},{"inputs":[{"internalType":"address","name":"approver","type":"address"}],"name":"ERC721InvalidApprover","type":"error"},{"inputs":[{"internalType":"address","name":"operator","type":"address"}],"name":"ERC721InvalidOperator","type":"error"},{"inputs":[{"internalType":"address","name":"owner","type":"address"}],"name":"ERC721InvalidOwner","type":"error"},{"inputs":[{"internalType":"address","name":"receiver","type":"address"}],"name":"ERC721InvalidReceiver","type":"error"},{"inputs":[{"internalType":"address","name":"sender","type":"address"}],"name":"ERC721InvalidSender","type":"error"},{"inputs":[{"internalType":"uint256","name":"tokenId","type":"uint256"}],"name":"ERC721NonexistentToken","type":"error"},{"inputs":[{"internalType":"address","name":"owner","type":"address"}],"name":"OwnableInvalidOwner","type":"error"},{"inputs":[{"internalType":"address","name":"account","type":"address"}],"name":"OwnableUnauthorizedAccount","type":"error"},{"anonymous":false,"inputs":[{"indexed":true,"internalType":"address","name":"owner","type":"address"},{"indexed":true,"internalType":"address","name":"approved","type":"address"},{"indexed":true,"internalType":"uint256","name":"tokenId","type":"uint256"}],"name":"Approval","type":"event"},{"anonymous":false,"inputs":[{"indexed":true,"internalType":"address","name":"owner","type":"address"},{"indexed":true,"internalType":"address","name":"operator","type":"address"},{"indexed":false,"internalType":"bool","name":"approved","type":"bool"}],"name":"ApprovalForAll","type":"event"},{"anonymous":false,"inputs":[{"indexed":true,"internalType":"uint256","name":"noteId","type":"uint256"},{"components":[{"internalType":"address","name":"farmer","type":"address"},{"internalType":"uint256","name":"principal","type":"uint256"},{"internalType":"uint256","name":"interestRateBps","type":"uint256"},{"internalType":"uint256","name":"maturityTimestamp","type":"uint256"},{"internalType":"enum AgroTypes.NoteStatus","name":"status","type":"uint8"},{"internalType":"address","name":"vault","type":"address"}],"indexed":false,"internalType":"struct AgroTypes.NoteData","name":"data","type":"tuple"}],"name":"NoteMinted","type":"event"},{"anonymous":false,"inputs":[{"indexed":true,"internalType":"uint256","name":"noteId","type":"uint256"},{"indexed":false,"internalType":"enum AgroTypes.NoteStatus","name":"status","type":"uint8"}],"name":"NoteStatusUpdated","type":"event"},{"anonymous":false,"inputs":[{"indexed":true,"internalType":"address","name":"previousOwner","type":"address"},{"indexed":true,"internalType":"address","name":"newOwner","type":"address"}],"name":"OwnershipTransferred","type":"event"},{"anonymous":false,"inputs":[{"indexed":true,"internalType":"address","name":"from","type":"address"},{"indexed":true,"internalType":"address","name":"to","type":"address"},{"indexed":true,"internalType":"uint256","name":"tokenId","type":"uint256"}],"name":"Transfer","type":"event"},{"anonymous":false,"inputs":[{"indexed":true,"internalType":"address","name":"vault","type":"address"},{"indexed":false,"internalType":"bool","name":"allowed","type":"bool"}],"name":"VaultPermissionUpdated","type":"event"},{"inputs":[{"internalType":"address","name":"to","type":"address"},{"internalType":"uint256","name":"tokenId","type":"uint256"}],"name":"approve","outputs":[],"stateMutability":"nonpayable","type":"function"},{"inputs":[{"internalType":"address","name":"owner","type":"address"}],"name":"balanceOf","outputs":[{"internalType":"uint256","name":"","type":"uint256"}],"stateMutability":"view","type":"function"},{"inputs":[{"internalType":"uint256","name":"tokenId","type":"uint256"}],"name":"getApproved","outputs":[{"internalType":"address","name":"","type":"address"}],"stateMutability":"view","type":"function"},{"inputs":[{"internalType":"uint256","name":"noteId","type":"uint256"}],"name":"getNote","outputs":[{"components":[{"internalType":"address","name":"farmer","type":"address"},{"internalType":"uint256","name":"principal","type":"uint256"},{"internalType":"uint256","name":"interestRateBps","type":"uint256"},{"internalType":"uint256","name":"maturityTimestamp","type":"uint256"},{"internalType":"enum AgroTypes.NoteStatus","name":"status","type":"uint8"},{"internalType":"address","name":"vault","type":"address"}],"internalType":"struct AgroTypes.NoteData","name":"","type":"tuple"}],"stateMutability":"view","type":"function"},{"inputs":[{"internalType":"address","name":"owner","type":"address"},{"internalType":"address","name":"operator","type":"address"}],"name":"isApprovedForAll","outputs":[{"internalType":"bool","name":"","type":"bool"}],"stateMutability":"view","type":"function"},{"inputs":[{"internalType":"address","name":"","type":"address"}],"name":"isVault","outputs":[{"internalType":"bool","name":"","type":"bool"}],"stateMutability":"view","type":"function"},{"inputs":[{"internalType":"address","name":"to","type":"address"},{"internalType":"address","name":"farmer","type":"address"},{"internalType":"uint256","name":"principal","type":"uint256"},{"internalType":"uint256","name":"interestRateBps","type":"uint256"},{"internalType":"uint256","name":"maturityTimestamp","type":"uint256"}],"name":"mintNote","outputs":[{"internalType":"uint256","name":"","type":"uint256"}],"stateMutability":"nonpayable","type":"function"},{"inputs":[],"name":"name","outputs":[{"internalType":"string","name":"","type":"string"}],"stateMutability":"view","type":"function"},{"inputs":[],"name":"owner","outputs":[{"internalType":"address","name":"","type":"address"}],"stateMutability":"view","type":"function"},{"inputs":[{"internalType":"uint256","name":"tokenId","type":"uint256"}],"name":"ownerOf","outputs":[{"internalType":"address","name":"","type":"address"}],"stateMutability":"view","type":"function"},{"inputs":[],"name":"renounceOwnership","outputs":[],"stateMutability":"nonpayable","type":"function"},{"inputs":[{"internalType":"address","name":"from","type":"address"},{"internalType":"address","name":"to","type":"address"},{"internalType":"uint256","name":"tokenId","type":"uint256"}],"name":"safeTransferFrom","outputs":[],"stateMutability":"nonpayable","type":"function"},{"inputs":[{"internalType":"address","name":"from","type":"address"},{"internalType":"address","name":"to","type":"address"},{"internalType":"uint256","name":"tokenId","type":"uint256"},{"internalType":"bytes","name":"data","type":"bytes"}],"name":"safeTransferFrom","outputs":[],"stateMutability":"nonpayable","type":"function"},{"inputs":[{"internalType":"address","name":"operator","type":"address"},{"internalType":"bool","name":"approved","type":"bool"}],"name":"setApprovalForAll","outputs":[],"stateMutability":"nonpayable","type":"function"},{"inputs":[{"internalType":"uint256","name":"noteId","type":"uint256"}],"name":"setStatusDefaulted","outputs":[],"stateMutability":"nonpayable","type":"function"},{"inputs":[{"internalType":"uint256","name":"noteId","type":"uint256"}],"name":"setStatusRepaid","outputs":[],"stateMutability":"nonpayable","type":"function"},{"inputs":[{"internalType":"address","name":"vault","type":"address"},{"internalType":"bool","name":"allowed","type":"bool"}],"name":"setVault","outputs":[],"stateMutability":"nonpayable","type":"function"},{"inputs":[{"internalType":"bytes4","name":"interfaceId","type":"bytes4"}],"name":"supportsInterface","outputs":[{"internalType":"bool","name":"","type":"bool"}],"stateMutability":"view","type":"function"},{"inputs":[],"name":"symbol","outputs":[{"internalType":"string","name":"","type":"string"}],"stateMutability":"view","type":"function"},{"inputs":[{"internalType":"uint256","name":"tokenId","type":"uint256"}],"name":"tokenURI","outputs":[{"internalType":"string","name":"","type":"string"}],"stateMutability":"view","type":"function"},{"inputs":[{"internalType":"address","name":"from","type":"address"},{"internalType":"address","name":"to","type":"address"},{"internalType":"uint256","name":"tokenId","type":"uint256"}],"name":"transferFrom","outputs":[],"stateMutability":"nonpayable","type":"function"},{"inputs":[{"internalType":"address","name":"newOwner","type":"address"}],"name":"transferOwnership","outputs":[],"stateMutability":"nonpayable","type":"function"}],"evm":{"bytecode":{"linkReferences":{},"object":"6080604052600160075534801562000015575f80fd5b5060405162001a8238038062001a8283398101604081905262000038916200012e565b806040518060400160405280600a8152602001694661726d65724e6f746560b01b81525060405180604001604052806005815260200164464e4f544560d81b815250815f90816200008a9190620001fb565b506001620000998282620001fb565b5050506001600160a01b038116620000ca57604051631e4fbdf760e01b81525f600482015260240160405180910390fd5b620000d581620000dd565b5050620002c7565b600680546001600160a01b038381166001600160a01b0319831681179093556040519116919082907f8be0079c531659141344cd1fd0a4f28419497f9722a3daafe3b4186f6b6457e0905f90a35050565b5f602082840312156200013f575f80fd5b81516001600160a01b038116811462000156575f80fd5b9392505050565b634e487b7160e01b5f52604160045260245ffd5b600181811c908216806200018657607f821691505b602082108103620001a557634e487b7160e01b5f52602260045260245ffd5b50919050565b601f821115620001f657805f5260205f20601f840160051c81016020851015620001d25750805b601f840160051c820191505b81811015620001f3575f8155600101620001de565b50505b505050565b81516001600160401b038111156200021757620002176200015d565b6200022f8162000228845462000171565b84620001ab565b602080601f83116001811462000265575f84156200024d5750858301515b5f19600386901b1c1916600185901b178555620002bf565b5f85815260208120601f198616915b82811015620002955788860151825594840194600190910190840162000274565b5085821015620002b357878501515f19600388901b60f8161c191681555b505060018460011b0185555b505050505050565b6117ad80620002d55f395ff3fe608060405234801561000f575f80fd5b506004361061013d575f3560e01c8063715018a6116100b4578063a965a94111610079578063a965a941146102a7578063b2b3be99146102c7578063b88d4fde146102da578063c87b56dd146102ed578063e985e9c514610300578063f2fde38b14610313575f80fd5b8063715018a614610260578063894a9fa5146102685780638da5cb5b1461027b57806395d89b411461028c578063a22cb46514610294575f80fd5b806323b872dd1161010557806323b872dd146101df57806342842e0e146101f2578063627f66c6146102055780636352211e14610218578063652b9b411461022b57806370a082311461024d575f80fd5b806301ffc9a71461014157806306fdde0314610169578063081812fc1461017e578063095ea7b3146101a95780631580e714146101be575b5f80fd5b61015461014f3660046112e8565b610326565b60405190151581526020015b60405180910390f35b610171610377565b6040516101609190611350565b61019161018c366004611362565b610406565b6040516001600160a01b039091168152602001610160565b6101bc6101b7366004611394565b61042d565b005b6101d16101cc3660046113bc565b61043c565b604051908152602001610160565b6101bc6101ed366004611405565b610645565b6101bc610200366004611405565b6106ce565b6101bc61021336600461143e565b6106ed565b610191610226366004611362565b6107a9565b610154610239366004611477565b60096020525f908152604090205460ff1681565b6101d161025b366004611477565b6107b3565b6101bc6107f8565b6101bc610276366004611362565b61080b565b6006546001600160a01b0316610191565b610171610885565b6101bc6102a236600461143e565b610894565b6102ba6102b5366004611362565b61089f565b60405161016091906114c4565b6101bc6102d5366004611362565b610946565b6101bc6102e836600461152c565b6109c0565b6101716102fb366004611362565b6109d8565b61015461030e366004611601565b610a49565b6101bc610321366004611477565b610a76565b5f6001600160e01b031982166380ac58cd60e01b148061035657506001600160e01b03198216635b5e139f60e01b145b8061037157506301ffc9a760e01b6001600160e01b03198316145b92915050565b60605f805461038590611632565b80601f01602080910402602001604051908101604052809291908181526020018280546103b190611632565b80156103fc5780601f106103d3576101008083540402835291602001916103fc565b820191905f5260205f20905b8154815290600101906020018083116103df57829003601f168201915b5050505050905090565b5f61041082610ab3565b505f828152600460205260409020546001600160a01b0316610371565b610438828233610aeb565b5050565b335f9081526009602052604081205460ff1661049f5760405162461bcd60e51b815260206004820152601c60248201527f4661726d65724e6f74653a2063616c6c6572206e6f74207661756c740000000060448201526064015b60405180910390fd5b6001600160a01b0386166104eb5760405162461bcd60e51b81526020600482015260136024820152724661726d65724e6f74653a207a65726f20746f60681b6044820152606401610496565b6001600160a01b0385166105415760405162461bcd60e51b815260206004820152601760248201527f4661726d65724e6f74653a207a65726f206661726d65720000000000000000006044820152606401610496565b5f84116105905760405162461bcd60e51b815260206004820152601a60248201527f4661726d65724e6f74653a207a65726f207072696e636970616c0000000000006044820152606401610496565b60075461059e81600161166a565b6007555f81815260086020526040902080546001600160a01b0319166001600160a01b038816178155600180820187905560028201869055600382018590556004820180546001600160a81b03191633610100021790911790556106028883610af8565b817fd93d075f1d2ba959941675ecc0d500f7996af5bf34708925dcb13e09d3b85e98826040516106329190611689565b60405180910390a2509695505050505050565b6001600160a01b03821661066e57604051633250574960e11b81525f6004820152602401610496565b5f61067a838333610b59565b9050836001600160a01b0316816001600160a01b0316146106c8576040516364283d7b60e01b81526001600160a01b0380861660048301526024820184905282166044820152606401610496565b50505050565b6106e883838360405180602001604052805f8152506109c0565b505050565b6106f5610c4b565b6001600160a01b03821661074b5760405162461bcd60e51b815260206004820152601860248201527f4661726d65724e6f74653a207a65726f206164647265737300000000000000006044820152606401610496565b6001600160a01b0382165f81815260096020908152604091829020805460ff191685151590811790915591519182527f98b1ac01004349925fa6fd6b4e3a1175df65b77f25218f8e35f32e2066fee010910160405180910390a25050565b5f61037182610ab3565b5f6001600160a01b0382166107dd576040516322718ad960e21b81525f6004820152602401610496565b506001600160a01b03165f9081526003602052604090205490565b610800610c4b565b6108095f610c78565b565b5f81815260086020526040902060040154819061010090046001600160a01b0316331461087a5760405162461bcd60e51b815260206004820152601a60248201527f4661726d65724e6f74653a206e6f74206e6f7465207661756c740000000000006044820152606401610496565b610438826003610cc9565b60606001805461038590611632565b610438338383610d90565b6108a7611289565b5f82815260086020908152604091829020825160c08101845281546001600160a01b0316815260018201549281019290925260028101549282019290925260038083015460608301526004830154919291608084019160ff9091169081111561091257610912611490565b600381111561092357610923611490565b81526004919091015461010090046001600160a01b031660209091015292915050565b5f81815260086020526040902060040154819061010090046001600160a01b031633146109b55760405162461bcd60e51b815260206004820152601a60248201527f4661726d65724e6f74653a206e6f74206e6f7465207661756c740000000000006044820152606401610496565b610438826002610cc9565b6109cb848484610645565b6106c83385858585610e2e565b60606109e382610ab3565b505f6109f960408051602081019091525f815290565b90505f815111610a175760405180602001604052805f815250610a42565b80610a2184610f56565b604051602001610a329291906116e4565b6040516020818303038152906040525b9392505050565b6001600160a01b039182165f90815260056020908152604080832093909416825291909152205460ff1690565b610a7e610c4b565b6001600160a01b038116610aa757604051631e4fbdf760e01b81525f6004820152602401610496565b610ab081610c78565b50565b5f818152600260205260408120546001600160a01b03168061037157604051637e27328960e01b815260048101849052602401610496565b6106e88383836001610fe6565b6001600160a01b038216610b2157604051633250574960e11b81525f6004820152602401610496565b5f610b2d83835f610b59565b90506001600160a01b038116156106e8576040516339e3563760e11b81525f6004820152602401610496565b5f828152600260205260408120546001600160a01b0390811690831615610b8557610b858184866110ea565b6001600160a01b03811615610bbf57610ba05f855f80610fe6565b6001600160a01b0381165f90815260036020526040902080545f190190555b6001600160a01b03851615610bed576001600160a01b0385165f908152600360205260409020805460010190555b5f8481526002602052604080822080546001600160a01b0319166001600160a01b0389811691821790925591518793918516917fddf252ad1be2c89b69c2b068fc378daa952ba7f163c4a11628f55a4df523b3ef91a4949350505050565b6006546001600160a01b031633146108095760405163118cdaa760e01b8152336004820152602401610496565b600680546001600160a01b038381166001600160a01b0319831681179093556040519116919082907f8be0079c531659141344cd1fd0a4f28419497f9722a3daafe3b4186f6b6457e0905f90a35050565b5f82815260086020526040902080546001600160a01b0316610d2d5760405162461bcd60e51b815260206004820152601860248201527f4661726d65724e6f74653a20756e6b6e6f776e206e6f746500000000000000006044820152606401610496565b60048101805483919060ff19166001836003811115610d4e57610d4e611490565b0217905550827f44e7f6e91d42dd0c748c9ba81620345a4e54ba65f12e2ba73d6d8b638749885983604051610d839190611712565b60405180910390a2505050565b6001600160a01b038216610dc257604051630b61174360e31b81526001600160a01b0383166004820152602401610496565b6001600160a01b038381165f81815260056020908152604080832094871680845294825291829020805460ff191686151590811790915591519182527f17307eab39ab6107e8899845ad3d59bd9653f200f220920489ca2b5937696c31910160405180910390a3505050565b6001600160a01b0383163b15610f4f57604051630a85bd0160e11b81526001600160a01b0384169063150b7a0290610e70908890889087908790600401611720565b6020604051808303815f875af1925050508015610eaa575060408051601f3d908101601f19168201909252610ea79181019061175c565b60015b610f11573d808015610ed7576040519150601f19603f3d011682016040523d82523d5f602084013e610edc565b606091505b5080515f03610f0957604051633250574960e11b81526001600160a01b0385166004820152602401610496565b805160208201fd5b6001600160e01b03198116630a85bd0160e11b14610f4d57604051633250574960e11b81526001600160a01b0385166004820152602401610496565b505b5050505050565b60605f610f628361114e565b60010190505f8167ffffffffffffffff811115610f8157610f81611518565b6040519080825280601f01601f191660200182016040528015610fab576020820181803683370190505b5090508181016020015b5f19016f181899199a1a9b1b9c1cb0b131b232b360811b600a86061a8153600a8504945084610fb557509392505050565b8080610ffa57506001600160a01b03821615155b156110bb575f61100984610ab3565b90506001600160a01b038316158015906110355750826001600160a01b0316816001600160a01b031614155b801561104857506110468184610a49565b155b156110715760405163a9fbf51f60e01b81526001600160a01b0384166004820152602401610496565b81156110b95783856001600160a01b0316826001600160a01b03167f8c5be1e5ebec7d5bd14f71427d1e84f3dd0314c0f7b2291e5b200ac8c7c3b92560405160405180910390a45b505b50505f90815260046020526040902080546001600160a01b0319166001600160a01b0392909216919091179055565b6110f5838383611225565b6106e8576001600160a01b03831661112357604051637e27328960e01b815260048101829052602401610496565b60405163177e802f60e01b81526001600160a01b038316600482015260248101829052604401610496565b5f8072184f03e93ff9f4daa797ed6e38ed64bf6a1f0160401b831061118c5772184f03e93ff9f4daa797ed6e38ed64bf6a1f0160401b830492506040015b6d04ee2d6d415b85acef810000000083106111b8576d04ee2d6d415b85acef8100000000830492506020015b662386f26fc1000083106111d657662386f26fc10000830492506010015b6305f5e10083106111ee576305f5e100830492506008015b612710831061120257612710830492506004015b60648310611214576064830492506002015b600a83106103715760010192915050565b5f6001600160a01b038316158015906112815750826001600160a01b0316846001600160a01b0316148061125e575061125e8484610a49565b8061128157505f828152600460205260409020546001600160a01b038481169116145b949350505050565b6040518060c001604052805f6001600160a01b031681526020015f81526020015f81526020015f81526020015f60038111156112c7576112c7611490565b81525f60209091015290565b6001600160e01b031981168114610ab0575f80fd5b5f602082840312156112f8575f80fd5b8135610a42816112d3565b5f5b8381101561131d578181015183820152602001611305565b50505f910152565b5f815180845261133c816020860160208601611303565b601f01601f19169290920160200192915050565b602081525f610a426020830184611325565b5f60208284031215611372575f80fd5b5035919050565b80356001600160a01b038116811461138f575f80fd5b919050565b5f80604083850312156113a5575f80fd5b6113ae83611379565b946020939093013593505050565b5f805f805f60a086880312156113d0575f80fd5b6113d986611379565b94506113e760208701611379565b94979496505050506040830135926060810135926080909101359150565b5f805f60608486031215611417575f80fd5b61142084611379565b925061142e60208501611379565b9150604084013590509250925092565b5f806040838503121561144f575f80fd5b61145883611379565b91506020830135801515811461146c575f80fd5b809150509250929050565b5f60208284031215611487575f80fd5b610a4282611379565b634e487b7160e01b5f52602160045260245ffd5b600481106114c057634e487b7160e01b5f52602160045260245ffd5b9052565b5f60c08201905060018060a01b03808451168352602084015160208401526040840151604084015260608401516060840152608084015161150860808501826114a4565b5060a09384015116919092015290565b634e487b7160e01b5f52604160045260245ffd5b5f805f806080858703121561153f575f80fd5b61154885611379565b935061155660208601611379565b925060408501359150606085013567ffffffffffffffff80821115611579575f80fd5b818701915087601f83011261158c575f80fd5b81358181111561159e5761159e611518565b604051601f8201601f19908116603f011681019083821181831017156115c6576115c6611518565b816040528281528a60208487010111156115de575f80fd5b826020860160208301375f60208483010152809550505050505092959194509250565b5f8060408385031215611612575f80fd5b61161b83611379565b915061162960208401611379565b90509250929050565b600181811c9082168061164657607f821691505b60208210810361166457634e487b7160e01b5f52602260045260245ffd5b50919050565b8082018082111561037157634e487b7160e01b5f52601160045260245ffd5b81546001600160a01b039081168252600183015460208301526002830154604083015260038301546060830152600483015460c0830191906116d16080850160ff83166114a4565b818160081c1660a0850152505092915050565b5f83516116f5818460208801611303565b835190830190611709818360208801611303565b01949350505050565b6020810161037182846114a4565b6001600160a01b03858116825284166020820152604081018390526080606082018190525f9061175290830184611325565b9695505050505050565b5f6020828403121561176c575f80fd5b8151610a42816112d356fea2646970667358221220c3c7427a5355fee6235fec03733423741b578b69441fd61c4c53ba7f3565685864736f6c63430008180033","opcodes":"PUSH1 0x80 PUSH1 0x40 MSTORE PUSH1 0x1 PUSH1 0x7 SSTORE CALLVALUE DUP1 ISZERO PUSH3 0x15 JUMPI PUSH0 DUP1 REVERT JUMPDEST POP PUSH1 0x40 MLOAD PUSH3 0x1A82 CODESIZE SUB DUP1 PUSH3 0x1A82 DUP4 CODECOPY DUP2 ADD PUSH1 0x40 DUP2 SWAP1 MSTORE PUSH3 0x38 SWAP2 PUSH3 0x12E JUMP JUMPDEST DUP1 PUSH1 0x40 MLOAD DUP1 PUSH1 0x40 ADD PUSH1 0x40 MSTORE DUP1 PUSH1 0xA DUP2 MSTORE PUSH1 0x20 ADD PUSH10 0x4661726D65724E6F7465 PUSH1 0xB0 SHL DUP2 MSTORE POP PUSH1 0x40 MLOAD DUP1 PUSH1 0x40 ADD PUSH1 0x40 MSTORE DUP1 PUSH1 0x5 DUP2 MSTORE PUSH1 0x20 ADD PUSH5 0x464E4F5445 PUSH1 0xD8 SHL DUP2 MSTORE POP DUP2 PUSH0 SWAP1 DUP2 PUSH3 0x8A SWAP2 SWAP1 PUSH3 0x1FB JUMP JUMPDEST POP PUSH1 0x1 PUSH3 0x99 DUP3 DUP3 PUSH3 0x1FB JUMP JUMPDEST POP POP POP PUSH1 0x1 PUSH1 0x1 PUSH1 0xA0 SHL SUB DUP2 AND PUSH3 0xCA JUMPI PUSH1 0x40 MLOAD PUSH4 0x1E4FBDF7 PUSH1 0xE0 SHL DUP2 MSTORE PUSH0 PUSH1 0x4 DUP3 ADD MSTORE PUSH1 0x24 ADD PUSH1 0x40 MLOAD DUP1 SWAP2 SUB SWAP1 REVERT JUMPDEST PUSH3 0xD5 DUP2 PUSH3 0xDD JUMP JUMPDEST POP POP PUSH3 0x2C7 JUMP JUMPDEST PUSH1 0x6 DUP1 SLOAD PUSH1 0x1 PUSH1 0x1 PUSH1 0xA0 SHL SUB DUP4 DUP2 AND PUSH1 0x1 PUSH1 0x1 PUSH1 0xA0 SHL SUB NOT DUP4 AND DUP2 OR SWAP1 SWAP4 SSTORE PUSH1 0x40 MLOAD SWAP2 AND SWAP2 SWAP1 DUP3 SWAP1 PUSH32 0x8BE0079C531659141344CD1FD0A4F28419497F9722A3DAAFE3B4186F6B6457E0 SWAP1 PUSH0 SWAP1 LOG3 POP POP JUMP JUMPDEST PUSH0 PUSH1 0x20 DUP3 DUP5 SUB SLT ISZERO PUSH3 0x13F JUMPI PUSH0 DUP1 REVERT JUMPDEST DUP2 MLOAD PUSH1 0x1 PUSH1 0x1 PUSH1 0xA0 SHL SUB DUP2 AND DUP2 EQ PUSH3 0x156 JUMPI PUSH0 DUP1 REVERT JUMPDEST SWAP4 SWAP3 POP POP POP JUMP JUMPDEST PUSH4 0x4E487B71 PUSH1 0xE0 SHL PUSH0 MSTORE PUSH1 0x41 PUSH1 0x4 MSTORE PUSH1 0x24 PUSH0 REVERT JUMPDEST PUSH1 0x1 DUP2 DUP2 SHR SWAP1 DUP3 AND DUP1 PUSH3 0x186 JUMPI PUSH1 0x7F DUP3 AND SWAP2 POP JUMPDEST PUSH1 0x20 DUP3 LT DUP2 SUB PUSH3 0x1A5 JUMPI PUSH4 0x4E487B71 PUSH1 0xE0 SHL PUSH0 MSTORE PUSH1 0x22 PUSH1 0x4 MSTORE PUSH1 0x24 PUSH0 REVERT JUMPDEST POP SWAP2 SWAP1 POP JUMP JUMPDEST PUSH1 0x1F DUP3 GT ISZERO PUSH3 0x1F6 JUMPI DUP1 PUSH0 MSTORE PUSH1 0x20 PUSH0 KECCAK256 PUSH1 0x1F DUP5 ADD PUSH1 0x5 SHR DUP2 ADD PUSH1 0x20 DUP6 LT ISZERO PUSH3 0x1D2 JUMPI POP DUP1 JUMPDEST PUSH1 0x1F DUP5 ADD PUSH1 0x5 SHR DUP3 ADD SWAP2 POP JUMPDEST DUP2 DUP2 LT ISZERO PUSH3 0x1F3 JUMPI PUSH0 DUP2 SSTORE PUSH1 0x1 ADD PUSH3 0x1DE JUMP JUMPDEST POP POP JUMPDEST POP POP POP JUMP JUMPDEST DUP2 MLOAD PUSH1 0x1 PUSH1 0x1 PUSH1 0x40 SHL SUB DUP2 GT ISZERO PUSH3 0x217 JUMPI PUSH3 0x217 PUSH3 0x15D JUMP JUMPDEST PUSH3 0x22F DUP2 PUSH3 0x228 DUP5 SLOAD PUSH3 0x171 JUMP JUMPDEST DUP5 PUSH3 0x1AB JUMP JUMPDEST PUSH1 0x20 DUP1 PUSH1 0x1F DUP4 GT PUSH1 0x1 DUP2 EQ PUSH3 0x265 JUMPI PUSH0 DUP5 ISZERO PUSH3 0x24D JUMPI POP DUP6 DUP4 ADD MLOAD JUMPDEST PUSH0 NOT PUSH1 0x3 DUP7 SWAP1 SHL SHR NOT AND PUSH1 0x1 DUP6 SWAP1 SHL OR DUP6 SSTORE PUSH3 0x2BF JUMP JUMPDEST PUSH0 DUP6 DUP2 MSTORE PUSH1 0x20 DUP2 KECCAK256 PUSH1 0x1F NOT DUP7 AND SWAP2 JUMPDEST DUP3 DUP2 LT ISZERO PUSH3 0x295 JUMPI DUP9 DUP7 ADD MLOAD DUP3 SSTORE SWAP5 DUP5 ADD SWAP5 PUSH1 0x1 SWAP1 SWAP2 ADD SWAP1 DUP5 ADD PUSH3 0x274 JUMP JUMPDEST POP DUP6 DUP3 LT ISZERO PUSH3 0x2B3 JUMPI DUP8 DUP6 ADD MLOAD PUSH0 NOT PUSH1 0x3 DUP9 SWAP1 SHL PUSH1 0xF8 AND SHR NOT AND DUP2 SSTORE JUMPDEST POP POP PUSH1 0x1 DUP5 PUSH1 0x1 SHL ADD DUP6 SSTORE JUMPDEST POP POP POP POP POP POP JUMP JUMPDEST PUSH2 0x17AD DUP1 PUSH3 0x2D5 PUSH0 CODECOPY PUSH0 RETURN INVALID PUSH1 0x80 PUSH1 0x40 MSTORE CALLVALUE DUP1 ISZERO PUSH2 0xF JUMPI PUSH0 DUP1 REVERT JUMPDEST POP PUSH1 0x4 CALLDATASIZE LT PUSH2 0x13D JUMPI PUSH0 CALLDATALOAD PUSH1 0xE0 SHR DUP1 PUSH4 0x715018A6 GT PUSH2 0xB4 JUMPI DUP1 PUSH4 0xA965A941 GT PUSH2 0x79 JUMPI DUP1 PUSH4 0xA965A941 EQ PUSH2 0x2A7 JUMPI DUP1 PUSH4 0xB2B3BE99 EQ PUSH2 0x2C7 JUMPI DUP1 PUSH4 0xB88D4FDE EQ PUSH2 0x2DA JUMPI DUP1 PUSH4 0xC87B56DD EQ PUSH2 0x2ED JUMPI DUP1 PUSH4 0xE985E9C5 EQ PUSH2 0x300 JUMPI DUP1 PUSH4 0xF2FDE38B EQ PUSH2 0x313 JUMPI PUSH0 DUP1 REVERT JUMPDEST DUP1 PUSH4 0x715018A6 EQ PUSH2 0x260 JUMPI DUP1 PUSH4 0x894A9FA5 EQ PUSH2 0x268 JUMPI DUP1 PUSH4 0x8DA5CB5B EQ PUSH2 0x27B JUMPI DUP1 PUSH4 0x95D89B41 EQ PUSH2 0x28C JUMPI DUP1 PUSH4 0xA22CB465 EQ PUSH2 0x294 JUMPI PUSH0 DUP1 REVERT JUMPDEST DUP1 PUSH4 0x23B872DD GT PUSH2 0x105 JUMPI DUP1 PUSH4 0x23B872DD EQ PUSH2 0x1DF JUMPI DUP1 PUSH4 0x42842E0E EQ PUSH2 0x1F2 JUMPI DUP1 PUSH4 0x627F66C6 EQ PUSH2 0x205 JUMPI DUP1 PUSH4 0x6352211E EQ PUSH2 0x218 JUMPI DUP1 PUSH4 0x652B9B41 EQ PUSH2 0x22B JUMPI DUP1 PUSH4 0x70A08231 EQ PUSH2 0x24D JUMPI PUSH0 DUP1 REVERT JUMPDEST DUP1 PUSH4 0x1FFC9A7 EQ PUSH2 0x141 JUMPI DUP1 PUSH4 0x6FDDE03 EQ PUSH2 0x169 JUMPI DUP1 PUSH4 0x81812FC EQ PUSH2 0x17E JUMPI DUP1 PUSH4 0x95EA7B3 EQ PUSH2 0x1A9 JUMPI DUP1 PUSH4 0x1580E714 EQ PUSH2 0x1BE JUMPI JUMPDEST PUSH0 DUP1 REVERT JUMPDEST PUSH2 0x154 PUSH2 0x14F CALLDATASIZE PUSH1 0x4 PUSH2 0x12E8 JUMP JUMPDEST PUSH2 0x326 JUMP JUMPDEST PUSH1 0x40 MLOAD SWAP1 ISZERO ISZERO DUP2 MSTORE PUSH1 0x20 ADD JUMPDEST PUSH1 0x40 MLOAD DUP1 SWAP2 SUB SWAP1 RETURN JUMPDEST PUSH2 0x171 PUSH2 0x377 JUMP JUMPDEST PUSH1 0x40 MLOAD PUSH2 0x160 SWAP2 SWAP1 PUSH2 0x1350 JUMP JUMPDEST PUSH2 0x191 PUSH2 0x18C CALLDATASIZE PUSH1 0x4 PUSH2 0x1362 JUMP JUMPDEST PUSH2 0x406 JUMP JUMPDEST PUSH1 0x40 MLOAD PUSH1 0x1 PUSH1 0x1 PUSH1 0xA0 SHL SUB SWAP1 SWAP2 AND DUP2 MSTORE PUSH1 0x20 ADD PUSH2 0x160 JUMP JUMPDEST PUSH2 0x1BC PUSH2 0x1B7 CALLDATASIZE PUSH1 0x4 PUSH2 0x1394 JUMP JUMPDEST PUSH2 0x42D JUMP JUMPDEST STOP JUMPDEST PUSH2 0x1D1 PUSH2 0x1CC CALLDATASIZE PUSH1 0x4 PUSH2 0x13BC JUMP JUMPDEST PUSH2 0x43C JUMP JUMPDEST PUSH1 0x40 MLOAD SWAP1 DUP2 MSTORE PUSH1 0x20 ADD PUSH2 0x160 JUMP JUMPDEST PUSH2 0x1BC PUSH2 0x1ED CALLDATASIZE PUSH1 0x4 PUSH2 0x1405 JUMP JUMPDEST PUSH2 0x645 JUMP JUMPDEST PUSH2 0x1BC PUSH2 0x200 CALLDATASIZE PUSH1 0x4 PUSH2 0x1405 JUMP JUMPDEST PUSH2 0x6CE JUMP JUMPDEST PUSH2 0x1BC PUSH2 0x213 CALLDATASIZE PUSH1 0x4 PUSH2 0x143E JUMP JUMPDEST PUSH2 0x6ED JUMP JUMPDEST PUSH2 0x191 PUSH2 0x226 CALLDATASIZE PUSH1 0x4 PUSH2 0x1362 JUMP JUMPDEST PUSH2 0x7A9 JUMP JUMPDEST PUSH2 0x154 PUSH2 0x239 CALLDATASIZE PUSH1 0x4 PUSH2 0x1477 JUMP JUMPDEST PUSH1 0x9 PUSH1 0x20 MSTORE PUSH0 SWAP1 DUP2 MSTORE PUSH1 0x40 SWAP1 KECCAK256 SLOAD PUSH1 0xFF AND DUP2 JUMP JUMPDEST PUSH2 0x1D1 PUSH2 0x25B CALLDATASIZE PUSH1 0x4 PUSH2 0x1477 JUMP JUMPDEST PUSH2 0x7B3 JUMP JUMPDEST PUSH2 0x1BC PUSH2 0x7F8 JUMP JUMPDEST PUSH2 0x1BC PUSH2 0x276 CALLDATASIZE PUSH1 0x4 PUSH2 0x1362 JUMP JUMPDEST PUSH2 0x80B JUMP JUMPDEST PUSH1 0x6 SLOAD PUSH1 0x1 PUSH1 0x1 PUSH1 0xA0 SHL SUB AND PUSH2 0x191 JUMP JUMPDEST PUSH2 0x171 PUSH2 0x885 JUMP JUMPDEST PUSH2 0x1BC PUSH2 0x2A2 CALLDATASIZE PUSH1 0x4 PUSH2 0x143E JUMP JUMPDEST PUSH2 0x894 JUMP JUMPDEST PUSH2 0x2BA PUSH2 0x2B5 CALLDATASIZE PUSH1 0x4 PUSH2 0x1362 JUMP JUMPDEST PUSH2 0x89F JUMP JUMPDEST PUSH1 0x40 MLOAD PUSH2 0x160 SWAP2 SWAP1 PUSH2 0x14C4 JUMP JUMPDEST PUSH2 0x1BC PUSH2 0x2D5 CALLDATASIZE PUSH1 0x4 PUSH2 0x1362 JUMP JUMPDEST PUSH2 0x946 JUMP JUMPDEST PUSH2 0x1BC PUSH2 0x2E8 CALLDATASIZE PUSH1 0x4 PUSH2 0x152C JUMP JUMPDEST PUSH2 0x9C0 JUMP JUMPDEST PUSH2 0x171 PUSH2 0x2FB CALLDATASIZE PUSH1 0x4 PUSH2 0x1362 JUMP JUMPDEST PUSH2 0x9D8 JUMP JUMPDEST PUSH2 0x154 PUSH2 0x30E CALLDATASIZE PUSH1 0x4 PUSH2 0x1601 JUMP JUMPDEST PUSH2 0xA49 JUMP JUMPDEST PUSH2 0x1BC PUSH2 0x321 CALLDATASIZE PUSH1 0x4 PUSH2 0x1477 JUMP JUMPDEST PUSH2 0xA76 JUMP JUMPDEST PUSH0 PUSH1 0x1 PUSH1 0x1 PUSH1 0xE0 SHL SUB NOT DUP3 AND PUSH4 0x80AC58CD PUSH1 0xE0 SHL EQ DUP1 PUSH2 0x356 JUMPI POP PUSH1 0x1 PUSH1 0x1 PUSH1 0xE0 SHL SUB NOT DUP3 AND PUSH4 0x5B5E139F PUSH1 0xE0 SHL EQ JUMPDEST DUP1 PUSH2 0x371 JUMPI POP PUSH4 0x1FFC9A7 PUSH1 0xE0 SHL PUSH1 0x1 PUSH1 0x1 PUSH1 0xE0 SHL SUB NOT DUP4 AND EQ JUMPDEST SWAP3 SWAP2 POP POP JUMP JUMPDEST PUSH1 0x60 PUSH0 DUP1 SLOAD PUSH2 0x385 SWAP1 PUSH2 0x1632 JUMP JUMPDEST DUP1 PUSH1 0x1F ADD PUSH1 0x20 DUP1 SWAP2 DIV MUL PUSH1 0x20 ADD PUSH1 0x40 MLOAD SWAP1 DUP2 ADD PUSH1 0x40 MSTORE DUP1 SWAP3 SWAP2 SWAP1 DUP2 DUP2 MSTORE PUSH1 0x20 ADD DUP3 DUP1 SLOAD PUSH2 0x3B1 SWAP1 PUSH2 0x1632 JUMP JUMPDEST DUP1 ISZERO PUSH2 0x3FC JUMPI DUP1 PUSH1 0x1F LT PUSH2 0x3D3 JUMPI PUSH2 0x100 DUP1 DUP4 SLOAD DIV MUL DUP4 MSTORE SWAP2 PUSH1 0x20 ADD SWAP2 PUSH2 0x3FC JUMP JUMPDEST DUP3 ADD SWAP2 SWAP1 PUSH0 MSTORE PUSH1 0x20 PUSH0 KECCAK256 SWAP1 JUMPDEST DUP2 SLOAD DUP2 MSTORE SWAP1 PUSH1 0x1 ADD SWAP1 PUSH1 0x20 ADD DUP1 DUP4 GT PUSH2 0x3DF JUMPI DUP3 SWAP1 SUB PUSH1 0x1F AND DUP3 ADD SWAP2 JUMPDEST POP POP POP POP POP SWAP1 POP SWAP1 JUMP JUMPDEST PUSH0 PUSH2 0x410 DUP3 PUSH2 0xAB3 JUMP JUMPDEST POP PUSH0 DUP3 DUP2 MSTORE PUSH1 0x4 PUSH1 0x20 MSTORE PUSH1 0x40 SWAP1 KECCAK256 SLOAD PUSH1 0x1 PUSH1 0x1 PUSH1 0xA0 SHL SUB AND PUSH2 0x371 JUMP JUMPDEST PUSH2 0x438 DUP3 DUP3 CALLER PUSH2 0xAEB JUMP JUMPDEST POP POP JUMP JUMPDEST CALLER PUSH0 SWAP1 DUP2 MSTORE PUSH1 0x9 PUSH1 0x20 MSTORE PUSH1 0x40 DUP2 KECCAK256 SLOAD PUSH1 0xFF AND PUSH2 0x49F JUMPI PUSH1 0x40 MLOAD PUSH3 0x461BCD PUSH1 0xE5 SHL DUP2 MSTORE PUSH1 0x20 PUSH1 0x4 DUP3 ADD MSTORE PUSH1 0x1C PUSH1 0x24 DUP3 ADD MSTORE PUSH32 0x4661726D65724E6F74653A2063616C6C6572206E6F74207661756C7400000000 PUSH1 0x44 DUP3 ADD MSTORE PUSH1 0x64 ADD JUMPDEST PUSH1 0x40 MLOAD DUP1 SWAP2 SUB SWAP1 REVERT JUMPDEST PUSH1 0x1 PUSH1 0x1 PUSH1 0xA0 SHL SUB DUP7 AND PUSH2 0x4EB JUMPI PUSH1 0x40 MLOAD PUSH3 0x461BCD PUSH1 0xE5 SHL DUP2 MSTORE PUSH1 0x20 PUSH1 0x4 DUP3 ADD MSTORE PUSH1 0x13 PUSH1 0x24 DUP3 ADD MSTORE PUSH19 0x4661726D65724E6F74653A207A65726F20746F PUSH1 0x68 SHL PUSH1 0x44 DUP3 ADD MSTORE PUSH1 0x64 ADD PUSH2 0x496 JUMP JUMPDEST PUSH1 0x1 PUSH1 0x1 PUSH1 0xA0 SHL SUB DUP6 AND PUSH2 0x541 JUMPI PUSH1 0x40 MLOAD PUSH3 0x461BCD PUSH1 0xE5 SHL DUP2 MSTORE PUSH1 0x20 PUSH1 0x4 DUP3 ADD MSTORE PUSH1 0x17 PUSH1 0x24 DUP3 ADD MSTORE PUSH32 0x4661726D65724E6F74653A207A65726F206661726D6572000000000000000000 PUSH1 0x44 DUP3 ADD MSTORE PUSH1 0x64 ADD PUSH2 0x496 JUMP JUMPDEST PUSH0 DUP5 GT PUSH2 0x590 JUMPI PUSH1 0x40 MLOAD PUSH3 0x461BCD PUSH1 0xE5 SHL DUP2 MSTORE PUSH1 0x20 PUSH1 0x4 DUP3 ADD MSTORE PUSH1 0x1A PUSH1 0x24 DUP3 ADD MSTORE PUSH32 0x4661726D65724E6F74653A207A65726F207072696E636970616C000000000000 PUSH1 0x44 DUP3 ADD MSTORE PUSH1 0x64 ADD PUSH2 0x496 JUMP JUMPDEST PUSH1 0x7 SLOAD PUSH2 0x59E DUP2 PUSH1 0x1 PUSH2 0x166A JUMP JUMPDEST PUSH1 0x7 SSTORE PUSH0 DUP2 DUP2 MSTORE PUSH1 0x8 PUSH1 0x20 MSTORE PUSH1 0x40 SWAP1 KECCAK256 DUP1 SLOAD PUSH1 0x1 PUSH1 0x1 PUSH1 0xA0 SHL SUB NOT AND PUSH1 0x1 PUSH1 0x1 PUSH1 0xA0 SHL SUB DUP9 AND OR DUP2 SSTORE PUSH1 0x1 DUP1 DUP3 ADD DUP8 SWAP1 SSTORE PUSH1 0x2 DUP3 ADD DUP7 SWAP1 SSTORE PUSH1 0x3 DUP3 ADD DUP6 SWAP1 SSTORE PUSH1 0x4 DUP3 ADD DUP1 SLOAD PUSH1 0x1 PUSH1 0x1 PUSH1 0xA8 SHL SUB NOT AND CALLER PUSH2 0x100 MUL OR SWAP1 SWAP2 OR SWAP1 SSTORE PUSH2 0x602 DUP9 DUP4 PUSH2 0xAF8 JUMP JUMPDEST DUP2 PUSH32 0xD93D075F1D2BA959941675ECC0D500F7996AF5BF34708925DCB13E09D3B85E98 DUP3 PUSH1 0x40 MLOAD PUSH2 0x632 SWAP2 SWAP1 PUSH2 0x1689 JUMP JUMPDEST PUSH1 0x40 MLOAD DUP1 SWAP2 SUB SWAP1 LOG2 POP SWAP7 SWAP6 POP POP POP POP POP POP JUMP JUMPDEST PUSH1 0x1 PUSH1 0x1 PUSH1 0xA0 SHL SUB DUP3 AND PUSH2 0x66E JUMPI PUSH1 0x40 MLOAD PUSH4 0x32505749 PUSH1 0xE1 SHL DUP2 MSTORE PUSH0 PUSH1 0x4 DUP3 ADD MSTORE PUSH1 0x24 ADD PUSH2 0x496 JUMP JUMPDEST PUSH0 PUSH2 0x67A DUP4 DUP4 CALLER PUSH2 0xB59 JUMP JUMPDEST SWAP1 POP DUP4 PUSH1 0x1 PUSH1 0x1 PUSH1 0xA0 SHL SUB AND DUP2 PUSH1 0x1 PUSH1 0x1 PUSH1 0xA0 SHL SUB AND EQ PUSH2 0x6C8 JUMPI PUSH1 0x40 MLOAD PUSH4 0x64283D7B PUSH1 0xE0 SHL DUP2 MSTORE PUSH1 0x1 PUSH1 0x1 PUSH1 0xA0 SHL SUB DUP1 DUP7 AND PUSH1 0x4 DUP4 ADD MSTORE PUSH1 0x24 DUP3 ADD DUP5 SWAP1 MSTORE DUP3 AND PUSH1 0x44 DUP3 ADD MSTORE PUSH1 0x64 ADD PUSH2 0x496 JUMP JUMPDEST POP POP POP POP JUMP JUMPDEST PUSH2 0x6E8 DUP4 DUP4 DUP4 PUSH1 0x40 MLOAD DUP1 PUSH1 0x20 ADD PUSH1 0x40 MSTORE DUP1 PUSH0 DUP2 MSTORE POP PUSH2 0x9C0 JUMP JUMPDEST POP POP POP JUMP JUMPDEST PUSH2 0x6F5 PUSH2 0xC4B JUMP JUMPDEST PUSH1 0x1 PUSH1 0x1 PUSH1 0xA0 SHL SUB DUP3 AND PUSH2 0x74B JUMPI PUSH1 0x40 MLOAD PUSH3 0x461BCD PUSH1 0xE5 SHL DUP2 MSTORE PUSH1 0x20 PUSH1 0x4 DUP3 ADD MSTORE PUSH1 0x18 PUSH1 0x24 DUP3 ADD MSTORE PUSH32 0x4661726D65724E6F74653A207A65726F20616464726573730000000000000000 PUSH1 0x44 DUP3 ADD MSTORE PUSH1 0x64 ADD PUSH2 0x496 JUMP JUMPDEST PUSH1 0x1 PUSH1 0x1 PUSH1 0xA0 SHL SUB DUP3 AND PUSH0 DUP2 DUP2 MSTORE PUSH1 0x9 PUSH1 0x20 SWAP1 DUP2 MSTORE PUSH1 0x40 SWAP2 DUP3 SWAP1 KECCAK256 DUP1 SLOAD PUSH1 0xFF NOT AND DUP6 ISZERO ISZERO SWAP1 DUP2 OR SWAP1 SWAP2 SSTORE SWAP2 MLOAD SWAP2 DUP3 MSTORE PUSH32 0x98B1AC01004349925FA6FD6B4E3A1175DF65B77F25218F8E35F32E2066FEE010 SWAP2 ADD PUSH1 0x40 MLOAD DUP1 SWAP2 SUB SWAP1 LOG2 POP POP JUMP JUMPDEST PUSH0 PUSH2 0x371 DUP3 PUSH2 0xAB3 JUMP JUMPDEST PUSH0 PUSH1 0x1 PUSH1 0x1 PUSH1 0xA0 SHL SUB DUP3 AND PUSH2 0x7DD JUMPI PUSH1 0x40 MLOAD PUSH4 0x22718AD9 PUSH1 0xE2 SHL DUP2 MSTORE PUSH0 PUSH1 0x4 DUP3 ADD MSTORE PUSH1 0x24 ADD PUSH2 0x496 JUMP JUMPDEST POP PUSH1 0x1 PUSH1 0x1 PUSH1 0xA0 SHL SUB AND PUSH0 SWAP1 DUP2 MSTORE PUSH1 0x3 PUSH1 0x20 MSTORE PUSH1 0x40 SWAP1 KECCAK256 SLOAD SWAP1 JUMP JUMPDEST PUSH2 0x800 PUSH2 0xC4B JUMP JUMPDEST PUSH2 0x809 PUSH0 PUSH2 0xC78 JUMP JUMPDEST JUMP JUMPDEST PUSH0 DUP2 DUP2 MSTORE PUSH1 0x8 PUSH1 0x20 MSTORE PUSH1 0x40 SWAP1 KECCAK256 PUSH1 0x4 ADD SLOAD DUP2 SWAP1 PUSH2 0x100 SWAP1 DIV PUSH1 0x1 PUSH1 0x1 PUSH1 0xA0 SHL SUB AND CALLER EQ PUSH2 0x87A JUMPI PUSH1 0x40 MLOAD PUSH3 0x461BCD PUSH1 0xE5 SHL DUP2 MSTORE PUSH1 0x20 PUSH1 0x4 DUP3 ADD MSTORE PUSH1 0x1A PUSH1 0x24 DUP3 ADD MSTORE PUSH32 0x4661726D65724E6F74653A206E6F74206E6F7465207661756C74000000000000 PUSH1 0x44 DUP3 ADD MSTORE PUSH1 0x64 ADD PUSH2 0x496 JUMP JUMPDEST PUSH2 0x438 DUP3 PUSH1 0x3 PUSH2 0xCC9 JUMP JUMPDEST PUSH1 0x60 PUSH1 0x1 DUP1 SLOAD PUSH2 0x385 SWAP1 PUSH2 0x1632 JUMP JUMPDEST PUSH2 0x438 CALLER DUP4 DUP4 PUSH2 0xD90 JUMP JUMPDEST PUSH2 0x8A7 PUSH2 0x1289 JUMP JUMPDEST PUSH0 DUP3 DUP2 MSTORE PUSH1 0x8 PUSH1 0x20 SWAP1 DUP2 MSTORE PUSH1 0x40 SWAP2 DUP3 SWAP1 KECCAK256 DUP3 MLOAD PUSH1 0xC0 DUP2 ADD DUP5 MSTORE DUP2 SLOAD PUSH1 0x1 PUSH1 0x1 PUSH1 0xA0 SHL SUB AND DUP2 MSTORE PUSH1 0x1 DUP3 ADD SLOAD SWAP3 DUP2 ADD SWAP3 SWAP1 SWAP3 MSTORE PUSH1 0x2 DUP2 ADD SLOAD SWAP3 DUP3 ADD SWAP3 SWAP1 SWAP3 MSTORE PUSH1 0x3 DUP1 DUP4 ADD SLOAD PUSH1 0x60 DUP4 ADD MSTORE PUSH1 0x4 DUP4 ADD SLOAD SWAP2 SWAP3 SWAP2 PUSH1 0x80 DUP5 ADD SWAP2 PUSH1 0xFF SWAP1 SWAP2 AND SWAP1 DUP2 GT ISZERO PUSH2 0x912 JUMPI PUSH2 0x912 PUSH2 0x1490 JUMP JUMPDEST PUSH1 0x3 DUP2 GT ISZERO PUSH2 0x923 JUMPI PUSH2 0x923 PUSH2 0x1490 JUMP JUMPDEST DUP2 MSTORE PUSH1 0x4 SWAP2 SWAP1 SWAP2 ADD SLOAD PUSH2 0x100 SWAP1 DIV PUSH1 0x1 PUSH1 0x1 PUSH1 0xA0 SHL SUB AND PUSH1 0x20 SWAP1 SWAP2 ADD MSTORE SWAP3 SWAP2 POP POP JUMP JUMPDEST PUSH0 DUP2 DUP2 MSTORE PUSH1 0x8 PUSH1 0x20 MSTORE PUSH1 0x40 SWAP1 KECCAK256 PUSH1 0x4 ADD SLOAD DUP2 SWAP1 PUSH2 0x100 SWAP1 DIV PUSH1 0x1 PUSH1 0x1 PUSH1 0xA0 SHL SUB AND CALLER EQ PUSH2 0x9B5 JUMPI PUSH1 0x40 MLOAD PUSH3 0x461BCD PUSH1 0xE5 SHL DUP2 MSTORE PUSH1 0x20 PUSH1 0x4 DUP3 ADD MSTORE PUSH1 0x1A PUSH1 0x24 DUP3 ADD MSTORE PUSH32 0x4661726D65724E6F74653A206E6F74206E6F7465207661756C74000000000000 PUSH1 0x44 DUP3 ADD MSTORE PUSH1 0x64 ADD PUSH2 0x496 JUMP JUMPDEST PUSH2 0x438 DUP3 PUSH1 0x2 PUSH2 0xCC9 JUMP JUMPDEST PUSH2 0x9CB DUP5 DUP5 DUP5 PUSH2 0x645 JUMP JUMPDEST PUSH2 0x6C8 CALLER DUP6 DUP6 DUP6 DUP6 PUSH2 0xE2E JUMP JUMPDEST PUSH1 0x60 PUSH2 0x9E3 DUP3 PUSH2 0xAB3 JUMP JUMPDEST POP PUSH0 PUSH2 0x9F9 PUSH1 0x40 DUP1 MLOAD PUSH1 0x20 DUP2 ADD SWAP1 SWAP2 MSTORE PUSH0 DUP2 MSTORE SWAP1 JUMP JUMPDEST SWAP1 POP PUSH0 DUP2 MLOAD GT PUSH2 0xA17 JUMPI PUSH1 0x40 MLOAD DUP1 PUSH1 0x20 ADD PUSH1 0x40 MSTORE DUP1 PUSH0 DUP2 MSTORE POP PUSH2 0xA42 JUMP JUMPDEST DUP1 PUSH2 0xA21 DUP5 PUSH2 0xF56 JUMP JUMPDEST PUSH1 0x40 MLOAD PUSH1 0x20 ADD PUSH2 0xA32 SWAP3 SWAP2 SWAP1 PUSH2 0x16E4 JUMP JUMPDEST PUSH1 0x40 MLOAD PUSH1 0x20 DUP2 DUP4 SUB SUB DUP2 MSTORE SWAP1 PUSH1 0x40 MSTORE JUMPDEST SWAP4 SWAP3 POP POP POP JUMP JUMPDEST PUSH1 0x1 PUSH1 0x1 PUSH1 0xA0 SHL SUB SWAP2 DUP3 AND PUSH0 SWAP1 DUP2 MSTORE PUSH1 0x5 PUSH1 0x20 SWAP1 DUP2 MSTORE PUSH1 0x40 DUP1 DUP4 KECCAK256 SWAP4 SWAP1 SWAP5 AND DUP3 MSTORE SWAP2 SWAP1 SWAP2 MSTORE KECCAK256 SLOAD PUSH1 0xFF AND SWAP1 JUMP JUMPDEST PUSH2 0xA7E PUSH2 0xC4B JUMP JUMPDEST PUSH1 0x1 PUSH1 0x1 PUSH1 0xA0 SHL SUB DUP2 AND PUSH2 0xAA7 JUMPI PUSH1 0x40 MLOAD PUSH4 0x1E4FBDF7 PUSH1 0xE0 SHL DUP2 MSTORE PUSH0 PUSH1 0x4 DUP3 ADD MSTORE PUSH1 0x24 ADD PUSH2 0x496 JUMP JUMPDEST PUSH2 0xAB0 DUP2 PUSH2 0xC78 JUMP JUMPDEST POP JUMP JUMPDEST PUSH0 DUP2 DUP2 MSTORE PUSH1 0x2 PUSH1 0x20 MSTORE PUSH1 0x40 DUP2 KECCAK256 SLOAD PUSH1 0x1 PUSH1 0x1 PUSH1 0xA0 SHL SUB AND DUP1 PUSH2 0x371 JUMPI PUSH1 0x40 MLOAD PUSH4 0x7E273289 PUSH1 0xE0 SHL DUP2 MSTORE PUSH1 0x4 DUP2 ADD DUP5 SWAP1 MSTORE PUSH1 0x24 ADD PUSH2 0x496 JUMP JUMPDEST PUSH2 0x6E8 DUP4 DUP4 DUP4 PUSH1 0x1 PUSH2 0xFE6 JUMP JUMPDEST PUSH1 0x1 PUSH1 0x1 PUSH1 0xA0 SHL SUB DUP3 AND PUSH2 0xB21 JUMPI PUSH1 0x40 MLOAD PUSH4 0x32505749 PUSH1 0xE1 SHL DUP2 MSTORE PUSH0 PUSH1 0x4 DUP3 ADD MSTORE PUSH1 0x24 ADD PUSH2 0x496 JUMP JUMPDEST PUSH0 PUSH2 0xB2D DUP4 DUP4 PUSH0 PUSH2 0xB59 JUMP JUMPDEST SWAP1 POP PUSH1 0x1 PUSH1 0x1 PUSH1 0xA0 SHL SUB DUP2 AND ISZERO PUSH2 0x6E8 JUMPI PUSH1 0x40 MLOAD PUSH4 0x39E35637 PUSH1 0xE1 SHL DUP2 MSTORE PUSH0 PUSH1 0x4 DUP3 ADD MSTORE PUSH1 0x24 ADD PUSH2 0x496 JUMP JUMPDEST PUSH0 DUP3 DUP2 MSTORE PUSH1 0x2 PUSH1 0x20 MSTORE PUSH1 0x40 DUP2 KECCAK256 SLOAD PUSH1 0x1 PUSH1 0x1 PUSH1 0xA0 SHL SUB SWAP1 DUP2 AND SWAP1 DUP4 AND ISZERO PUSH2 0xB85 JUMPI PUSH2 0xB85 DUP2 DUP5 DUP7 PUSH2 0x10EA JUMP JUMPDEST PUSH1 0x1 PUSH1 0x1 PUSH1 0xA0 SHL SUB DUP2 AND ISZERO PUSH2 0xBBF JUMPI PUSH2 0xBA0 PUSH0 DUP6 PUSH0 DUP1 PUSH2 0xFE6 JUMP JUMPDEST PUSH1 0x1 PUSH1 0x1 PUSH1 0xA0 SHL SUB DUP2 AND PUSH0 SWAP1 DUP2 MSTORE PUSH1 0x3 PUSH1 0x20 MSTORE PUSH1 0x40 SWAP1 KECCAK256 DUP1 SLOAD PUSH0 NOT ADD SWAP1 SSTORE JUMPDEST PUSH1 0x1 PUSH1 0x1 PUSH1 0xA0 SHL SUB DUP6 AND ISZERO PUSH2 0xBED JUMPI PUSH1 0x1 PUSH1 0x1 PUSH1 0xA0 SHL SUB DUP6 AND PUSH0 SWAP1 DUP2 MSTORE PUSH1 0x3 PUSH1 0x20 MSTORE PUSH1 0x40 SWAP1 KECCAK256 DUP1 SLOAD PUSH1 0x1 ADD SWAP1 SSTORE JUMPDEST PUSH0 DUP5 DUP2 MSTORE PUSH1 0x2 PUSH1 0x20 MSTORE PUSH1 0x40 DUP1 DUP3 KECCAK256 DUP1 SLOAD PUSH1 0x1 PUSH1 0x1 PUSH1 0xA0 SHL SUB NOT AND PUSH1 0x1 PUSH1 0x1 PUSH1 0xA0 SHL SUB DUP10 DUP2 AND SWAP2 DUP3 OR SWAP1 SWAP3 SSTORE SWAP2 MLOAD DUP8 SWAP4 SWAP2 DUP6 AND SWAP2 PUSH32 0xDDF252AD1BE2C89B69C2B068FC378DAA952BA7F163C4A11628F55A4DF523B3EF SWAP2 LOG4 SWAP5 SWAP4 POP POP POP POP JUMP JUMPDEST PUSH1 0x6 SLOAD PUSH1 0x1 PUSH1 0x1 PUSH1 0xA0 SHL SUB AND CALLER EQ PUSH2 0x809 JUMPI PUSH1 0x40 MLOAD PUSH4 0x118CDAA7 PUSH1 0xE0 SHL DUP2 MSTORE CALLER PUSH1 0x4 DUP3 ADD MSTORE PUSH1 0x24 ADD PUSH2 0x496 JUMP JUMPDEST PUSH1 0x6 DUP1 SLOAD PUSH1 0x1 PUSH1 0x1 PUSH1 0xA0 SHL SUB DUP4 DUP2 AND PUSH1 0x1 PUSH1 0x1 PUSH1 0xA0 SHL SUB NOT DUP4 AND DUP2 OR SWAP1 SWAP4 SSTORE PUSH1 0x40 MLOAD SWAP2 AND SWAP2 SWAP1 DUP3 SWAP1 PUSH32 0x8BE0079C531659141344CD1FD0A4F28419497F9722A3DAAFE3B4186F6B6457E0 SWAP1 PUSH0 SWAP1 LOG3 POP POP JUMP JUMPDEST PUSH0 DUP3 DUP2 MSTORE PUSH1 0x8 PUSH1 0x20 MSTORE PUSH1 0x40 SWAP1 KECCAK256 DUP1 SLOAD PUSH1 0x1 PUSH1 0x1 PUSH1 0xA0 SHL SUB AND PUSH2 0xD2D JUMPI PUSH1 0x40 MLOAD PUSH3 0x461BCD PUSH1 0xE5 SHL DUP2 MSTORE PUSH1 0x20 PUSH1 0x4 DUP3 ADD MSTORE PUSH1 0x18 PUSH1 0x24 DUP3 ADD MSTORE PUSH32 0x4661726D65724E6F74653A20756E6B6E6F776E206E6F74650000000000000000 PUSH1 0x44 DUP3 ADD MSTORE PUSH1 0x64 ADD PUSH2 0x496 JUMP JUMPDEST PUSH1 0x4 DUP2 ADD DUP1 SLOAD DUP4 SWAP2 SWAP1 PUSH1 0xFF NOT AND PUSH1 0x1 DUP4 PUSH1 0x3 DUP2 GT ISZERO PUSH2 0xD4E JUMPI PUSH2 0xD4E PUSH2 0x1490 JUMP JUMPDEST MUL OR SWAP1 SSTORE POP DUP3 PUSH32 0x44E7F6E91D42DD0C748C9BA81620345A4E54BA65F12E2BA73D6D8B6387498859 DUP4 PUSH1 0x40 MLOAD PUSH2 0xD83 SWAP2 SWAP1 PUSH2 0x1712 JUMP JUMPDEST PUSH1 0x40 MLOAD DUP1 SWAP2 SUB SWAP1 LOG2 POP POP POP JUMP JUMPDEST PUSH1 0x1 PUSH1 0x1 PUSH1 0xA0 SHL SUB DUP3 AND PUSH2 0xDC2 JUMPI PUSH1 0x40 MLOAD PUSH4 0xB611743 PUSH1 0xE3 SHL DUP2 MSTORE PUSH1 0x1 PUSH1 0x1 PUSH1 0xA0 SHL SUB DUP4 AND PUSH1 0x4 DUP3 ADD MSTORE PUSH1 0x24 ADD PUSH2 0x496 JUMP JUMPDEST PUSH1 0x1 PUSH1 0x1 PUSH1 0xA0 SHL SUB DUP4 DUP2 AND PUSH0 DUP2 DUP2 MSTORE PUSH1 0x5 PUSH1 0x20 SWAP1 DUP2 MSTORE PUSH1 0x40 DUP1 DUP4 KECCAK256 SWAP5 DUP8 AND DUP1 DUP5 MSTORE SWAP5 DUP3 MSTORE SWAP2 DUP3 SWAP1 KECCAK256 DUP1 SLOAD PUSH1 0xFF NOT AND DUP7 ISZERO ISZERO SWAP1 DUP2 OR SWAP1 SWAP2 SSTORE SWAP2 MLOAD SWAP2 DUP3 MSTORE PUSH32 0x17307EAB39AB6107E8899845AD3D59BD9653F200F220920489CA2B5937696C31 SWAP2 ADD PUSH1 0x40 MLOAD DUP1 SWAP2 SUB SWAP1 LOG3 POP POP POP JUMP JUMPDEST PUSH1 0x1 PUSH1 0x1 PUSH1 0xA0 SHL SUB DUP4 AND EXTCODESIZE ISZERO PUSH2 0xF4F JUMPI PUSH1 0x40 MLOAD PUSH4 0xA85BD01 PUSH1 0xE1 SHL DUP2 MSTORE PUSH1 0x1 PUSH1 0x1 PUSH1 0xA0 SHL SUB DUP5 AND SWAP1 PUSH4 0x150B7A02 SWAP1 PUSH2 0xE70 SWAP1 DUP9 SWAP1 DUP9 SWAP1 DUP8 SWAP1 DUP8 SWAP1 PUSH1 0x4 ADD PUSH2 0x1720 JUMP JUMPDEST PUSH1 0x20 PUSH1 0x40 MLOAD DUP1 DUP4 SUB DUP2 PUSH0 DUP8 GAS CALL SWAP3 POP POP POP DUP1 ISZERO PUSH2 0xEAA JUMPI POP PUSH1 0x40 DUP1 MLOAD PUSH1 0x1F RETURNDATASIZE SWAP1 DUP2 ADD PUSH1 0x1F NOT AND DUP3 ADD SWAP1 SWAP3 MSTORE PUSH2 0xEA7 SWAP2 DUP2 ADD SWAP1 PUSH2 0x175C JUMP JUMPDEST PUSH1 0x1 JUMPDEST PUSH2 0xF11 JUMPI RETURNDATASIZE DUP1 DUP1 ISZERO PUSH2 0xED7 JUMPI PUSH1 0x40 MLOAD SWAP2 POP PUSH1 0x1F NOT PUSH1 0x3F RETURNDATASIZE ADD AND DUP3 ADD PUSH1 0x40 MSTORE RETURNDATASIZE DUP3 MSTORE RETURNDATASIZE PUSH0 PUSH1 0x20 DUP5 ADD RETURNDATACOPY PUSH2 0xEDC JUMP JUMPDEST PUSH1 0x60 SWAP2 POP JUMPDEST POP DUP1 MLOAD PUSH0 SUB PUSH2 0xF09 JUMPI PUSH1 0x40 MLOAD PUSH4 0x32505749 PUSH1 0xE1 SHL DUP2 MSTORE PUSH1 0x1 PUSH1 0x1 PUSH1 0xA0 SHL SUB DUP6 AND PUSH1 0x4 DUP3 ADD MSTORE PUSH1 0x24 ADD PUSH2 0x496 JUMP JUMPDEST DUP1 MLOAD PUSH1 0x20 DUP3 ADD REVERT JUMPDEST PUSH1 0x1 PUSH1 0x1 PUSH1 0xE0 SHL SUB NOT DUP2 AND PUSH4 0xA85BD01 PUSH1 0xE1 SHL EQ PUSH2 0xF4D JUMPI PUSH1 0x40 MLOAD PUSH4 0x32505749 PUSH1 0xE1 SHL DUP2 MSTORE PUSH1 0x1 PUSH1 0x1 PUSH1 0xA0 SHL SUB DUP6 AND PUSH1 0x4 DUP3 ADD MSTORE PUSH1 0x24 ADD PUSH2 0x496 JUMP JUMPDEST POP JUMPDEST POP POP POP POP POP JUMP JUMPDEST PUSH1 0x60 PUSH0 PUSH2 0xF62 DUP4 PUSH2 0x114E JUMP JUMPDEST PUSH1 0x1 ADD SWAP1 POP PUSH0 DUP2 PUSH8 0xFFFFFFFFFFFFFFFF DUP2 GT ISZERO PUSH2 0xF81 JUMPI PUSH2 0xF81 PUSH2 0x1518 JUMP JUMPDEST PUSH1 0x40 MLOAD SWAP1 DUP1 DUP3 MSTORE DUP1 PUSH1 0x1F ADD PUSH1 0x1F NOT AND PUSH1 0x20 ADD DUP3 ADD PUSH1 0x40 MSTORE DUP1 ISZERO PUSH2 0xFAB JUMPI PUSH1 0x20 DUP3 ADD DUP2 DUP1 CALLDATASIZE DUP4 CALLDATACOPY ADD SWAP1 POP JUMPDEST POP SWAP1 POP DUP2 DUP2 ADD PUSH1 0x20 ADD JUMPDEST PUSH0 NOT ADD PUSH16 0x181899199A1A9B1B9C1CB0B131B232B3 PUSH1 0x81 SHL PUSH1 0xA DUP7 MOD BYTE DUP2 MSTORE8 PUSH1 0xA DUP6 DIV SWAP5 POP DUP5 PUSH2 0xFB5 JUMPI POP SWAP4 SWAP3 POP POP POP JUMP JUMPDEST DUP1 DUP1 PUSH2 0xFFA JUMPI POP PUSH1 0x1 PUSH1 0x1 PUSH1 0xA0 SHL SUB DUP3 AND ISZERO ISZERO JUMPDEST ISZERO PUSH2 0x10BB JUMPI PUSH0 PUSH2 0x1009 DUP5 PUSH2 0xAB3 JUMP JUMPDEST SWAP1 POP PUSH1 0x1 PUSH1 0x1 PUSH1 0xA0 SHL SUB DUP4 AND ISZERO DUP1 ISZERO SWAP1 PUSH2 0x1035 JUMPI POP DUP3 PUSH1 0x1 PUSH1 0x1 PUSH1 0xA0 SHL SUB AND DUP2 PUSH1 0x1 PUSH1 0x1 PUSH1 0xA0 SHL SUB AND EQ ISZERO JUMPDEST DUP1 ISZERO PUSH2 0x1048 JUMPI POP PUSH2 0x1046 DUP2 DUP5 PUSH2 0xA49 JUMP JUMPDEST ISZERO JUMPDEST ISZERO PUSH2 0x1071 JUMPI PUSH1 0x40 MLOAD PUSH4 0xA9FBF51F PUSH1 0xE0 SHL DUP2 MSTORE PUSH1 0x1 PUSH1 0x1 PUSH1 0xA0 SHL SUB DUP5 AND PUSH1 0x4 DUP3 ADD MSTORE PUSH1 0x24 ADD PUSH2 0x496 JUMP JUMPDEST DUP2 ISZERO PUSH2 0x10B9 JUMPI DUP4 DUP6 PUSH1 0x1 PUSH1 0x1 PUSH1 0xA0 SHL SUB AND DUP3 PUSH1 0x1 PUSH1 0x1 PUSH1 0xA0 SHL SUB AND PUSH32 0x8C5BE1E5EBEC7D5BD14F71427D1E84F3DD0314C0F7B2291E5B200AC8C7C3B925 PUSH1 0x40 MLOAD PUSH1 0x40 MLOAD DUP1 SWAP2 SUB SWAP1 LOG4 JUMPDEST POP JUMPDEST POP POP PUSH0 SWAP1 DUP2 MSTORE PUSH1 0x4 PUSH1 0x20 MSTORE PUSH1 0x40 SWAP1 KECCAK256 DUP1 SLOAD PUSH1 0x1 PUSH1 0x1 PUSH1 0xA0 SHL SUB NOT AND PUSH1 0x1 PUSH1 0x1 PUSH1 0xA0 SHL SUB SWAP3 SWAP1 SWAP3 AND SWAP2 SWAP1 SWAP2 OR SWAP1 SSTORE JUMP JUMPDEST PUSH2 0x10F5 DUP4 DUP4 DUP4 PUSH2 0x1225 JUMP JUMPDEST PUSH2 0x6E8 JUMPI PUSH1 0x1 PUSH1 0x1 PUSH1 0xA0 SHL SUB DUP4 AND PUSH2 0x1123 JUMPI PUSH1 0x40 MLOAD PUSH4 0x7E273289 PUSH1 0xE0 SHL DUP2 MSTORE PUSH1 0x4 DUP2 ADD DUP3 SWAP1 MSTORE PUSH1 0x24 ADD PUSH2 0x496 JUMP JUMPDEST PUSH1 0x40 MLOAD PUSH4 0x177E802F PUSH1 0xE0 SHL DUP2 MSTORE PUSH1 0x1 PUSH1 0x1 PUSH1 0xA0 SHL SUB DUP4 AND PUSH1 0x4 DUP3 ADD MSTORE PUSH1 0x24 DUP2 ADD DUP3 SWAP1 MSTORE PUSH1 0x44 ADD PUSH2 0x496 JUMP JUMPDEST PUSH0 DUP1 PUSH19 0x184F03E93FF9F4DAA797ED6E38ED64BF6A1F01 PUSH1 0x40 SHL DUP4 LT PUSH2 0x118C JUMPI PUSH19 0x184F03E93FF9F4DAA797ED6E38ED64BF6A1F01 PUSH1 0x40 SHL DUP4 DIV SWAP3 POP PUSH1 0x40 ADD JUMPDEST PUSH14 0x4EE2D6D415B85ACEF8100000000 DUP4 LT PUSH2 0x11B8 JUMPI PUSH14 0x4EE2D6D415B85ACEF8100000000 DUP4 DIV SWAP3 POP PUSH1 0x20 ADD JUMPDEST PUSH7 0x2386F26FC10000 DUP4 LT PUSH2 0x11D6 JUMPI PUSH7 0x2386F26FC10000 DUP4 DIV SWAP3 POP PUSH1 0x10 ADD JUMPDEST PUSH4 0x5F5E100 DUP4 LT PUSH2 0x11EE JUMPI PUSH4 0x5F5E100 DUP4 DIV SWAP3 POP PUSH1 0x8 ADD JUMPDEST PUSH2 0x2710 DUP4 LT PUSH2 0x1202 JUMPI PUSH2 0x2710 DUP4 DIV SWAP3 POP PUSH1 0x4 ADD JUMPDEST PUSH1 0x64 DUP4 LT PUSH2 0x1214 JUMPI PUSH1 0x64 DUP4 DIV SWAP3 POP PUSH1 0x2 ADD JUMPDEST PUSH1 0xA DUP4 LT PUSH2 0x371 JUMPI PUSH1 0x1 ADD SWAP3 SWAP2 POP POP JUMP JUMPDEST PUSH0 PUSH1 0x1 PUSH1 0x1 PUSH1 0xA0 SHL SUB DUP4 AND ISZERO DUP1 ISZERO SWAP1 PUSH2 0x1281 JUMPI POP DUP3 PUSH1 0x1 PUSH1 0x1 PUSH1 0xA0 SHL SUB AND DUP5 PUSH1 0x1 PUSH1 0x1 PUSH1 0xA0 SHL SUB AND EQ DUP1 PUSH2 0x125E JUMPI POP PUSH2 0x125E DUP5 DUP5 PUSH2 0xA49 JUMP JUMPDEST DUP1 PUSH2 0x1281 JUMPI POP PUSH0 DUP3 DUP2 MSTORE PUSH1 0x4 PUSH1 0x20 MSTORE PUSH1 0x40 SWAP1 KECCAK256 SLOAD PUSH1 0x1 PUSH1 0x1 PUSH1 0xA0 SHL SUB DUP5 DUP2 AND SWAP2 AND EQ JUMPDEST SWAP5 SWAP4 POP POP POP POP JUMP JUMPDEST PUSH1 0x40 MLOAD DUP1 PUSH1 0xC0 ADD PUSH1 0x40 MSTORE DUP1 PUSH0 PUSH1 0x1 PUSH1 0x1 PUSH1 0xA0 SHL SUB AND DUP2 MSTORE PUSH1 0x20 ADD PUSH0 DUP2 MSTORE PUSH1 0x20 ADD PUSH0 DUP2 MSTORE PUSH1 0x20 ADD PUSH0 DUP2 MSTORE PUSH1 0x20 ADD PUSH0 PUSH1 0x3 DUP2 GT ISZERO PUSH2 0x12C7 JUMPI PUSH2 0x12C7 PUSH2 0x1490 JUMP JUMPDEST DUP2 MSTORE PUSH0 PUSH1 0x20 SWAP1 SWAP2 ADD MSTORE SWAP1 JUMP JUMPDEST PUSH1 0x1 PUSH1 0x1 PUSH1 0xE0 SHL SUB NOT DUP2 AND DUP2 EQ PUSH2 0xAB0 JUMPI PUSH0 DUP1 REVERT JUMPDEST PUSH0 PUSH1 0x20 DUP3 DUP5 SUB SLT ISZERO PUSH2 0x12F8 JUMPI PUSH0 DUP1 REVERT JUMPDEST DUP2 CALLDATALOAD PUSH2 0xA42 DUP2 PUSH2 0x12D3 JUMP JUMPDEST PUSH0 JUMPDEST DUP4 DUP2 LT ISZERO PUSH2 0x131D JUMPI DUP2 DUP2 ADD MLOAD DUP4 DUP3 ADD MSTORE PUSH1 0x20 ADD PUSH2 0x1305 JUMP JUMPDEST POP POP PUSH0 SWAP2 ADD MSTORE JUMP JUMPDEST PUSH0 DUP2 MLOAD DUP1 DUP5 MSTORE PUSH2 0x133C DUP2 PUSH1 0x20 DUP7 ADD PUSH1 0x20 DUP7 ADD PUSH2 0x1303 JUMP JUMPDEST PUSH1 0x1F ADD PUSH1 0x1F NOT AND SWAP3 SWAP1 SWAP3 ADD PUSH1 0x20 ADD SWAP3 SWAP2 POP POP JUMP JUMPDEST PUSH1 0x20 DUP2 MSTORE PUSH0 PUSH2 0xA42 PUSH1 0x20 DUP4 ADD DUP5 PUSH2 0x1325 JUMP JUMPDEST PUSH0 PUSH1 0x20 DUP3 DUP5 SUB SLT ISZERO PUSH2 0x1372 JUMPI PUSH0 DUP1 REVERT JUMPDEST POP CALLDATALOAD SWAP2 SWAP1 POP JUMP JUMPDEST DUP1 CALLDATALOAD PUSH1 0x1 PUSH1 0x1 PUSH1 0xA0 SHL SUB DUP2 AND DUP2 EQ PUSH2 0x138F JUMPI PUSH0 DUP1 REVERT JUMPDEST SWAP2 SWAP1 POP JUMP JUMPDEST PUSH0 DUP1 PUSH1 0x40 DUP4 DUP6 SUB SLT ISZERO PUSH2 0x13A5 JUMPI PUSH0 DUP1 REVERT JUMPDEST PUSH2 0x13AE DUP4 PUSH2 0x1379 JUMP JUMPDEST SWAP5 PUSH1 0x20 SWAP4 SWAP1 SWAP4 ADD CALLDATALOAD SWAP4 POP POP POP JUMP JUMPDEST PUSH0 DUP1 PUSH0 DUP1 PUSH0 PUSH1 0xA0 DUP7 DUP9 SUB SLT ISZERO PUSH2 0x13D0 JUMPI PUSH0 DUP1 REVERT JUMPDEST PUSH2 0x13D9 DUP7 PUSH2 0x1379 JUMP JUMPDEST SWAP5 POP PUSH2 0x13E7 PUSH1 0x20 DUP8 ADD PUSH2 0x1379 JUMP JUMPDEST SWAP5 SWAP8 SWAP5 SWAP7 POP POP POP POP PUSH1 0x40 DUP4 ADD CALLDATALOAD SWAP3 PUSH1 0x60 DUP2 ADD CALLDATALOAD SWAP3 PUSH1 0x80 SWAP1 SWAP2 ADD CALLDATALOAD SWAP2 POP JUMP JUMPDEST PUSH0 DUP1 PUSH0 PUSH1 0x60 DUP5 DUP7 SUB SLT ISZERO PUSH2 0x1417 JUMPI PUSH0 DUP1 REVERT JUMPDEST PUSH2 0x1420 DUP5 PUSH2 0x1379 JUMP JUMPDEST SWAP3 POP PUSH2 0x142E PUSH1 0x20 DUP6 ADD PUSH2 0x1379 JUMP JUMPDEST SWAP2 POP PUSH1 0x40 DUP5 ADD CALLDATALOAD SWAP1 POP SWAP3 POP SWAP3 POP SWAP3 JUMP JUMPDEST PUSH0 DUP1 PUSH1 0x40 DUP4 DUP6 SUB SLT ISZERO PUSH2 0x144F JUMPI PUSH0 DUP1 REVERT JUMPDEST PUSH2 0x1458 DUP4 PUSH2 0x1379 JUMP JUMPDEST SWAP2 POP PUSH1 0x20 DUP4 ADD CALLDATALOAD DUP1 ISZERO ISZERO DUP2 EQ PUSH2 0x146C JUMPI PUSH0 DUP1 REVERT JUMPDEST DUP1 SWAP2 POP POP SWAP3 POP SWAP3 SWAP1 POP JUMP JUMPDEST PUSH0 PUSH1 0x20 DUP3 DUP5 SUB SLT ISZERO PUSH2 0x1487 JUMPI PUSH0 DUP1 REVERT JUMPDEST PUSH2 0xA42 DUP3 PUSH2 0x1379 JUMP JUMPDEST PUSH4 0x4E487B71 PUSH1 0xE0 SHL PUSH0 MSTORE PUSH1 0x21 PUSH1 0x4 MSTORE PUSH1 0x24 PUSH0 REVERT JUMPDEST PUSH1 0x4 DUP2 LT PUSH2 0x14C0 JUMPI PUSH4 0x4E487B71 PUSH1 0xE0 SHL PUSH0 MSTORE PUSH1 0x21 PUSH1 0x4 MSTORE PUSH1 0x24 PUSH0 REVERT JUMPDEST SWAP1 MSTORE JUMP JUMPDEST PUSH0 PUSH1 0xC0 DUP3 ADD SWAP1 POP PUSH1 0x1 DUP1 PUSH1 0xA0 SHL SUB DUP1 DUP5 MLOAD AND DUP4 MSTORE PUSH1 0x20 DUP5 ADD MLOAD PUSH1 0x20 DUP5 ADD MSTORE PUSH1 0x40 DUP5 ADD MLOAD PUSH1 0x40 DUP5 ADD MSTORE PUSH1 0x60 DUP5 ADD MLOAD PUSH1 0x60 DUP5 ADD MSTORE PUSH1 0x80 DUP5 ADD MLOAD PUSH2 0x1508 PUSH1 0x80 DUP6 ADD DUP3 PUSH2 0x14A4 JUMP JUMPDEST POP PUSH1 0xA0 SWAP4 DUP5 ADD MLOAD AND SWAP2 SWAP1 SWAP3 ADD MSTORE SWAP1 JUMP JUMPDEST PUSH4 0x4E487B71 PUSH1 0xE0 SHL PUSH0 MSTORE PUSH1 0x41 PUSH1 0x4 MSTORE PUSH1 0x24 PUSH0 REVERT JUMPDEST PUSH0 DUP1 PUSH0 DUP1 PUSH1 0x80 DUP6 DUP8 SUB SLT ISZERO PUSH2 0x153F JUMPI PUSH0 DUP1 REVERT JUMPDEST PUSH2 0x1548 DUP6 PUSH2 0x1379 JUMP JUMPDEST SWAP4 POP PUSH2 0x1556 PUSH1 0x20 DUP7 ADD PUSH2 0x1379 JUMP JUMPDEST SWAP3 POP PUSH1 0x40 DUP6 ADD CALLDATALOAD SWAP2 POP PUSH1 0x60 DUP6 ADD CALLDATALOAD PUSH8 0xFFFFFFFFFFFFFFFF DUP1 DUP3 GT ISZERO PUSH2 0x1579 JUMPI PUSH0 DUP1 REVERT JUMPDEST DUP2 DUP8 ADD SWAP2 POP DUP8 PUSH1 0x1F DUP4 ADD SLT PUSH2 0x158C JUMPI PUSH0 DUP1 REVERT JUMPDEST DUP2 CALLDATALOAD DUP2 DUP2 GT ISZERO PUSH2 0x159E JUMPI PUSH2 0x159E PUSH2 0x1518 JUMP JUMPDEST PUSH1 0x40 MLOAD PUSH1 0x1F DUP3 ADD PUSH1 0x1F NOT SWAP1 DUP2 AND PUSH1 0x3F ADD AND DUP2 ADD SWAP1 DUP4 DUP3 GT DUP2 DUP4 LT OR ISZERO PUSH2 0x15C6 JUMPI PUSH2 0x15C6 PUSH2 0x1518 JUMP JUMPDEST DUP2 PUSH1 0x40 MSTORE DUP3 DUP2 MSTORE DUP11 PUSH1 0x20 DUP5 DUP8 ADD ADD GT ISZERO PUSH2 0x15DE JUMPI PUSH0 DUP1 REVERT JUMPDEST DUP3 PUSH1 0x20 DUP7 ADD PUSH1 0x20 DUP4 ADD CALLDATACOPY PUSH0 PUSH1 0x20 DUP5 DUP4 ADD ADD MSTORE DUP1 SWAP6 POP POP POP POP POP POP SWAP3 SWAP6 SWAP2 SWAP5 POP SWAP3 POP JUMP JUMPDEST PUSH0 DUP1 PUSH1 0x40 DUP4 DUP6 SUB SLT ISZERO PUSH2 0x1612 JUMPI PUSH0 DUP1 REVERT JUMPDEST PUSH2 0x161B DUP4 PUSH2 0x1379 JUMP JUMPDEST SWAP2 POP PUSH2 0x1629 PUSH1 0x20 DUP5 ADD PUSH2 0x1379 JUMP JUMPDEST SWAP1 POP SWAP3 POP SWAP3 SWAP1 POP JUMP JUMPDEST PUSH1 0x1 DUP2 DUP2 SHR SWAP1 DUP3 AND DUP1 PUSH2 0x1646 JUMPI PUSH1 0x7F DUP3 AND SWAP2 POP JUMPDEST PUSH1 0x20 DUP3 LT DUP2 SUB PUSH2 0x1664 JUMPI PUSH4 0x4E487B71 PUSH1 0xE0 SHL PUSH0 MSTORE PUSH1 0x22 PUSH1 0x4 MSTORE PUSH1 0x24 PUSH0 REVERT JUMPDEST POP SWAP2 SWAP1 POP JUMP JUMPDEST DUP1 DUP3 ADD DUP1 DUP3 GT ISZERO PUSH2 0x371 JUMPI PUSH4 0x4E487B71 PUSH1 0xE0 SHL PUSH0 MSTORE PUSH1 0x11 PUSH1 0x4 MSTORE PUSH1 0x24 PUSH0 REVERT JUMPDEST DUP2 SLOAD PUSH1 0x1 PUSH1 0x1 PUSH1 0xA0 SHL SUB SWAP1 DUP2 AND DUP3 MSTORE PUSH1 0x1 DUP4 ADD SLOAD PUSH1 0x20 DUP4 ADD MSTORE PUSH1 0x2 DUP4 ADD SLOAD PUSH1 0x40 DUP4 ADD MSTORE PUSH1 0x3 DUP4 ADD SLOAD PUSH1 0x60 DUP4 ADD MSTORE PUSH1 0x4 DUP4 ADD SLOAD PUSH1 0xC0 DUP4 ADD SWAP2 SWAP1 PUSH2 0x16D1 PUSH1 0x80 DUP6 ADD PUSH1 0xFF DUP4 AND PUSH2 0x14A4 JUMP JUMPDEST DUP2 DUP2 PUSH1 0x8 SHR AND PUSH1 0xA0 DUP6 ADD MSTORE POP POP SWAP3 SWAP2 POP POP JUMP JUMPDEST PUSH0 DUP4 MLOAD PUSH2 0x16F5 DUP2 DUP5 PUSH1 0x20 DUP9 ADD PUSH2 0x1303 JUMP JUMPDEST DUP4 MLOAD SWAP1 DUP4 ADD SWAP1 PUSH2 0x1709 DUP2 DUP4 PUSH1 0x20 DUP9 ADD PUSH2 0x1303 JUMP JUMPDEST ADD SWAP5 SWAP4 POP POP POP POP JUMP JUMPDEST PUSH1 0x20 DUP2 ADD PUSH2 0x371 DUP3 DUP5 PUSH2 0x14A4 JUMP JUMPDEST PUSH1 0x1 PUSH1 0x1 PUSH1 0xA0 SHL SUB DUP6 DUP2 AND DUP3 MSTORE DUP5 AND PUSH1 0x20 DUP3 ADD MSTORE PUSH1 0x40 DUP2 ADD DUP4 SWAP1 MSTORE PUSH1 0x80 PUSH1 0x60 DUP3 ADD DUP2 SWAP1 MSTORE PUSH0 SWAP1 PUSH2 0x1752 SWAP1 DUP4 ADD DUP5 PUSH2 0x1325 JUMP JUMPDEST SWAP7 SWAP6 POP POP POP POP POP POP JUMP JUMPDEST PUSH0 PUSH1 0x20 DUP3 DUP5 SUB SLT ISZERO PUSH2 0x176C JUMPI PUSH0 DUP1 REVERT JUMPDEST DUP2 MLOAD PUSH2 0xA42 DUP2 PUSH2 0x12D3 JUMP INVALID LOG2 PUSH5 0x6970667358 0x22 SLT KECCAK256 0xC3 0xC7 TIMESTAMP PUSH27 0x5355FEE6235FEC03733423741B578B69441FD61C4C53BA7F356568 PC PUSH5 0x736F6C6343 STOP ADDMOD XOR STOP CALLER "},"methodIdentifiers":{"approve(address,uint256)":"095ea7b3","balanceOf(address)":"70a08231","getApproved(uint256)":"081812fc","getNote(uint256)":"a965a941","isApprovedForAll(address,address)":"e985e9c5","isVault(address)":"652b9b41","mintNote(address,address,uint256,uint256,uint256)":"1580e714","name()":"06fdde03","owner()":"8da5cb5b","ownerOf(uint256)":"6352211e","renounceOwnership()":"715018a6","safeTransferFrom(address,address,uint256)":"42842e0e","safeTransferFrom(address,address,uint256,bytes)":"b88d4fde","setApprovalForAll(address,bool)":"a22cb465","setStatusDefaulted(uint256)":"894a9fa5","setStatusRepaid(uint256)":"b2b3be99","setVault(address,bool)":"627f66c6","supportsInterface(bytes4)":"01ffc9a7","symbol()":"95d89b41","tokenURI(uint256)":"c87b56dd","transferFrom(address,address,uint256)":"23b872dd","transferOwnership(address)":"f2fde38b"}}}}}