{"project/contracts/FarmerRegistry.sol":{"FarmerRegistry":{"abi":[{"inputs":[{"internalType":"address","name":"initialOwner","type":"address"}],"stateMutability":"nonpayable","type":"constructor"},{"inputs":[{"internalType":"address","name":"owner","type":"address"}],"name":"OwnableInvalidOwner","type":"error"},{"inputs":[{"internalType":"address","name":"account","type":"address"}],"name":"OwnableUnauthorizedAccount","type":"error"},{"anonymous":false,"inputs":[{"indexed":true,"internalType":"address","name":"farmer","type":"address"},{"components":[{"internalType":"bool","name":"approved","type":"bool"},{"internalType":"uint8","name":"riskTier","type":"uint8"},{"internalType":"enum AgroTypes.CropType","name":"cropType","type":"uint8"},{"internalType":"enum AgroTypes.Region","name":"region","type":"uint8"},{"internalType":"string","name":"metadataURI","type":"string"}],"indexed":false,"internalType":"struct AgroTypes.FarmerData","name":"data","type":"tuple"}],"name":"FarmerRegistered","type":"event"},{"anonymous":false,"inputs":[{"indexed":true,"internalType":"address","name":"farmer","type":"address"},{"components":[{"internalType":"bool","name":"approved","type":"bool"},{"internalType":"uint8","name":"riskTier","type":"uint8"},{"internalType":"enum AgroTypes.CropType","name":"cropType","type":"uint8"},{"internalType":"enum AgroTypes.Region","name":"region","type":"uint8"},{"internalType":"string","name":"metadataURI","type":"string"}],"indexed":false,"internalType":"struct AgroTypes.FarmerData","name":"data","type":"tuple"}],"name":"FarmerUpdated","type":"event"},{"anonymous":false,"inputs":[{"indexed":true,"internalType":"address","name":"previousOwner","type":"address"},{"indexed":true,"internalType":"address","name":"newOwner","type":"address"}],"name":"OwnershipTransferred","type":"event"},{"inputs":[],"name":"approvedFarmerCount","outputs":[{"internalType":"uint256","name":"","type":"uint256"}],"stateMutability":"view","type":"function"},{"inputs":[{"internalType":"address","name":"farmer","type":"address"}],"name":"getFarmer","outputs":[{"components":[{"internalType":"bool","name":"approved","type":"bool"},{"internalType":"uint8","name":"riskTier","type":"uint8"},{"internalType":"enum AgroTypes.CropType","name":"cropType","type":"uint8"},{"internalType":"enum AgroTypes.Region","name":"region","type":"uint8"},{"internalType":"string","name":"metadataURI","type":"string"}],"internalType":"struct AgroTypes.FarmerData","name":"","type":"tuple"}],"stateMutability":"view","type":"function"},{"inputs":[{"internalType":"uint256","name":"index","type":"uint256"}],"name":"getFarmerAt","outputs":[{"internalType":"address","name":"","type":"address"}],"stateMutability":"view","type":"function"},{"inputs":[],"name":"getFarmerCount","outputs":[{"internalType":"uint256","name":"","type":"uint256"}],"stateMutability":"view","type":"function"},{"inputs":[{"internalType":"uint256","name":"offset","type":"uint256"},{"internalType":"uint256","name":"limit","type":"uint256"}],"name":"getFarmers","outputs":[{"internalType":"address[]","name":"","type":"address[]"}],"stateMutability":"view","type":"function"},{"inputs":[],"name":"owner","outputs":[{"internalType":"address","name":"","type":"address"}],"stateMutability":"view","type":"function"},{"inputs":[{"internalType":"address","name":"farmer","type":"address"},{"internalType":"bool","name":"approved","type":"bool"},{"internalType":"uint8","name":"riskTier","type":"uint8"},{"internalType":"enum AgroTypes.CropType","name":"cropType","type":"uint8"},{"internalType":"enum AgroTypes.Region","name":"region","type":"uint8"},{"internalType":"string","name":"metadataURI","type":"string"}],"name":"registerOrUpdateFarmer","outputs":[],"stateMutability":"nonpayable","type":"function"},{"inputs":[],"name":"renounceOwnership","outputs":[],"stateMutability":"nonpayable","type":"function"},{"inputs":[{"internalType":"address","name":"newOwner","type":"address"}],"name":"transferOwnership","outputs":[],"stateMutability":"nonpayable","type":"function"}],"evm":{"bytecode":{"linkReferences":{},"object":"608060405234801561000f575f80fd5b50604051610e3e380380610e3e83398101604081905261002e916100bb565b806001600160a01b03811661005c57604051631e4fbdf760e01b81525f600482015260240160405180910390fd5b6100658161006c565b50506100e8565b5f80546001600160a01b038381166001600160a01b0319831681178455604051919092169283917f8be0079c531659141344cd1fd0a4f28419497f9722a3daafe3b4186f6b6457e09190a35050565b5f602082840312156100cb575f80fd5b81516001600160a01b03811681146100e1575f80fd5b9392505050565b610d49806100f55f395ff3fe608060405234801561000f575f80fd5b5060043610610090575f3560e01c8063adfbe67611610063578063adfbe676146100fe578063c4a8b5d514610111578063dfcdd1fc14610123578063e7609c161461012c578063f2fde38b1461014c575f80fd5b806370df62c114610094578063715018a6146100bd5780638da5cb5b146100c7578063acc57887146100eb575b5f80fd5b6100a76100a23660046107f1565b61015f565b6040516100b49190610811565b60405180910390f35b6100c561026c565b005b5f546001600160a01b03165b6040516001600160a01b0390911681526020016100b4565b6100c56100f93660046108cb565b61027f565b6100d361010c36600461096e565b61053e565b6002545b6040519081526020016100b4565b61011560045481565b61013f61013a366004610985565b6105ca565b6040516100b491906109dd565b6100c561015a366004610985565b610739565b600254606090808410610181575050604080515f815260208101909152610266565b5f61018c8486610a99565b9050818111156101995750805b5f6101a48683610aac565b90505f8167ffffffffffffffff8111156101c0576101c0610a71565b6040519080825280602002602001820160405280156101e9578160200160208202803683370190505b5090505f5b8281101561025f576002610202828a610a99565b8154811061021257610212610abf565b905f5260205f20015f9054906101000a90046001600160a01b031682828151811061023f5761023f610abf565b6001600160a01b03909216602092830291909101909101526001016101ee565b5093505050505b92915050565b610274610776565b61027d5f6107a2565b565b610287610776565b6001600160a01b0387166102e25760405162461bcd60e51b815260206004820152601c60248201527f4661726d657252656769737472793a207a65726f20616464726573730000000060448201526064015b60405180910390fd5b60018560ff16101580156102fa575060058560ff1611155b6103505760405162461bcd60e51b815260206004820152602160248201527f4661726d657252656769737472793a20696e76616c6964207269736b207469656044820152603960f91b60648201526084016102d9565b6001600160a01b0387165f908152600360209081526040808320546001909252909120805460ff8881166101000261ff00198b15151661ffff1984161717808455931593911691908790829062ff00001916620100008360068111156103b8576103b86109a5565b021790555080548690829063ff000000191663010000008360058111156103e1576103e16109a5565b0217905550600181016103f5858783610b57565b50821561045657600280546001810182557f405787fa12a823e0f2b7631cc41b3ba8828b3321ca811111fa75cd3aa3bb5ace0180546001600160a01b0319166001600160a01b038d1690811790915590545f91825260036020526040909120555b888015610461575081155b1561047f5760048054905f61047583610c11565b91905055506104a4565b8815801561048a5750815b156104a45760048054905f61049e83610c29565b91905055505b88156104f057896001600160a01b03167fa9be815d66feda046138f54fc4d6795a3ac204d5ef613a29048c08dc3afa874d826040516104e39190610c3e565b60405180910390a2610532565b896001600160a01b03167f2d22bee710f7b8c560bd1e380bd99e3d0253787cb2d106e518a68f3a15678bab826040516105299190610c3e565b60405180910390a25b50505050505050505050565b6002545f90821061059d5760405162461bcd60e51b815260206004820152602360248201527f4661726d657252656769737472793a20696e646578206f7574206f6620626f756044820152626e647360e81b60648201526084016102d9565b600282815481106105b0576105b0610abf565b5f918252602090912001546001600160a01b031692915050565b6105fa6040805160a0810182525f80825260208201819052909182019081526020015f8152602001606081525090565b6001600160a01b0382165f90815260016020908152604091829020825160a081018452815460ff808216151583526101008204811694830194909452909391929184019162010000909104166006811115610657576106576109a5565b6006811115610668576106686109a5565b815281546020909101906301000000900460ff16600581111561068d5761068d6109a5565b600581111561069e5761069e6109a5565b81526020016001820180546106b290610ad3565b80601f01602080910402602001604051908101604052809291908181526020018280546106de90610ad3565b80156107295780601f1061070057610100808354040283529160200191610729565b820191905f5260205f20905b81548152906001019060200180831161070c57829003601f168201915b5050505050815250509050919050565b610741610776565b6001600160a01b03811661076a57604051631e4fbdf760e01b81525f60048201526024016102d9565b610773816107a2565b50565b5f546001600160a01b0316331461027d5760405163118cdaa760e01b81523360048201526024016102d9565b5f80546001600160a01b038381166001600160a01b0319831681178455604051919092169283917f8be0079c531659141344cd1fd0a4f28419497f9722a3daafe3b4186f6b6457e09190a35050565b5f8060408385031215610802575f80fd5b50508035926020909101359150565b602080825282518282018190525f9190848201906040850190845b818110156108515783516001600160a01b03168352928401929184019160010161082c565b50909695505050505050565b80356001600160a01b0381168114610873575f80fd5b919050565b803560068110610873575f80fd5b5f8083601f840112610896575f80fd5b50813567ffffffffffffffff8111156108ad575f80fd5b6020830191508360208285010111156108c4575f80fd5b9250929050565b5f805f805f805f60c0888a0312156108e1575f80fd5b6108ea8861085d565b9650602088013580151581146108fe575f80fd5b9550604088013560ff81168114610913575f80fd5b9450606088013560078110610926575f80fd5b935061093460808901610878565b925060a088013567ffffffffffffffff81111561094f575f80fd5b61095b8a828b01610886565b989b979a50959850939692959293505050565b5f6020828403121561097e575f80fd5b5035919050565b5f60208284031215610995575f80fd5b61099e8261085d565b9392505050565b634e487b7160e01b5f52602160045260245ffd5b600781106109c9576109c96109a5565b9052565b600681106109c9576109c96109a5565b5f602080835283511515602084015260ff60208501511660408401526040840151610a0b60608501826109b9565b506060840151610a1e60808501826109cd565b50608084015160a08085015280518060c08601525f5b81811015610a505782810184015186820160e001528301610a34565b505f60e0828701015260e0601f19601f830116860101935050505092915050565b634e487b7160e01b5f52604160045260245ffd5b634e487b7160e01b5f52601160045260245ffd5b8082018082111561026657610266610a85565b8181038181111561026657610266610a85565b634e487b7160e01b5f52603260045260245ffd5b600181811c90821680610ae757607f821691505b602082108103610b0557634e487b7160e01b5f52602260045260245ffd5b50919050565b601f821115610b5257805f5260205f20601f840160051c81016020851015610b305750805b601f840160051c820191505b81811015610b4f575f8155600101610b3c565b50505b505050565b67ffffffffffffffff831115610b6f57610b6f610a71565b610b8383610b7d8354610ad3565b83610b0b565b5f601f841160018114610bb4575f8515610b9d5750838201355b5f19600387901b1c1916600186901b178355610b4f565b5f83815260208120601f198716915b82811015610be35786850135825560209485019460019092019101610bc3565b5086821015610bff575f1960f88860031b161c19848701351681555b505060018560011b0183555050505050565b5f60018201610c2257610c22610a85565b5060010190565b5f81610c3757610c37610a85565b505f190190565b5f6020808352835460ff81161515602085015260ff8160081c166040850152610c706060850160ff8360101c166109b9565b610c836080850160ff8360181c166109cd565b50600180850160a0808601525f8154610c9b81610ad3565b8060c089015260e0600183165f8114610cbb5760018114610cd757610d04565b60ff19841660e08b015260e083151560051b8b01019450610d04565b855f5260205f205f5b84811015610cfb5781548c8201850152908801908901610ce0565b8b0160e0019550505b5092999850505050505050505056fea2646970667358221220ec04db33c69cf62fc376868e36ab0d2e7b39124c7c930591c8378d4f5340d0ab64736f6c63430008180033","opcodes":"PUSH1 0x80 PUSH1 0x40 MSTORE CALLVALUE DUP1 ISZERO PUSH2 0xF JUMPI PUSH0 DUP1 REVERT JUMPDEST POP PUSH1 0x40 MLOAD PUSH2 0xE3E CODESIZE SUB DUP1 PUSH2 0xE3E DUP4 CODECOPY DUP2 ADD PUSH1 0x40 DUP2 SWAP1 MSTORE PUSH2 0x2E SWAP2 PUSH2 0xBB JUMP JUMPDEST DUP1 PUSH1 0x1 PUSH1 0x1 PUSH1 0xA0 SHL SUB DUP2 AND PUSH2 0x5C JUMPI PUSH1 0x40 MLOAD PUSH4 0x1E4FBDF7 PUSH1 0xE0 SHL DUP2 MSTORE PUSH0 PUSH1 0x4 DUP3 ADD MSTORE PUSH1 0x24 ADD PUSH1 0x40 MLOAD DUP1 SWAP2 SUB SWAP1 REVERT JUMPDEST PUSH2 0x65 DUP2 PUSH2 0x6C JUMP JUMPDEST POP POP PUSH2 0xE8 JUMP JUMPDEST PUSH0 DUP1 SLOAD PUSH1 0x1 PUSH1 0x1 PUSH1 0xA0 SHL SUB DUP4 DUP2 AND PUSH1 0x1 PUSH1 0x1 PUSH1 0xA0 SHL SUB NOT DUP4 AND DUP2 OR DUP5 SSTORE PUSH1 0x40 MLOAD SWAP2 SWAP1 SWAP3 AND SWAP3 DUP4 SWAP2 PUSH32 0x8BE0079C531659141344CD1FD0A4F28419497F9722A3DAAFE3B4186F6B6457E0 SWAP2 SWAP1 LOG3 POP POP JUMP JUMPDEST PUSH0 PUSH1 0x20 DUP3 DUP5 SUB SLT ISZERO PUSH2 0xCB JUMPI PUSH0 DUP1 REVERT JUMPDEST DUP2 MLOAD PUSH1 0x1 PUSH1 0x1 PUSH1 0xA0 SHL SUB DUP2 AND DUP2 EQ PUSH2 0xE1 JUMPI PUSH0 DUP1 REVERT JUMPDEST SWAP4 SWAP3 POP POP POP JUMP JUMPDEST PUSH2 0xD49 DUP1 PUSH2 0xF5 PUSH0 CODECOPY PUSH0 RETURN INVALID PUSH1 0x80 PUSH1 0x40 MSTORE CALLVALUE DUP1 ISZERO PUSH2 0xF JUMPI PUSH0 DUP1 REVERT JUMPDEST POP PUSH1 0x4 CALLDATASIZE LT PUSH2 0x90 JUMPI PUSH0 CALLDATALOAD PUSH1 0xE0 SHR DUP1 PUSH4 0xADFBE676 GT PUSH2 0x63 JUMPI DUP1 PUSH4 0xADFBE676 EQ PUSH2 0xFE JUMPI DUP1 PUSH4 0xC4A8B5D5 EQ PUSH2 0x111 JUMPI DUP1 PUSH4 0xDFCDD1FC EQ PUSH2 0x123 JUMPI DUP1 PUSH4 0xE7609C16 EQ PUSH2 0x12C JUMPI DUP1 PUSH4 0xF2FDE38B EQ PUSH2 0x14C JUMPI PUSH0 DUP1 REVERT JUMPDEST DUP1 PUSH4 0x70DF62C1 EQ PUSH2 0x94 JUMPI DUP1 PUSH4 0x715018A6 EQ PUSH2 0xBD JUMPI DUP1 PUSH4 0x8DA5CB5B EQ PUSH2 0xC7 JUMPI DUP1 PUSH4 0xACC57887 EQ PUSH2 0xEB JUMPI JUMPDEST PUSH0 DUP1 REVERT JUMPDEST PUSH2 0xA7 PUSH2 0xA2 CALLDATASIZE PUSH1 0x4 PUSH2 0x7F1 JUMP JUMPDEST PUSH2 0x15F JUMP JUMPDEST PUSH1 0x40 MLOAD PUSH2 0xB4 SWAP2 SWAP1 PUSH2 0x811 JUMP JUMPDEST PUSH1 0x40 MLOAD DUP1 SWAP2 SUB SWAP1 RETURN JUMPDEST PUSH2 0xC5 PUSH2 0x26C JUMP JUMPDEST STOP JUMPDEST PUSH0 SLOAD PUSH1 0x1 PUSH1 0x1 PUSH1 0xA0 SHL SUB AND JUMPDEST PUSH1 0x40 MLOAD PUSH1 0x1 PUSH1 0x1 PUSH1 0xA0 SHL SUB SWAP1 SWAP2 AND DUP2 MSTORE PUSH1 0x20 ADD PUSH2 0xB4 JUMP JUMPDEST PUSH2 0xC5 PUSH2 0xF9 CALLDATASIZE PUSH1 0x4 PUSH2 0x8CB JUMP JUMPDEST PUSH2 0x27F JUMP JUMPDEST PUSH2 0xD3 PUSH2 0x10C CALLDATASIZE PUSH1 0x4 PUSH2 0x96E JUMP JUMPDEST PUSH2 0x53E JUMP JUMPDEST PUSH1 0x2 SLOAD JUMPDEST PUSH1 0x40 MLOAD SWAP1 DUP2 MSTORE PUSH1 0x20 ADD PUSH2 0xB4 JUMP JUMPDEST PUSH2 0x115 PUSH1 0x4 SLOAD DUP2 JUMP JUMPDEST PUSH2 0x13F PUSH2 0x13A CALLDATASIZE PUSH1 0x4 PUSH2 0x985 JUMP JUMPDEST PUSH2 0x5CA JUMP JUMPDEST PUSH1 0x40 MLOAD PUSH2 0xB4 SWAP2 SWAP1 PUSH2 0x9DD JUMP JUMPDEST PUSH2 0xC5 PUSH2 0x15A CALLDATASIZE PUSH1 0x4 PUSH2 0x985 JUMP JUMPDEST PUSH2 0x739 JUMP JUMPDEST PUSH1 0x2 SLOAD PUSH1 0x60 SWAP1 DUP1 DUP5 LT PUSH2 0x181 JUMPI POP POP PUSH1 0x40 DUP1 MLOAD PUSH0 DUP2 MSTORE PUSH1 0x20 DUP2 ADD SWAP1 SWAP2 MSTORE PUSH2 0x266 JUMP JUMPDEST PUSH0 PUSH2 0x18C DUP5 DUP7 PUSH2 0xA99 JUMP JUMPDEST SWAP1 POP DUP2 DUP2 GT ISZERO PUSH2 0x199 JUMPI POP DUP1 JUMPDEST PUSH0 PUSH2 0x1A4 DUP7 DUP4 PUSH2 0xAAC JUMP JUMPDEST SWAP1 POP PUSH0 DUP2 PUSH8 0xFFFFFFFFFFFFFFFF DUP2 GT ISZERO PUSH2 0x1C0 JUMPI PUSH2 0x1C0 PUSH2 0xA71 JUMP JUMPDEST PUSH1 0x40 MLOAD SWAP1 DUP1 DUP3 MSTORE DUP1 PUSH1 0x20 MUL PUSH1 0x20 ADD DUP3 ADD PUSH1 0x40 MSTORE DUP1 ISZERO PUSH2 0x1E9 JUMPI DUP2 PUSH1 0x20 ADD PUSH1 0x20 DUP3 MUL DUP1 CALLDATASIZE DUP4 CALLDATACOPY ADD SWAP1 POP JUMPDEST POP SWAP1 POP PUSH0 JUMPDEST DUP3 DUP2 LT ISZERO PUSH2 0x25F JUMPI PUSH1 0x2 PUSH2 0x202 DUP3 DUP11 PUSH2 0xA99 JUMP JUMPDEST DUP2 SLOAD DUP2 LT PUSH2 0x212 JUMPI PUSH2 0x212 PUSH2 0xABF JUMP JUMPDEST SWAP1 PUSH0 MSTORE PUSH1 0x20 PUSH0 KECCAK256 ADD PUSH0 SWAP1 SLOAD SWAP1 PUSH2 0x100 EXP SWAP1 DIV PUSH1 0x1 PUSH1 0x1 PUSH1 0xA0 SHL SUB AND DUP3 DUP3 DUP2 MLOAD DUP2 LT PUSH2 0x23F JUMPI PUSH2 0x23F PUSH2 0xABF JUMP JUMPDEST PUSH1 0x1 PUSH1 0x1 PUSH1 0xA0 SHL SUB SWAP1 SWAP3 AND PUSH1 0x20 SWAP3 DUP4 MUL SWAP2 SWAP1 SWAP2 ADD SWAP1 SWAP2 ADD MSTORE PUSH1 0x1 ADD PUSH2 0x1EE JUMP JUMPDEST POP SWAP4 POP POP POP POP JUMPDEST SWAP3 SWAP2 POP POP JUMP JUMPDEST PUSH2 0x274 PUSH2 0x776 JUMP JUMPDEST PUSH2 0x27D PUSH0 PUSH2 0x7A2 JUMP JUMPDEST JUMP JUMPDEST PUSH2 0x287 PUSH2 0x776 JUMP JUMPDEST PUSH1 0x1 PUSH1 0x1 PUSH1 0xA0 SHL SUB DUP8 AND PUSH2 0x2E2 JUMPI PUSH1 0x40 MLOAD PUSH3 0x461BCD PUSH1 0xE5 SHL DUP2 MSTORE PUSH1 0x20 PUSH1 0x4 DUP3 ADD MSTORE PUSH1 0x1C PUSH1 0x24 DUP3 ADD MSTORE PUSH32 0x4661726D657252656769737472793A207A65726F206164647265737300000000 PUSH1 0x44 DUP3 ADD MSTORE PUSH1 0x64 ADD JUMPDEST PUSH1 0x40 MLOAD DUP1 SWAP2 SUB SWAP1 REVERT JUMPDEST PUSH1 0x1 DUP6 PUSH1 0xFF AND LT ISZERO DUP1 ISZERO PUSH2 0x2FA JUMPI POP PUSH1 0x5 DUP6 PUSH1 0xFF AND GT ISZERO JUMPDEST PUSH2 0x350 JUMPI PUSH1 0x40 MLOAD PUSH3 0x461BCD PUSH1 0xE5 SHL DUP2 MSTORE PUSH1 0x20 PUSH1 0x4 DUP3 ADD MSTORE PUSH1 0x21 PUSH1 0x24 DUP3 ADD MSTORE PUSH32 0x4661726D657252656769737472793A20696E76616C6964207269736B20746965 PUSH1 0x44 DUP3 ADD MSTORE PUSH1 0x39 PUSH1 0xF9 SHL PUSH1 0x64 DUP3 ADD MSTORE PUSH1 0x84 ADD PUSH2 0x2D9 JUMP JUMPDEST PUSH1 0x1 PUSH1 0x1 PUSH1 0xA0 SHL SUB DUP8 AND PUSH0 SWAP1 DUP2 MSTORE PUSH1 0x3 PUSH1 0x20 SWAP1 DUP2 MSTORE PUSH1 0x40 DUP1 DUP4 KECCAK256 SLOAD PUSH1 0x1 SWAP1 SWAP3 MSTORE SWAP1 SWAP2 KECCAK256 DUP1 SLOAD PUSH1 0xFF DUP9 DUP2 AND PUSH2 0x100 MUL PUSH2 0xFF00 NOT DUP12 ISZERO ISZERO AND PUSH2 0xFFFF NOT DUP5 AND OR OR DUP1 DUP5 SSTORE SWAP4 ISZERO SWAP4 SWAP2 AND SWAP2 SWAP1 DUP8 SWAP1 DUP3 SWAP1 PUSH3 0xFF0000 NOT AND PUSH3 0x10000 DUP4 PUSH1 0x6 DUP2 GT ISZERO PUSH2 0x3B8 JUMPI PUSH2 0x3B8 PUSH2 0x9A5 JUMP JUMPDEST MUL OR SWAP1 SSTORE POP DUP1 SLOAD DUP7 SWAP1 DUP3 SWAP1 PUSH4 0xFF000000 NOT AND PUSH4 0x1000000 DUP4 PUSH1 0x5 DUP2 GT ISZERO PUSH2 0x3E1 JUMPI PUSH2 0x3E1 PUSH2 0x9A5 JUMP JUMPDEST MUL OR SWAP1 SSTORE POP PUSH1 0x1 DUP2 ADD PUSH2 0x3F5 DUP6 DUP8 DUP4 PUSH2 0xB57 JUMP JUMPDEST POP DUP3 ISZERO PUSH2 0x456 JUMPI PUSH1 0x2 DUP1 SLOAD PUSH1 0x1 DUP2 ADD DUP3 SSTORE PUSH32 0x405787FA12A823E0F2B7631CC41B3BA8828B3321CA811111FA75CD3AA3BB5ACE ADD DUP1 SLOAD PUSH1 0x1 PUSH1 0x1 PUSH1 0xA0 SHL SUB NOT AND PUSH1 0x1 PUSH1 0x1 PUSH1 0xA0 SHL SUB DUP14 AND SWAP1 DUP2 OR SWAP1 SWAP2 SSTORE SWAP1 SLOAD PUSH0 SWAP2 DUP3 MSTORE PUSH1 0x3 PUSH1 0x20 MSTORE PUSH1 0x40 SWAP1 SWAP2 KECCAK256 SSTORE JUMPDEST DUP9 DUP1 ISZERO PUSH2 0x461 JUMPI POP DUP2 ISZERO JUMPDEST ISZERO PUSH2 0x47F JUMPI PUSH1 0x4 DUP1 SLOAD SWAP1 PUSH0 PUSH2 0x475 DUP4 PUSH2 0xC11 JUMP JUMPDEST SWAP2 SWAP1 POP SSTORE POP PUSH2 0x4A4 JUMP JUMPDEST DUP9 ISZERO DUP1 ISZERO PUSH2 0x48A JUMPI POP DUP2 JUMPDEST ISZERO PUSH2 0x4A4 JUMPI PUSH1 0x4 DUP1 SLOAD SWAP1 PUSH0 PUSH2 0x49E DUP4 PUSH2 0xC29 JUMP JUMPDEST SWAP2 SWAP1 POP SSTORE POP JUMPDEST DUP9 ISZERO PUSH2 0x4F0 JUMPI DUP10 PUSH1 0x1 PUSH1 0x1 PUSH1 0xA0 SHL SUB AND PUSH32 0xA9BE815D66FEDA046138F54FC4D6795A3AC204D5EF613A29048C08DC3AFA874D DUP3 PUSH1 0x40 MLOAD PUSH2 0x4E3 SWAP2 SWAP1 PUSH2 0xC3E JUMP JUMPDEST PUSH1 0x40 MLOAD DUP1 SWAP2 SUB SWAP1 LOG2 PUSH2 0x532 JUMP JUMPDEST DUP10 PUSH1 0x1 PUSH1 0x1 PUSH1 0xA0 SHL SUB AND PUSH32 0x2D22BEE710F7B8C560BD1E380BD99E3D0253787CB2D106E518A68F3A15678BAB DUP3 PUSH1 0x40 MLOAD PUSH2 0x529 SWAP2 SWAP1 PUSH2 0xC3E JUMP JUMPDEST PUSH1 0x40 MLOAD DUP1 SWAP2 SUB SWAP1 LOG2 JUMPDEST POP POP POP POP POP POP POP POP POP POP JUMP JUMPDEST PUSH1 0x2 SLOAD PUSH0 SWAP1 DUP3 LT PUSH2 0x59D JUMPI PUSH1 0x40 MLOAD PUSH3 0x461BCD PUSH1 0xE5 SHL DUP2 MSTORE PUSH1 0x20 PUSH1 0x4 DUP3 ADD MSTORE PUSH1 0x23 PUSH1 0x24 DUP3 ADD MSTORE PUSH32 0x4661726D657252656769737472793A20696E646578206F7574206F6620626F75 PUSH1 0x44 DUP3 ADD MSTORE PUSH3 0x6E6473 PUSH1 0xE8 SHL PUSH1 0x64 DUP3 ADD MSTORE PUSH1 0x84 ADD PUSH2 0x2D9 JUMP JUMPDEST PUSH1 0x2 DUP3 DUP2 SLOAD DUP2 LT PUSH2 0x5B0 JUMPI PUSH2 0x5B0 PUSH2 0xABF JUMP JUMPDEST PUSH0 SWAP2 DUP3 MSTORE PUSH1 0x20 SWAP1 SWAP2 KECCAK256 ADD SLOAD PUSH1 0x1 PUSH1 0x1 PUSH1 0xA0 SHL SUB AND SWAP3 SWAP2 POP POP JUMP JUMPDEST PUSH2 0x5FA PUSH1 0x40 DUP1 MLOAD PUSH1 0xA0 DUP2 ADD DUP3 MSTORE PUSH0 DUP1 DUP3 MSTORE PUSH1 0x20 DUP3 ADD DUP2 SWAP1 MSTORE SWAP1 SWAP2 DUP3 ADD SWAP1 DUP2 MSTORE PUSH1 0x20 ADD PUSH0 DUP2 MSTORE PUSH1 0x20 ADD PUSH1 0x60 DUP2 MSTORE POP SWAP1 JUMP JUMPDEST PUSH1 0x1 PUSH1 0x1 PUSH1 0xA0 SHL SUB DUP3 AND PUSH0 SWAP1 DUP2 MSTORE PUSH1 0x1 PUSH1 0x20 SWAP1 DUP2 MSTORE PUSH1 0x40 SWAP2 DUP3 SWAP1 KECCAK256 DUP3 MLOAD PUSH1 0xA0 DUP2 ADD DUP5 MSTORE DUP2 SLOAD PUSH1 0xFF DUP1 DUP3 AND ISZERO ISZERO DUP4 MSTORE PUSH2 0x100 DUP3 DIV DUP2 AND SWAP5 DUP4 ADD SWAP5 SWAP1 SWAP5 MSTORE SWAP1 SWAP4 SWAP2 SWAP3 SWAP2 DUP5 ADD SWAP2 PUSH3 0x10000 SWAP1 SWAP2 DIV AND PUSH1 0x6 DUP2 GT ISZERO PUSH2 0x657 JUMPI PUSH2 0x657 PUSH2 0x9A5 JUMP JUMPDEST PUSH1 0x6 DUP2 GT ISZERO PUSH2 0x668 JUMPI PUSH2 0x668 PUSH2 0x9A5 JUMP JUMPDEST DUP2 MSTORE DUP2 SLOAD PUSH1 0x20 SWAP1 SWAP2 ADD SWAP1 PUSH4 0x1000000 SWAP1 DIV PUSH1 0xFF AND PUSH1 0x5 DUP2 GT ISZERO PUSH2 0x68D JUMPI PUSH2 0x68D PUSH2 0x9A5 JUMP JUMPDEST PUSH1 0x5 DUP2 GT ISZERO PUSH2 0x69E JUMPI PUSH2 0x69E PUSH2 0x9A5 JUMP JUMPDEST DUP2 MSTORE PUSH1 0x20 ADD PUSH1 0x1 DUP3 ADD DUP1 SLOAD PUSH2 0x6B2 SWAP1 PUSH2 0xAD3 JUMP JUMPDEST DUP1 PUSH1 0x1F ADD PUSH1 0x20 DUP1 SWAP2 DIV MUL PUSH1 0x20 ADD PUSH1 0x40 MLOAD SWAP1 DUP2 ADD PUSH1 0x40 MSTORE DUP1 SWAP3 SWAP2 SWAP1 DUP2 DUP2 MSTORE PUSH1 0x20 ADD DUP3 DUP1 SLOAD PUSH2 0x6DE SWAP1 PUSH2 0xAD3 JUMP JUMPDEST DUP1 ISZERO PUSH2 0x729 JUMPI DUP1 PUSH1 0x1F LT PUSH2 0x700 JUMPI PUSH2 0x100 DUP1 DUP4 SLOAD DIV MUL DUP4 MSTORE SWAP2 PUSH1 0x20 ADD SWAP2 PUSH2 0x729 JUMP JUMPDEST DUP3 ADD SWAP2 SWAP1 PUSH0 MSTORE PUSH1 0x20 PUSH0 KECCAK256 SWAP1 JUMPDEST DUP2 SLOAD DUP2 MSTORE SWAP1 PUSH1 0x1 ADD SWAP1 PUSH1 0x20 ADD DUP1 DUP4 GT PUSH2 0x70C JUMPI DUP3 SWAP1 SUB PUSH1 0x1F AND DUP3 ADD SWAP2 JUMPDEST POP POP POP POP POP DUP2 MSTORE POP POP SWAP1 POP SWAP2 SWAP1 POP JUMP JUMPDEST PUSH2 0x741 PUSH2 0x776 JUMP JUMPDEST PUSH1 0x1 PUSH1 0x1 PUSH1 0xA0 SHL SUB DUP2 AND PUSH2 0x76A JUMPI PUSH1 0x40 MLOAD PUSH4 0x1E4FBDF7 PUSH1 0xE0 SHL DUP2 MSTORE PUSH0 PUSH1 0x4 DUP3 ADD MSTORE PUSH1 0x24 ADD PUSH2 0x2D9 JUMP JUMPDEST PUSH2 0x773 DUP2 PUSH2 0x7A2 JUMP JUMPDEST POP JUMP JUMPDEST PUSH0 SLOAD PUSH1 0x1 PUSH1 0x1 PUSH1 0xA0 SHL SUB AND CALLER EQ PUSH2 0x27D JUMPI PUSH1 0x40 MLOAD PUSH4 0x118CDAA7 PUSH1 0xE0 SHL DUP2 MSTORE CALLER PUSH1 0x4 DUP3 ADD MSTORE PUSH1 0x24 ADD PUSH2 0x2D9 JUMP JUMPDEST PUSH0 DUP1 SLOAD PUSH1 0x1 PUSH1 0x1 PUSH1 0xA0 SHL SUB DUP4 DUP2 AND PUSH1 0x1 PUSH1 0x1 PUSH1 0xA0 SHL SUB NOT DUP4 AND DUP2 OR DUP5 SSTORE PUSH1 0x40 MLOAD SWAP2 SWAP1 SWAP3 AND SWAP3 DUP4 SWAP2 PUSH32 0x8BE0079C531659141344CD1FD0A4F28419497F9722A3DAAFE3B4186F6B6457E0 SWAP2 SWAP1 LOG3 POP POP JUMP JUMPDEST PUSH0 DUP1 PUSH1 0x40 DUP4 DUP6 SUB SLT ISZERO PUSH2 0x802 JUMPI PUSH0 DUP1 REVERT JUMPDEST POP POP DUP1 CALLDATALOAD SWAP3 PUSH1 0x20 SWAP1 SWAP2 ADD CALLDATALOAD SWAP2 POP JUMP JUMPDEST PUSH1 0x20 DUP1 DUP3 MSTORE DUP3 MLOAD DUP3 DUP3 ADD DUP2 SWAP1 MSTORE PUSH0 SWAP2 SWAP1 DUP5 DUP3 ADD SWAP1 PUSH1 0x40 DUP6 ADD SWAP1 DUP5 JUMPDEST DUP2 DUP2 LT ISZERO PUSH2 0x851 JUMPI DUP4 MLOAD PUSH1 0x1 PUSH1 0x1 PUSH1 0xA0 SHL SUB AND DUP4 MSTORE SWAP3 DUP5 ADD SWAP3 SWAP2 DUP5 ADD SWAP2 PUSH1 0x1 ADD PUSH2 0x82C JUMP JUMPDEST POP SWAP1 SWAP7 SWAP6 POP POP POP POP POP POP JUMP JUMPDEST DUP1 CALLDATALOAD PUSH1 0x1 PUSH1 0x1 PUSH1 0xA0 SHL SUB DUP2 AND DUP2 EQ PUSH2 0x873 JUMPI PUSH0 DUP1 REVERT JUMPDEST SWAP2 SWAP1 POP JUMP JUMPDEST DUP1 CALLDATALOAD PUSH1 0x6 DUP2 LT PUSH2 0x873 JUMPI PUSH0 DUP1 REVERT JUMPDEST PUSH0 DUP1 DUP4 PUSH1 0x1F DUP5 ADD SLT PUSH2 0x896 JUMPI PUSH0 DUP1 REVERT JUMPDEST POP DUP2 CALLDATALOAD PUSH8 0xFFFFFFFFFFFFFFFF DUP2 GT ISZERO PUSH2 0x8AD JUMPI PUSH0 DUP1 REVERT JUMPDEST PUSH1 0x20 DUP4 ADD SWAP2 POP DUP4 PUSH1 0x20 DUP3 DUP6 ADD ADD GT ISZERO PUSH2 0x8C4 JUMPI PUSH0 DUP1 REVERT JUMPDEST SWAP3 POP SWAP3 SWAP1 POP JUMP JUMPDEST PUSH0 DUP1 PUSH0 DUP1 PUSH0 DUP1 PUSH0 PUSH1 0xC0 DUP9 DUP11 SUB SLT ISZERO PUSH2 0x8E1 JUMPI PUSH0 DUP1 REVERT JUMPDEST PUSH2 0x8EA DUP9 PUSH2 0x85D JUMP JUMPDEST SWAP7 POP PUSH1 0x20 DUP9 ADD CALLDATALOAD DUP1 ISZERO ISZERO DUP2 EQ PUSH2 0x8FE JUMPI PUSH0 DUP1 REVERT JUMPDEST SWAP6 POP PUSH1 0x40 DUP9 ADD CALLDATALOAD PUSH1 0xFF DUP2 AND DUP2 EQ PUSH2 0x913 JUMPI PUSH0 DUP1 REVERT JUMPDEST SWAP5 POP PUSH1 0x60 DUP9 ADD CALLDATALOAD PUSH1 0x7 DUP2 LT PUSH2 0x926 JUMPI PUSH0 DUP1 REVERT JUMPDEST SWAP4 POP PUSH2 0x934 PUSH1 0x80 DUP10 ADD PUSH2 0x878 JUMP JUMPDEST SWAP3 POP PUSH1 0xA0 DUP9 ADD CALLDATALOAD PUSH8 0xFFFFFFFFFFFFFFFF DUP2 GT ISZERO PUSH2 0x94F JUMPI PUSH0 DUP1 REVERT JUMPDEST PUSH2 0x95B DUP11 DUP3 DUP12 ADD PUSH2 0x886 JUMP JUMPDEST SWAP9 SWAP12 SWAP8 SWAP11 POP SWAP6 SWAP9 POP SWAP4 SWAP7 SWAP3 SWAP6 SWAP3 SWAP4 POP POP POP JUMP JUMPDEST PUSH0 PUSH1 0x20 DUP3 DUP5 SUB SLT ISZERO PUSH2 0x97E JUMPI PUSH0 DUP1 REVERT JUMPDEST POP CALLDATALOAD SWAP2 SWAP1 POP JUMP JUMPDEST PUSH0 PUSH1 0x20 DUP3 DUP5 SUB SLT ISZERO PUSH2 0x995 JUMPI PUSH0 DUP1 REVERT JUMPDEST PUSH2 0x99E DUP3 PUSH2 0x85D JUMP JUMPDEST SWAP4 SWAP3 POP POP POP JUMP JUMPDEST PUSH4 0x4E487B71 PUSH1 0xE0 SHL PUSH0 MSTORE PUSH1 0x21 PUSH1 0x4 MSTORE PUSH1 0x24 PUSH0 REVERT JUMPDEST PUSH1 0x7 DUP2 LT PUSH2 0x9C9 JUMPI PUSH2 0x9C9 PUSH2 0x9A5 JUMP JUMPDEST SWAP1 MSTORE JUMP JUMPDEST PUSH1 0x6 DUP2 LT PUSH2 0x9C9 JUMPI PUSH2 0x9C9 PUSH2 0x9A5 JUMP JUMPDEST PUSH0 PUSH1 0x20 DUP1 DUP4 MSTORE DUP4 MLOAD ISZERO ISZERO PUSH1 0x20 DUP5 ADD MSTORE PUSH1 0xFF PUSH1 0x20 DUP6 ADD MLOAD AND PUSH1 0x40 DUP5 ADD MSTORE PUSH1 0x40 DUP5 ADD MLOAD PUSH2 0xA0B PUSH1 0x60 DUP6 ADD DUP3 PUSH2 0x9B9 JUMP JUMPDEST POP PUSH1 0x60 DUP5 ADD MLOAD PUSH2 0xA1E PUSH1 0x80 DUP6 ADD DUP3 PUSH2 0x9CD JUMP JUMPDEST POP PUSH1 0x80 DUP5 ADD MLOAD PUSH1 0xA0 DUP1 DUP6 ADD MSTORE DUP1 MLOAD DUP1 PUSH1 0xC0 DUP7 ADD MSTORE PUSH0 JUMPDEST DUP2 DUP2 LT ISZERO PUSH2 0xA50 JUMPI DUP3 DUP2 ADD DUP5 ADD MLOAD DUP7 DUP3 ADD PUSH1 0xE0 ADD MSTORE DUP4 ADD PUSH2 0xA34 JUMP JUMPDEST POP PUSH0 PUSH1 0xE0 DUP3 DUP8 ADD ADD MSTORE PUSH1 0xE0 PUSH1 0x1F NOT PUSH1 0x1F DUP4 ADD AND DUP7 ADD ADD SWAP4 POP POP POP POP SWAP3 SWAP2 POP POP JUMP JUMPDEST PUSH4 0x4E487B71 PUSH1 0xE0 SHL PUSH0 MSTORE PUSH1 0x41 PUSH1 0x4 MSTORE PUSH1 0x24 PUSH0 REVERT JUMPDEST PUSH4 0x4E487B71 PUSH1 0xE0 SHL PUSH0 MSTORE PUSH1 0x11 PUSH1 0x4 MSTORE PUSH1 0x24 PUSH0 REVERT JUMPDEST DUP1 DUP3 ADD DUP1 DUP3 GT ISZERO PUSH2 0x266 JUMPI PUSH2 0x266 PUSH2 0xA85 JUMP JUMPDEST DUP2 DUP2 SUB DUP2 DUP2 GT ISZERO PUSH2 0x266 JUMPI PUSH2 0x266 PUSH2 0xA85 JUMP JUMPDEST PUSH4 0x4E487B71 PUSH1 0xE0 SHL PUSH0 MSTORE PUSH1 0x32 PUSH1 0x4 MSTORE PUSH1 0x24 PUSH0 REVERT JUMPDEST PUSH1 0x1 DUP2 DUP2 SHR SWAP1 DUP3 AND DUP1 PUSH2 0xAE7 JUMPI PUSH1 0x7F DUP3 AND SWAP2 POP JUMPDEST PUSH1 0x20 DUP3 LT DUP2 SUB PUSH2 0xB05 JUMPI PUSH4 0x4E487B71 PUSH1 0xE0 SHL PUSH0 MSTORE PUSH1 0x22 PUSH1 0x4 MSTORE PUSH1 0x24 PUSH0 REVERT JUMPDEST POP SWAP2 SWAP1 POP JUMP JUMPDEST PUSH1 0x1F DUP3 GT ISZERO PUSH2 0xB52 JUMPI DUP1 PUSH0 MSTORE PUSH1 0x20 PUSH0 KECCAK256 PUSH1 0x1F DUP5 ADD PUSH1 0x5 SHR DUP2 ADD PUSH1 0x20 DUP6 LT ISZERO PUSH2 0xB30 JUMPI POP DUP1 JUMPDEST PUSH1 0x1F DUP5 ADD PUSH1 0x5 SHR DUP3 ADD SWAP2 POP JUMPDEST DUP2 DUP2 LT ISZERO PUSH2 0xB4F JUMPI PUSH0 DUP2 SSTORE PUSH1 0x1 ADD PUSH2 0xB3C JUMP JUMPDEST POP POP JUMPDEST POP POP POP JUMP JUMPDEST PUSH8 0xFFFFFFFFFFFFFFFF DUP4 GT ISZERO PUSH2 0xB6F JUMPI PUSH2 0xB6F PUSH2 0xA71 JUMP JUMPDEST PUSH2 0xB83 DUP4 PUSH2 0xB7D DUP4 SLOAD PUSH2 0xAD3 JUMP JUMPDEST DUP4 PUSH2 0xB0B JUMP JUMPDEST PUSH0 PUSH1 0x1F DUP5 GT PUSH1 0x1 DUP2 EQ PUSH2 0xBB4 JUMPI PUSH0 DUP6 ISZERO PUSH2 0xB9D JUMPI POP DUP4 DUP3 ADD CALLDATALOAD JUMPDEST PUSH0 NOT PUSH1 0x3 DUP8 SWAP1 SHL SHR NOT AND PUSH1 0x1 DUP7 SWAP1 SHL OR DUP4 SSTORE PUSH2 0xB4F JUMP JUMPDEST PUSH0 DUP4 DUP2 MSTORE PUSH1 0x20 DUP2 KECCAK256 PUSH1 0x1F NOT DUP8 AND SWAP2 JUMPDEST DUP3 DUP2 LT ISZERO PUSH2 0xBE3 JUMPI DUP7 DUP6 ADD CALLDATALOAD DUP3 SSTORE PUSH1 0x20 SWAP5 DUP6 ADD SWAP5 PUSH1 0x1 SWAP1 SWAP3 ADD SWAP2 ADD PUSH2 0xBC3 JUMP JUMPDEST POP DUP7 DUP3 LT ISZERO PUSH2 0xBFF JUMPI PUSH0 NOT PUSH1 0xF8 DUP9 PUSH1 0x3 SHL AND SHR NOT DUP5 DUP8 ADD CALLDATALOAD AND DUP2 SSTORE JUMPDEST POP POP PUSH1 0x1 DUP6 PUSH1 0x1 SHL ADD DUP4 SSTORE POP POP POP POP POP JUMP JUMPDEST PUSH0 PUSH1 0x1 DUP3 ADD PUSH2 0xC22 JUMPI PUSH2 0xC22 PUSH2 0xA85 JUMP JUMPDEST POP PUSH1 0x1 ADD SWAP1 JUMP JUMPDEST PUSH0 DUP2 PUSH2 0xC37 JUMPI PUSH2 0xC37 PUSH2 0xA85 JUMP JUMPDEST POP PUSH0 NOT ADD SWAP1 JUMP JUMPDEST PUSH0 PUSH1 0x20 DUP1 DUP4 MSTORE DUP4 SLOAD PUSH1 0xFF DUP2 AND ISZERO ISZERO PUSH1 0x20 DUP6 ADD MSTORE PUSH1 0xFF DUP2 PUSH1 0x8 SHR AND PUSH1 0x40 DUP6 ADD MSTORE PUSH2 0xC70 PUSH1 0x60 DUP6 ADD PUSH1 0xFF DUP4 PUSH1 0x10 SHR AND PUSH2 0x9B9 JUMP JUMPDEST PUSH2 0xC83 PUSH1 0x80 DUP6 ADD PUSH1 0xFF DUP4 PUSH1 0x18 SHR AND PUSH2 0x9CD JUMP JUMPDEST POP PUSH1 0x1 DUP1 DUP6 ADD PUSH1 0xA0 DUP1 DUP7 ADD MSTORE PUSH0 DUP2 SLOAD PUSH2 0xC9B DUP2 PUSH2 0xAD3 JUMP JUMPDEST DUP1 PUSH1 0xC0 DUP10 ADD MSTORE PUSH1 0xE0 PUSH1 0x1 DUP4 AND PUSH0 DUP2 EQ PUSH2 0xCBB JUMPI PUSH1 0x1 DUP2 EQ PUSH2 0xCD7 JUMPI PUSH2 0xD04 JUMP JUMPDEST PUSH1 0xFF NOT DUP5 AND PUSH1 0xE0 DUP12 ADD MSTORE PUSH1 0xE0 DUP4 ISZERO ISZERO PUSH1 0x5 SHL DUP12 ADD ADD SWAP5 POP PUSH2 0xD04 JUMP JUMPDEST DUP6 PUSH0 MSTORE PUSH1 0x20 PUSH0 KECCAK256 PUSH0 JUMPDEST DUP5 DUP2 LT ISZERO PUSH2 0xCFB JUMPI DUP2 SLOAD DUP13 DUP3 ADD DUP6 ADD MSTORE SWAP1 DUP9 ADD SWAP1 DUP10 ADD PUSH2 0xCE0 JUMP JUMPDEST DUP12 ADD PUSH1 0xE0 ADD SWAP6 POP POP JUMPDEST POP SWAP3 SWAP10 SWAP9 POP POP POP POP POP POP POP POP POP JUMP INVALID LOG2 PUSH5 0x6970667358 0x22 SLT KECCAK256 0xEC DIV 0xDB CALLER 0xC6 SWAP13 0xF6 0x2F 0xC3 PUSH23 0x868E36AB0D2E7B39124C7C930591C8378D4F5340D0AB64 PUSH20 0x6F6C634300081800330000000000000000000000 "},"methodIdentifiers":{"approvedFarmerCount()":"dfcdd1fc","getFarmer(address)":"e7609c16","getFarmerAt(uint256)":"adfbe676","getFarmerCount()":"c4a8b5d5","getFarmers(uint256,uint256)":"70df62c1","owner()":"8da5cb5b","registerOrUpdateFarmer(address,bool,uint8,uint8,uint8,string)":"acc57887","renounceOwnership()":"715018a6","transferOwnership(address)":"f2fde38b"}}}}}