{"project/contracts/AgroVault.sol":{"AgroVault":{"abi":[{"inputs":[{"internalType":"contract IERC20Metadata","name":"asset_","type":"address"},{"internalType":"contract InvestorWhitelist","name":"investorWhitelist_","type":"address"},{"internalType":"contract FarmerRegistry","name":"farmerRegistry_","type":"address"},{"internalType":"contract FarmerNote","name":"farmerNote_","type":"address"},{"internalType":"uint8","name":"riskTierMin_","type":"uint8"},{"internalType":"uint8","name":"riskTierMax_","type":"uint8"},{"internalType":"enum AgroTypes.CropType[]","name":"allowedCropTypes_","type":"uint8[]"},{"internalType":"string","name":"name_","type":"string"},{"internalType":"string","name":"symbol_","type":"string"},{"internalType":"address","name":"initialOwner","type":"address"}],"stateMutability":"nonpayable","type":"constructor"},{"inputs":[{"internalType":"address","name":"spender","type":"address"},{"internalType":"uint256","name":"allowance","type":"uint256"},{"internalType":"uint256","name":"needed","type":"uint256"}],"name":"ERC20InsufficientAllowance","type":"error"},{"inputs":[{"internalType":"address","name":"sender","type":"address"},{"internalType":"uint256","name":"balance","type":"uint256"},{"internalType":"uint256","name":"needed","type":"uint256"}],"name":"ERC20InsufficientBalance","type":"error"},{"inputs":[{"internalType":"address","name":"approver","type":"address"}],"name":"ERC20InvalidApprover","type":"error"},{"inputs":[{"internalType":"address","name":"receiver","type":"address"}],"name":"ERC20InvalidReceiver","type":"error"},{"inputs":[{"internalType":"address","name":"sender","type":"address"}],"name":"ERC20InvalidSender","type":"error"},{"inputs":[{"internalType":"address","name":"spender","type":"address"}],"name":"ERC20InvalidSpender","type":"error"},{"inputs":[{"internalType":"address","name":"receiver","type":"address"},{"internalType":"uint256","name":"assets","type":"uint256"},{"internalType":"uint256","name":"max","type":"uint256"}],"name":"ERC4626ExceededMaxDeposit","type":"error"},{"inputs":[{"internalType":"address","name":"receiver","type":"address"},{"internalType":"uint256","name":"shares","type":"uint256"},{"internalType":"uint256","name":"max","type":"uint256"}],"name":"ERC4626ExceededMaxMint","type":"error"},{"inputs":[{"internalType":"address","name":"owner","type":"address"},{"internalType":"uint256","name":"shares","type":"uint256"},{"internalType":"uint256","name":"max","type":"uint256"}],"name":"ERC4626ExceededMaxRedeem","type":"error"},{"inputs":[{"internalType":"address","name":"owner","type":"address"},{"internalType":"uint256","name":"assets","type":"uint256"},{"internalType":"uint256","name":"max","type":"uint256"}],"name":"ERC4626ExceededMaxWithdraw","type":"error"},{"inputs":[{"internalType":"address","name":"owner","type":"address"}],"name":"OwnableInvalidOwner","type":"error"},{"inputs":[{"internalType":"address","name":"account","type":"address"}],"name":"OwnableUnauthorizedAccount","type":"error"},{"inputs":[],"name":"ReentrancyGuardReentrantCall","type":"error"},{"inputs":[{"internalType":"address","name":"token","type":"address"}],"name":"SafeERC20FailedOperation","type":"error"},{"anonymous":false,"inputs":[{"indexed":true,"internalType":"address","name":"owner","type":"address"},{"indexed":true,"internalType":"address","name":"spender","type":"address"},{"indexed":false,"internalType":"uint256","name":"value","type":"uint256"}],"name":"Approval","type":"event"},{"anonymous":false,"inputs":[{"indexed":true,"internalType":"address","name":"sender","type":"address"},{"indexed":true,"internalType":"address","name":"owner","type":"address"},{"indexed":false,"internalType":"uint256","name":"assets","type":"uint256"},{"indexed":false,"internalType":"uint256","name":"shares","type":"uint256"}],"name":"Deposit","type":"event"},{"anonymous":false,"inputs":[{"indexed":true,"internalType":"uint256","name":"noteId","type":"uint256"},{"indexed":false,"internalType":"uint256","name":"writeOffAmount","type":"uint256"}],"name":"NoteDefaulted","type":"event"},{"anonymous":false,"inputs":[{"indexed":true,"internalType":"uint256","name":"noteId","type":"uint256"},{"indexed":true,"internalType":"address","name":"farmer","type":"address"},{"indexed":false,"internalType":"uint256","name":"principal","type":"uint256"},{"indexed":false,"internalType":"uint256","name":"interestRateBps","type":"uint256"},{"indexed":false,"internalType":"uint256","name":"maturityTimestamp","type":"uint256"},{"indexed":false,"internalType":"address","name":"recipient","type":"address"}],"name":"NoteFunded","type":"event"},{"anonymous":false,"inputs":[{"indexed":true,"internalType":"uint256","name":"noteId","type":"uint256"},{"indexed":false,"internalType":"uint256","name":"amount","type":"uint256"},{"indexed":false,"internalType":"uint256","name":"principalReduction","type":"uint256"}],"name":"NoteRepaymentRecorded","type":"event"},{"anonymous":false,"inputs":[{"indexed":true,"internalType":"address","name":"previousOwner","type":"address"},{"indexed":true,"internalType":"address","name":"newOwner","type":"address"}],"name":"OwnershipTransferred","type":"event"},{"anonymous":false,"inputs":[{"indexed":true,"internalType":"address","name":"from","type":"address"},{"indexed":true,"internalType":"address","name":"to","type":"address"},{"indexed":false,"internalType":"uint256","name":"value","type":"uint256"}],"name":"Transfer","type":"event"},{"anonymous":false,"inputs":[{"indexed":true,"internalType":"address","name":"sender","type":"address"},{"indexed":true,"internalType":"address","name":"receiver","type":"address"},{"indexed":true,"internalType":"address","name":"owner","type":"address"},{"indexed":false,"internalType":"uint256","name":"assets","type":"uint256"},{"indexed":false,"internalType":"uint256","name":"shares","type":"uint256"}],"name":"Withdraw","type":"event"},{"inputs":[{"internalType":"address","name":"owner","type":"address"},{"internalType":"address","name":"spender","type":"address"}],"name":"allowance","outputs":[{"internalType":"uint256","name":"","type":"uint256"}],"stateMutability":"view","type":"function"},{"inputs":[],"name":"anyCropTypeAllowed","outputs":[{"internalType":"bool","name":"","type":"bool"}],"stateMutability":"view","type":"function"},{"inputs":[{"internalType":"address","name":"spender","type":"address"},{"internalType":"uint256","name":"value","type":"uint256"}],"name":"approve","outputs":[{"internalType":"bool","name":"","type":"bool"}],"stateMutability":"nonpayable","type":"function"},{"inputs":[],"name":"asset","outputs":[{"internalType":"address","name":"","type":"address"}],"stateMutability":"view","type":"function"},{"inputs":[{"internalType":"address","name":"account","type":"address"}],"name":"balanceOf","outputs":[{"internalType":"uint256","name":"","type":"uint256"}],"stateMutability":"view","type":"function"},{"inputs":[{"internalType":"uint256","name":"shares","type":"uint256"}],"name":"convertToAssets","outputs":[{"internalType":"uint256","name":"","type":"uint256"}],"stateMutability":"view","type":"function"},{"inputs":[{"internalType":"uint256","name":"assets","type":"uint256"}],"name":"convertToShares","outputs":[{"internalType":"uint256","name":"","type":"uint256"}],"stateMutability":"view","type":"function"},{"inputs":[],"name":"decimals","outputs":[{"internalType":"uint8","name":"","type":"uint8"}],"stateMutability":"view","type":"function"},{"inputs":[{"internalType":"uint256","name":"noteId","type":"uint256"}],"name":"defaultNote","outputs":[],"stateMutability":"nonpayable","type":"function"},{"inputs":[{"internalType":"uint256","name":"assets","type":"uint256"},{"internalType":"address","name":"receiver","type":"address"}],"name":"deposit","outputs":[{"internalType":"uint256","name":"","type":"uint256"}],"stateMutability":"nonpayable","type":"function"},{"inputs":[],"name":"farmerNote","outputs":[{"internalType":"contract FarmerNote","name":"","type":"address"}],"stateMutability":"view","type":"function"},{"inputs":[],"name":"farmerRegistry","outputs":[{"internalType":"contract FarmerRegistry","name":"","type":"address"}],"stateMutability":"view","type":"function"},{"inputs":[{"internalType":"address","name":"farmer","type":"address"},{"internalType":"uint256","name":"principal","type":"uint256"},{"internalType":"uint256","name":"interestRateBps","type":"uint256"},{"internalType":"uint256","name":"maturityTimestamp","type":"uint256"},{"internalType":"address","name":"recipient","type":"address"}],"name":"fundNote","outputs":[{"internalType":"uint256","name":"noteId","type":"uint256"}],"stateMutability":"nonpayable","type":"function"},{"inputs":[],"name":"investorWhitelist","outputs":[{"internalType":"contract InvestorWhitelist","name":"","type":"address"}],"stateMutability":"view","type":"function"},{"inputs":[{"internalType":"enum AgroTypes.CropType","name":"","type":"uint8"}],"name":"isAllowedCropType","outputs":[{"internalType":"bool","name":"","type":"bool"}],"stateMutability":"view","type":"function"},{"inputs":[{"internalType":"address","name":"","type":"address"}],"name":"maxDeposit","outputs":[{"internalType":"uint256","name":"","type":"uint256"}],"stateMutability":"view","type":"function"},{"inputs":[{"internalType":"address","name":"","type":"address"}],"name":"maxMint","outputs":[{"internalType":"uint256","name":"","type":"uint256"}],"stateMutability":"view","type":"function"},{"inputs":[{"internalType":"address","name":"owner","type":"address"}],"name":"maxRedeem","outputs":[{"internalType":"uint256","name":"","type":"uint256"}],"stateMutability":"view","type":"function"},{"inputs":[{"internalType":"address","name":"owner","type":"address"}],"name":"maxWithdraw","outputs":[{"internalType":"uint256","name":"","type":"uint256"}],"stateMutability":"view","type":"function"},{"inputs":[{"internalType":"uint256","name":"shares","type":"uint256"},{"internalType":"address","name":"receiver","type":"address"}],"name":"mint","outputs":[{"internalType":"uint256","name":"","type":"uint256"}],"stateMutability":"nonpayable","type":"function"},{"inputs":[],"name":"name","outputs":[{"internalType":"string","name":"","type":"string"}],"stateMutability":"view","type":"function"},{"inputs":[{"internalType":"uint256","name":"","type":"uint256"}],"name":"noteOutstandingPrincipal","outputs":[{"internalType":"uint256","name":"","type":"uint256"}],"stateMutability":"view","type":"function"},{"inputs":[],"name":"owner","outputs":[{"internalType":"address","name":"","type":"address"}],"stateMutability":"view","type":"function"},{"inputs":[{"internalType":"uint256","name":"assets","type":"uint256"}],"name":"previewDeposit","outputs":[{"internalType":"uint256","name":"","type":"uint256"}],"stateMutability":"view","type":"function"},{"inputs":[{"internalType":"uint256","name":"shares","type":"uint256"}],"name":"previewMint","outputs":[{"internalType":"uint256","name":"","type":"uint256"}],"stateMutability":"view","type":"function"},{"inputs":[{"internalType":"uint256","name":"shares","type":"uint256"}],"name":"previewRedeem","outputs":[{"internalType":"uint256","name":"","type":"uint256"}],"stateMutability":"view","type":"function"},{"inputs":[{"internalType":"uint256","name":"assets","type":"uint256"}],"name":"previewWithdraw","outputs":[{"internalType":"uint256","name":"","type":"uint256"}],"stateMutability":"view","type":"function"},{"inputs":[{"internalType":"uint256","name":"noteId","type":"uint256"},{"internalType":"uint256","name":"amount","type":"uint256"}],"name":"recordRepayment","outputs":[],"stateMutability":"nonpayable","type":"function"},{"inputs":[{"internalType":"uint256","name":"shares","type":"uint256"},{"internalType":"address","name":"receiver","type":"address"},{"internalType":"address","name":"owner","type":"address"}],"name":"redeem","outputs":[{"internalType":"uint256","name":"","type":"uint256"}],"stateMutability":"nonpayable","type":"function"},{"inputs":[],"name":"renounceOwnership","outputs":[],"stateMutability":"nonpayable","type":"function"},{"inputs":[],"name":"riskTierMax","outputs":[{"internalType":"uint8","name":"","type":"uint8"}],"stateMutability":"view","type":"function"},{"inputs":[],"name":"riskTierMin","outputs":[{"internalType":"uint8","name":"","type":"uint8"}],"stateMutability":"view","type":"function"},{"inputs":[],"name":"symbol","outputs":[{"internalType":"string","name":"","type":"string"}],"stateMutability":"view","type":"function"},{"inputs":[],"name":"totalAssets","outputs":[{"internalType":"uint256","name":"","type":"uint256"}],"stateMutability":"view","type":"function"},{"inputs":[],"name":"totalOutstandingPrincipal","outputs":[{"internalType":"uint256","name":"","type":"uint256"}],"stateMutability":"view","type":"function"},{"inputs":[],"name":"totalSupply","outputs":[{"internalType":"uint256","name":"","type":"uint256"}],"stateMutability":"view","type":"function"},{"inputs":[{"internalType":"address","name":"to","type":"address"},{"internalType":"uint256","name":"value","type":"uint256"}],"name":"transfer","outputs":[{"internalType":"bool","name":"","type":"bool"}],"stateMutability":"nonpayable","type":"function"},{"inputs":[{"internalType":"address","name":"from","type":"address"},{"internalType":"address","name":"to","type":"address"},{"internalType":"uint256","name":"value","type":"uint256"}],"name":"transferFrom","outputs":[{"internalType":"bool","name":"","type":"bool"}],"stateMutability":"nonpayable","type":"function"},{"inputs":[{"internalType":"address","name":"newOwner","type":"address"}],"name":"transferOwnership","outputs":[],"stateMutability":"nonpayable","type":"function"},{"inputs":[{"internalType":"uint256","name":"assets","type":"uint256"},{"internalType":"address","name":"receiver","type":"address"},{"internalType":"address","name":"owner","type":"address"}],"name":"withdraw","outputs":[{"internalType":"uint256","name":"","type":"uint256"}],"stateMutability":"nonpayable","type":"function"}],"evm":{"bytecode":{"linkReferences":{},"object":"61018060405234801562000011575f80fd5b5060405162002c7538038062002c7583398101604081905262000034916200063d565b808a84846003620000468382620007d5565b506004620000558282620007d5565b5050505f806200006b836200037260201b60201c565b91509150816200007d5760126200007f565b805b60ff1660a05250506001600160a01b039081166080528116620000bc57604051631e4fbdf760e01b81525f60048201526024015b60405180910390fd5b620000c78162000451565b5060016006556001600160a01b038916620001255760405162461bcd60e51b815260206004820152601960248201527f4167726f5661756c743a2077686974656c697374207a65726f000000000000006044820152606401620000b3565b6001600160a01b0388166200017d5760405162461bcd60e51b815260206004820152601860248201527f4167726f5661756c743a207265676973747279207a65726f00000000000000006044820152606401620000b3565b6001600160a01b038716620001d55760405162461bcd60e51b815260206004820152601460248201527f4167726f5661756c743a206e6f7465207a65726f0000000000000000000000006044820152606401620000b3565b60018660ff1610158015620001ee575060058660ff1611155b6200023c5760405162461bcd60e51b815260206004820152601760248201527f4167726f5661756c743a20626164206d696e20746965720000000000000000006044820152606401620000b3565b8560ff168560ff161015801562000257575060058560ff1611155b620002a55760405162461bcd60e51b815260206004820152601760248201527f4167726f5661756c743a20626164206d617820746965720000000000000000006044820152606401620000b3565b6001600160a01b03808a1660c05288811660e05287166101005260ff808716610120528516610140528351156101608190528062000361575f5b85518110156200035f575f868281518110620002ff57620002ff620008a1565b60200260200101519050600160075f836006811115620003235762000323620008b5565b6006811115620003375762000337620008b5565b815260208101919091526040015f20805460ff191691151591909117905550600101620002df565b505b5050505050505050505050620008fe565b60408051600481526024810182526020810180516001600160e01b031663313ce56760e01b17905290515f918291829182916001600160a01b03871691620003ba91620008c9565b5f60405180830381855afa9150503d805f8114620003f4576040519150601f19603f3d011682016040523d82523d5f602084013e620003f9565b606091505b50915091508180156200040e57506020815110155b1562000445575f818060200190518101906200042b9190620008e6565b905060ff811162000443576001969095509350505050565b505b505f9485945092505050565b600580546001600160a01b038381166001600160a01b0319831681179093556040519116919082907f8be0079c531659141344cd1fd0a4f28419497f9722a3daafe3b4186f6b6457e0905f90a35050565b80516001600160a01b0381168114620004b9575f80fd5b919050565b805160ff81168114620004b9575f80fd5b634e487b7160e01b5f52604160045260245ffd5b604051601f8201601f191681016001600160401b03811182821017156200050e576200050e620004cf565b604052919050565b5f82601f83011262000526575f80fd5b815160206001600160401b03821115620005445762000544620004cf565b8160051b62000555828201620004e3565b92835284810182019282810190878511156200056f575f80fd5b83870192505b848310156200059d578251600781106200058d575f80fd5b8252918301919083019062000575565b979650505050505050565b5f5b83811015620005c4578181015183820152602001620005aa565b50505f910152565b5f82601f830112620005dc575f80fd5b81516001600160401b03811115620005f857620005f8620004cf565b6200060d601f8201601f1916602001620004e3565b81815284602083860101111562000622575f80fd5b62000635826020830160208701620005a8565b949350505050565b5f805f805f805f805f806101408b8d03121562000658575f80fd5b620006638b620004a2565b99506200067360208c01620004a2565b98506200068360408c01620004a2565b97506200069360608c01620004a2565b9650620006a360808c01620004be565b9550620006b360a08c01620004be565b60c08c01519095506001600160401b0380821115620006d0575f80fd5b620006de8e838f0162000516565b955060e08d0151915080821115620006f4575f80fd5b620007028e838f01620005cc565b94506101008d015191508082111562000719575f80fd5b50620007288d828e01620005cc565b9250506200073a6101208c01620004a2565b90509295989b9194979a5092959850565b600181811c908216806200076057607f821691505b6020821081036200077f57634e487b7160e01b5f52602260045260245ffd5b50919050565b601f821115620007d057805f5260205f20601f840160051c81016020851015620007ac5750805b601f840160051c820191505b81811015620007cd575f8155600101620007b8565b50505b505050565b81516001600160401b03811115620007f157620007f1620004cf565b62000809816200080284546200074b565b8462000785565b602080601f8311600181146200083f575f8415620008275750858301515b5f19600386901b1c1916600185901b17855562000899565b5f85815260208120601f198616915b828110156200086f578886015182559484019460019091019084016200084e565b50858210156200088d57878501515f19600388901b60f8161c191681555b505060018460011b0185555b505050505050565b634e487b7160e01b5f52603260045260245ffd5b634e487b7160e01b5f52602160045260245ffd5b5f8251620008dc818460208701620005a8565b9190910192915050565b5f60208284031215620008f7575f80fd5b5051919050565b60805160a05160c05160e051610100516101205161014051610160516122b9620009bc5f395f81816105b30152610a4d01525f818161046801526109c801525f8181610342015261099301525f81816103d001528181610cf6015281816111f8015261134801525f81816102c101526108d301525f818161030801528181610e200152610ef601525f61078401525f8181610380015281816105fa01528181610b65015281816110fb015281816116c2015261197b01526122b95ff3fe608060405234801561000f575f80fd5b506004361061023f575f3560e01c806394bf804d11610135578063cad45a41116100b4578063dd62ed3e11610079578063dd62ed3e14610576578063e4dd501d146105ae578063ef8b30f7146104f5578063f2fde38b146105d5578063f51c879b146105e8575f80fd5b8063cad45a4114610508578063ccff2e6f1461051b578063ce96cb771461052e578063d8b025ac14610541578063d905777e14610563575f80fd5b8063b460af94116100fa578063b460af94146104b0578063ba087652146104c3578063bcbaed4f146104d6578063c63d75b6146103a4578063c6e6f592146104f5575f80fd5b806394bf804d1461044857806395d89b411461045b578063a2b4419014610463578063a9059cbb1461048a578063b3d7f6b91461049d575f80fd5b8063313ce567116101c15780636affe197116101865780636affe197146103cb5780636e553f65146103f257806370a0823114610405578063715018a61461042d5780638da5cb5b14610437575f80fd5b8063313ce5671461037657806338d52e0f1461037e578063402d267d146103a457806347ec71b6146103b85780634cdad50614610273575f80fd5b80630da80980116102075780630da80980146102bc57806318160ddd146102fb5780631ff1856c1461030357806323b872dd1461032a5780632c4029a61461033d575f80fd5b806301e1d1141461024357806306fdde031461025e57806307a2d13a14610273578063095ea7b3146102865780630a28a477146102a9575b5f80fd5b61024b6105f1565b6040519081526020015b60405180910390f35b610266610693565b6040516102559190611c91565b61024b610281366004611cc3565b610723565b610299610294366004611cf5565b610734565b6040519015158152602001610255565b61024b6102b7366004611cc3565b61074b565b6102e37f000000000000000000000000000000000000000000000000000000000000000081565b6040516001600160a01b039091168152602001610255565b60025461024b565b6102e37f000000000000000000000000000000000000000000000000000000000000000081565b610299610338366004611d1d565b610757565b6103647f000000000000000000000000000000000000000000000000000000000000000081565b60405160ff9091168152602001610255565b61036461077c565b7f00000000000000000000000000000000000000000000000000000000000000006102e3565b61024b6103b2366004611d56565b505f1990565b61024b6103c6366004611d6f565b6107a8565b6102e37f000000000000000000000000000000000000000000000000000000000000000081565b61024b610400366004611dbb565b610df8565b61024b610413366004611d56565b6001600160a01b03165f9081526020819052604090205490565b610435610ebb565b005b6005546001600160a01b03166102e3565b61024b610456366004611dbb565b610ece565b610266610f85565b6103647f000000000000000000000000000000000000000000000000000000000000000081565b610299610498366004611cf5565b610f94565b61024b6104ab366004611cc3565b610fa1565b61024b6104be366004611de5565b610fad565b61024b6104d1366004611de5565b610ffa565b61024b6104e4366004611cc3565b60086020525f908152604090205481565b61024b610503366004611cc3565b611047565b610435610516366004611e1e565b611052565b610435610529366004611cc3565b6112a4565b61024b61053c366004611d56565b6113ef565b61029961054f366004611e4a565b60076020525f908152604090205460ff1681565b61024b610571366004611d56565b611411565b61024b610584366004611e65565b6001600160a01b039182165f90815260016020908152604080832093909416825291909152205490565b6102997f000000000000000000000000000000000000000000000000000000000000000081565b6104356105e3366004611d56565b61142e565b61024b60095481565b5f60095461061c7f000000000000000000000000000000000000000000000000000000000000000090565b6040516370a0823160e01b81523060048201526001600160a01b0391909116906370a0823190602401602060405180830381865afa158015610660573d5f803e3d5ffd5b505050506040513d601f19601f820116820180604052508101906106849190611e8d565b61068e9190611eb8565b905090565b6060600380546106a290611ecb565b80601f01602080910402602001604051908101604052809291908181526020018280546106ce90611ecb565b80156107195780601f106106f057610100808354040283529160200191610719565b820191905f5260205f20905b8154815290600101906020018083116106fc57829003601f168201915b5050505050905090565b5f61072e825f611468565b92915050565b5f336107418185856114a1565b5060019392505050565b5f61072e8260016114b3565b5f336107648582856114e3565b61076f85858561154c565b60019150505b9392505050565b5f61068e60097f0000000000000000000000000000000000000000000000000000000000000000611f03565b5f6107b16115a9565b6107b96115d3565b6001600160a01b03861661080d5760405162461bcd60e51b815260206004820152601660248201527520b3b937ab30bab63a1d103d32b937903330b936b2b960511b60448201526064015b60405180910390fd5b6001600160a01b0382166108635760405162461bcd60e51b815260206004820152601960248201527f4167726f5661756c743a207a65726f20726563697069656e74000000000000006044820152606401610804565b5f85116108b25760405162461bcd60e51b815260206004820152601960248201527f4167726f5661756c743a207a65726f207072696e636970616c000000000000006044820152606401610804565b6040516373b04e0b60e11b81526001600160a01b0387811660048301525f917f00000000000000000000000000000000000000000000000000000000000000009091169063e7609c16906024015f60405180830381865afa158015610919573d5f803e3d5ffd5b505050506040513d5f823e601f3d908101601f191682016040526109409190810190611ffb565b80519091506109915760405162461bcd60e51b815260206004820152601e60248201527f4167726f5661756c743a206661726d6572206e6f7420617070726f76656400006044820152606401610804565b7f000000000000000000000000000000000000000000000000000000000000000060ff16816020015160ff16101580156109f557507f000000000000000000000000000000000000000000000000000000000000000060ff16816020015160ff1611155b610a4b5760405162461bcd60e51b815260206004820152602160248201527f4167726f5661756c743a207269736b2074696572206f7574206f662072616e676044820152606560f81b6064820152608401610804565b7f0000000000000000000000000000000000000000000000000000000000000000610afe5760075f82604001516006811115610a8957610a896120b0565b6006811115610a9a57610a9a6120b0565b815260208101919091526040015f205460ff16610af95760405162461bcd60e51b815260206004820181905260248201527f4167726f5661756c743a2063726f702074797065206e6f7420616c6c6f7765646044820152606401610804565b610b62565b5f81604001516006811115610b1557610b156120b0565b03610b625760405162461bcd60e51b815260206004820152601760248201527f4167726f5661756c743a20756e6b6e6f776e2063726f700000000000000000006044820152606401610804565b5f7f00000000000000000000000000000000000000000000000000000000000000006040516370a0823160e01b81523060048201529091505f906001600160a01b038316906370a0823190602401602060405180830381865afa158015610bcb573d5f803e3d5ffd5b505050506040513d601f19601f82011682018060405250810190610bef9190611e8d565b905087811015610c4b5760405162461bcd60e51b815260206004820152602160248201527f4167726f5661756c743a20696e73756666696369656e74206c697175696469746044820152607960f81b6064820152608401610804565b60405163a9059cbb60e01b81526001600160a01b038681166004830152602482018a905283169063a9059cbb906044016020604051808303815f875af1158015610c97573d5f803e3d5ffd5b505050506040513d601f19601f82011682018060405250810190610cbb91906120c4565b5060405163056039c560e21b81523060048201526001600160a01b038a81166024830152604482018a905260648201899052608482018890527f00000000000000000000000000000000000000000000000000000000000000001690631580e7149060a4016020604051808303815f875af1158015610d3c573d5f803e3d5ffd5b505050506040513d601f19601f82011682018060405250810190610d609190611e8d565b5f8181526008602052604081208a9055600980549296508a92909190610d87908490611eb8565b909155505060408051898152602081018990529081018790526001600160a01b0386811660608301528a169085907f1837fc5e84169e03b38edc46be6a96e2160ae96d3d57f2db28003eba9a4d20509060800160405180910390a3505050610def6001600655565b95945050505050565b5f610e016115a9565b604051633af32abf60e01b81526001600160a01b0383811660048301527f00000000000000000000000000000000000000000000000000000000000000001690633af32abf90602401602060405180830381865afa158015610e65573d5f803e3d5ffd5b505050506040513d601f19601f82011682018060405250810190610e8991906120c4565b610ea55760405162461bcd60e51b8152600401610804906120dd565b610eaf8383611600565b905061072e6001600655565b610ec36115d3565b610ecc5f611623565b565b5f610ed76115a9565b604051633af32abf60e01b81526001600160a01b0383811660048301527f00000000000000000000000000000000000000000000000000000000000000001690633af32abf90602401602060405180830381865afa158015610f3b573d5f803e3d5ffd5b505050506040513d601f19601f82011682018060405250810190610f5f91906120c4565b610f7b5760405162461bcd60e51b8152600401610804906120dd565b610eaf8383611674565b6060600480546106a290611ecb565b5f3361074181858561154c565b5f61072e826001611468565b5f80610fb8836113ef565b905080851115610fe157828582604051633fa733bb60e21b815260040161080493929190612120565b5f610feb8661074b565b9050610def338686898561168f565b5f8061100583611411565b90508085111561102e57828582604051632e52afbb60e21b815260040161080493929190612120565b5f61103886610723565b9050610def338686848a61168f565b5f61072e825f6114b3565b61105a6115a9565b5f81116110a25760405162461bcd60e51b81526020600482015260166024820152751059dc9bd5985d5b1d0e881e995c9bc8185b5bdd5b9d60521b6044820152606401610804565b5f82815260086020526040902054806110f95760405162461bcd60e51b81526020600482015260196024820152784167726f5661756c743a206e6f206f75747374616e64696e6760381b6044820152606401610804565b7f00000000000000000000000000000000000000000000000000000000000000006040516323b872dd60e01b8152336004820152306024820152604481018490526001600160a01b0391909116906323b872dd906064016020604051808303815f875af115801561116c573d5f803e3d5ffd5b505050506040513d601f19601f8201168201806040525081019061119091906120c4565b505f81831161119f57826111a1565b815b90505f6111ae8284612141565b5f8681526008602052604081208290556009805492935084929091906111d5908490612141565b90915550505f8190036112585760405163b2b3be9960e01b8152600481018690527f00000000000000000000000000000000000000000000000000000000000000006001600160a01b03169063b2b3be99906024015f604051808303815f87803b158015611241575f80fd5b505af1158015611253573d5f803e3d5ffd5b505050505b604080518581526020810184905286917f8bacbe6051e7205a511dd3beb96381ae1d8eebaa3774c6af64b357036542a06b910160405180910390a25050506112a06001600655565b5050565b6112ac6115a9565b6112b46115d3565b5f818152600860205260409020548061130b5760405162461bcd60e51b81526020600482015260196024820152784167726f5661756c743a206e6f206f75747374616e64696e6760381b6044820152606401610804565b5f8281526008602052604081208190556009805483929061132d908490612141565b909155505060405163894a9fa560e01b8152600481018390527f00000000000000000000000000000000000000000000000000000000000000006001600160a01b03169063894a9fa5906024015f604051808303815f87803b158015611391575f80fd5b505af11580156113a3573d5f803e3d5ffd5b50505050817f415e19ed3f57e0736902662598da6063a362d92dbb7e2263be7c46f840ec7e1c826040516113d991815260200190565b60405180910390a2506113ec6001600655565b50565b6001600160a01b0381165f9081526020819052604081205461072e905f611468565b6001600160a01b0381165f9081526020819052604081205461072e565b6114366115d3565b6001600160a01b03811661145f57604051631e4fbdf760e01b81525f6004820152602401610804565b6113ec81611623565b5f6107756114746105f1565b61147f906001611eb8565b61148b6009600a612234565b6002546114989190611eb8565b8591908561174f565b6114ae8383836001611791565b505050565b5f6107756114c36009600a612234565b6002546114d09190611eb8565b6114d86105f1565b611498906001611eb8565b6001600160a01b038381165f908152600160209081526040808320938616835292905220545f19811015611546578181101561153857828183604051637dc7a0d960e11b815260040161080493929190612120565b61154684848484035f611791565b50505050565b6001600160a01b03831661157557604051634b637e8f60e11b81525f6004820152602401610804565b6001600160a01b03821661159e5760405163ec442f0560e01b81525f6004820152602401610804565b6114ae838383611863565b6002600654036115cc57604051633ee5aeb560e01b815260040160405180910390fd5b6002600655565b6005546001600160a01b03163314610ecc5760405163118cdaa760e01b8152336004820152602401610804565b5f5f195f61160d85611047565b905061161b33858784611976565b949350505050565b600580546001600160a01b038381166001600160a01b0319831681179093556040519116919082907f8be0079c531659141344cd1fd0a4f28419497f9722a3daafe3b4186f6b6457e0905f90a35050565b5f5f195f61168185610fa1565b905061161b33858388611976565b826001600160a01b0316856001600160a01b0316146116b3576116b38386836114e3565b6116bd83826119fa565b6116e87f00000000000000000000000000000000000000000000000000000000000000008584611a2e565b826001600160a01b0316846001600160a01b0316866001600160a01b03167ffbde797d201c681b91056529119e0b02407c7bb96a4a2c75c01fc9667232c8db8585604051611740929190918252602082015260400190565b60405180910390a45050505050565b5f61177c61175c83611a8d565b801561177757505f848061177257611772612242565b868809115b151590565b611787868686611ab9565b610def9190611eb8565b6001600160a01b0384166117ba5760405163e602df0560e01b81525f6004820152602401610804565b6001600160a01b0383166117e357604051634a1406b160e11b81525f6004820152602401610804565b6001600160a01b038085165f908152600160209081526040808320938716835292905220829055801561154657826001600160a01b0316846001600160a01b03167f8c5be1e5ebec7d5bd14f71427d1e84f3dd0314c0f7b2291e5b200ac8c7c3b9258460405161185591815260200190565b60405180910390a350505050565b6001600160a01b03831661188d578060025f8282546118829190611eb8565b909155506118ea9050565b6001600160a01b0383165f90815260208190526040902054818110156118cc5783818360405163391434e360e21b815260040161080493929190612120565b6001600160a01b0384165f9081526020819052604090209082900390555b6001600160a01b03821661190657600280548290039055611924565b6001600160a01b0382165f9081526020819052604090208054820190555b816001600160a01b0316836001600160a01b03167fddf252ad1be2c89b69c2b068fc378daa952ba7f163c4a11628f55a4df523b3ef8360405161196991815260200190565b60405180910390a3505050565b6119a27f0000000000000000000000000000000000000000000000000000000000000000853085611b69565b6119ac8382611ba2565b826001600160a01b0316846001600160a01b03167fdcbc1c05240f31ff3ad067ef1ee35ce4997762752e3a095284754544f4c709d78484604051611855929190918252602082015260400190565b6001600160a01b038216611a2357604051634b637e8f60e11b81525f6004820152602401610804565b6112a0825f83611863565b6040516001600160a01b038381166024830152604482018390526114ae91859182169063a9059cbb906064015b604051602081830303815290604052915060e01b6020820180516001600160e01b038381831617835250505050611bd6565b5f6002826003811115611aa257611aa26120b0565b611aac9190612256565b60ff166001149050919050565b5f805f611ac68686611c42565b91509150815f03611aea57838181611ae057611ae0612242565b0492505050610775565b818411611b0157611b016003851502601118611c5e565b5f848688095f868103871696879004966002600389028118808a02820302808a02820302808a02820302808a02820302808a02820302808a02909103029181900381900460010185841190960395909502919093039390930492909217029150509392505050565b6040516001600160a01b0384811660248301528381166044830152606482018390526115469186918216906323b872dd90608401611a5b565b6001600160a01b038216611bcb5760405163ec442f0560e01b81525f6004820152602401610804565b6112a05f8383611863565b5f8060205f8451602086015f885af180611bf5576040513d5f823e3d81fd5b50505f513d91508115611c0c578060011415611c19565b6001600160a01b0384163b155b1561154657604051635274afe760e01b81526001600160a01b0385166004820152602401610804565b5f805f1983850993909202808410938190039390930393915050565b634e487b715f52806020526024601cfd5b5f5b83811015611c89578181015183820152602001611c71565b50505f910152565b602081525f8251806020840152611caf816040850160208701611c6f565b601f01601f19169190910160400192915050565b5f60208284031215611cd3575f80fd5b5035919050565b80356001600160a01b0381168114611cf0575f80fd5b919050565b5f8060408385031215611d06575f80fd5b611d0f83611cda565b946020939093013593505050565b5f805f60608486031215611d2f575f80fd5b611d3884611cda565b9250611d4660208501611cda565b9150604084013590509250925092565b5f60208284031215611d66575f80fd5b61077582611cda565b5f805f805f60a08688031215611d83575f80fd5b611d8c86611cda565b9450602086013593506040860135925060608601359150611daf60808701611cda565b90509295509295909350565b5f8060408385031215611dcc575f80fd5b82359150611ddc60208401611cda565b90509250929050565b5f805f60608486031215611df7575f80fd5b83359250611e0760208501611cda565b9150611e1560408501611cda565b90509250925092565b5f8060408385031215611e2f575f80fd5b50508035926020909101359150565b600781106113ec575f80fd5b5f60208284031215611e5a575f80fd5b813561077581611e3e565b5f8060408385031215611e76575f80fd5b611e7f83611cda565b9150611ddc60208401611cda565b5f60208284031215611e9d575f80fd5b5051919050565b634e487b7160e01b5f52601160045260245ffd5b8082018082111561072e5761072e611ea4565b600181811c90821680611edf57607f821691505b602082108103611efd57634e487b7160e01b5f52602260045260245ffd5b50919050565b60ff818116838216019081111561072e5761072e611ea4565b634e487b7160e01b5f52604160045260245ffd5b60405160a0810167ffffffffffffffff81118282101715611f5357611f53611f1c565b60405290565b80518015158114611cf0575f80fd5b805160068110611cf0575f80fd5b5f82601f830112611f85575f80fd5b815167ffffffffffffffff80821115611fa057611fa0611f1c565b604051601f8301601f19908116603f01168101908282118183101715611fc857611fc8611f1c565b81604052838152866020858801011115611fe0575f80fd5b611ff1846020830160208901611c6f565b9695505050505050565b5f6020828403121561200b575f80fd5b815167ffffffffffffffff80821115612022575f80fd5b9083019060a08286031215612035575f80fd5b61203d611f30565b61204683611f59565b8152602083015160ff8116811461205b575f80fd5b6020820152604083015161206e81611e3e565b604082015261207f60608401611f68565b6060820152608083015182811115612095575f80fd5b6120a187828601611f76565b60808301525095945050505050565b634e487b7160e01b5f52602160045260245ffd5b5f602082840312156120d4575f80fd5b61077582611f59565b60208082526023908201527f4167726f5661756c743a207265636569766572206e6f742077686974656c69736040820152621d195960ea1b606082015260800190565b6001600160a01b039390931683526020830191909152604082015260600190565b8181038181111561072e5761072e611ea4565b600181815b8085111561218e57815f190482111561217457612174611ea4565b8085161561218157918102915b93841c9390800290612159565b509250929050565b5f826121a45750600161072e565b816121b057505f61072e565b81600181146121c657600281146121d0576121ec565b600191505061072e565b60ff8411156121e1576121e1611ea4565b50506001821b61072e565b5060208310610133831016604e8410600b841016171561220f575081810a61072e565b6122198383612154565b805f190482111561222c5761222c611ea4565b029392505050565b5f61077560ff841683612196565b634e487b7160e01b5f52601260045260245ffd5b5f60ff83168061227457634e487b7160e01b5f52601260045260245ffd5b8060ff8416069150509291505056fea26469706673582212204855073872bd28876b4ca9a435df8367e63c5d1245ee2018c1cffac5abdfafbe64736f6c63430008180033","opcodes":"PUSH2 0x180 PUSH1 0x40 MSTORE CALLVALUE DUP1 ISZERO PUSH3 0x11 JUMPI PUSH0 DUP1 REVERT JUMPDEST POP PUSH1 0x40 MLOAD PUSH3 0x2C75 CODESIZE SUB DUP1 PUSH3 0x2C75 DUP4 CODECOPY DUP2 ADD PUSH1 0x40 DUP2 SWAP1 MSTORE PUSH3 0x34 SWAP2 PUSH3 0x63D JUMP JUMPDEST DUP1 DUP11 DUP5 DUP5 PUSH1 0x3 PUSH3 0x46 DUP4 DUP3 PUSH3 0x7D5 JUMP JUMPDEST POP PUSH1 0x4 PUSH3 0x55 DUP3 DUP3 PUSH3 0x7D5 JUMP JUMPDEST POP POP POP PUSH0 DUP1 PUSH3 0x6B DUP4 PUSH3 0x372 PUSH1 0x20 SHL PUSH1 0x20 SHR JUMP JUMPDEST SWAP2 POP SWAP2 POP DUP2 PUSH3 0x7D JUMPI PUSH1 0x12 PUSH3 0x7F JUMP JUMPDEST DUP1 JUMPDEST PUSH1 0xFF AND PUSH1 0xA0 MSTORE POP POP PUSH1 0x1 PUSH1 0x1 PUSH1 0xA0 SHL SUB SWAP1 DUP2 AND PUSH1 0x80 MSTORE DUP2 AND PUSH3 0xBC JUMPI PUSH1 0x40 MLOAD PUSH4 0x1E4FBDF7 PUSH1 0xE0 SHL DUP2 MSTORE PUSH0 PUSH1 0x4 DUP3 ADD MSTORE PUSH1 0x24 ADD JUMPDEST PUSH1 0x40 MLOAD DUP1 SWAP2 SUB SWAP1 REVERT JUMPDEST PUSH3 0xC7 DUP2 PUSH3 0x451 JUMP JUMPDEST POP PUSH1 0x1 PUSH1 0x6 SSTORE PUSH1 0x1 PUSH1 0x1 PUSH1 0xA0 SHL SUB DUP10 AND PUSH3 0x125 JUMPI PUSH1 0x40 MLOAD PUSH3 0x461BCD PUSH1 0xE5 SHL DUP2 MSTORE PUSH1 0x20 PUSH1 0x4 DUP3 ADD MSTORE PUSH1 0x19 PUSH1 0x24 DUP3 ADD MSTORE PUSH32 0x4167726F5661756C743A2077686974656C697374207A65726F00000000000000 PUSH1 0x44 DUP3 ADD MSTORE PUSH1 0x64 ADD PUSH3 0xB3 JUMP JUMPDEST PUSH1 0x1 PUSH1 0x1 PUSH1 0xA0 SHL SUB DUP9 AND PUSH3 0x17D JUMPI PUSH1 0x40 MLOAD PUSH3 0x461BCD PUSH1 0xE5 SHL DUP2 MSTORE PUSH1 0x20 PUSH1 0x4 DUP3 ADD MSTORE PUSH1 0x18 PUSH1 0x24 DUP3 ADD MSTORE PUSH32 0x4167726F5661756C743A207265676973747279207A65726F0000000000000000 PUSH1 0x44 DUP3 ADD MSTORE PUSH1 0x64 ADD PUSH3 0xB3 JUMP JUMPDEST PUSH1 0x1 PUSH1 0x1 PUSH1 0xA0 SHL SUB DUP8 AND PUSH3 0x1D5 JUMPI PUSH1 0x40 MLOAD PUSH3 0x461BCD PUSH1 0xE5 SHL DUP2 MSTORE PUSH1 0x20 PUSH1 0x4 DUP3 ADD MSTORE PUSH1 0x14 PUSH1 0x24 DUP3 ADD MSTORE PUSH32 0x4167726F5661756C743A206E6F7465207A65726F000000000000000000000000 PUSH1 0x44 DUP3 ADD MSTORE PUSH1 0x64 ADD PUSH3 0xB3 JUMP JUMPDEST PUSH1 0x1 DUP7 PUSH1 0xFF AND LT ISZERO DUP1 ISZERO PUSH3 0x1EE JUMPI POP PUSH1 0x5 DUP7 PUSH1 0xFF AND GT ISZERO JUMPDEST PUSH3 0x23C JUMPI PUSH1 0x40 MLOAD PUSH3 0x461BCD PUSH1 0xE5 SHL DUP2 MSTORE PUSH1 0x20 PUSH1 0x4 DUP3 ADD MSTORE PUSH1 0x17 PUSH1 0x24 DUP3 ADD MSTORE PUSH32 0x4167726F5661756C743A20626164206D696E2074696572000000000000000000 PUSH1 0x44 DUP3 ADD MSTORE PUSH1 0x64 ADD PUSH3 0xB3 JUMP JUMPDEST DUP6 PUSH1 0xFF AND DUP6 PUSH1 0xFF AND LT ISZERO DUP1 ISZERO PUSH3 0x257 JUMPI POP PUSH1 0x5 DUP6 PUSH1 0xFF AND GT ISZERO JUMPDEST PUSH3 0x2A5 JUMPI PUSH1 0x40 MLOAD PUSH3 0x461BCD PUSH1 0xE5 SHL DUP2 MSTORE PUSH1 0x20 PUSH1 0x4 DUP3 ADD MSTORE PUSH1 0x17 PUSH1 0x24 DUP3 ADD MSTORE PUSH32 0x4167726F5661756C743A20626164206D61782074696572000000000000000000 PUSH1 0x44 DUP3 ADD MSTORE PUSH1 0x64 ADD PUSH3 0xB3 JUMP JUMPDEST PUSH1 0x1 PUSH1 0x1 PUSH1 0xA0 SHL SUB DUP1 DUP11 AND PUSH1 0xC0 MSTORE DUP9 DUP2 AND PUSH1 0xE0 MSTORE DUP8 AND PUSH2 0x100 MSTORE PUSH1 0xFF DUP1 DUP8 AND PUSH2 0x120 MSTORE DUP6 AND PUSH2 0x140 MSTORE DUP4 MLOAD ISZERO PUSH2 0x160 DUP2 SWAP1 MSTORE DUP1 PUSH3 0x361 JUMPI PUSH0 JUMPDEST DUP6 MLOAD DUP2 LT ISZERO PUSH3 0x35F JUMPI PUSH0 DUP7 DUP3 DUP2 MLOAD DUP2 LT PUSH3 0x2FF JUMPI PUSH3 0x2FF PUSH3 0x8A1 JUMP JUMPDEST PUSH1 0x20 MUL PUSH1 0x20 ADD ADD MLOAD SWAP1 POP PUSH1 0x1 PUSH1 0x7 PUSH0 DUP4 PUSH1 0x6 DUP2 GT ISZERO PUSH3 0x323 JUMPI PUSH3 0x323 PUSH3 0x8B5 JUMP JUMPDEST PUSH1 0x6 DUP2 GT ISZERO PUSH3 0x337 JUMPI PUSH3 0x337 PUSH3 0x8B5 JUMP JUMPDEST DUP2 MSTORE PUSH1 0x20 DUP2 ADD SWAP2 SWAP1 SWAP2 MSTORE PUSH1 0x40 ADD PUSH0 KECCAK256 DUP1 SLOAD PUSH1 0xFF NOT AND SWAP2 ISZERO ISZERO SWAP2 SWAP1 SWAP2 OR SWAP1 SSTORE POP PUSH1 0x1 ADD PUSH3 0x2DF JUMP JUMPDEST POP JUMPDEST POP POP POP POP POP POP POP POP POP POP POP PUSH3 0x8FE JUMP JUMPDEST PUSH1 0x40 DUP1 MLOAD PUSH1 0x4 DUP2 MSTORE PUSH1 0x24 DUP2 ADD DUP3 MSTORE PUSH1 0x20 DUP2 ADD DUP1 MLOAD PUSH1 0x1 PUSH1 0x1 PUSH1 0xE0 SHL SUB AND PUSH4 0x313CE567 PUSH1 0xE0 SHL OR SWAP1 MSTORE SWAP1 MLOAD PUSH0 SWAP2 DUP3 SWAP2 DUP3 SWAP2 DUP3 SWAP2 PUSH1 0x1 PUSH1 0x1 PUSH1 0xA0 SHL SUB DUP8 AND SWAP2 PUSH3 0x3BA SWAP2 PUSH3 0x8C9 JUMP JUMPDEST PUSH0 PUSH1 0x40 MLOAD DUP1 DUP4 SUB DUP2 DUP6 GAS STATICCALL SWAP2 POP POP RETURNDATASIZE DUP1 PUSH0 DUP2 EQ PUSH3 0x3F4 JUMPI PUSH1 0x40 MLOAD SWAP2 POP PUSH1 0x1F NOT PUSH1 0x3F RETURNDATASIZE ADD AND DUP3 ADD PUSH1 0x40 MSTORE RETURNDATASIZE DUP3 MSTORE RETURNDATASIZE PUSH0 PUSH1 0x20 DUP5 ADD RETURNDATACOPY PUSH3 0x3F9 JUMP JUMPDEST PUSH1 0x60 SWAP2 POP JUMPDEST POP SWAP2 POP SWAP2 POP DUP2 DUP1 ISZERO PUSH3 0x40E JUMPI POP PUSH1 0x20 DUP2 MLOAD LT ISZERO JUMPDEST ISZERO PUSH3 0x445 JUMPI PUSH0 DUP2 DUP1 PUSH1 0x20 ADD SWAP1 MLOAD DUP2 ADD SWAP1 PUSH3 0x42B SWAP2 SWAP1 PUSH3 0x8E6 JUMP JUMPDEST SWAP1 POP PUSH1 0xFF DUP2 GT PUSH3 0x443 JUMPI PUSH1 0x1 SWAP7 SWAP1 SWAP6 POP SWAP4 POP POP POP POP JUMP JUMPDEST POP JUMPDEST POP PUSH0 SWAP5 DUP6 SWAP5 POP SWAP3 POP POP POP JUMP JUMPDEST PUSH1 0x5 DUP1 SLOAD PUSH1 0x1 PUSH1 0x1 PUSH1 0xA0 SHL SUB DUP4 DUP2 AND PUSH1 0x1 PUSH1 0x1 PUSH1 0xA0 SHL SUB NOT DUP4 AND DUP2 OR SWAP1 SWAP4 SSTORE PUSH1 0x40 MLOAD SWAP2 AND SWAP2 SWAP1 DUP3 SWAP1 PUSH32 0x8BE0079C531659141344CD1FD0A4F28419497F9722A3DAAFE3B4186F6B6457E0 SWAP1 PUSH0 SWAP1 LOG3 POP POP JUMP JUMPDEST DUP1 MLOAD PUSH1 0x1 PUSH1 0x1 PUSH1 0xA0 SHL SUB DUP2 AND DUP2 EQ PUSH3 0x4B9 JUMPI PUSH0 DUP1 REVERT JUMPDEST SWAP2 SWAP1 POP JUMP JUMPDEST DUP1 MLOAD PUSH1 0xFF DUP2 AND DUP2 EQ PUSH3 0x4B9 JUMPI PUSH0 DUP1 REVERT JUMPDEST PUSH4 0x4E487B71 PUSH1 0xE0 SHL PUSH0 MSTORE PUSH1 0x41 PUSH1 0x4 MSTORE PUSH1 0x24 PUSH0 REVERT JUMPDEST PUSH1 0x40 MLOAD PUSH1 0x1F DUP3 ADD PUSH1 0x1F NOT AND DUP2 ADD PUSH1 0x1 PUSH1 0x1 PUSH1 0x40 SHL SUB DUP2 GT DUP3 DUP3 LT OR ISZERO PUSH3 0x50E JUMPI PUSH3 0x50E PUSH3 0x4CF JUMP JUMPDEST PUSH1 0x40 MSTORE SWAP2 SWAP1 POP JUMP JUMPDEST PUSH0 DUP3 PUSH1 0x1F DUP4 ADD SLT PUSH3 0x526 JUMPI PUSH0 DUP1 REVERT JUMPDEST DUP2 MLOAD PUSH1 0x20 PUSH1 0x1 PUSH1 0x1 PUSH1 0x40 SHL SUB DUP3 GT ISZERO PUSH3 0x544 JUMPI PUSH3 0x544 PUSH3 0x4CF JUMP JUMPDEST DUP2 PUSH1 0x5 SHL PUSH3 0x555 DUP3 DUP3 ADD PUSH3 0x4E3 JUMP JUMPDEST SWAP3 DUP4 MSTORE DUP5 DUP2 ADD DUP3 ADD SWAP3 DUP3 DUP2 ADD SWAP1 DUP8 DUP6 GT ISZERO PUSH3 0x56F JUMPI PUSH0 DUP1 REVERT JUMPDEST DUP4 DUP8 ADD SWAP3 POP JUMPDEST DUP5 DUP4 LT ISZERO PUSH3 0x59D JUMPI DUP3 MLOAD PUSH1 0x7 DUP2 LT PUSH3 0x58D JUMPI PUSH0 DUP1 REVERT JUMPDEST DUP3 MSTORE SWAP2 DUP4 ADD SWAP2 SWAP1 DUP4 ADD SWAP1 PUSH3 0x575 JUMP JUMPDEST SWAP8 SWAP7 POP POP POP POP POP POP POP JUMP JUMPDEST PUSH0 JUMPDEST DUP4 DUP2 LT ISZERO PUSH3 0x5C4 JUMPI DUP2 DUP2 ADD MLOAD DUP4 DUP3 ADD MSTORE PUSH1 0x20 ADD PUSH3 0x5AA JUMP JUMPDEST POP POP PUSH0 SWAP2 ADD MSTORE JUMP JUMPDEST PUSH0 DUP3 PUSH1 0x1F DUP4 ADD SLT PUSH3 0x5DC JUMPI PUSH0 DUP1 REVERT JUMPDEST DUP2 MLOAD PUSH1 0x1 PUSH1 0x1 PUSH1 0x40 SHL SUB DUP2 GT ISZERO PUSH3 0x5F8 JUMPI PUSH3 0x5F8 PUSH3 0x4CF JUMP JUMPDEST PUSH3 0x60D PUSH1 0x1F DUP3 ADD PUSH1 0x1F NOT AND PUSH1 0x20 ADD PUSH3 0x4E3 JUMP JUMPDEST DUP2 DUP2 MSTORE DUP5 PUSH1 0x20 DUP4 DUP7 ADD ADD GT ISZERO PUSH3 0x622 JUMPI PUSH0 DUP1 REVERT JUMPDEST PUSH3 0x635 DUP3 PUSH1 0x20 DUP4 ADD PUSH1 0x20 DUP8 ADD PUSH3 0x5A8 JUMP JUMPDEST SWAP5 SWAP4 POP POP POP POP JUMP JUMPDEST PUSH0 DUP1 PUSH0 DUP1 PUSH0 DUP1 PUSH0 DUP1 PUSH0 DUP1 PUSH2 0x140 DUP12 DUP14 SUB SLT ISZERO PUSH3 0x658 JUMPI PUSH0 DUP1 REVERT JUMPDEST PUSH3 0x663 DUP12 PUSH3 0x4A2 JUMP JUMPDEST SWAP10 POP PUSH3 0x673 PUSH1 0x20 DUP13 ADD PUSH3 0x4A2 JUMP JUMPDEST SWAP9 POP PUSH3 0x683 PUSH1 0x40 DUP13 ADD PUSH3 0x4A2 JUMP JUMPDEST SWAP8 POP PUSH3 0x693 PUSH1 0x60 DUP13 ADD PUSH3 0x4A2 JUMP JUMPDEST SWAP7 POP PUSH3 0x6A3 PUSH1 0x80 DUP13 ADD PUSH3 0x4BE JUMP JUMPDEST SWAP6 POP PUSH3 0x6B3 PUSH1 0xA0 DUP13 ADD PUSH3 0x4BE JUMP JUMPDEST PUSH1 0xC0 DUP13 ADD MLOAD SWAP1 SWAP6 POP PUSH1 0x1 PUSH1 0x1 PUSH1 0x40 SHL SUB DUP1 DUP3 GT ISZERO PUSH3 0x6D0 JUMPI PUSH0 DUP1 REVERT JUMPDEST PUSH3 0x6DE DUP15 DUP4 DUP16 ADD PUSH3 0x516 JUMP JUMPDEST SWAP6 POP PUSH1 0xE0 DUP14 ADD MLOAD SWAP2 POP DUP1 DUP3 GT ISZERO PUSH3 0x6F4 JUMPI PUSH0 DUP1 REVERT JUMPDEST PUSH3 0x702 DUP15 DUP4 DUP16 ADD PUSH3 0x5CC JUMP JUMPDEST SWAP5 POP PUSH2 0x100 DUP14 ADD MLOAD SWAP2 POP DUP1 DUP3 GT ISZERO PUSH3 0x719 JUMPI PUSH0 DUP1 REVERT JUMPDEST POP PUSH3 0x728 DUP14 DUP3 DUP15 ADD PUSH3 0x5CC JUMP JUMPDEST SWAP3 POP POP PUSH3 0x73A PUSH2 0x120 DUP13 ADD PUSH3 0x4A2 JUMP JUMPDEST SWAP1 POP SWAP3 SWAP6 SWAP9 SWAP12 SWAP2 SWAP5 SWAP8 SWAP11 POP SWAP3 SWAP6 SWAP9 POP JUMP JUMPDEST PUSH1 0x1 DUP2 DUP2 SHR SWAP1 DUP3 AND DUP1 PUSH3 0x760 JUMPI PUSH1 0x7F DUP3 AND SWAP2 POP JUMPDEST PUSH1 0x20 DUP3 LT DUP2 SUB PUSH3 0x77F JUMPI PUSH4 0x4E487B71 PUSH1 0xE0 SHL PUSH0 MSTORE PUSH1 0x22 PUSH1 0x4 MSTORE PUSH1 0x24 PUSH0 REVERT JUMPDEST POP SWAP2 SWAP1 POP JUMP JUMPDEST PUSH1 0x1F DUP3 GT ISZERO PUSH3 0x7D0 JUMPI DUP1 PUSH0 MSTORE PUSH1 0x20 PUSH0 KECCAK256 PUSH1 0x1F DUP5 ADD PUSH1 0x5 SHR DUP2 ADD PUSH1 0x20 DUP6 LT ISZERO PUSH3 0x7AC JUMPI POP DUP1 JUMPDEST PUSH1 0x1F DUP5 ADD PUSH1 0x5 SHR DUP3 ADD SWAP2 POP JUMPDEST DUP2 DUP2 LT ISZERO PUSH3 0x7CD JUMPI PUSH0 DUP2 SSTORE PUSH1 0x1 ADD PUSH3 0x7B8 JUMP JUMPDEST POP POP JUMPDEST POP POP POP JUMP JUMPDEST DUP2 MLOAD PUSH1 0x1 PUSH1 0x1 PUSH1 0x40 SHL SUB DUP2 GT ISZERO PUSH3 0x7F1 JUMPI PUSH3 0x7F1 PUSH3 0x4CF JUMP JUMPDEST PUSH3 0x809 DUP2 PUSH3 0x802 DUP5 SLOAD PUSH3 0x74B JUMP JUMPDEST DUP5 PUSH3 0x785 JUMP JUMPDEST PUSH1 0x20 DUP1 PUSH1 0x1F DUP4 GT PUSH1 0x1 DUP2 EQ PUSH3 0x83F JUMPI PUSH0 DUP5 ISZERO PUSH3 0x827 JUMPI POP DUP6 DUP4 ADD MLOAD JUMPDEST PUSH0 NOT PUSH1 0x3 DUP7 SWAP1 SHL SHR NOT AND PUSH1 0x1 DUP6 SWAP1 SHL OR DUP6 SSTORE PUSH3 0x899 JUMP JUMPDEST PUSH0 DUP6 DUP2 MSTORE PUSH1 0x20 DUP2 KECCAK256 PUSH1 0x1F NOT DUP7 AND SWAP2 JUMPDEST DUP3 DUP2 LT ISZERO PUSH3 0x86F JUMPI DUP9 DUP7 ADD MLOAD DUP3 SSTORE SWAP5 DUP5 ADD SWAP5 PUSH1 0x1 SWAP1 SWAP2 ADD SWAP1 DUP5 ADD PUSH3 0x84E JUMP JUMPDEST POP DUP6 DUP3 LT ISZERO PUSH3 0x88D JUMPI DUP8 DUP6 ADD MLOAD PUSH0 NOT PUSH1 0x3 DUP9 SWAP1 SHL PUSH1 0xF8 AND SHR NOT AND DUP2 SSTORE JUMPDEST POP POP PUSH1 0x1 DUP5 PUSH1 0x1 SHL ADD DUP6 SSTORE JUMPDEST POP POP POP POP POP POP JUMP JUMPDEST PUSH4 0x4E487B71 PUSH1 0xE0 SHL PUSH0 MSTORE PUSH1 0x32 PUSH1 0x4 MSTORE PUSH1 0x24 PUSH0 REVERT JUMPDEST PUSH4 0x4E487B71 PUSH1 0xE0 SHL PUSH0 MSTORE PUSH1 0x21 PUSH1 0x4 MSTORE PUSH1 0x24 PUSH0 REVERT JUMPDEST PUSH0 DUP3 MLOAD PUSH3 0x8DC DUP2 DUP5 PUSH1 0x20 DUP8 ADD PUSH3 0x5A8 JUMP JUMPDEST SWAP2 SWAP1 SWAP2 ADD SWAP3 SWAP2 POP POP JUMP JUMPDEST PUSH0 PUSH1 0x20 DUP3 DUP5 SUB SLT ISZERO PUSH3 0x8F7 JUMPI PUSH0 DUP1 REVERT JUMPDEST POP MLOAD SWAP2 SWAP1 POP JUMP JUMPDEST PUSH1 0x80 MLOAD PUSH1 0xA0 MLOAD PUSH1 0xC0 MLOAD PUSH1 0xE0 MLOAD PUSH2 0x100 MLOAD PUSH2 0x120 MLOAD PUSH2 0x140 MLOAD PUSH2 0x160 MLOAD PUSH2 0x22B9 PUSH3 0x9BC PUSH0 CODECOPY PUSH0 DUP2 DUP2 PUSH2 0x5B3 ADD MSTORE PUSH2 0xA4D ADD MSTORE PUSH0 DUP2 DUP2 PUSH2 0x468 ADD MSTORE PUSH2 0x9C8 ADD MSTORE PUSH0 DUP2 DUP2 PUSH2 0x342 ADD MSTORE PUSH2 0x993 ADD MSTORE PUSH0 DUP2 DUP2 PUSH2 0x3D0 ADD MSTORE DUP2 DUP2 PUSH2 0xCF6 ADD MSTORE DUP2 DUP2 PUSH2 0x11F8 ADD MSTORE PUSH2 0x1348 ADD MSTORE PUSH0 DUP2 DUP2 PUSH2 0x2C1 ADD MSTORE PUSH2 0x8D3 ADD MSTORE PUSH0 DUP2 DUP2 PUSH2 0x308 ADD MSTORE DUP2 DUP2 PUSH2 0xE20 ADD MSTORE PUSH2 0xEF6 ADD MSTORE PUSH0 PUSH2 0x784 ADD MSTORE PUSH0 DUP2 DUP2 PUSH2 0x380 ADD MSTORE DUP2 DUP2 PUSH2 0x5FA ADD MSTORE DUP2 DUP2 PUSH2 0xB65 ADD MSTORE DUP2 DUP2 PUSH2 0x10FB ADD MSTORE DUP2 DUP2 PUSH2 0x16C2 ADD MSTORE PUSH2 0x197B ADD MSTORE PUSH2 0x22B9 PUSH0 RETURN INVALID PUSH1 0x80 PUSH1 0x40 MSTORE CALLVALUE DUP1 ISZERO PUSH2 0xF JUMPI PUSH0 DUP1 REVERT JUMPDEST POP PUSH1 0x4 CALLDATASIZE LT PUSH2 0x23F JUMPI PUSH0 CALLDATALOAD PUSH1 0xE0 SHR DUP1 PUSH4 0x94BF804D GT PUSH2 0x135 JUMPI DUP1 PUSH4 0xCAD45A41 GT PUSH2 0xB4 JUMPI DUP1 PUSH4 0xDD62ED3E GT PUSH2 0x79 JUMPI DUP1 PUSH4 0xDD62ED3E EQ PUSH2 0x576 JUMPI DUP1 PUSH4 0xE4DD501D EQ PUSH2 0x5AE JUMPI DUP1 PUSH4 0xEF8B30F7 EQ PUSH2 0x4F5 JUMPI DUP1 PUSH4 0xF2FDE38B EQ PUSH2 0x5D5 JUMPI DUP1 PUSH4 0xF51C879B EQ PUSH2 0x5E8 JUMPI PUSH0 DUP1 REVERT JUMPDEST DUP1 PUSH4 0xCAD45A41 EQ PUSH2 0x508 JUMPI DUP1 PUSH4 0xCCFF2E6F EQ PUSH2 0x51B JUMPI DUP1 PUSH4 0xCE96CB77 EQ PUSH2 0x52E JUMPI DUP1 PUSH4 0xD8B025AC EQ PUSH2 0x541 JUMPI DUP1 PUSH4 0xD905777E EQ PUSH2 0x563 JUMPI PUSH0 DUP1 REVERT JUMPDEST DUP1 PUSH4 0xB460AF94 GT PUSH2 0xFA JUMPI DUP1 PUSH4 0xB460AF94 EQ PUSH2 0x4B0 JUMPI DUP1 PUSH4 0xBA087652 EQ PUSH2 0x4C3 JUMPI DUP1 PUSH4 0xBCBAED4F EQ PUSH2 0x4D6 JUMPI DUP1 PUSH4 0xC63D75B6 EQ PUSH2 0x3A4 JUMPI DUP1 PUSH4 0xC6E6F592 EQ PUSH2 0x4F5 JUMPI PUSH0 DUP1 REVERT JUMPDEST DUP1 PUSH4 0x94BF804D EQ PUSH2 0x448 JUMPI DUP1 PUSH4 0x95D89B41 EQ PUSH2 0x45B JUMPI DUP1 PUSH4 0xA2B44190 EQ PUSH2 0x463 JUMPI DUP1 PUSH4 0xA9059CBB EQ PUSH2 0x48A JUMPI DUP1 PUSH4 0xB3D7F6B9 EQ PUSH2 0x49D JUMPI PUSH0 DUP1 REVERT JUMPDEST DUP1 PUSH4 0x313CE567 GT PUSH2 0x1C1 JUMPI DUP1 PUSH4 0x6AFFE197 GT PUSH2 0x186 JUMPI DUP1 PUSH4 0x6AFFE197 EQ PUSH2 0x3CB JUMPI DUP1 PUSH4 0x6E553F65 EQ PUSH2 0x3F2 JUMPI DUP1 PUSH4 0x70A08231 EQ PUSH2 0x405 JUMPI DUP1 PUSH4 0x715018A6 EQ PUSH2 0x42D JUMPI DUP1 PUSH4 0x8DA5CB5B EQ PUSH2 0x437 JUMPI PUSH0 DUP1 REVERT JUMPDEST DUP1 PUSH4 0x313CE567 EQ PUSH2 0x376 JUMPI DUP1 PUSH4 0x38D52E0F EQ PUSH2 0x37E JUMPI DUP1 PUSH4 0x402D267D EQ PUSH2 0x3A4 JUMPI DUP1 PUSH4 0x47EC71B6 EQ PUSH2 0x3B8 JUMPI DUP1 PUSH4 0x4CDAD506 EQ PUSH2 0x273 JUMPI PUSH0 DUP1 REVERT JUMPDEST DUP1 PUSH4 0xDA80980 GT PUSH2 0x207 JUMPI DUP1 PUSH4 0xDA80980 EQ PUSH2 0x2BC JUMPI DUP1 PUSH4 0x18160DDD EQ PUSH2 0x2FB JUMPI DUP1 PUSH4 0x1FF1856C EQ PUSH2 0x303 JUMPI DUP1 PUSH4 0x23B872DD EQ PUSH2 0x32A JUMPI DUP1 PUSH4 0x2C4029A6 EQ PUSH2 0x33D JUMPI PUSH0 DUP1 REVERT JUMPDEST DUP1 PUSH4 0x1E1D114 EQ PUSH2 0x243 JUMPI DUP1 PUSH4 0x6FDDE03 EQ PUSH2 0x25E JUMPI DUP1 PUSH4 0x7A2D13A EQ PUSH2 0x273 JUMPI DUP1 PUSH4 0x95EA7B3 EQ PUSH2 0x286 JUMPI DUP1 PUSH4 0xA28A477 EQ PUSH2 0x2A9 JUMPI JUMPDEST PUSH0 DUP1 REVERT JUMPDEST PUSH2 0x24B PUSH2 0x5F1 JUMP JUMPDEST PUSH1 0x40 MLOAD SWAP1 DUP2 MSTORE PUSH1 0x20 ADD JUMPDEST PUSH1 0x40 MLOAD DUP1 SWAP2 SUB SWAP1 RETURN JUMPDEST PUSH2 0x266 PUSH2 0x693 JUMP JUMPDEST PUSH1 0x40 MLOAD PUSH2 0x255 SWAP2 SWAP1 PUSH2 0x1C91 JUMP JUMPDEST PUSH2 0x24B PUSH2 0x281 CALLDATASIZE PUSH1 0x4 PUSH2 0x1CC3 JUMP JUMPDEST PUSH2 0x723 JUMP JUMPDEST PUSH2 0x299 PUSH2 0x294 CALLDATASIZE PUSH1 0x4 PUSH2 0x1CF5 JUMP JUMPDEST PUSH2 0x734 JUMP JUMPDEST PUSH1 0x40 MLOAD SWAP1 ISZERO ISZERO DUP2 MSTORE PUSH1 0x20 ADD PUSH2 0x255 JUMP JUMPDEST PUSH2 0x24B PUSH2 0x2B7 CALLDATASIZE PUSH1 0x4 PUSH2 0x1CC3 JUMP JUMPDEST PUSH2 0x74B JUMP JUMPDEST PUSH2 0x2E3 PUSH32 0x0 DUP2 JUMP JUMPDEST PUSH1 0x40 MLOAD PUSH1 0x1 PUSH1 0x1 PUSH1 0xA0 SHL SUB SWAP1 SWAP2 AND DUP2 MSTORE PUSH1 0x20 ADD PUSH2 0x255 JUMP JUMPDEST PUSH1 0x2 SLOAD PUSH2 0x24B JUMP JUMPDEST PUSH2 0x2E3 PUSH32 0x0 DUP2 JUMP JUMPDEST PUSH2 0x299 PUSH2 0x338 CALLDATASIZE PUSH1 0x4 PUSH2 0x1D1D JUMP JUMPDEST PUSH2 0x757 JUMP JUMPDEST PUSH2 0x364 PUSH32 0x0 DUP2 JUMP JUMPDEST PUSH1 0x40 MLOAD PUSH1 0xFF SWAP1 SWAP2 AND DUP2 MSTORE PUSH1 0x20 ADD PUSH2 0x255 JUMP JUMPDEST PUSH2 0x364 PUSH2 0x77C JUMP JUMPDEST PUSH32 0x0 PUSH2 0x2E3 JUMP JUMPDEST PUSH2 0x24B PUSH2 0x3B2 CALLDATASIZE PUSH1 0x4 PUSH2 0x1D56 JUMP JUMPDEST POP PUSH0 NOT SWAP1 JUMP JUMPDEST PUSH2 0x24B PUSH2 0x3C6 CALLDATASIZE PUSH1 0x4 PUSH2 0x1D6F JUMP JUMPDEST PUSH2 0x7A8 JUMP JUMPDEST PUSH2 0x2E3 PUSH32 0x0 DUP2 JUMP JUMPDEST PUSH2 0x24B PUSH2 0x400 CALLDATASIZE PUSH1 0x4 PUSH2 0x1DBB JUMP JUMPDEST PUSH2 0xDF8 JUMP JUMPDEST PUSH2 0x24B PUSH2 0x413 CALLDATASIZE PUSH1 0x4 PUSH2 0x1D56 JUMP JUMPDEST PUSH1 0x1 PUSH1 0x1 PUSH1 0xA0 SHL SUB AND PUSH0 SWAP1 DUP2 MSTORE PUSH1 0x20 DUP2 SWAP1 MSTORE PUSH1 0x40 SWAP1 KECCAK256 SLOAD SWAP1 JUMP JUMPDEST PUSH2 0x435 PUSH2 0xEBB JUMP JUMPDEST STOP JUMPDEST PUSH1 0x5 SLOAD PUSH1 0x1 PUSH1 0x1 PUSH1 0xA0 SHL SUB AND PUSH2 0x2E3 JUMP JUMPDEST PUSH2 0x24B PUSH2 0x456 CALLDATASIZE PUSH1 0x4 PUSH2 0x1DBB JUMP JUMPDEST PUSH2 0xECE JUMP JUMPDEST PUSH2 0x266 PUSH2 0xF85 JUMP JUMPDEST PUSH2 0x364 PUSH32 0x0 DUP2 JUMP JUMPDEST PUSH2 0x299 PUSH2 0x498 CALLDATASIZE PUSH1 0x4 PUSH2 0x1CF5 JUMP JUMPDEST PUSH2 0xF94 JUMP JUMPDEST PUSH2 0x24B PUSH2 0x4AB CALLDATASIZE PUSH1 0x4 PUSH2 0x1CC3 JUMP JUMPDEST PUSH2 0xFA1 JUMP JUMPDEST PUSH2 0x24B PUSH2 0x4BE CALLDATASIZE PUSH1 0x4 PUSH2 0x1DE5 JUMP JUMPDEST PUSH2 0xFAD JUMP JUMPDEST PUSH2 0x24B PUSH2 0x4D1 CALLDATASIZE PUSH1 0x4 PUSH2 0x1DE5 JUMP JUMPDEST PUSH2 0xFFA JUMP JUMPDEST PUSH2 0x24B PUSH2 0x4E4 CALLDATASIZE PUSH1 0x4 PUSH2 0x1CC3 JUMP JUMPDEST PUSH1 0x8 PUSH1 0x20 MSTORE PUSH0 SWAP1 DUP2 MSTORE PUSH1 0x40 SWAP1 KECCAK256 SLOAD DUP2 JUMP JUMPDEST PUSH2 0x24B PUSH2 0x503 CALLDATASIZE PUSH1 0x4 PUSH2 0x1CC3 JUMP JUMPDEST PUSH2 0x1047 JUMP JUMPDEST PUSH2 0x435 PUSH2 0x516 CALLDATASIZE PUSH1 0x4 PUSH2 0x1E1E JUMP JUMPDEST PUSH2 0x1052 JUMP JUMPDEST PUSH2 0x435 PUSH2 0x529 CALLDATASIZE PUSH1 0x4 PUSH2 0x1CC3 JUMP JUMPDEST PUSH2 0x12A4 JUMP JUMPDEST PUSH2 0x24B PUSH2 0x53C CALLDATASIZE PUSH1 0x4 PUSH2 0x1D56 JUMP JUMPDEST PUSH2 0x13EF JUMP JUMPDEST PUSH2 0x299 PUSH2 0x54F CALLDATASIZE PUSH1 0x4 PUSH2 0x1E4A JUMP JUMPDEST PUSH1 0x7 PUSH1 0x20 MSTORE PUSH0 SWAP1 DUP2 MSTORE PUSH1 0x40 SWAP1 KECCAK256 SLOAD PUSH1 0xFF AND DUP2 JUMP JUMPDEST PUSH2 0x24B PUSH2 0x571 CALLDATASIZE PUSH1 0x4 PUSH2 0x1D56 JUMP JUMPDEST PUSH2 0x1411 JUMP JUMPDEST PUSH2 0x24B PUSH2 0x584 CALLDATASIZE PUSH1 0x4 PUSH2 0x1E65 JUMP JUMPDEST PUSH1 0x1 PUSH1 0x1 PUSH1 0xA0 SHL SUB SWAP2 DUP3 AND PUSH0 SWAP1 DUP2 MSTORE PUSH1 0x1 PUSH1 0x20 SWAP1 DUP2 MSTORE PUSH1 0x40 DUP1 DUP4 KECCAK256 SWAP4 SWAP1 SWAP5 AND DUP3 MSTORE SWAP2 SWAP1 SWAP2 MSTORE KECCAK256 SLOAD SWAP1 JUMP JUMPDEST PUSH2 0x299 PUSH32 0x0 DUP2 JUMP JUMPDEST PUSH2 0x435 PUSH2 0x5E3 CALLDATASIZE PUSH1 0x4 PUSH2 0x1D56 JUMP JUMPDEST PUSH2 0x142E JUMP JUMPDEST PUSH2 0x24B PUSH1 0x9 SLOAD DUP2 JUMP JUMPDEST PUSH0 PUSH1 0x9 SLOAD PUSH2 0x61C PUSH32 0x0 SWAP1 JUMP JUMPDEST PUSH1 0x40 MLOAD PUSH4 0x70A08231 PUSH1 0xE0 SHL DUP2 MSTORE ADDRESS PUSH1 0x4 DUP3 ADD MSTORE PUSH1 0x1 PUSH1 0x1 PUSH1 0xA0 SHL SUB SWAP2 SWAP1 SWAP2 AND SWAP1 PUSH4 0x70A08231 SWAP1 PUSH1 0x24 ADD PUSH1 0x20 PUSH1 0x40 MLOAD DUP1 DUP4 SUB DUP2 DUP7 GAS STATICCALL ISZERO DUP1 ISZERO PUSH2 0x660 JUMPI RETURNDATASIZE PUSH0 DUP1 RETURNDATACOPY RETURNDATASIZE PUSH0 REVERT JUMPDEST POP POP POP POP PUSH1 0x40 MLOAD RETURNDATASIZE PUSH1 0x1F NOT PUSH1 0x1F DUP3 ADD AND DUP3 ADD DUP1 PUSH1 0x40 MSTORE POP DUP2 ADD SWAP1 PUSH2 0x684 SWAP2 SWAP1 PUSH2 0x1E8D JUMP JUMPDEST PUSH2 0x68E SWAP2 SWAP1 PUSH2 0x1EB8 JUMP JUMPDEST SWAP1 POP SWAP1 JUMP JUMPDEST PUSH1 0x60 PUSH1 0x3 DUP1 SLOAD PUSH2 0x6A2 SWAP1 PUSH2 0x1ECB JUMP JUMPDEST DUP1 PUSH1 0x1F ADD PUSH1 0x20 DUP1 SWAP2 DIV MUL PUSH1 0x20 ADD PUSH1 0x40 MLOAD SWAP1 DUP2 ADD PUSH1 0x40 MSTORE DUP1 SWAP3 SWAP2 SWAP1 DUP2 DUP2 MSTORE PUSH1 0x20 ADD DUP3 DUP1 SLOAD PUSH2 0x6CE SWAP1 PUSH2 0x1ECB JUMP JUMPDEST DUP1 ISZERO PUSH2 0x719 JUMPI DUP1 PUSH1 0x1F LT PUSH2 0x6F0 JUMPI PUSH2 0x100 DUP1 DUP4 SLOAD DIV MUL DUP4 MSTORE SWAP2 PUSH1 0x20 ADD SWAP2 PUSH2 0x719 JUMP JUMPDEST DUP3 ADD SWAP2 SWAP1 PUSH0 MSTORE PUSH1 0x20 PUSH0 KECCAK256 SWAP1 JUMPDEST DUP2 SLOAD DUP2 MSTORE SWAP1 PUSH1 0x1 ADD SWAP1 PUSH1 0x20 ADD DUP1 DUP4 GT PUSH2 0x6FC JUMPI DUP3 SWAP1 SUB PUSH1 0x1F AND DUP3 ADD SWAP2 JUMPDEST POP POP POP POP POP SWAP1 POP SWAP1 JUMP JUMPDEST PUSH0 PUSH2 0x72E DUP3 PUSH0 PUSH2 0x1468 JUMP JUMPDEST SWAP3 SWAP2 POP POP JUMP JUMPDEST PUSH0 CALLER PUSH2 0x741 DUP2 DUP6 DUP6 PUSH2 0x14A1 JUMP JUMPDEST POP PUSH1 0x1 SWAP4 SWAP3 POP POP POP JUMP JUMPDEST PUSH0 PUSH2 0x72E DUP3 PUSH1 0x1 PUSH2 0x14B3 JUMP JUMPDEST PUSH0 CALLER PUSH2 0x764 DUP6 DUP3 DUP6 PUSH2 0x14E3 JUMP JUMPDEST PUSH2 0x76F DUP6 DUP6 DUP6 PUSH2 0x154C JUMP JUMPDEST PUSH1 0x1 SWAP2 POP POP JUMPDEST SWAP4 SWAP3 POP POP POP JUMP JUMPDEST PUSH0 PUSH2 0x68E PUSH1 0x9 PUSH32 0x0 PUSH2 0x1F03 JUMP JUMPDEST PUSH0 PUSH2 0x7B1 PUSH2 0x15A9 JUMP JUMPDEST PUSH2 0x7B9 PUSH2 0x15D3 JUMP JUMPDEST PUSH1 0x1 PUSH1 0x1 PUSH1 0xA0 SHL SUB DUP7 AND PUSH2 0x80D JUMPI PUSH1 0x40 MLOAD PUSH3 0x461BCD PUSH1 0xE5 SHL DUP2 MSTORE PUSH1 0x20 PUSH1 0x4 DUP3 ADD MSTORE PUSH1 0x16 PUSH1 0x24 DUP3 ADD MSTORE PUSH22 0x20B3B937AB30BAB63A1D103D32B937903330B936B2B9 PUSH1 0x51 SHL PUSH1 0x44 DUP3 ADD MSTORE PUSH1 0x64 ADD JUMPDEST PUSH1 0x40 MLOAD DUP1 SWAP2 SUB SWAP1 REVERT JUMPDEST PUSH1 0x1 PUSH1 0x1 PUSH1 0xA0 SHL SUB DUP3 AND PUSH2 0x863 JUMPI PUSH1 0x40 MLOAD PUSH3 0x461BCD PUSH1 0xE5 SHL DUP2 MSTORE PUSH1 0x20 PUSH1 0x4 DUP3 ADD MSTORE PUSH1 0x19 PUSH1 0x24 DUP3 ADD MSTORE PUSH32 0x4167726F5661756C743A207A65726F20726563697069656E7400000000000000 PUSH1 0x44 DUP3 ADD MSTORE PUSH1 0x64 ADD PUSH2 0x804 JUMP JUMPDEST PUSH0 DUP6 GT PUSH2 0x8B2 JUMPI PUSH1 0x40 MLOAD PUSH3 0x461BCD PUSH1 0xE5 SHL DUP2 MSTORE PUSH1 0x20 PUSH1 0x4 DUP3 ADD MSTORE PUSH1 0x19 PUSH1 0x24 DUP3 ADD MSTORE PUSH32 0x4167726F5661756C743A207A65726F207072696E636970616C00000000000000 PUSH1 0x44 DUP3 ADD MSTORE PUSH1 0x64 ADD PUSH2 0x804 JUMP JUMPDEST PUSH1 0x40 MLOAD PUSH4 0x73B04E0B PUSH1 0xE1 SHL DUP2 MSTORE PUSH1 0x1 PUSH1 0x1 PUSH1 0xA0 SHL SUB DUP8 DUP2 AND PUSH1 0x4 DUP4 ADD MSTORE PUSH0 SWAP2 PUSH32 0x0 SWAP1 SWAP2 AND SWAP1 PUSH4 0xE7609C16 SWAP1 PUSH1 0x24 ADD PUSH0 PUSH1 0x40 MLOAD DUP1 DUP4 SUB DUP2 DUP7 GAS STATICCALL ISZERO DUP1 ISZERO PUSH2 0x919 JUMPI RETURNDATASIZE PUSH0 DUP1 RETURNDATACOPY RETURNDATASIZE PUSH0 REVERT JUMPDEST POP POP POP POP PUSH1 0x40 MLOAD RETURNDATASIZE PUSH0 DUP3 RETURNDATACOPY PUSH1 0x1F RETURNDATASIZE SWAP1 DUP2 ADD PUSH1 0x1F NOT AND DUP3 ADD PUSH1 0x40 MSTORE PUSH2 0x940 SWAP2 SWAP1 DUP2 ADD SWAP1 PUSH2 0x1FFB JUMP JUMPDEST DUP1 MLOAD SWAP1 SWAP2 POP PUSH2 0x991 JUMPI PUSH1 0x40 MLOAD PUSH3 0x461BCD PUSH1 0xE5 SHL DUP2 MSTORE PUSH1 0x20 PUSH1 0x4 DUP3 ADD MSTORE PUSH1 0x1E PUSH1 0x24 DUP3 ADD MSTORE PUSH32 0x4167726F5661756C743A206661726D6572206E6F7420617070726F7665640000 PUSH1 0x44 DUP3 ADD MSTORE PUSH1 0x64 ADD PUSH2 0x804 JUMP JUMPDEST PUSH32 0x0 PUSH1 0xFF AND DUP2 PUSH1 0x20 ADD MLOAD PUSH1 0xFF AND LT ISZERO DUP1 ISZERO PUSH2 0x9F5 JUMPI POP PUSH32 0x0 PUSH1 0xFF AND DUP2 PUSH1 0x20 ADD MLOAD PUSH1 0xFF AND GT ISZERO JUMPDEST PUSH2 0xA4B JUMPI PUSH1 0x40 MLOAD PUSH3 0x461BCD PUSH1 0xE5 SHL DUP2 MSTORE PUSH1 0x20 PUSH1 0x4 DUP3 ADD MSTORE PUSH1 0x21 PUSH1 0x24 DUP3 ADD MSTORE PUSH32 0x4167726F5661756C743A207269736B2074696572206F7574206F662072616E67 PUSH1 0x44 DUP3 ADD MSTORE PUSH1 0x65 PUSH1 0xF8 SHL PUSH1 0x64 DUP3 ADD MSTORE PUSH1 0x84 ADD PUSH2 0x804 JUMP JUMPDEST PUSH32 0x0 PUSH2 0xAFE JUMPI PUSH1 0x7 PUSH0 DUP3 PUSH1 0x40 ADD MLOAD PUSH1 0x6 DUP2 GT ISZERO PUSH2 0xA89 JUMPI PUSH2 0xA89 PUSH2 0x20B0 JUMP JUMPDEST PUSH1 0x6 DUP2 GT ISZERO PUSH2 0xA9A JUMPI PUSH2 0xA9A PUSH2 0x20B0 JUMP JUMPDEST DUP2 MSTORE PUSH1 0x20 DUP2 ADD SWAP2 SWAP1 SWAP2 MSTORE PUSH1 0x40 ADD PUSH0 KECCAK256 SLOAD PUSH1 0xFF AND PUSH2 0xAF9 JUMPI PUSH1 0x40 MLOAD PUSH3 0x461BCD PUSH1 0xE5 SHL DUP2 MSTORE PUSH1 0x20 PUSH1 0x4 DUP3 ADD DUP2 SWAP1 MSTORE PUSH1 0x24 DUP3 ADD MSTORE PUSH32 0x4167726F5661756C743A2063726F702074797065206E6F7420616C6C6F776564 PUSH1 0x44 DUP3 ADD MSTORE PUSH1 0x64 ADD PUSH2 0x804 JUMP JUMPDEST PUSH2 0xB62 JUMP JUMPDEST PUSH0 DUP2 PUSH1 0x40 ADD MLOAD PUSH1 0x6 DUP2 GT ISZERO PUSH2 0xB15 JUMPI PUSH2 0xB15 PUSH2 0x20B0 JUMP JUMPDEST SUB PUSH2 0xB62 JUMPI PUSH1 0x40 MLOAD PUSH3 0x461BCD PUSH1 0xE5 SHL DUP2 MSTORE PUSH1 0x20 PUSH1 0x4 DUP3 ADD MSTORE PUSH1 0x17 PUSH1 0x24 DUP3 ADD MSTORE PUSH32 0x4167726F5661756C743A20756E6B6E6F776E2063726F70000000000000000000 PUSH1 0x44 DUP3 ADD MSTORE PUSH1 0x64 ADD PUSH2 0x804 JUMP JUMPDEST PUSH0 PUSH32 0x0 PUSH1 0x40 MLOAD PUSH4 0x70A08231 PUSH1 0xE0 SHL DUP2 MSTORE ADDRESS PUSH1 0x4 DUP3 ADD MSTORE SWAP1 SWAP2 POP PUSH0 SWAP1 PUSH1 0x1 PUSH1 0x1 PUSH1 0xA0 SHL SUB DUP4 AND SWAP1 PUSH4 0x70A08231 SWAP1 PUSH1 0x24 ADD PUSH1 0x20 PUSH1 0x40 MLOAD DUP1 DUP4 SUB DUP2 DUP7 GAS STATICCALL ISZERO DUP1 ISZERO PUSH2 0xBCB JUMPI RETURNDATASIZE PUSH0 DUP1 RETURNDATACOPY RETURNDATASIZE PUSH0 REVERT JUMPDEST POP POP POP POP PUSH1 0x40 MLOAD RETURNDATASIZE PUSH1 0x1F NOT PUSH1 0x1F DUP3 ADD AND DUP3 ADD DUP1 PUSH1 0x40 MSTORE POP DUP2 ADD SWAP1 PUSH2 0xBEF SWAP2 SWAP1 PUSH2 0x1E8D JUMP JUMPDEST SWAP1 POP DUP8 DUP2 LT ISZERO PUSH2 0xC4B JUMPI PUSH1 0x40 MLOAD PUSH3 0x461BCD PUSH1 0xE5 SHL DUP2 MSTORE PUSH1 0x20 PUSH1 0x4 DUP3 ADD MSTORE PUSH1 0x21 PUSH1 0x24 DUP3 ADD MSTORE PUSH32 0x4167726F5661756C743A20696E73756666696369656E74206C69717569646974 PUSH1 0x44 DUP3 ADD MSTORE PUSH1 0x79 PUSH1 0xF8 SHL PUSH1 0x64 DUP3 ADD MSTORE PUSH1 0x84 ADD PUSH2 0x804 JUMP JUMPDEST PUSH1 0x40 MLOAD PUSH4 0xA9059CBB PUSH1 0xE0 SHL DUP2 MSTORE PUSH1 0x1 PUSH1 0x1 PUSH1 0xA0 SHL SUB DUP7 DUP2 AND PUSH1 0x4 DUP4 ADD MSTORE PUSH1 0x24 DUP3 ADD DUP11 SWAP1 MSTORE DUP4 AND SWAP1 PUSH4 0xA9059CBB SWAP1 PUSH1 0x44 ADD PUSH1 0x20 PUSH1 0x40 MLOAD DUP1 DUP4 SUB DUP2 PUSH0 DUP8 GAS CALL ISZERO DUP1 ISZERO PUSH2 0xC97 JUMPI RETURNDATASIZE PUSH0 DUP1 RETURNDATACOPY RETURNDATASIZE PUSH0 REVERT JUMPDEST POP POP POP POP PUSH1 0x40 MLOAD RETURNDATASIZE PUSH1 0x1F NOT PUSH1 0x1F DUP3 ADD AND DUP3 ADD DUP1 PUSH1 0x40 MSTORE POP DUP2 ADD SWAP1 PUSH2 0xCBB SWAP2 SWAP1 PUSH2 0x20C4 JUMP JUMPDEST POP PUSH1 0x40 MLOAD PUSH4 0x56039C5 PUSH1 0xE2 SHL DUP2 MSTORE ADDRESS PUSH1 0x4 DUP3 ADD MSTORE PUSH1 0x1 PUSH1 0x1 PUSH1 0xA0 SHL SUB DUP11 DUP2 AND PUSH1 0x24 DUP4 ADD MSTORE PUSH1 0x44 DUP3 ADD DUP11 SWAP1 MSTORE PUSH1 0x64 DUP3 ADD DUP10 SWAP1 MSTORE PUSH1 0x84 DUP3 ADD DUP9 SWAP1 MSTORE PUSH32 0x0 AND SWAP1 PUSH4 0x1580E714 SWAP1 PUSH1 0xA4 ADD PUSH1 0x20 PUSH1 0x40 MLOAD DUP1 DUP4 SUB DUP2 PUSH0 DUP8 GAS CALL ISZERO DUP1 ISZERO PUSH2 0xD3C JUMPI RETURNDATASIZE PUSH0 DUP1 RETURNDATACOPY RETURNDATASIZE PUSH0 REVERT JUMPDEST POP POP POP POP PUSH1 0x40 MLOAD RETURNDATASIZE PUSH1 0x1F NOT PUSH1 0x1F DUP3 ADD AND DUP3 ADD DUP1 PUSH1 0x40 MSTORE POP DUP2 ADD SWAP1 PUSH2 0xD60 SWAP2 SWAP1 PUSH2 0x1E8D JUMP JUMPDEST PUSH0 DUP2 DUP2 MSTORE PUSH1 0x8 PUSH1 0x20 MSTORE PUSH1 0x40 DUP2 KECCAK256 DUP11 SWAP1 SSTORE PUSH1 0x9 DUP1 SLOAD SWAP3 SWAP7 POP DUP11 SWAP3 SWAP1 SWAP2 SWAP1 PUSH2 0xD87 SWAP1 DUP5 SWAP1 PUSH2 0x1EB8 JUMP JUMPDEST SWAP1 SWAP2 SSTORE POP POP PUSH1 0x40 DUP1 MLOAD DUP10 DUP2 MSTORE PUSH1 0x20 DUP2 ADD DUP10 SWAP1 MSTORE SWAP1 DUP2 ADD DUP8 SWAP1 MSTORE PUSH1 0x1 PUSH1 0x1 PUSH1 0xA0 SHL SUB DUP7 DUP2 AND PUSH1 0x60 DUP4 ADD MSTORE DUP11 AND SWAP1 DUP6 SWAP1 PUSH32 0x1837FC5E84169E03B38EDC46BE6A96E2160AE96D3D57F2DB28003EBA9A4D2050 SWAP1 PUSH1 0x80 ADD PUSH1 0x40 MLOAD DUP1 SWAP2 SUB SWAP1 LOG3 POP POP POP PUSH2 0xDEF PUSH1 0x1 PUSH1 0x6 SSTORE JUMP JUMPDEST SWAP6 SWAP5 POP POP POP POP POP JUMP JUMPDEST PUSH0 PUSH2 0xE01 PUSH2 0x15A9 JUMP JUMPDEST PUSH1 0x40 MLOAD PUSH4 0x3AF32ABF PUSH1 0xE0 SHL DUP2 MSTORE PUSH1 0x1 PUSH1 0x1 PUSH1 0xA0 SHL SUB DUP4 DUP2 AND PUSH1 0x4 DUP4 ADD MSTORE PUSH32 0x0 AND SWAP1 PUSH4 0x3AF32ABF SWAP1 PUSH1 0x24 ADD PUSH1 0x20 PUSH1 0x40 MLOAD DUP1 DUP4 SUB DUP2 DUP7 GAS STATICCALL ISZERO DUP1 ISZERO PUSH2 0xE65 JUMPI RETURNDATASIZE PUSH0 DUP1 RETURNDATACOPY RETURNDATASIZE PUSH0 REVERT JUMPDEST POP POP POP POP PUSH1 0x40 MLOAD RETURNDATASIZE PUSH1 0x1F NOT PUSH1 0x1F DUP3 ADD AND DUP3 ADD DUP1 PUSH1 0x40 MSTORE POP DUP2 ADD SWAP1 PUSH2 0xE89 SWAP2 SWAP1 PUSH2 0x20C4 JUMP JUMPDEST PUSH2 0xEA5 JUMPI PUSH1 0x40 MLOAD PUSH3 0x461BCD PUSH1 0xE5 SHL DUP2 MSTORE PUSH1 0x4 ADD PUSH2 0x804 SWAP1 PUSH2 0x20DD JUMP JUMPDEST PUSH2 0xEAF DUP4 DUP4 PUSH2 0x1600 JUMP JUMPDEST SWAP1 POP PUSH2 0x72E PUSH1 0x1 PUSH1 0x6 SSTORE JUMP JUMPDEST PUSH2 0xEC3 PUSH2 0x15D3 JUMP JUMPDEST PUSH2 0xECC PUSH0 PUSH2 0x1623 JUMP JUMPDEST JUMP JUMPDEST PUSH0 PUSH2 0xED7 PUSH2 0x15A9 JUMP JUMPDEST PUSH1 0x40 MLOAD PUSH4 0x3AF32ABF PUSH1 0xE0 SHL DUP2 MSTORE PUSH1 0x1 PUSH1 0x1 PUSH1 0xA0 SHL SUB DUP4 DUP2 AND PUSH1 0x4 DUP4 ADD MSTORE PUSH32 0x0 AND SWAP1 PUSH4 0x3AF32ABF SWAP1 PUSH1 0x24 ADD PUSH1 0x20 PUSH1 0x40 MLOAD DUP1 DUP4 SUB DUP2 DUP7 GAS STATICCALL ISZERO DUP1 ISZERO PUSH2 0xF3B JUMPI RETURNDATASIZE PUSH0 DUP1 RETURNDATACOPY RETURNDATASIZE PUSH0 REVERT JUMPDEST POP POP POP POP PUSH1 0x40 MLOAD RETURNDATASIZE PUSH1 0x1F NOT PUSH1 0x1F DUP3 ADD AND DUP3 ADD DUP1 PUSH1 0x40 MSTORE POP DUP2 ADD SWAP1 PUSH2 0xF5F SWAP2 SWAP1 PUSH2 0x20C4 JUMP JUMPDEST PUSH2 0xF7B JUMPI PUSH1 0x40 MLOAD PUSH3 0x461BCD PUSH1 0xE5 SHL DUP2 MSTORE PUSH1 0x4 ADD PUSH2 0x804 SWAP1 PUSH2 0x20DD JUMP JUMPDEST PUSH2 0xEAF DUP4 DUP4 PUSH2 0x1674 JUMP JUMPDEST PUSH1 0x60 PUSH1 0x4 DUP1 SLOAD PUSH2 0x6A2 SWAP1 PUSH2 0x1ECB JUMP JUMPDEST PUSH0 CALLER PUSH2 0x741 DUP2 DUP6 DUP6 PUSH2 0x154C JUMP JUMPDEST PUSH0 PUSH2 0x72E DUP3 PUSH1 0x1 PUSH2 0x1468 JUMP JUMPDEST PUSH0 DUP1 PUSH2 0xFB8 DUP4 PUSH2 0x13EF JUMP JUMPDEST SWAP1 POP DUP1 DUP6 GT ISZERO PUSH2 0xFE1 JUMPI DUP3 DUP6 DUP3 PUSH1 0x40 MLOAD PUSH4 0x3FA733BB PUSH1 0xE2 SHL DUP2 MSTORE PUSH1 0x4 ADD PUSH2 0x804 SWAP4 SWAP3 SWAP2 SWAP1 PUSH2 0x2120 JUMP JUMPDEST PUSH0 PUSH2 0xFEB DUP7 PUSH2 0x74B JUMP JUMPDEST SWAP1 POP PUSH2 0xDEF CALLER DUP7 DUP7 DUP10 DUP6 PUSH2 0x168F JUMP JUMPDEST PUSH0 DUP1 PUSH2 0x1005 DUP4 PUSH2 0x1411 JUMP JUMPDEST SWAP1 POP DUP1 DUP6 GT ISZERO PUSH2 0x102E JUMPI DUP3 DUP6 DUP3 PUSH1 0x40 MLOAD PUSH4 0x2E52AFBB PUSH1 0xE2 SHL DUP2 MSTORE PUSH1 0x4 ADD PUSH2 0x804 SWAP4 SWAP3 SWAP2 SWAP1 PUSH2 0x2120 JUMP JUMPDEST PUSH0 PUSH2 0x1038 DUP7 PUSH2 0x723 JUMP JUMPDEST SWAP1 POP PUSH2 0xDEF CALLER DUP7 DUP7 DUP5 DUP11 PUSH2 0x168F JUMP JUMPDEST PUSH0 PUSH2 0x72E DUP3 PUSH0 PUSH2 0x14B3 JUMP JUMPDEST PUSH2 0x105A PUSH2 0x15A9 JUMP JUMPDEST PUSH0 DUP2 GT PUSH2 0x10A2 JUMPI PUSH1 0x40 MLOAD PUSH3 0x461BCD PUSH1 0xE5 SHL DUP2 MSTORE PUSH1 0x20 PUSH1 0x4 DUP3 ADD MSTORE PUSH1 0x16 PUSH1 0x24 DUP3 ADD MSTORE PUSH22 0x1059DC9BD5985D5B1D0E881E995C9BC8185B5BDD5B9D PUSH1 0x52 SHL PUSH1 0x44 DUP3 ADD MSTORE PUSH1 0x64 ADD PUSH2 0x804 JUMP JUMPDEST PUSH0 DUP3 DUP2 MSTORE PUSH1 0x8 PUSH1 0x20 MSTORE PUSH1 0x40 SWAP1 KECCAK256 SLOAD DUP1 PUSH2 0x10F9 JUMPI PUSH1 0x40 MLOAD PUSH3 0x461BCD PUSH1 0xE5 SHL DUP2 MSTORE PUSH1 0x20 PUSH1 0x4 DUP3 ADD MSTORE PUSH1 0x19 PUSH1 0x24 DUP3 ADD MSTORE PUSH25 0x4167726F5661756C743A206E6F206F75747374616E64696E67 PUSH1 0x38 SHL PUSH1 0x44 DUP3 ADD MSTORE PUSH1 0x64 ADD PUSH2 0x804 JUMP JUMPDEST PUSH32 0x0 PUSH1 0x40 MLOAD PUSH4 0x23B872DD PUSH1 0xE0 SHL DUP2 MSTORE CALLER PUSH1 0x4 DUP3 ADD MSTORE ADDRESS PUSH1 0x24 DUP3 ADD MSTORE PUSH1 0x44 DUP2 ADD DUP5 SWAP1 MSTORE PUSH1 0x1 PUSH1 0x1 PUSH1 0xA0 SHL SUB SWAP2 SWAP1 SWAP2 AND SWAP1 PUSH4 0x23B872DD SWAP1 PUSH1 0x64 ADD PUSH1 0x20 PUSH1 0x40 MLOAD DUP1 DUP4 SUB DUP2 PUSH0 DUP8 GAS CALL ISZERO DUP1 ISZERO PUSH2 0x116C JUMPI RETURNDATASIZE PUSH0 DUP1 RETURNDATACOPY RETURNDATASIZE PUSH0 REVERT JUMPDEST POP POP POP POP PUSH1 0x40 MLOAD RETURNDATASIZE PUSH1 0x1F NOT PUSH1 0x1F DUP3 ADD AND DUP3 ADD DUP1 PUSH1 0x40 MSTORE POP DUP2 ADD SWAP1 PUSH2 0x1190 SWAP2 SWAP1 PUSH2 0x20C4 JUMP JUMPDEST POP PUSH0 DUP2 DUP4 GT PUSH2 0x119F JUMPI DUP3 PUSH2 0x11A1 JUMP JUMPDEST DUP2 JUMPDEST SWAP1 POP PUSH0 PUSH2 0x11AE DUP3 DUP5 PUSH2 0x2141 JUMP JUMPDEST PUSH0 DUP7 DUP2 MSTORE PUSH1 0x8 PUSH1 0x20 MSTORE PUSH1 0x40 DUP2 KECCAK256 DUP3 SWAP1 SSTORE PUSH1 0x9 DUP1 SLOAD SWAP3 SWAP4 POP DUP5 SWAP3 SWAP1 SWAP2 SWAP1 PUSH2 0x11D5 SWAP1 DUP5 SWAP1 PUSH2 0x2141 JUMP JUMPDEST SWAP1 SWAP2 SSTORE POP POP PUSH0 DUP2 SWAP1 SUB PUSH2 0x1258 JUMPI PUSH1 0x40 MLOAD PUSH4 0xB2B3BE99 PUSH1 0xE0 SHL DUP2 MSTORE PUSH1 0x4 DUP2 ADD DUP7 SWAP1 MSTORE PUSH32 0x0 PUSH1 0x1 PUSH1 0x1 PUSH1 0xA0 SHL SUB AND SWAP1 PUSH4 0xB2B3BE99 SWAP1 PUSH1 0x24 ADD PUSH0 PUSH1 0x40 MLOAD DUP1 DUP4 SUB DUP2 PUSH0 DUP8 DUP1 EXTCODESIZE ISZERO DUP1 ISZERO PUSH2 0x1241 JUMPI PUSH0 DUP1 REVERT JUMPDEST POP GAS CALL ISZERO DUP1 ISZERO PUSH2 0x1253 JUMPI RETURNDATASIZE PUSH0 DUP1 RETURNDATACOPY RETURNDATASIZE PUSH0 REVERT JUMPDEST POP POP POP POP JUMPDEST PUSH1 0x40 DUP1 MLOAD DUP6 DUP2 MSTORE PUSH1 0x20 DUP2 ADD DUP5 SWAP1 MSTORE DUP7 SWAP2 PUSH32 0x8BACBE6051E7205A511DD3BEB96381AE1D8EEBAA3774C6AF64B357036542A06B SWAP2 ADD PUSH1 0x40 MLOAD DUP1 SWAP2 SUB SWAP1 LOG2 POP POP POP PUSH2 0x12A0 PUSH1 0x1 PUSH1 0x6 SSTORE JUMP JUMPDEST POP POP JUMP JUMPDEST PUSH2 0x12AC PUSH2 0x15A9 JUMP JUMPDEST PUSH2 0x12B4 PUSH2 0x15D3 JUMP JUMPDEST PUSH0 DUP2 DUP2 MSTORE PUSH1 0x8 PUSH1 0x20 MSTORE PUSH1 0x40 SWAP1 KECCAK256 SLOAD DUP1 PUSH2 0x130B JUMPI PUSH1 0x40 MLOAD PUSH3 0x461BCD PUSH1 0xE5 SHL DUP2 MSTORE PUSH1 0x20 PUSH1 0x4 DUP3 ADD MSTORE PUSH1 0x19 PUSH1 0x24 DUP3 ADD MSTORE PUSH25 0x4167726F5661756C743A206E6F206F75747374616E64696E67 PUSH1 0x38 SHL PUSH1 0x44 DUP3 ADD MSTORE PUSH1 0x64 ADD PUSH2 0x804 JUMP JUMPDEST PUSH0 DUP3 DUP2 MSTORE PUSH1 0x8 PUSH1 0x20 MSTORE PUSH1 0x40 DUP2 KECCAK256 DUP2 SWAP1 SSTORE PUSH1 0x9 DUP1 SLOAD DUP4 SWAP3 SWAP1 PUSH2 0x132D SWAP1 DUP5 SWAP1 PUSH2 0x2141 JUMP JUMPDEST SWAP1 SWAP2 SSTORE POP POP PUSH1 0x40 MLOAD PUSH4 0x894A9FA5 PUSH1 0xE0 SHL DUP2 MSTORE PUSH1 0x4 DUP2 ADD DUP4 SWAP1 MSTORE PUSH32 0x0 PUSH1 0x1 PUSH1 0x1 PUSH1 0xA0 SHL SUB AND SWAP1 PUSH4 0x894A9FA5 SWAP1 PUSH1 0x24 ADD PUSH0 PUSH1 0x40 MLOAD DUP1 DUP4 SUB DUP2 PUSH0 DUP8 DUP1 EXTCODESIZE ISZERO DUP1 ISZERO PUSH2 0x1391 JUMPI PUSH0 DUP1 REVERT JUMPDEST POP GAS CALL ISZERO DUP1 ISZERO PUSH2 0x13A3 JUMPI RETURNDATASIZE PUSH0 DUP1 RETURNDATACOPY RETURNDATASIZE PUSH0 REVERT JUMPDEST POP POP POP POP DUP2 PUSH32 0x415E19ED3F57E0736902662598DA6063A362D92DBB7E2263BE7C46F840EC7E1C DUP3 PUSH1 0x40 MLOAD PUSH2 0x13D9 SWAP2 DUP2 MSTORE PUSH1 0x20 ADD SWAP1 JUMP JUMPDEST PUSH1 0x40 MLOAD DUP1 SWAP2 SUB SWAP1 LOG2 POP PUSH2 0x13EC PUSH1 0x1 PUSH1 0x6 SSTORE JUMP JUMPDEST POP JUMP JUMPDEST PUSH1 0x1 PUSH1 0x1 PUSH1 0xA0 SHL SUB DUP2 AND PUSH0 SWAP1 DUP2 MSTORE PUSH1 0x20 DUP2 SWAP1 MSTORE PUSH1 0x40 DUP2 KECCAK256 SLOAD PUSH2 0x72E SWAP1 PUSH0 PUSH2 0x1468 JUMP JUMPDEST PUSH1 0x1 PUSH1 0x1 PUSH1 0xA0 SHL SUB DUP2 AND PUSH0 SWAP1 DUP2 MSTORE PUSH1 0x20 DUP2 SWAP1 MSTORE PUSH1 0x40 DUP2 KECCAK256 SLOAD PUSH2 0x72E JUMP JUMPDEST PUSH2 0x1436 PUSH2 0x15D3 JUMP JUMPDEST PUSH1 0x1 PUSH1 0x1 PUSH1 0xA0 SHL SUB DUP2 AND PUSH2 0x145F JUMPI PUSH1 0x40 MLOAD PUSH4 0x1E4FBDF7 PUSH1 0xE0 SHL DUP2 MSTORE PUSH0 PUSH1 0x4 DUP3 ADD MSTORE PUSH1 0x24 ADD PUSH2 0x804 JUMP JUMPDEST PUSH2 0x13EC DUP2 PUSH2 0x1623 JUMP JUMPDEST PUSH0 PUSH2 0x775 PUSH2 0x1474 PUSH2 0x5F1 JUMP JUMPDEST PUSH2 0x147F SWAP1 PUSH1 0x1 PUSH2 0x1EB8 JUMP JUMPDEST PUSH2 0x148B PUSH1 0x9 PUSH1 0xA PUSH2 0x2234 JUMP JUMPDEST PUSH1 0x2 SLOAD PUSH2 0x1498 SWAP2 SWAP1 PUSH2 0x1EB8 JUMP JUMPDEST DUP6 SWAP2 SWAP1 DUP6 PUSH2 0x174F JUMP JUMPDEST PUSH2 0x14AE DUP4 DUP4 DUP4 PUSH1 0x1 PUSH2 0x1791 JUMP JUMPDEST POP POP POP JUMP JUMPDEST PUSH0 PUSH2 0x775 PUSH2 0x14C3 PUSH1 0x9 PUSH1 0xA PUSH2 0x2234 JUMP JUMPDEST PUSH1 0x2 SLOAD PUSH2 0x14D0 SWAP2 SWAP1 PUSH2 0x1EB8 JUMP JUMPDEST PUSH2 0x14D8 PUSH2 0x5F1 JUMP JUMPDEST PUSH2 0x1498 SWAP1 PUSH1 0x1 PUSH2 0x1EB8 JUMP JUMPDEST PUSH1 0x1 PUSH1 0x1 PUSH1 0xA0 SHL SUB DUP4 DUP2 AND PUSH0 SWAP1 DUP2 MSTORE PUSH1 0x1 PUSH1 0x20 SWAP1 DUP2 MSTORE PUSH1 0x40 DUP1 DUP4 KECCAK256 SWAP4 DUP7 AND DUP4 MSTORE SWAP3 SWAP1 MSTORE KECCAK256 SLOAD PUSH0 NOT DUP2 LT ISZERO PUSH2 0x1546 JUMPI DUP2 DUP2 LT ISZERO PUSH2 0x1538 JUMPI DUP3 DUP2 DUP4 PUSH1 0x40 MLOAD PUSH4 0x7DC7A0D9 PUSH1 0xE1 SHL DUP2 MSTORE PUSH1 0x4 ADD PUSH2 0x804 SWAP4 SWAP3 SWAP2 SWAP1 PUSH2 0x2120 JUMP JUMPDEST PUSH2 0x1546 DUP5 DUP5 DUP5 DUP5 SUB PUSH0 PUSH2 0x1791 JUMP JUMPDEST POP POP POP POP JUMP JUMPDEST PUSH1 0x1 PUSH1 0x1 PUSH1 0xA0 SHL SUB DUP4 AND PUSH2 0x1575 JUMPI PUSH1 0x40 MLOAD PUSH4 0x4B637E8F PUSH1 0xE1 SHL DUP2 MSTORE PUSH0 PUSH1 0x4 DUP3 ADD MSTORE PUSH1 0x24 ADD PUSH2 0x804 JUMP JUMPDEST PUSH1 0x1 PUSH1 0x1 PUSH1 0xA0 SHL SUB DUP3 AND PUSH2 0x159E JUMPI PUSH1 0x40 MLOAD PUSH4 0xEC442F05 PUSH1 0xE0 SHL DUP2 MSTORE PUSH0 PUSH1 0x4 DUP3 ADD MSTORE PUSH1 0x24 ADD PUSH2 0x804 JUMP JUMPDEST PUSH2 0x14AE DUP4 DUP4 DUP4 PUSH2 0x1863 JUMP JUMPDEST PUSH1 0x2 PUSH1 0x6 SLOAD SUB PUSH2 0x15CC JUMPI PUSH1 0x40 MLOAD PUSH4 0x3EE5AEB5 PUSH1 0xE0 SHL DUP2 MSTORE PUSH1 0x4 ADD PUSH1 0x40 MLOAD DUP1 SWAP2 SUB SWAP1 REVERT JUMPDEST PUSH1 0x2 PUSH1 0x6 SSTORE JUMP JUMPDEST PUSH1 0x5 SLOAD PUSH1 0x1 PUSH1 0x1 PUSH1 0xA0 SHL SUB AND CALLER EQ PUSH2 0xECC JUMPI PUSH1 0x40 MLOAD PUSH4 0x118CDAA7 PUSH1 0xE0 SHL DUP2 MSTORE CALLER PUSH1 0x4 DUP3 ADD MSTORE PUSH1 0x24 ADD PUSH2 0x804 JUMP JUMPDEST PUSH0 PUSH0 NOT PUSH0 PUSH2 0x160D DUP6 PUSH2 0x1047 JUMP JUMPDEST SWAP1 POP PUSH2 0x161B CALLER DUP6 DUP8 DUP5 PUSH2 0x1976 JUMP JUMPDEST SWAP5 SWAP4 POP POP POP POP JUMP JUMPDEST PUSH1 0x5 DUP1 SLOAD PUSH1 0x1 PUSH1 0x1 PUSH1 0xA0 SHL SUB DUP4 DUP2 AND PUSH1 0x1 PUSH1 0x1 PUSH1 0xA0 SHL SUB NOT DUP4 AND DUP2 OR SWAP1 SWAP4 SSTORE PUSH1 0x40 MLOAD SWAP2 AND SWAP2 SWAP1 DUP3 SWAP1 PUSH32 0x8BE0079C531659141344CD1FD0A4F28419497F9722A3DAAFE3B4186F6B6457E0 SWAP1 PUSH0 SWAP1 LOG3 POP POP JUMP JUMPDEST PUSH0 PUSH0 NOT PUSH0 PUSH2 0x1681 DUP6 PUSH2 0xFA1 JUMP JUMPDEST SWAP1 POP PUSH2 0x161B CALLER DUP6 DUP4 DUP9 PUSH2 0x1976 JUMP JUMPDEST DUP3 PUSH1 0x1 PUSH1 0x1 PUSH1 0xA0 SHL SUB AND DUP6 PUSH1 0x1 PUSH1 0x1 PUSH1 0xA0 SHL SUB AND EQ PUSH2 0x16B3 JUMPI PUSH2 0x16B3 DUP4 DUP7 DUP4 PUSH2 0x14E3 JUMP JUMPDEST PUSH2 0x16BD DUP4 DUP3 PUSH2 0x19FA JUMP JUMPDEST PUSH2 0x16E8 PUSH32 0x0 DUP6 DUP5 PUSH2 0x1A2E JUMP JUMPDEST DUP3 PUSH1 0x1 PUSH1 0x1 PUSH1 0xA0 SHL SUB AND DUP5 PUSH1 0x1 PUSH1 0x1 PUSH1 0xA0 SHL SUB AND DUP7 PUSH1 0x1 PUSH1 0x1 PUSH1 0xA0 SHL SUB AND PUSH32 0xFBDE797D201C681B91056529119E0B02407C7BB96A4A2C75C01FC9667232C8DB DUP6 DUP6 PUSH1 0x40 MLOAD PUSH2 0x1740 SWAP3 SWAP2 SWAP1 SWAP2 DUP3 MSTORE PUSH1 0x20 DUP3 ADD MSTORE PUSH1 0x40 ADD SWAP1 JUMP JUMPDEST PUSH1 0x40 MLOAD DUP1 SWAP2 SUB SWAP1 LOG4 POP POP POP POP POP JUMP JUMPDEST PUSH0 PUSH2 0x177C PUSH2 0x175C DUP4 PUSH2 0x1A8D JUMP JUMPDEST DUP1 ISZERO PUSH2 0x1777 JUMPI POP PUSH0 DUP5 DUP1 PUSH2 0x1772 JUMPI PUSH2 0x1772 PUSH2 0x2242 JUMP JUMPDEST DUP7 DUP9 MULMOD GT JUMPDEST ISZERO ISZERO SWAP1 JUMP JUMPDEST PUSH2 0x1787 DUP7 DUP7 DUP7 PUSH2 0x1AB9 JUMP JUMPDEST PUSH2 0xDEF SWAP2 SWAP1 PUSH2 0x1EB8 JUMP JUMPDEST PUSH1 0x1 PUSH1 0x1 PUSH1 0xA0 SHL SUB DUP5 AND PUSH2 0x17BA JUMPI PUSH1 0x40 MLOAD PUSH4 0xE602DF05 PUSH1 0xE0 SHL DUP2 MSTORE PUSH0 PUSH1 0x4 DUP3 ADD MSTORE PUSH1 0x24 ADD PUSH2 0x804 JUMP JUMPDEST PUSH1 0x1 PUSH1 0x1 PUSH1 0xA0 SHL SUB DUP4 AND PUSH2 0x17E3 JUMPI PUSH1 0x40 MLOAD PUSH4 0x4A1406B1 PUSH1 0xE1 SHL DUP2 MSTORE PUSH0 PUSH1 0x4 DUP3 ADD MSTORE PUSH1 0x24 ADD PUSH2 0x804 JUMP JUMPDEST PUSH1 0x1 PUSH1 0x1 PUSH1 0xA0 SHL SUB DUP1 DUP6 AND PUSH0 SWAP1 DUP2 MSTORE PUSH1 0x1 PUSH1 0x20 SWAP1 DUP2 MSTORE PUSH1 0x40 DUP1 DUP4 KECCAK256 SWAP4 DUP8 AND DUP4 MSTORE SWAP3 SWAP1 MSTORE KECCAK256 DUP3 SWAP1 SSTORE DUP1 ISZERO PUSH2 0x1546 JUMPI DUP3 PUSH1 0x1 PUSH1 0x1 PUSH1 0xA0 SHL SUB AND DUP5 PUSH1 0x1 PUSH1 0x1 PUSH1 0xA0 SHL SUB AND PUSH32 0x8C5BE1E5EBEC7D5BD14F71427D1E84F3DD0314C0F7B2291E5B200AC8C7C3B925 DUP5 PUSH1 0x40 MLOAD PUSH2 0x1855 SWAP2 DUP2 MSTORE PUSH1 0x20 ADD SWAP1 JUMP JUMPDEST PUSH1 0x40 MLOAD DUP1 SWAP2 SUB SWAP1 LOG3 POP POP POP POP JUMP JUMPDEST PUSH1 0x1 PUSH1 0x1 PUSH1 0xA0 SHL SUB DUP4 AND PUSH2 0x188D JUMPI DUP1 PUSH1 0x2 PUSH0 DUP3 DUP3 SLOAD PUSH2 0x1882 SWAP2 SWAP1 PUSH2 0x1EB8 JUMP JUMPDEST SWAP1 SWAP2 SSTORE POP PUSH2 0x18EA SWAP1 POP JUMP JUMPDEST PUSH1 0x1 PUSH1 0x1 PUSH1 0xA0 SHL SUB DUP4 AND PUSH0 SWAP1 DUP2 MSTORE PUSH1 0x20 DUP2 SWAP1 MSTORE PUSH1 0x40 SWAP1 KECCAK256 SLOAD DUP2 DUP2 LT ISZERO PUSH2 0x18CC JUMPI DUP4 DUP2 DUP4 PUSH1 0x40 MLOAD PUSH4 0x391434E3 PUSH1 0xE2 SHL DUP2 MSTORE PUSH1 0x4 ADD PUSH2 0x804 SWAP4 SWAP3 SWAP2 SWAP1 PUSH2 0x2120 JUMP JUMPDEST PUSH1 0x1 PUSH1 0x1 PUSH1 0xA0 SHL SUB DUP5 AND PUSH0 SWAP1 DUP2 MSTORE PUSH1 0x20 DUP2 SWAP1 MSTORE PUSH1 0x40 SWAP1 KECCAK256 SWAP1 DUP3 SWAP1 SUB SWAP1 SSTORE JUMPDEST PUSH1 0x1 PUSH1 0x1 PUSH1 0xA0 SHL SUB DUP3 AND PUSH2 0x1906 JUMPI PUSH1 0x2 DUP1 SLOAD DUP3 SWAP1 SUB SWAP1 SSTORE PUSH2 0x1924 JUMP JUMPDEST PUSH1 0x1 PUSH1 0x1 PUSH1 0xA0 SHL SUB DUP3 AND PUSH0 SWAP1 DUP2 MSTORE PUSH1 0x20 DUP2 SWAP1 MSTORE PUSH1 0x40 SWAP1 KECCAK256 DUP1 SLOAD DUP3 ADD SWAP1 SSTORE JUMPDEST DUP2 PUSH1 0x1 PUSH1 0x1 PUSH1 0xA0 SHL SUB AND DUP4 PUSH1 0x1 PUSH1 0x1 PUSH1 0xA0 SHL SUB AND PUSH32 0xDDF252AD1BE2C89B69C2B068FC378DAA952BA7F163C4A11628F55A4DF523B3EF DUP4 PUSH1 0x40 MLOAD PUSH2 0x1969 SWAP2 DUP2 MSTORE PUSH1 0x20 ADD SWAP1 JUMP JUMPDEST PUSH1 0x40 MLOAD DUP1 SWAP2 SUB SWAP1 LOG3 POP POP POP JUMP JUMPDEST PUSH2 0x19A2 PUSH32 0x0 DUP6 ADDRESS DUP6 PUSH2 0x1B69 JUMP JUMPDEST PUSH2 0x19AC DUP4 DUP3 PUSH2 0x1BA2 JUMP JUMPDEST DUP3 PUSH1 0x1 PUSH1 0x1 PUSH1 0xA0 SHL SUB AND DUP5 PUSH1 0x1 PUSH1 0x1 PUSH1 0xA0 SHL SUB AND PUSH32 0xDCBC1C05240F31FF3AD067EF1EE35CE4997762752E3A095284754544F4C709D7 DUP5 DUP5 PUSH1 0x40 MLOAD PUSH2 0x1855 SWAP3 SWAP2 SWAP1 SWAP2 DUP3 MSTORE PUSH1 0x20 DUP3 ADD MSTORE PUSH1 0x40 ADD SWAP1 JUMP JUMPDEST PUSH1 0x1 PUSH1 0x1 PUSH1 0xA0 SHL SUB DUP3 AND PUSH2 0x1A23 JUMPI PUSH1 0x40 MLOAD PUSH4 0x4B637E8F PUSH1 0xE1 SHL DUP2 MSTORE PUSH0 PUSH1 0x4 DUP3 ADD MSTORE PUSH1 0x24 ADD PUSH2 0x804 JUMP JUMPDEST PUSH2 0x12A0 DUP3 PUSH0 DUP4 PUSH2 0x1863 JUMP JUMPDEST PUSH1 0x40 MLOAD PUSH1 0x1 PUSH1 0x1 PUSH1 0xA0 SHL SUB DUP4 DUP2 AND PUSH1 0x24 DUP4 ADD MSTORE PUSH1 0x44 DUP3 ADD DUP4 SWAP1 MSTORE PUSH2 0x14AE SWAP2 DUP6 SWAP2 DUP3 AND SWAP1 PUSH4 0xA9059CBB SWAP1 PUSH1 0x64 ADD JUMPDEST PUSH1 0x40 MLOAD PUSH1 0x20 DUP2 DUP4 SUB SUB DUP2 MSTORE SWAP1 PUSH1 0x40 MSTORE SWAP2 POP PUSH1 0xE0 SHL PUSH1 0x20 DUP3 ADD DUP1 MLOAD PUSH1 0x1 PUSH1 0x1 PUSH1 0xE0 SHL SUB DUP4 DUP2 DUP4 AND OR DUP4 MSTORE POP POP POP POP PUSH2 0x1BD6 JUMP JUMPDEST PUSH0 PUSH1 0x2 DUP3 PUSH1 0x3 DUP2 GT ISZERO PUSH2 0x1AA2 JUMPI PUSH2 0x1AA2 PUSH2 0x20B0 JUMP JUMPDEST PUSH2 0x1AAC SWAP2 SWAP1 PUSH2 0x2256 JUMP JUMPDEST PUSH1 0xFF AND PUSH1 0x1 EQ SWAP1 POP SWAP2 SWAP1 POP JUMP JUMPDEST PUSH0 DUP1 PUSH0 PUSH2 0x1AC6 DUP7 DUP7 PUSH2 0x1C42 JUMP JUMPDEST SWAP2 POP SWAP2 POP DUP2 PUSH0 SUB PUSH2 0x1AEA JUMPI DUP4 DUP2 DUP2 PUSH2 0x1AE0 JUMPI PUSH2 0x1AE0 PUSH2 0x2242 JUMP JUMPDEST DIV SWAP3 POP POP POP PUSH2 0x775 JUMP JUMPDEST DUP2 DUP5 GT PUSH2 0x1B01 JUMPI PUSH2 0x1B01 PUSH1 0x3 DUP6 ISZERO MUL PUSH1 0x11 XOR PUSH2 0x1C5E JUMP JUMPDEST PUSH0 DUP5 DUP7 DUP9 MULMOD PUSH0 DUP7 DUP2 SUB DUP8 AND SWAP7 DUP8 SWAP1 DIV SWAP7 PUSH1 0x2 PUSH1 0x3 DUP10 MUL DUP2 XOR DUP1 DUP11 MUL DUP3 SUB MUL DUP1 DUP11 MUL DUP3 SUB MUL DUP1 DUP11 MUL DUP3 SUB MUL DUP1 DUP11 MUL DUP3 SUB MUL DUP1 DUP11 MUL DUP3 SUB MUL DUP1 DUP11 MUL SWAP1 SWAP2 SUB MUL SWAP2 DUP2 SWAP1 SUB DUP2 SWAP1 DIV PUSH1 0x1 ADD DUP6 DUP5 GT SWAP1 SWAP7 SUB SWAP6 SWAP1 SWAP6 MUL SWAP2 SWAP1 SWAP4 SUB SWAP4 SWAP1 SWAP4 DIV SWAP3 SWAP1 SWAP3 OR MUL SWAP2 POP POP SWAP4 SWAP3 POP POP POP JUMP JUMPDEST PUSH1 0x40 MLOAD PUSH1 0x1 PUSH1 0x1 PUSH1 0xA0 SHL SUB DUP5 DUP2 AND PUSH1 0x24 DUP4 ADD MSTORE DUP4 DUP2 AND PUSH1 0x44 DUP4 ADD MSTORE PUSH1 0x64 DUP3 ADD DUP4 SWAP1 MSTORE PUSH2 0x1546 SWAP2 DUP7 SWAP2 DUP3 AND SWAP1 PUSH4 0x23B872DD SWAP1 PUSH1 0x84 ADD PUSH2 0x1A5B JUMP JUMPDEST PUSH1 0x1 PUSH1 0x1 PUSH1 0xA0 SHL SUB DUP3 AND PUSH2 0x1BCB JUMPI PUSH1 0x40 MLOAD PUSH4 0xEC442F05 PUSH1 0xE0 SHL DUP2 MSTORE PUSH0 PUSH1 0x4 DUP3 ADD MSTORE PUSH1 0x24 ADD PUSH2 0x804 JUMP JUMPDEST PUSH2 0x12A0 PUSH0 DUP4 DUP4 PUSH2 0x1863 JUMP JUMPDEST PUSH0 DUP1 PUSH1 0x20 PUSH0 DUP5 MLOAD PUSH1 0x20 DUP7 ADD PUSH0 DUP9 GAS CALL DUP1 PUSH2 0x1BF5 JUMPI PUSH1 0x40 MLOAD RETURNDATASIZE PUSH0 DUP3 RETURNDATACOPY RETURNDATASIZE DUP2 REVERT JUMPDEST POP POP PUSH0 MLOAD RETURNDATASIZE SWAP2 POP DUP2 ISZERO PUSH2 0x1C0C JUMPI DUP1 PUSH1 0x1 EQ ISZERO PUSH2 0x1C19 JUMP JUMPDEST PUSH1 0x1 PUSH1 0x1 PUSH1 0xA0 SHL SUB DUP5 AND EXTCODESIZE ISZERO JUMPDEST ISZERO PUSH2 0x1546 JUMPI PUSH1 0x40 MLOAD PUSH4 0x5274AFE7 PUSH1 0xE0 SHL DUP2 MSTORE PUSH1 0x1 PUSH1 0x1 PUSH1 0xA0 SHL SUB DUP6 AND PUSH1 0x4 DUP3 ADD MSTORE PUSH1 0x24 ADD PUSH2 0x804 JUMP JUMPDEST PUSH0 DUP1 PUSH0 NOT DUP4 DUP6 MULMOD SWAP4 SWAP1 SWAP3 MUL DUP1 DUP5 LT SWAP4 DUP2 SWAP1 SUB SWAP4 SWAP1 SWAP4 SUB SWAP4 SWAP2 POP POP JUMP JUMPDEST PUSH4 0x4E487B71 PUSH0 MSTORE DUP1 PUSH1 0x20 MSTORE PUSH1 0x24 PUSH1 0x1C REVERT JUMPDEST PUSH0 JUMPDEST DUP4 DUP2 LT ISZERO PUSH2 0x1C89 JUMPI DUP2 DUP2 ADD MLOAD DUP4 DUP3 ADD MSTORE PUSH1 0x20 ADD PUSH2 0x1C71 JUMP JUMPDEST POP POP PUSH0 SWAP2 ADD MSTORE JUMP JUMPDEST PUSH1 0x20 DUP2 MSTORE PUSH0 DUP3 MLOAD DUP1 PUSH1 0x20 DUP5 ADD MSTORE PUSH2 0x1CAF DUP2 PUSH1 0x40 DUP6 ADD PUSH1 0x20 DUP8 ADD PUSH2 0x1C6F JUMP JUMPDEST PUSH1 0x1F ADD PUSH1 0x1F NOT AND SWAP2 SWAP1 SWAP2 ADD PUSH1 0x40 ADD SWAP3 SWAP2 POP POP JUMP JUMPDEST PUSH0 PUSH1 0x20 DUP3 DUP5 SUB SLT ISZERO PUSH2 0x1CD3 JUMPI PUSH0 DUP1 REVERT JUMPDEST POP CALLDATALOAD SWAP2 SWAP1 POP JUMP JUMPDEST DUP1 CALLDATALOAD PUSH1 0x1 PUSH1 0x1 PUSH1 0xA0 SHL SUB DUP2 AND DUP2 EQ PUSH2 0x1CF0 JUMPI PUSH0 DUP1 REVERT JUMPDEST SWAP2 SWAP1 POP JUMP JUMPDEST PUSH0 DUP1 PUSH1 0x40 DUP4 DUP6 SUB SLT ISZERO PUSH2 0x1D06 JUMPI PUSH0 DUP1 REVERT JUMPDEST PUSH2 0x1D0F DUP4 PUSH2 0x1CDA JUMP JUMPDEST SWAP5 PUSH1 0x20 SWAP4 SWAP1 SWAP4 ADD CALLDATALOAD SWAP4 POP POP POP JUMP JUMPDEST PUSH0 DUP1 PUSH0 PUSH1 0x60 DUP5 DUP7 SUB SLT ISZERO PUSH2 0x1D2F JUMPI PUSH0 DUP1 REVERT JUMPDEST PUSH2 0x1D38 DUP5 PUSH2 0x1CDA JUMP JUMPDEST SWAP3 POP PUSH2 0x1D46 PUSH1 0x20 DUP6 ADD PUSH2 0x1CDA JUMP JUMPDEST SWAP2 POP PUSH1 0x40 DUP5 ADD CALLDATALOAD SWAP1 POP SWAP3 POP SWAP3 POP SWAP3 JUMP JUMPDEST PUSH0 PUSH1 0x20 DUP3 DUP5 SUB SLT ISZERO PUSH2 0x1D66 JUMPI PUSH0 DUP1 REVERT JUMPDEST PUSH2 0x775 DUP3 PUSH2 0x1CDA JUMP JUMPDEST PUSH0 DUP1 PUSH0 DUP1 PUSH0 PUSH1 0xA0 DUP7 DUP9 SUB SLT ISZERO PUSH2 0x1D83 JUMPI PUSH0 DUP1 REVERT JUMPDEST PUSH2 0x1D8C DUP7 PUSH2 0x1CDA JUMP JUMPDEST SWAP5 POP PUSH1 0x20 DUP7 ADD CALLDATALOAD SWAP4 POP PUSH1 0x40 DUP7 ADD CALLDATALOAD SWAP3 POP PUSH1 0x60 DUP7 ADD CALLDATALOAD SWAP2 POP PUSH2 0x1DAF PUSH1 0x80 DUP8 ADD PUSH2 0x1CDA JUMP JUMPDEST SWAP1 POP SWAP3 SWAP6 POP SWAP3 SWAP6 SWAP1 SWAP4 POP JUMP JUMPDEST PUSH0 DUP1 PUSH1 0x40 DUP4 DUP6 SUB SLT ISZERO PUSH2 0x1DCC JUMPI PUSH0 DUP1 REVERT JUMPDEST DUP3 CALLDATALOAD SWAP2 POP PUSH2 0x1DDC PUSH1 0x20 DUP5 ADD PUSH2 0x1CDA JUMP JUMPDEST SWAP1 POP SWAP3 POP SWAP3 SWAP1 POP JUMP JUMPDEST PUSH0 DUP1 PUSH0 PUSH1 0x60 DUP5 DUP7 SUB SLT ISZERO PUSH2 0x1DF7 JUMPI PUSH0 DUP1 REVERT JUMPDEST DUP4 CALLDATALOAD SWAP3 POP PUSH2 0x1E07 PUSH1 0x20 DUP6 ADD PUSH2 0x1CDA JUMP JUMPDEST SWAP2 POP PUSH2 0x1E15 PUSH1 0x40 DUP6 ADD PUSH2 0x1CDA JUMP JUMPDEST SWAP1 POP SWAP3 POP SWAP3 POP SWAP3 JUMP JUMPDEST PUSH0 DUP1 PUSH1 0x40 DUP4 DUP6 SUB SLT ISZERO PUSH2 0x1E2F JUMPI PUSH0 DUP1 REVERT JUMPDEST POP POP DUP1 CALLDATALOAD SWAP3 PUSH1 0x20 SWAP1 SWAP2 ADD CALLDATALOAD SWAP2 POP JUMP JUMPDEST PUSH1 0x7 DUP2 LT PUSH2 0x13EC JUMPI PUSH0 DUP1 REVERT JUMPDEST PUSH0 PUSH1 0x20 DUP3 DUP5 SUB SLT ISZERO PUSH2 0x1E5A JUMPI PUSH0 DUP1 REVERT JUMPDEST DUP2 CALLDATALOAD PUSH2 0x775 DUP2 PUSH2 0x1E3E JUMP JUMPDEST PUSH0 DUP1 PUSH1 0x40 DUP4 DUP6 SUB SLT ISZERO PUSH2 0x1E76 JUMPI PUSH0 DUP1 REVERT JUMPDEST PUSH2 0x1E7F DUP4 PUSH2 0x1CDA JUMP JUMPDEST SWAP2 POP PUSH2 0x1DDC PUSH1 0x20 DUP5 ADD PUSH2 0x1CDA JUMP JUMPDEST PUSH0 PUSH1 0x20 DUP3 DUP5 SUB SLT ISZERO PUSH2 0x1E9D JUMPI PUSH0 DUP1 REVERT JUMPDEST POP MLOAD SWAP2 SWAP1 POP JUMP JUMPDEST PUSH4 0x4E487B71 PUSH1 0xE0 SHL PUSH0 MSTORE PUSH1 0x11 PUSH1 0x4 MSTORE PUSH1 0x24 PUSH0 REVERT JUMPDEST DUP1 DUP3 ADD DUP1 DUP3 GT ISZERO PUSH2 0x72E JUMPI PUSH2 0x72E PUSH2 0x1EA4 JUMP JUMPDEST PUSH1 0x1 DUP2 DUP2 SHR SWAP1 DUP3 AND DUP1 PUSH2 0x1EDF JUMPI PUSH1 0x7F DUP3 AND SWAP2 POP JUMPDEST PUSH1 0x20 DUP3 LT DUP2 SUB PUSH2 0x1EFD JUMPI PUSH4 0x4E487B71 PUSH1 0xE0 SHL PUSH0 MSTORE PUSH1 0x22 PUSH1 0x4 MSTORE PUSH1 0x24 PUSH0 REVERT JUMPDEST POP SWAP2 SWAP1 POP JUMP JUMPDEST PUSH1 0xFF DUP2 DUP2 AND DUP4 DUP3 AND ADD SWAP1 DUP2 GT ISZERO PUSH2 0x72E JUMPI PUSH2 0x72E PUSH2 0x1EA4 JUMP JUMPDEST PUSH4 0x4E487B71 PUSH1 0xE0 SHL PUSH0 MSTORE PUSH1 0x41 PUSH1 0x4 MSTORE PUSH1 0x24 PUSH0 REVERT JUMPDEST PUSH1 0x40 MLOAD PUSH1 0xA0 DUP2 ADD PUSH8 0xFFFFFFFFFFFFFFFF DUP2 GT DUP3 DUP3 LT OR ISZERO PUSH2 0x1F53 JUMPI PUSH2 0x1F53 PUSH2 0x1F1C JUMP JUMPDEST PUSH1 0x40 MSTORE SWAP1 JUMP JUMPDEST DUP1 MLOAD DUP1 ISZERO ISZERO DUP2 EQ PUSH2 0x1CF0 JUMPI PUSH0 DUP1 REVERT JUMPDEST DUP1 MLOAD PUSH1 0x6 DUP2 LT PUSH2 0x1CF0 JUMPI PUSH0 DUP1 REVERT JUMPDEST PUSH0 DUP3 PUSH1 0x1F DUP4 ADD SLT PUSH2 0x1F85 JUMPI PUSH0 DUP1 REVERT JUMPDEST DUP2 MLOAD PUSH8 0xFFFFFFFFFFFFFFFF DUP1 DUP3 GT ISZERO PUSH2 0x1FA0 JUMPI PUSH2 0x1FA0 PUSH2 0x1F1C JUMP JUMPDEST PUSH1 0x40 MLOAD PUSH1 0x1F DUP4 ADD PUSH1 0x1F NOT SWAP1 DUP2 AND PUSH1 0x3F ADD AND DUP2 ADD SWAP1 DUP3 DUP3 GT DUP2 DUP4 LT OR ISZERO PUSH2 0x1FC8 JUMPI PUSH2 0x1FC8 PUSH2 0x1F1C JUMP JUMPDEST DUP2 PUSH1 0x40 MSTORE DUP4 DUP2 MSTORE DUP7 PUSH1 0x20 DUP6 DUP9 ADD ADD GT ISZERO PUSH2 0x1FE0 JUMPI PUSH0 DUP1 REVERT JUMPDEST PUSH2 0x1FF1 DUP5 PUSH1 0x20 DUP4 ADD PUSH1 0x20 DUP10 ADD PUSH2 0x1C6F JUMP JUMPDEST SWAP7 SWAP6 POP POP POP POP POP POP JUMP JUMPDEST PUSH0 PUSH1 0x20 DUP3 DUP5 SUB SLT ISZERO PUSH2 0x200B JUMPI PUSH0 DUP1 REVERT JUMPDEST DUP2 MLOAD PUSH8 0xFFFFFFFFFFFFFFFF DUP1 DUP3 GT ISZERO PUSH2 0x2022 JUMPI PUSH0 DUP1 REVERT JUMPDEST SWAP1 DUP4 ADD SWAP1 PUSH1 0xA0 DUP3 DUP7 SUB SLT ISZERO PUSH2 0x2035 JUMPI PUSH0 DUP1 REVERT JUMPDEST PUSH2 0x203D PUSH2 0x1F30 JUMP JUMPDEST PUSH2 0x2046 DUP4 PUSH2 0x1F59 JUMP JUMPDEST DUP2 MSTORE PUSH1 0x20 DUP4 ADD MLOAD PUSH1 0xFF DUP2 AND DUP2 EQ PUSH2 0x205B JUMPI PUSH0 DUP1 REVERT JUMPDEST PUSH1 0x20 DUP3 ADD MSTORE PUSH1 0x40 DUP4 ADD MLOAD PUSH2 0x206E DUP2 PUSH2 0x1E3E JUMP JUMPDEST PUSH1 0x40 DUP3 ADD MSTORE PUSH2 0x207F PUSH1 0x60 DUP5 ADD PUSH2 0x1F68 JUMP JUMPDEST PUSH1 0x60 DUP3 ADD MSTORE PUSH1 0x80 DUP4 ADD MLOAD DUP3 DUP2 GT ISZERO PUSH2 0x2095 JUMPI PUSH0 DUP1 REVERT JUMPDEST PUSH2 0x20A1 DUP8 DUP3 DUP7 ADD PUSH2 0x1F76 JUMP JUMPDEST PUSH1 0x80 DUP4 ADD MSTORE POP SWAP6 SWAP5 POP POP POP POP POP JUMP JUMPDEST PUSH4 0x4E487B71 PUSH1 0xE0 SHL PUSH0 MSTORE PUSH1 0x21 PUSH1 0x4 MSTORE PUSH1 0x24 PUSH0 REVERT JUMPDEST PUSH0 PUSH1 0x20 DUP3 DUP5 SUB SLT ISZERO PUSH2 0x20D4 JUMPI PUSH0 DUP1 REVERT JUMPDEST PUSH2 0x775 DUP3 PUSH2 0x1F59 JUMP JUMPDEST PUSH1 0x20 DUP1 DUP3 MSTORE PUSH1 0x23 SWAP1 DUP3 ADD MSTORE PUSH32 0x4167726F5661756C743A207265636569766572206E6F742077686974656C6973 PUSH1 0x40 DUP3 ADD MSTORE PUSH3 0x1D1959 PUSH1 0xEA SHL PUSH1 0x60 DUP3 ADD MSTORE PUSH1 0x80 ADD SWAP1 JUMP JUMPDEST PUSH1 0x1 PUSH1 0x1 PUSH1 0xA0 SHL SUB SWAP4 SWAP1 SWAP4 AND DUP4 MSTORE PUSH1 0x20 DUP4 ADD SWAP2 SWAP1 SWAP2 MSTORE PUSH1 0x40 DUP3 ADD MSTORE PUSH1 0x60 ADD SWAP1 JUMP JUMPDEST DUP2 DUP2 SUB DUP2 DUP2 GT ISZERO PUSH2 0x72E JUMPI PUSH2 0x72E PUSH2 0x1EA4 JUMP JUMPDEST PUSH1 0x1 DUP2 DUP2 JUMPDEST DUP1 DUP6 GT ISZERO PUSH2 0x218E JUMPI DUP2 PUSH0 NOT DIV DUP3 GT ISZERO PUSH2 0x2174 JUMPI PUSH2 0x2174 PUSH2 0x1EA4 JUMP JUMPDEST DUP1 DUP6 AND ISZERO PUSH2 0x2181 JUMPI SWAP2 DUP2 MUL SWAP2 JUMPDEST SWAP4 DUP5 SHR SWAP4 SWAP1 DUP1 MUL SWAP1 PUSH2 0x2159 JUMP JUMPDEST POP SWAP3 POP SWAP3 SWAP1 POP JUMP JUMPDEST PUSH0 DUP3 PUSH2 0x21A4 JUMPI POP PUSH1 0x1 PUSH2 0x72E JUMP JUMPDEST DUP2 PUSH2 0x21B0 JUMPI POP PUSH0 PUSH2 0x72E JUMP JUMPDEST DUP2 PUSH1 0x1 DUP2 EQ PUSH2 0x21C6 JUMPI PUSH1 0x2 DUP2 EQ PUSH2 0x21D0 JUMPI PUSH2 0x21EC JUMP JUMPDEST PUSH1 0x1 SWAP2 POP POP PUSH2 0x72E JUMP JUMPDEST PUSH1 0xFF DUP5 GT ISZERO PUSH2 0x21E1 JUMPI PUSH2 0x21E1 PUSH2 0x1EA4 JUMP JUMPDEST POP POP PUSH1 0x1 DUP3 SHL PUSH2 0x72E JUMP JUMPDEST POP PUSH1 0x20 DUP4 LT PUSH2 0x133 DUP4 LT AND PUSH1 0x4E DUP5 LT PUSH1 0xB DUP5 LT AND OR ISZERO PUSH2 0x220F JUMPI POP DUP2 DUP2 EXP PUSH2 0x72E JUMP JUMPDEST PUSH2 0x2219 DUP4 DUP4 PUSH2 0x2154 JUMP JUMPDEST DUP1 PUSH0 NOT DIV DUP3 GT ISZERO PUSH2 0x222C JUMPI PUSH2 0x222C PUSH2 0x1EA4 JUMP JUMPDEST MUL SWAP4 SWAP3 POP POP POP JUMP JUMPDEST PUSH0 PUSH2 0x775 PUSH1 0xFF DUP5 AND DUP4 PUSH2 0x2196 JUMP JUMPDEST PUSH4 0x4E487B71 PUSH1 0xE0 SHL PUSH0 MSTORE PUSH1 0x12 PUSH1 0x4 MSTORE PUSH1 0x24 PUSH0 REVERT JUMPDEST PUSH0 PUSH1 0xFF DUP4 AND DUP1 PUSH2 0x2274 JUMPI PUSH4 0x4E487B71 PUSH1 0xE0 SHL PUSH0 MSTORE PUSH1 0x12 PUSH1 0x4 MSTORE PUSH1 0x24 PUSH0 REVERT JUMPDEST DUP1 PUSH1 0xFF DUP5 AND MOD SWAP2 POP POP SWAP3 SWAP2 POP POP JUMP INVALID LOG2 PUSH5 0x6970667358 0x22 SLT KECCAK256 BASEFEE SSTORE SMOD CODESIZE PUSH19 0xBD28876B4CA9A435DF8367E63C5D1245EE2018 0xC1 0xCF STATICCALL 0xC5 0xAB 0xDF 0xAF 0xBE PUSH5 0x736F6C6343 STOP ADDMOD XOR STOP CALLER "},"methodIdentifiers":{"allowance(address,address)":"dd62ed3e","anyCropTypeAllowed()":"e4dd501d","approve(address,uint256)":"095ea7b3","asset()":"38d52e0f","balanceOf(address)":"70a08231","convertToAssets(uint256)":"07a2d13a","convertToShares(uint256)":"c6e6f592","decimals()":"313ce567","defaultNote(uint256)":"ccff2e6f","deposit(uint256,address)":"6e553f65","farmerNote()":"6affe197","farmerRegistry()":"0da80980","fundNote(address,uint256,uint256,uint256,address)":"47ec71b6","investorWhitelist()":"1ff1856c","isAllowedCropType(uint8)":"d8b025ac","maxDeposit(address)":"402d267d","maxMint(address)":"c63d75b6","maxRedeem(address)":"d905777e","maxWithdraw(address)":"ce96cb77","mint(uint256,address)":"94bf804d","name()":"06fdde03","noteOutstandingPrincipal(uint256)":"bcbaed4f","owner()":"8da5cb5b","previewDeposit(uint256)":"ef8b30f7","previewMint(uint256)":"b3d7f6b9","previewRedeem(uint256)":"4cdad506","previewWithdraw(uint256)":"0a28a477","recordRepayment(uint256,uint256)":"cad45a41","redeem(uint256,address,address)":"ba087652","renounceOwnership()":"715018a6","riskTierMax()":"a2b44190","riskTierMin()":"2c4029a6","symbol()":"95d89b41","totalAssets()":"01e1d114","totalOutstandingPrincipal()":"f51c879b","totalSupply()":"18160ddd","transfer(address,uint256)":"a9059cbb","transferFrom(address,address,uint256)":"23b872dd","transferOwnership(address)":"f2fde38b","withdraw(uint256,address,address)":"b460af94"}}}}}