{
  "_format": "hh3-artifact-1",
  "contractName": "RaylsSemaphore",
  "sourceName": "contracts/SemaphoreImports.sol",
  "abi": [
    {
      "inputs": [
        {
          "internalType": "contract SemaphoreVerifier",
          "name": "verifier",
          "type": "address"
        }
      ],
      "stateMutability": "nonpayable",
      "type": "constructor"
    },
    {
      "inputs": [],
      "name": "LeafAlreadyExists",
      "type": "error"
    },
    {
      "inputs": [],
      "name": "LeafCannotBeZero",
      "type": "error"
    },
    {
      "inputs": [],
      "name": "LeafDoesNotExist",
      "type": "error"
    },
    {
      "inputs": [],
      "name": "LeafGreaterThanSnarkScalarField",
      "type": "error"
    },
    {
      "inputs": [],
      "name": "Semaphore__CallerIsNotTheGroupAdmin",
      "type": "error"
    },
    {
      "inputs": [],
      "name": "Semaphore__CallerIsNotThePendingGroupAdmin",
      "type": "error"
    },
    {
      "inputs": [],
      "name": "Semaphore__GroupDoesNotExist",
      "type": "error"
    },
    {
      "inputs": [],
      "name": "Semaphore__GroupHasNoMembers",
      "type": "error"
    },
    {
      "inputs": [],
      "name": "Semaphore__InvalidProof",
      "type": "error"
    },
    {
      "inputs": [],
      "name": "Semaphore__MerkleTreeDepthIsNotSupported",
      "type": "error"
    },
    {
      "inputs": [],
      "name": "Semaphore__MerkleTreeRootIsExpired",
      "type": "error"
    },
    {
      "inputs": [],
      "name": "Semaphore__MerkleTreeRootIsNotPartOfTheGroup",
      "type": "error"
    },
    {
      "inputs": [],
      "name": "Semaphore__YouAreUsingTheSameNullifierTwice",
      "type": "error"
    },
    {
      "inputs": [],
      "name": "WrongSiblingNodes",
      "type": "error"
    },
    {
      "anonymous": false,
      "inputs": [
        {
          "indexed": true,
          "internalType": "uint256",
          "name": "groupId",
          "type": "uint256"
        },
        {
          "indexed": true,
          "internalType": "address",
          "name": "oldAdmin",
          "type": "address"
        },
        {
          "indexed": true,
          "internalType": "address",
          "name": "newAdmin",
          "type": "address"
        }
      ],
      "name": "GroupAdminPending",
      "type": "event"
    },
    {
      "anonymous": false,
      "inputs": [
        {
          "indexed": true,
          "internalType": "uint256",
          "name": "groupId",
          "type": "uint256"
        },
        {
          "indexed": true,
          "internalType": "address",
          "name": "oldAdmin",
          "type": "address"
        },
        {
          "indexed": true,
          "internalType": "address",
          "name": "newAdmin",
          "type": "address"
        }
      ],
      "name": "GroupAdminUpdated",
      "type": "event"
    },
    {
      "anonymous": false,
      "inputs": [
        {
          "indexed": true,
          "internalType": "uint256",
          "name": "groupId",
          "type": "uint256"
        }
      ],
      "name": "GroupCreated",
      "type": "event"
    },
    {
      "anonymous": false,
      "inputs": [
        {
          "indexed": true,
          "internalType": "uint256",
          "name": "groupId",
          "type": "uint256"
        },
        {
          "indexed": false,
          "internalType": "uint256",
          "name": "oldMerkleTreeDuration",
          "type": "uint256"
        },
        {
          "indexed": false,
          "internalType": "uint256",
          "name": "newMerkleTreeDuration",
          "type": "uint256"
        }
      ],
      "name": "GroupMerkleTreeDurationUpdated",
      "type": "event"
    },
    {
      "anonymous": false,
      "inputs": [
        {
          "indexed": true,
          "internalType": "uint256",
          "name": "groupId",
          "type": "uint256"
        },
        {
          "indexed": false,
          "internalType": "uint256",
          "name": "index",
          "type": "uint256"
        },
        {
          "indexed": false,
          "internalType": "uint256",
          "name": "identityCommitment",
          "type": "uint256"
        },
        {
          "indexed": false,
          "internalType": "uint256",
          "name": "merkleTreeRoot",
          "type": "uint256"
        }
      ],
      "name": "MemberAdded",
      "type": "event"
    },
    {
      "anonymous": false,
      "inputs": [
        {
          "indexed": true,
          "internalType": "uint256",
          "name": "groupId",
          "type": "uint256"
        },
        {
          "indexed": false,
          "internalType": "uint256",
          "name": "index",
          "type": "uint256"
        },
        {
          "indexed": false,
          "internalType": "uint256",
          "name": "identityCommitment",
          "type": "uint256"
        },
        {
          "indexed": false,
          "internalType": "uint256",
          "name": "merkleTreeRoot",
          "type": "uint256"
        }
      ],
      "name": "MemberRemoved",
      "type": "event"
    },
    {
      "anonymous": false,
      "inputs": [
        {
          "indexed": true,
          "internalType": "uint256",
          "name": "groupId",
          "type": "uint256"
        },
        {
          "indexed": false,
          "internalType": "uint256",
          "name": "index",
          "type": "uint256"
        },
        {
          "indexed": false,
          "internalType": "uint256",
          "name": "identityCommitment",
          "type": "uint256"
        },
        {
          "indexed": false,
          "internalType": "uint256",
          "name": "newIdentityCommitment",
          "type": "uint256"
        },
        {
          "indexed": false,
          "internalType": "uint256",
          "name": "merkleTreeRoot",
          "type": "uint256"
        }
      ],
      "name": "MemberUpdated",
      "type": "event"
    },
    {
      "anonymous": false,
      "inputs": [
        {
          "indexed": true,
          "internalType": "uint256",
          "name": "groupId",
          "type": "uint256"
        },
        {
          "indexed": false,
          "internalType": "uint256",
          "name": "startIndex",
          "type": "uint256"
        },
        {
          "indexed": false,
          "internalType": "uint256[]",
          "name": "identityCommitments",
          "type": "uint256[]"
        },
        {
          "indexed": false,
          "internalType": "uint256",
          "name": "merkleTreeRoot",
          "type": "uint256"
        }
      ],
      "name": "MembersAdded",
      "type": "event"
    },
    {
      "anonymous": false,
      "inputs": [
        {
          "indexed": true,
          "internalType": "uint256",
          "name": "groupId",
          "type": "uint256"
        },
        {
          "indexed": false,
          "internalType": "uint256",
          "name": "merkleTreeDepth",
          "type": "uint256"
        },
        {
          "indexed": true,
          "internalType": "uint256",
          "name": "merkleTreeRoot",
          "type": "uint256"
        },
        {
          "indexed": false,
          "internalType": "uint256",
          "name": "nullifier",
          "type": "uint256"
        },
        {
          "indexed": false,
          "internalType": "uint256",
          "name": "message",
          "type": "uint256"
        },
        {
          "indexed": true,
          "internalType": "uint256",
          "name": "scope",
          "type": "uint256"
        },
        {
          "indexed": false,
          "internalType": "uint256[8]",
          "name": "points",
          "type": "uint256[8]"
        }
      ],
      "name": "ProofValidated",
      "type": "event"
    },
    {
      "inputs": [
        {
          "internalType": "uint256",
          "name": "groupId",
          "type": "uint256"
        }
      ],
      "name": "acceptGroupAdmin",
      "outputs": [],
      "stateMutability": "nonpayable",
      "type": "function"
    },
    {
      "inputs": [
        {
          "internalType": "uint256",
          "name": "groupId",
          "type": "uint256"
        },
        {
          "internalType": "uint256",
          "name": "identityCommitment",
          "type": "uint256"
        }
      ],
      "name": "addMember",
      "outputs": [],
      "stateMutability": "nonpayable",
      "type": "function"
    },
    {
      "inputs": [
        {
          "internalType": "uint256",
          "name": "groupId",
          "type": "uint256"
        },
        {
          "internalType": "uint256[]",
          "name": "identityCommitments",
          "type": "uint256[]"
        }
      ],
      "name": "addMembers",
      "outputs": [],
      "stateMutability": "nonpayable",
      "type": "function"
    },
    {
      "inputs": [
        {
          "internalType": "address",
          "name": "admin",
          "type": "address"
        },
        {
          "internalType": "uint256",
          "name": "merkleTreeDuration",
          "type": "uint256"
        }
      ],
      "name": "createGroup",
      "outputs": [
        {
          "internalType": "uint256",
          "name": "groupId",
          "type": "uint256"
        }
      ],
      "stateMutability": "nonpayable",
      "type": "function"
    },
    {
      "inputs": [],
      "name": "createGroup",
      "outputs": [
        {
          "internalType": "uint256",
          "name": "groupId",
          "type": "uint256"
        }
      ],
      "stateMutability": "nonpayable",
      "type": "function"
    },
    {
      "inputs": [
        {
          "internalType": "address",
          "name": "admin",
          "type": "address"
        }
      ],
      "name": "createGroup",
      "outputs": [
        {
          "internalType": "uint256",
          "name": "groupId",
          "type": "uint256"
        }
      ],
      "stateMutability": "nonpayable",
      "type": "function"
    },
    {
      "inputs": [
        {
          "internalType": "uint256",
          "name": "groupId",
          "type": "uint256"
        }
      ],
      "name": "getGroupAdmin",
      "outputs": [
        {
          "internalType": "address",
          "name": "",
          "type": "address"
        }
      ],
      "stateMutability": "view",
      "type": "function"
    },
    {
      "inputs": [
        {
          "internalType": "uint256",
          "name": "groupId",
          "type": "uint256"
        }
      ],
      "name": "getMerkleTreeDepth",
      "outputs": [
        {
          "internalType": "uint256",
          "name": "",
          "type": "uint256"
        }
      ],
      "stateMutability": "view",
      "type": "function"
    },
    {
      "inputs": [
        {
          "internalType": "uint256",
          "name": "groupId",
          "type": "uint256"
        }
      ],
      "name": "getMerkleTreeRoot",
      "outputs": [
        {
          "internalType": "uint256",
          "name": "",
          "type": "uint256"
        }
      ],
      "stateMutability": "view",
      "type": "function"
    },
    {
      "inputs": [
        {
          "internalType": "uint256",
          "name": "groupId",
          "type": "uint256"
        }
      ],
      "name": "getMerkleTreeSize",
      "outputs": [
        {
          "internalType": "uint256",
          "name": "",
          "type": "uint256"
        }
      ],
      "stateMutability": "view",
      "type": "function"
    },
    {
      "inputs": [],
      "name": "groupCounter",
      "outputs": [
        {
          "internalType": "uint256",
          "name": "",
          "type": "uint256"
        }
      ],
      "stateMutability": "view",
      "type": "function"
    },
    {
      "inputs": [
        {
          "internalType": "uint256",
          "name": "",
          "type": "uint256"
        }
      ],
      "name": "groups",
      "outputs": [
        {
          "internalType": "uint256",
          "name": "merkleTreeDuration",
          "type": "uint256"
        }
      ],
      "stateMutability": "view",
      "type": "function"
    },
    {
      "inputs": [
        {
          "internalType": "uint256",
          "name": "groupId",
          "type": "uint256"
        },
        {
          "internalType": "uint256",
          "name": "identityCommitment",
          "type": "uint256"
        }
      ],
      "name": "hasMember",
      "outputs": [
        {
          "internalType": "bool",
          "name": "",
          "type": "bool"
        }
      ],
      "stateMutability": "view",
      "type": "function"
    },
    {
      "inputs": [
        {
          "internalType": "uint256",
          "name": "groupId",
          "type": "uint256"
        },
        {
          "internalType": "uint256",
          "name": "identityCommitment",
          "type": "uint256"
        }
      ],
      "name": "indexOf",
      "outputs": [
        {
          "internalType": "uint256",
          "name": "",
          "type": "uint256"
        }
      ],
      "stateMutability": "view",
      "type": "function"
    },
    {
      "inputs": [
        {
          "internalType": "uint256",
          "name": "groupId",
          "type": "uint256"
        },
        {
          "internalType": "uint256",
          "name": "identityCommitment",
          "type": "uint256"
        },
        {
          "internalType": "uint256[]",
          "name": "merkleProofSiblings",
          "type": "uint256[]"
        }
      ],
      "name": "removeMember",
      "outputs": [],
      "stateMutability": "nonpayable",
      "type": "function"
    },
    {
      "inputs": [
        {
          "internalType": "uint256",
          "name": "groupId",
          "type": "uint256"
        },
        {
          "internalType": "address",
          "name": "newAdmin",
          "type": "address"
        }
      ],
      "name": "updateGroupAdmin",
      "outputs": [],
      "stateMutability": "nonpayable",
      "type": "function"
    },
    {
      "inputs": [
        {
          "internalType": "uint256",
          "name": "groupId",
          "type": "uint256"
        },
        {
          "internalType": "uint256",
          "name": "newMerkleTreeDuration",
          "type": "uint256"
        }
      ],
      "name": "updateGroupMerkleTreeDuration",
      "outputs": [],
      "stateMutability": "nonpayable",
      "type": "function"
    },
    {
      "inputs": [
        {
          "internalType": "uint256",
          "name": "groupId",
          "type": "uint256"
        },
        {
          "internalType": "uint256",
          "name": "identityCommitment",
          "type": "uint256"
        },
        {
          "internalType": "uint256",
          "name": "newIdentityCommitment",
          "type": "uint256"
        },
        {
          "internalType": "uint256[]",
          "name": "merkleProofSiblings",
          "type": "uint256[]"
        }
      ],
      "name": "updateMember",
      "outputs": [],
      "stateMutability": "nonpayable",
      "type": "function"
    },
    {
      "inputs": [
        {
          "internalType": "uint256",
          "name": "groupId",
          "type": "uint256"
        },
        {
          "components": [
            {
              "internalType": "uint256",
              "name": "merkleTreeDepth",
              "type": "uint256"
            },
            {
              "internalType": "uint256",
              "name": "merkleTreeRoot",
              "type": "uint256"
            },
            {
              "internalType": "uint256",
              "name": "nullifier",
              "type": "uint256"
            },
            {
              "internalType": "uint256",
              "name": "message",
              "type": "uint256"
            },
            {
              "internalType": "uint256",
              "name": "scope",
              "type": "uint256"
            },
            {
              "internalType": "uint256[8]",
              "name": "points",
              "type": "uint256[8]"
            }
          ],
          "internalType": "struct ISemaphore.SemaphoreProof",
          "name": "proof",
          "type": "tuple"
        }
      ],
      "name": "validateProof",
      "outputs": [],
      "stateMutability": "nonpayable",
      "type": "function"
    },
    {
      "inputs": [],
      "name": "verifier",
      "outputs": [
        {
          "internalType": "contract ISemaphoreVerifier",
          "name": "",
          "type": "address"
        }
      ],
      "stateMutability": "view",
      "type": "function"
    },
    {
      "inputs": [
        {
          "internalType": "uint256",
          "name": "groupId",
          "type": "uint256"
        },
        {
          "components": [
            {
              "internalType": "uint256",
              "name": "merkleTreeDepth",
              "type": "uint256"
            },
            {
              "internalType": "uint256",
              "name": "merkleTreeRoot",
              "type": "uint256"
            },
            {
              "internalType": "uint256",
              "name": "nullifier",
              "type": "uint256"
            },
            {
              "internalType": "uint256",
              "name": "message",
              "type": "uint256"
            },
            {
              "internalType": "uint256",
              "name": "scope",
              "type": "uint256"
            },
            {
              "internalType": "uint256[8]",
              "name": "points",
              "type": "uint256[8]"
            }
          ],
          "internalType": "struct ISemaphore.SemaphoreProof",
          "name": "proof",
          "type": "tuple"
        }
      ],
      "name": "verifyProof",
      "outputs": [
        {
          "internalType": "bool",
          "name": "",
          "type": "bool"
        }
      ],
      "stateMutability": "view",
      "type": "function"
    }
  ],
  "bytecode": "0x608060405234801561000f575f80fd5b50604051611f8d380380611f8d83398101604081905261002e91610053565b600380546001600160a01b0319166001600160a01b0392909216919091179055610080565b5f60208284031215610063575f80fd5b81516001600160a01b0381168114610079575f80fd5b9392505050565b611f008061008d5f395ff3fe608060405234801561000f575f80fd5b5060043610610132575f3560e01c80636389e107116100b4578063a9961c9411610079578063a9961c94146102ac578063d0d898dd146102d4578063d24924fe146102e7578063da3cda52146102f0578063dabc4d5114610303578063fcf0b6ec14610316575f80fd5b80636389e107146102265780636cdd32fe146102485780637ee35a0c1461025b57806390509d441461027a57806396324bd41461028d575f80fd5b80634178c4d5116100fa5780634178c4d5146101c2578063456f4188146101d5578063568ee826146101f8578063575185ed1461020b5780635c3f3b6014610213575f80fd5b8063042453711461013657806306dd84851461014b5780631783efc3146101715780632b7ac3f3146101845780632c880363146101af575b5f80fd5b610149610144366004611994565b610329565b005b61015e6101593660046119dc565b61035a565b6040519081526020015b60405180910390f35b61014961017f3660046119dc565b61037a565b600354610197906001600160a01b031681565b6040516001600160a01b039091168152602001610168565b61015e6101bd366004611a17565b6103a9565b6101496101d0366004611a3f565b6103df565b6101e86101e3366004611a9b565b610414565b6040519015158152602001610168565b610149610206366004611ad2565b610673565b61015e610681565b61015e610221366004611afc565b6106b6565b61015e610234366004611b15565b5f9081526020819052604090206001015490565b610149610256366004611b2c565b6106ed565b61015e610269366004611b15565b5f9081526020819052604090205490565b6101e86102883660046119dc565b610720565b61015e61029b366004611b15565b60046020525f908152604090205481565b6101976102ba366004611b15565b5f908152600160205260409020546001600160a01b031690565b6101496102e2366004611a9b565b610741565b61015e60055481565b6101496102fe366004611b15565b610829565b61015e610311366004611b15565b610835565b6101496103243660046119dc565b610858565b5f6103358484846108e6565b5f94855260046020908152604080872092875260019092019052909320429055505050565b5f8281526020819052604081206103719083610982565b90505b92915050565b5f61038583836109cd565b5f938452600460209081526040808620928652600190920190529092204290555050565b600580545f91826103b983611b8f565b9190505590506103c98184610a6d565b5f81815260046020526040902091909155919050565b5f6103ed8686868686610af5565b5f968752600460209081526040808920928952600190920190529095204290555050505050565b5f8281526001602052604081205483906001600160a01b031661044a5760405163029f057960e01b815260040160405180910390fd5b60018335108061045b575060208335115b156104795760405163767b278960e11b815260040160405180910390fd5b5f84815260208190526040812054908190036104a85760405163c8b02e0160e01b815260040160405180910390fd5b5f6104b286610835565b905080856020013514610536575f868152600460208181526040808420898301358552600181018352908420548a855292909152549091829003610509576040516326994ac360e11b815260040160405180910390fd5b6105138183611ba7565b421115610533576040516309581a9960e41b815260040160405180910390fd5b50505b60035460408051808201825260a0880135815260c088013560208083019190915282516080808201855260e08b01358286019081526101008c0135606080850191909152908352855180870187526101208d013581526101408d01358186015283850152855180870187526101608d013581526101808d01358186015286519283018752848d013583528c870135948301949094526001600160a01b039096169563a23f0199959293928201906105ef908d0135610bb9565b81526020016106018c60800135610bb9565b90526040516001600160e01b031960e087901b16815261062a94939291908c3590600401611c18565b602060405180830381865afa158015610645573d5f803e3d5ffd5b505050506040513d601f19601f820116820180604052508101906106699190611ca8565b9695505050505050565b61067d8282610bef565b5050565b600580545f918261069183611b8f565b9190505590506106a18133610a6d565b5f818152600460205260409020610e10905590565b600580545f91826106c683611b8f565b9190505590506106d68183610a6d565b5f818152600460205260409020610e109055919050565b5f6106fa85858585610c81565b5f9586526004602090815260408088209288526001909201905290942042905550505050565b5f828152602081815260408083208484526003019091528120541515610371565b5f82815260046020908152604080832084820135845260020190915290205460ff16156107815760405163041162bd60e31b815260040160405180910390fd5b61078b8282610414565b6107a85760405163012a9af160e61b815260040160405180910390fd5b5f828152600460209081526040808320848201358085526002909101835292819020805460ff1916600117905551608084013592918401359185917f0c32e14cfe81a05d371c248d22de6b7ae849e981b76a1f8842e7b6da73fc405a9161081d918735919060608901359060a08a0190611cce565b60405180910390a45050565b61083281610d3c565b50565b5f8181526020818152604080832060018101548452600201909152812054610374565b5f8281526001602052604090205482906001600160a01b03163314610890576040516317737e4f60e31b815260040160405180910390fd5b5f8381526004602090815260409182902080549085905582518181529182018590529185917f264b2a8f6763c084235fe832ba903482b2ef1a521336881fc75b987c2dfd29c5910160405180910390a250505050565b5f8381526001602052604081205484906001600160a01b0316331461091e576040516317737e4f60e31b815260040160405180910390fd5b5f858152602081905260409020805490610939908686610ddf565b9250857f61e5e8054e3daf084a0c6c646c065e8bf5e7ca4d5567bda942309bd1652f349d828787876040516109719493929190611cf6565b60405180910390a250509392505050565b5f81815260038301602052604081205481036109b157604051631c811d5b60e21b815260040160405180910390fd5b5f82815260038401602052604090205461037190600190611d3a565b5f8281526001602052604081205483906001600160a01b03163314610a05576040516317737e4f60e31b815260040160405180910390fd5b5f848152602081905260409020805490610a1f90856112f0565b604080518381526020810187905290810182905290935085907f19239b3f93cd10558aaf11423af70c77763bf54f52bcc75bfa74d4d13548cde99060600160405180910390a2505092915050565b5f8281526001602052604080822080546001600160a01b0319166001600160a01b0385161790555183917ff0adfb94eab6daf835deb69c5738fe636150c3dfd08094a76f39b963dc8cb05a91a26040516001600160a01b038216905f9084907f0ba83579a0e79193ef649b9f5a8759d35af086ba62a3e207b52e4a8ae30d49e3908390a45050565b5f8581526001602052604081205486906001600160a01b03163314610b2d576040516317737e4f60e31b815260040160405180910390fd5b5f878152602081905260408120610b449088610982565b5f898152602081905260409020909150610b6190888888886114af565b60408051838152602081018a90529081018890526060810182905290935088907fea3588e4a2a0c93d6a0e69dfeaf7496f43ccccf02ad9ce0a5b7627cbca4b61b19060800160405180910390a2505095945050505050565b5f600882604051602001610bcf91815260200190565b60408051601f198184030181529190528051602090910120901c92915050565b5f8281526001602052604090205482906001600160a01b03163314610c27576040516317737e4f60e31b815260040160405180910390fd5b5f8381526002602052604080822080546001600160a01b0319166001600160a01b03861690811790915590519091339186917f1018365553cce55d9cb02ef73e18cc9311894f3fe1d1eafd235ac2d26cd8ba5891a4505050565b5f8481526001602052604081205485906001600160a01b03163314610cb9576040516317737e4f60e31b815260040160405180910390fd5b5f868152602081905260408120610cd09087610982565b5f888152602081905260409020909150610cec90878787611935565b604080518381526020810189905290810182905290935087907f3108849c053c77b8073a11256dffb5ffd5b55e93e105a355e1c9061db890d8719060600160405180910390a25050949350505050565b5f818152600260205260409020546001600160a01b03163314610d72576040516334c4245d60e01b815260040160405180910390fd5b5f8181526001602090815260408083208054336001600160a01b031980831682179093556002909452828520805490921690915590516001600160a01b0390911692839185917f0ba83579a0e79193ef649b9f5a8759d35af086ba62a3e207b52e4a8ae30d49e391a45050565b82545f90815b83811015610f0a575f80516020611eab833981519152858583818110610e0d57610e0d611bba565b9050602002013510610e32576040516361c0541760e11b815260040160405180910390fd5b848482818110610e4457610e44611bba565b905060200201355f03610e6a576040516314b48df160e11b815260040160405180910390fd5b610e9e86868684818110610e8057610e80611bba565b905060200201355f9081526003919091016020526040902054151590565b15610ebc576040516312c50cad60e11b815260040160405180910390fd5b80610ec8836001611ba7565b610ed29190611ba7565b866003015f878785818110610ee957610ee9611bba565b602090810292909201358352508101919091526040015f2055600101610de5565b5060608484808060200260200160405190810160405280939291908181526020018383602002808284375f9201919091525050506001880154919250505b610f528584611ba7565b610f5d826002611e2d565b1015610f7357610f6c81611b8f565b9050610f48565b60018701819055825f610f868783611ba7565b9050600182811c905f90610f9a8185611d3a565b610fa6911c6001611ba7565b90505f5b85811015611288575f610fbd8484611d3a565b90505f8167ffffffffffffffff811115610fd957610fd9611e38565b604051908082528060200260200182016040528015611002578160200160208202803683370190505b5090505f5b828110156111b7575f8861101b8884611ba7565b611026906002611e4c565b1015611047578f6002015f8681526020019081526020015f20549050611083565b8a896110538985611ba7565b61105e906002611e4c565b6110689190611d3a565b8151811061107857611078611bba565b602002602001015190505b5f8861108f8985611ba7565b61109a906002611e4c565b6110a5906001611ba7565b10156110f2578b8a6110b78a86611ba7565b6110c2906002611e4c565b6110cd906001611ba7565b6110d79190611d3a565b815181106110e7576110e7611bba565b602002602001015190505b5f811561118757604080518082018252848152602081018490529051632b0aac7f60e11b815273__$078c82ddf6c95d34ea184ef1dd6130d136$__9163561558fe916111419190600401611e63565b602060405180830381865af415801561115c573d5f803e3d5ffd5b505050506040513d601f19601f820116820180604052508101906111809190611e93565b905061118a565b50815b8085858151811061119d5761119d611bba565b602002602001018181525050836001019350505050611007565b5085600116600103611206578860018a516111d29190611d3a565b815181106111e2576111e2611bba565b60200260200101518e6002015f8581526020019081526020015f208190555061124f565b60018951111561124f578860028a5161121f9190611d3a565b8151811061122f5761122f611bba565b60200260200101518e6002015f8581526020019081526020015f20819055505b849650600185901c94508098508395506001808561126d9190611d3a565b611279911c6001611ba7565b93508260010192505050610faa565b506112938988611ba7565b8b55855186905f906112a7576112a7611bba565b60200260200101518b6002015f8781526020019081526020015f2081905550855f815181106112d8576112d8611bba565b60200260200101519750505050505050509392505050565b5f5f80516020611eab833981519152821061131e576040516361c0541760e11b815260040160405180910390fd5b815f0361133e576040516314b48df160e11b815260040160405180910390fd5b5f8281526003840160205260409020541561136c576040516312c50cad60e11b815260040160405180910390fd5b825460018085015490611380908390611ba7565b61138b826002611e2d565b101561139d5761139a81611b8f565b90505b60018501819055835f5b82811015611475578084901c60011660010361145a576040805180820182525f83815260028a0160209081529083902054825281018490529051632b0aac7f60e11b815273__$078c82ddf6c95d34ea184ef1dd6130d136$__9163561558fe916114149190600401611e63565b602060405180830381865af415801561142f573d5f803e3d5ffd5b505050506040513d601f19601f820116820180604052508101906114539190611e93565b915061146d565b5f81815260028801602052604090208290555b6001016113a7565b5061147f83611b8f565b8087555f928352600287016020908152604080852084905596845260039097019096529390209390935550919050565b5f5f80516020611eab83398151915284106114dd576040516361c0541760e11b815260040160405180910390fd5b5f85815260038701602052604090205461150a57604051631c811d5b60e21b815260040160405180910390fd5b5f84815260038701602052604090205415611538576040516312c50cad60e11b815260040160405180910390fd5b5f6115438787610982565b8754909150859087905f9061155a90600190611d3a565b60018b01549091505f90815b818110156118b0578087901c600116600103611714575f80516020611eab8339815191528a8a8581811061159c5761159c611bba565b90506020020135106115c1576040516361c0541760e11b815260040160405180910390fd5b73__$078c82ddf6c95d34ea184ef1dd6130d136$__63561558fe60405180604001604052808d8d888181106115f8576115f8611bba565b905060200201358152602001898152506040518263ffffffff1660e01b81526004016116249190611e63565b602060405180830381865af415801561163f573d5f803e3d5ffd5b505050506040513d601f19601f820116820180604052508101906116639190611e93565b955073__$078c82ddf6c95d34ea184ef1dd6130d136$__63561558fe60405180604001604052808d8d8881811061169c5761169c611bba565b905060200201358152602001888152506040518263ffffffff1660e01b81526004016116c89190611e63565b602060405180830381865af41580156116e3573d5f803e3d5ffd5b505050506040513d601f19601f820116820180604052508101906117079190611e93565b94508260010192506118a8565b86811c84821c14611895575f80516020611eab8339815191528a8a8581811061173f5761173f611bba565b9050602002013510611764576040516361c0541760e11b815260040160405180910390fd5b5f81815260028e01602052604090205485900361178e575f81815260028e01602052604090208690555b73__$078c82ddf6c95d34ea184ef1dd6130d136$__63561558fe60405180604001604052808981526020018d8d888181106117cb576117cb611bba565b905060200201358152506040518263ffffffff1660e01b81526004016117f19190611e63565b602060405180830381865af415801561180c573d5f803e3d5ffd5b505050506040513d601f19601f820116820180604052508101906118309190611e93565b955073__$078c82ddf6c95d34ea184ef1dd6130d136$__63561558fe60405180604001604052808881526020018d8d8881811061186f5761186f611bba565b905060200201358152506040518263ffffffff1660e01b81526004016116c89190611e63565b5f81815260028e01602052604090208690555b600101611566565b5060018c01545f90815260028d01602052604090205484146118e557604051631fd4986360e11b815260040160405180910390fd5b5f81815260028d01602052604090208590558915611915575f8b815260038d016020526040808220548c83529120555b5050505f88815260038a0160205260408120555091505095945050505050565b5f61194385855f86866114af565b95945050505050565b5f8083601f84011261195c575f80fd5b50813567ffffffffffffffff811115611973575f80fd5b6020830191508360208260051b850101111561198d575f80fd5b9250929050565b5f805f604084860312156119a6575f80fd5b83359250602084013567ffffffffffffffff8111156119c3575f80fd5b6119cf8682870161194c565b9497909650939450505050565b5f80604083850312156119ed575f80fd5b50508035926020909101359150565b80356001600160a01b0381168114611a12575f80fd5b919050565b5f8060408385031215611a28575f80fd5b611a31836119fc565b946020939093013593505050565b5f805f805f60808688031215611a53575f80fd5b853594506020860135935060408601359250606086013567ffffffffffffffff811115611a7e575f80fd5b611a8a8882890161194c565b969995985093965092949392505050565b5f808284036101c0811215611aae575f80fd5b833592506101a0601f1982011215611ac4575f80fd5b506020830190509250929050565b5f8060408385031215611ae3575f80fd5b82359150611af3602084016119fc565b90509250929050565b5f60208284031215611b0c575f80fd5b610371826119fc565b5f60208284031215611b25575f80fd5b5035919050565b5f805f8060608587031215611b3f575f80fd5b8435935060208501359250604085013567ffffffffffffffff811115611b63575f80fd5b611b6f8782880161194c565b95989497509550505050565b634e487b7160e01b5f52601160045260245ffd5b5f60018201611ba057611ba0611b7b565b5060010190565b8082018082111561037457610374611b7b565b634e487b7160e01b5f52603260045260245ffd5b805f5b6002811015611bf0578151845260209384019390910190600101611bd1565b50505050565b805f5b6004811015611bf0578151845260209384019390910190600101611bf9565b6101a08101611c278288611bce565b6040808301875f5b6002808210611c3e5750611c78565b8251845f5b83811015611c61578251825260209283019290910190600101611c43565b505050928401925060209190910190600101611c2f565b50505050611c8960c0830186611bce565b611c97610100830185611bf6565b826101808301529695505050505050565b5f60208284031215611cb8575f80fd5b81518015158114611cc7575f80fd5b9392505050565b8481526020810184905260408101839052610160810161010083606084013795945050505050565b84815260606020820181905281018390525f6001600160fb1b03841115611d1b575f80fd5b8360051b80866080850137604083019390935250016080019392505050565b8181038181111561037457610374611b7b565b600181815b80851115611d8757815f1904821115611d6d57611d6d611b7b565b80851615611d7a57918102915b93841c9390800290611d52565b509250929050565b5f82611d9d57506001610374565b81611da957505f610374565b8160018114611dbf5760028114611dc957611de5565b6001915050610374565b60ff841115611dda57611dda611b7b565b50506001821b610374565b5060208310610133831016604e8410600b8410161715611e08575081810a610374565b611e128383611d4d565b805f1904821115611e2557611e25611b7b565b029392505050565b5f6103718383611d8f565b634e487b7160e01b5f52604160045260245ffd5b808202811582820484141761037457610374611b7b565b6040810181835f5b6002811015611e8a578151835260209283019290910190600101611e6b565b50505092915050565b5f60208284031215611ea3575f80fd5b505191905056fe30644e72e131a029b85045b68181585d2833e84879b9709143e1f593f0000001a2646970667358221220179a681fda0053e8014607cbef95cfab2c73f713a78bc861c462e3b79f274a1364736f6c63430008180033",
  "linkReferences": {
    "npm/poseidon-solidity@0.0.5/PoseidonT3.sol": {
      "PoseidonT3": [
        {
          "length": 20,
          "start": 4519
        },
        {
          "length": 20,
          "start": 5242
        },
        {
          "length": 20,
          "start": 5712
        },
        {
          "length": 20,
          "start": 5876
        },
        {
          "length": 20,
          "start": 6173
        },
        {
          "length": 20,
          "start": 6337
        }
      ]
    }
  },
  "deployedLinkReferences": {
    "npm/poseidon-solidity@0.0.5/PoseidonT3.sol": {
      "PoseidonT3": [
        {
          "length": 20,
          "start": 4378
        },
        {
          "length": 20,
          "start": 5101
        },
        {
          "length": 20,
          "start": 5571
        },
        {
          "length": 20,
          "start": 5735
        },
        {
          "length": 20,
          "start": 6032
        },
        {
          "length": 20,
          "start": 6196
        }
      ]
    }
  },
  "immutableReferences": {},
  "inputSourceName": "project/contracts/SemaphoreImports.sol",
  "buildInfoId": "solc-0_8_24-709796b8ef6c2b9a9d639ce7019eaecb2d545516"
}