{
  "_format": "hh3-artifact-1",
  "contractName": "AccessControl",
  "sourceName": "contracts/AccessControl.sol",
  "abi": [
    {
      "inputs": [
        {
          "internalType": "address",
          "name": "initialOwner",
          "type": "address"
        }
      ],
      "stateMutability": "nonpayable",
      "type": "constructor"
    },
    {
      "inputs": [
        {
          "internalType": "address",
          "name": "owner",
          "type": "address"
        }
      ],
      "name": "OwnableInvalidOwner",
      "type": "error"
    },
    {
      "inputs": [
        {
          "internalType": "address",
          "name": "account",
          "type": "address"
        }
      ],
      "name": "OwnableUnauthorizedAccount",
      "type": "error"
    },
    {
      "anonymous": false,
      "inputs": [
        {
          "indexed": true,
          "internalType": "uint256",
          "name": "nullifier",
          "type": "uint256"
        },
        {
          "indexed": false,
          "internalType": "bytes32",
          "name": "dataHash",
          "type": "bytes32"
        }
      ],
      "name": "AccessGranted",
      "type": "event"
    },
    {
      "anonymous": false,
      "inputs": [
        {
          "indexed": true,
          "internalType": "address",
          "name": "viewer",
          "type": "address"
        }
      ],
      "name": "AccessRevoked",
      "type": "event"
    },
    {
      "anonymous": false,
      "inputs": [
        {
          "indexed": true,
          "internalType": "address",
          "name": "previousOwner",
          "type": "address"
        },
        {
          "indexed": true,
          "internalType": "address",
          "name": "newOwner",
          "type": "address"
        }
      ],
      "name": "OwnershipTransferred",
      "type": "event"
    },
    {
      "anonymous": false,
      "inputs": [
        {
          "indexed": false,
          "internalType": "address",
          "name": "semaphoreAddress",
          "type": "address"
        },
        {
          "indexed": false,
          "internalType": "uint256",
          "name": "groupId",
          "type": "uint256"
        }
      ],
      "name": "SemaphoreConfigured",
      "type": "event"
    },
    {
      "inputs": [],
      "name": "authorizedViewersGroupId",
      "outputs": [
        {
          "internalType": "uint256",
          "name": "",
          "type": "uint256"
        }
      ],
      "stateMutability": "view",
      "type": "function"
    },
    {
      "inputs": [
        {
          "internalType": "address",
          "name": "_semaphoreAddress",
          "type": "address"
        },
        {
          "internalType": "uint256",
          "name": "_groupId",
          "type": "uint256"
        }
      ],
      "name": "configureSemaphore",
      "outputs": [],
      "stateMutability": "nonpayable",
      "type": "function"
    },
    {
      "inputs": [
        {
          "internalType": "uint256",
          "name": "nullifier",
          "type": "uint256"
        }
      ],
      "name": "hasUsedNullifier",
      "outputs": [
        {
          "internalType": "bool",
          "name": "",
          "type": "bool"
        }
      ],
      "stateMutability": "view",
      "type": "function"
    },
    {
      "inputs": [],
      "name": "owner",
      "outputs": [
        {
          "internalType": "address",
          "name": "",
          "type": "address"
        }
      ],
      "stateMutability": "view",
      "type": "function"
    },
    {
      "inputs": [
        {
          "internalType": "uint256",
          "name": "nullifier",
          "type": "uint256"
        },
        {
          "internalType": "bytes32",
          "name": "dataHash",
          "type": "bytes32"
        }
      ],
      "name": "recordAccess",
      "outputs": [],
      "stateMutability": "nonpayable",
      "type": "function"
    },
    {
      "inputs": [],
      "name": "renounceOwnership",
      "outputs": [],
      "stateMutability": "nonpayable",
      "type": "function"
    },
    {
      "inputs": [],
      "name": "semaphoreAddress",
      "outputs": [
        {
          "internalType": "address",
          "name": "",
          "type": "address"
        }
      ],
      "stateMutability": "view",
      "type": "function"
    },
    {
      "inputs": [
        {
          "internalType": "address",
          "name": "newOwner",
          "type": "address"
        }
      ],
      "name": "transferOwnership",
      "outputs": [],
      "stateMutability": "nonpayable",
      "type": "function"
    },
    {
      "inputs": [
        {
          "internalType": "uint256",
          "name": "",
          "type": "uint256"
        }
      ],
      "name": "usedNullifiers",
      "outputs": [
        {
          "internalType": "bool",
          "name": "",
          "type": "bool"
        }
      ],
      "stateMutability": "view",
      "type": "function"
    }
  ],
  "bytecode": "0x608060405234801561000f575f80fd5b5060405161053138038061053183398101604081905261002e916100bb565b806001600160a01b03811661005c57604051631e4fbdf760e01b81525f600482015260240160405180910390fd5b6100658161006c565b50506100e8565b5f80546001600160a01b038381166001600160a01b0319831681178455604051919092169283917f8be0079c531659141344cd1fd0a4f28419497f9722a3daafe3b4186f6b6457e09190a35050565b5f602082840312156100cb575f80fd5b81516001600160a01b03811681146100e1575f80fd5b9392505050565b61043c806100f55f395ff3fe608060405234801561000f575f80fd5b5060043610610090575f3560e01c8063aad2406111610063578063aad240611461010c578063b475382e1461012e578063ba6757c814610145578063f2fde38b14610158578063f7da2ac91461016b575f80fd5b8063145f981b14610094578063252bb74c146100cb578063715018a6146100e05780638da5cb5b146100e8575b5f80fd5b6100b66100a236600461036c565b5f9081526003602052604090205460ff1690565b60405190151581526020015b60405180910390f35b6100de6100d936600461039e565b61017e565b005b6100de610241565b5f546001600160a01b03165b6040516001600160a01b0390911681526020016100c2565b6100b661011a36600461036c565b60036020525f908152604090205460ff1681565b61013760015481565b6040519081526020016100c2565b6100de6101533660046103c6565b610254565b6100de6101663660046103e6565b6102b4565b6002546100f4906001600160a01b031681565b6101866102f1565b6001600160a01b0382166101e15760405162461bcd60e51b815260206004820152601b60248201527f416363657373436f6e74726f6c3a207a65726f2061646472657373000000000060448201526064015b60405180910390fd5b600280546001600160a01b0319166001600160a01b038416908117909155600182905560408051918252602082018390527f3b7c0e890a96c9e0840b38391a7580ff07a1edeabf06d761d892c78f558d049a910160405180910390a15050565b6102496102f1565b6102525f61031d565b565b61025c6102f1565b5f8281526003602052604090819020805460ff191660011790555182907faf2c72f11f7332d80507247366967b924b0112f55d1413c5c13d198593e7abfd906102a89084815260200190565b60405180910390a25050565b6102bc6102f1565b6001600160a01b0381166102e557604051631e4fbdf760e01b81525f60048201526024016101d8565b6102ee8161031d565b50565b5f546001600160a01b031633146102525760405163118cdaa760e01b81523360048201526024016101d8565b5f80546001600160a01b038381166001600160a01b0319831681178455604051919092169283917f8be0079c531659141344cd1fd0a4f28419497f9722a3daafe3b4186f6b6457e09190a35050565b5f6020828403121561037c575f80fd5b5035919050565b80356001600160a01b0381168114610399575f80fd5b919050565b5f80604083850312156103af575f80fd5b6103b883610383565b946020939093013593505050565b5f80604083850312156103d7575f80fd5b50508035926020909101359150565b5f602082840312156103f6575f80fd5b6103ff82610383565b939250505056fea2646970667358221220ab66f599e36286022a7e243478b652766f005f435b73a56f90fcb3009f6be24564736f6c63430008180033",
  "linkReferences": {},
  "deployedLinkReferences": {},
  "immutableReferences": {},
  "inputSourceName": "project/contracts/AccessControl.sol",
  "buildInfoId": "solc-0_8_24-4821464ccb8cc3a8a6579b216fc997c66ef6f672"
}