{
  "_format": "hh3-artifact-1",
  "contractName": "CreditPassport",
  "sourceName": "contracts/CreditPassport.sol",
  "abi": [
    {
      "inputs": [
        {
          "internalType": "address",
          "name": "initialOwner",
          "type": "address"
        }
      ],
      "stateMutability": "nonpayable",
      "type": "constructor"
    },
    {
      "inputs": [
        {
          "internalType": "address",
          "name": "sender",
          "type": "address"
        },
        {
          "internalType": "uint256",
          "name": "tokenId",
          "type": "uint256"
        },
        {
          "internalType": "address",
          "name": "owner",
          "type": "address"
        }
      ],
      "name": "ERC721IncorrectOwner",
      "type": "error"
    },
    {
      "inputs": [
        {
          "internalType": "address",
          "name": "operator",
          "type": "address"
        },
        {
          "internalType": "uint256",
          "name": "tokenId",
          "type": "uint256"
        }
      ],
      "name": "ERC721InsufficientApproval",
      "type": "error"
    },
    {
      "inputs": [
        {
          "internalType": "address",
          "name": "approver",
          "type": "address"
        }
      ],
      "name": "ERC721InvalidApprover",
      "type": "error"
    },
    {
      "inputs": [
        {
          "internalType": "address",
          "name": "operator",
          "type": "address"
        }
      ],
      "name": "ERC721InvalidOperator",
      "type": "error"
    },
    {
      "inputs": [
        {
          "internalType": "address",
          "name": "owner",
          "type": "address"
        }
      ],
      "name": "ERC721InvalidOwner",
      "type": "error"
    },
    {
      "inputs": [
        {
          "internalType": "address",
          "name": "receiver",
          "type": "address"
        }
      ],
      "name": "ERC721InvalidReceiver",
      "type": "error"
    },
    {
      "inputs": [
        {
          "internalType": "address",
          "name": "sender",
          "type": "address"
        }
      ],
      "name": "ERC721InvalidSender",
      "type": "error"
    },
    {
      "inputs": [
        {
          "internalType": "uint256",
          "name": "tokenId",
          "type": "uint256"
        }
      ],
      "name": "ERC721NonexistentToken",
      "type": "error"
    },
    {
      "inputs": [
        {
          "internalType": "address",
          "name": "owner",
          "type": "address"
        }
      ],
      "name": "OwnableInvalidOwner",
      "type": "error"
    },
    {
      "inputs": [
        {
          "internalType": "address",
          "name": "account",
          "type": "address"
        }
      ],
      "name": "OwnableUnauthorizedAccount",
      "type": "error"
    },
    {
      "anonymous": false,
      "inputs": [
        {
          "indexed": true,
          "internalType": "address",
          "name": "owner",
          "type": "address"
        },
        {
          "indexed": true,
          "internalType": "address",
          "name": "approved",
          "type": "address"
        },
        {
          "indexed": true,
          "internalType": "uint256",
          "name": "tokenId",
          "type": "uint256"
        }
      ],
      "name": "Approval",
      "type": "event"
    },
    {
      "anonymous": false,
      "inputs": [
        {
          "indexed": true,
          "internalType": "address",
          "name": "owner",
          "type": "address"
        },
        {
          "indexed": true,
          "internalType": "address",
          "name": "operator",
          "type": "address"
        },
        {
          "indexed": false,
          "internalType": "bool",
          "name": "approved",
          "type": "bool"
        }
      ],
      "name": "ApprovalForAll",
      "type": "event"
    },
    {
      "anonymous": false,
      "inputs": [
        {
          "indexed": true,
          "internalType": "uint256",
          "name": "tokenId",
          "type": "uint256"
        },
        {
          "indexed": false,
          "internalType": "string",
          "name": "newMetadataURI",
          "type": "string"
        }
      ],
      "name": "MetadataUpdated",
      "type": "event"
    },
    {
      "anonymous": false,
      "inputs": [
        {
          "indexed": true,
          "internalType": "address",
          "name": "previousOwner",
          "type": "address"
        },
        {
          "indexed": true,
          "internalType": "address",
          "name": "newOwner",
          "type": "address"
        }
      ],
      "name": "OwnershipTransferred",
      "type": "event"
    },
    {
      "anonymous": false,
      "inputs": [
        {
          "indexed": true,
          "internalType": "uint256",
          "name": "tokenId",
          "type": "uint256"
        },
        {
          "indexed": true,
          "internalType": "address",
          "name": "farmer",
          "type": "address"
        },
        {
          "indexed": false,
          "internalType": "string",
          "name": "metadataURI",
          "type": "string"
        }
      ],
      "name": "PassportMinted",
      "type": "event"
    },
    {
      "anonymous": false,
      "inputs": [
        {
          "indexed": true,
          "internalType": "address",
          "name": "from",
          "type": "address"
        },
        {
          "indexed": true,
          "internalType": "address",
          "name": "to",
          "type": "address"
        },
        {
          "indexed": true,
          "internalType": "uint256",
          "name": "tokenId",
          "type": "uint256"
        }
      ],
      "name": "Transfer",
      "type": "event"
    },
    {
      "inputs": [
        {
          "internalType": "address",
          "name": "to",
          "type": "address"
        },
        {
          "internalType": "uint256",
          "name": "tokenId",
          "type": "uint256"
        }
      ],
      "name": "approve",
      "outputs": [],
      "stateMutability": "nonpayable",
      "type": "function"
    },
    {
      "inputs": [
        {
          "internalType": "address",
          "name": "owner",
          "type": "address"
        }
      ],
      "name": "balanceOf",
      "outputs": [
        {
          "internalType": "uint256",
          "name": "",
          "type": "uint256"
        }
      ],
      "stateMutability": "view",
      "type": "function"
    },
    {
      "inputs": [
        {
          "internalType": "uint256",
          "name": "tokenId",
          "type": "uint256"
        }
      ],
      "name": "burn",
      "outputs": [],
      "stateMutability": "nonpayable",
      "type": "function"
    },
    {
      "inputs": [
        {
          "internalType": "uint256",
          "name": "tokenId",
          "type": "uint256"
        }
      ],
      "name": "getApproved",
      "outputs": [
        {
          "internalType": "address",
          "name": "",
          "type": "address"
        }
      ],
      "stateMutability": "view",
      "type": "function"
    },
    {
      "inputs": [
        {
          "internalType": "address",
          "name": "farmer",
          "type": "address"
        }
      ],
      "name": "getTokenIdByFarmer",
      "outputs": [
        {
          "internalType": "uint256",
          "name": "",
          "type": "uint256"
        }
      ],
      "stateMutability": "view",
      "type": "function"
    },
    {
      "inputs": [
        {
          "internalType": "address",
          "name": "owner",
          "type": "address"
        },
        {
          "internalType": "address",
          "name": "operator",
          "type": "address"
        }
      ],
      "name": "isApprovedForAll",
      "outputs": [
        {
          "internalType": "bool",
          "name": "",
          "type": "bool"
        }
      ],
      "stateMutability": "view",
      "type": "function"
    },
    {
      "inputs": [
        {
          "internalType": "address",
          "name": "farmer",
          "type": "address"
        },
        {
          "internalType": "string",
          "name": "metadataURI",
          "type": "string"
        }
      ],
      "name": "mintPassport",
      "outputs": [
        {
          "internalType": "uint256",
          "name": "",
          "type": "uint256"
        }
      ],
      "stateMutability": "nonpayable",
      "type": "function"
    },
    {
      "inputs": [],
      "name": "name",
      "outputs": [
        {
          "internalType": "string",
          "name": "",
          "type": "string"
        }
      ],
      "stateMutability": "view",
      "type": "function"
    },
    {
      "inputs": [],
      "name": "owner",
      "outputs": [
        {
          "internalType": "address",
          "name": "",
          "type": "address"
        }
      ],
      "stateMutability": "view",
      "type": "function"
    },
    {
      "inputs": [
        {
          "internalType": "uint256",
          "name": "tokenId",
          "type": "uint256"
        }
      ],
      "name": "ownerOf",
      "outputs": [
        {
          "internalType": "address",
          "name": "",
          "type": "address"
        }
      ],
      "stateMutability": "view",
      "type": "function"
    },
    {
      "inputs": [],
      "name": "renounceOwnership",
      "outputs": [],
      "stateMutability": "nonpayable",
      "type": "function"
    },
    {
      "inputs": [
        {
          "internalType": "address",
          "name": "from",
          "type": "address"
        },
        {
          "internalType": "address",
          "name": "to",
          "type": "address"
        },
        {
          "internalType": "uint256",
          "name": "tokenId",
          "type": "uint256"
        }
      ],
      "name": "safeTransferFrom",
      "outputs": [],
      "stateMutability": "nonpayable",
      "type": "function"
    },
    {
      "inputs": [
        {
          "internalType": "address",
          "name": "from",
          "type": "address"
        },
        {
          "internalType": "address",
          "name": "to",
          "type": "address"
        },
        {
          "internalType": "uint256",
          "name": "tokenId",
          "type": "uint256"
        },
        {
          "internalType": "bytes",
          "name": "data",
          "type": "bytes"
        }
      ],
      "name": "safeTransferFrom",
      "outputs": [],
      "stateMutability": "nonpayable",
      "type": "function"
    },
    {
      "inputs": [
        {
          "internalType": "address",
          "name": "operator",
          "type": "address"
        },
        {
          "internalType": "bool",
          "name": "approved",
          "type": "bool"
        }
      ],
      "name": "setApprovalForAll",
      "outputs": [],
      "stateMutability": "nonpayable",
      "type": "function"
    },
    {
      "inputs": [
        {
          "internalType": "bytes4",
          "name": "interfaceId",
          "type": "bytes4"
        }
      ],
      "name": "supportsInterface",
      "outputs": [
        {
          "internalType": "bool",
          "name": "",
          "type": "bool"
        }
      ],
      "stateMutability": "view",
      "type": "function"
    },
    {
      "inputs": [],
      "name": "symbol",
      "outputs": [
        {
          "internalType": "string",
          "name": "",
          "type": "string"
        }
      ],
      "stateMutability": "view",
      "type": "function"
    },
    {
      "inputs": [
        {
          "internalType": "uint256",
          "name": "tokenId",
          "type": "uint256"
        }
      ],
      "name": "tokenURI",
      "outputs": [
        {
          "internalType": "string",
          "name": "",
          "type": "string"
        }
      ],
      "stateMutability": "view",
      "type": "function"
    },
    {
      "inputs": [
        {
          "internalType": "address",
          "name": "from",
          "type": "address"
        },
        {
          "internalType": "address",
          "name": "to",
          "type": "address"
        },
        {
          "internalType": "uint256",
          "name": "tokenId",
          "type": "uint256"
        }
      ],
      "name": "transferFrom",
      "outputs": [],
      "stateMutability": "nonpayable",
      "type": "function"
    },
    {
      "inputs": [
        {
          "internalType": "address",
          "name": "newOwner",
          "type": "address"
        }
      ],
      "name": "transferOwnership",
      "outputs": [],
      "stateMutability": "nonpayable",
      "type": "function"
    },
    {
      "inputs": [
        {
          "internalType": "uint256",
          "name": "tokenId",
          "type": "uint256"
        },
        {
          "internalType": "string",
          "name": "newMetadataURI",
          "type": "string"
        }
      ],
      "name": "updateMetadata",
      "outputs": [],
      "stateMutability": "nonpayable",
      "type": "function"
    }
  ],
  "bytecode": "0x6080604052600160075534801562000015575f80fd5b506040516200180938038062001809833981016040819052620000389162000133565b806040518060400160405280600f81526020016e10dc99591a5d0814185cdcdc1bdc9d608a1b81525060405180604001604052806005815260200164435041535360d81b815250815f90816200008f919062000200565b5060016200009e828262000200565b5050506001600160a01b038116620000cf57604051631e4fbdf760e01b81525f600482015260240160405180910390fd5b620000da81620000e2565b5050620002cc565b600680546001600160a01b038381166001600160a01b0319831681179093556040519116919082907f8be0079c531659141344cd1fd0a4f28419497f9722a3daafe3b4186f6b6457e0905f90a35050565b5f6020828403121562000144575f80fd5b81516001600160a01b03811681146200015b575f80fd5b9392505050565b634e487b7160e01b5f52604160045260245ffd5b600181811c908216806200018b57607f821691505b602082108103620001aa57634e487b7160e01b5f52602260045260245ffd5b50919050565b601f821115620001fb57805f5260205f20601f840160051c81016020851015620001d75750805b601f840160051c820191505b81811015620001f8575f8155600101620001e3565b50505b505050565b81516001600160401b038111156200021c576200021c62000162565b62000234816200022d845462000176565b84620001b0565b602080601f8311600181146200026a575f8415620002525750858301515b5f19600386901b1c1916600185901b178555620002c4565b5f85815260208120601f198616915b828110156200029a5788860151825594840194600190910190840162000279565b5085821015620002b857878501515f19600388901b60f8161c191681555b505060018460011b0185555b505050505050565b61152f80620002da5f395ff3fe608060405234801561000f575f80fd5b5060043610610127575f3560e01c8063715018a6116100a9578063b40089ad1161006e578063b40089ad1461026f578063b88d4fde14610297578063c87b56dd146102aa578063e985e9c5146102bd578063f2fde38b146102d0575f80fd5b8063715018a61461022857806378da4ce3146102305780638da5cb5b1461024357806395d89b4114610254578063a22cb4651461025c575f80fd5b806342842e0e116100ef57806342842e0e146101bb57806342966c68146101ce57806353c8388e146101e15780636352211e146101f457806370a0823114610207575f80fd5b806301ffc9a71461012b57806306fdde0314610153578063081812fc14610168578063095ea7b31461019357806323b872dd146101a8575b5f80fd5b61013e610139366004610fa5565b6102e3565b60405190151581526020015b60405180910390f35b61015b610334565b60405161014a919061100a565b61017b61017636600461101c565b6103c3565b6040516001600160a01b03909116815260200161014a565b6101a66101a136600461104e565b6103ea565b005b6101a66101b6366004611076565b6103f9565b6101a66101c9366004611076565b610487565b6101a66101dc36600461101c565b6104a6565b6101a66101ef3660046110f4565b6104ba565b61017b61020236600461101c565b610597565b61021a61021536600461113c565b6105a1565b60405190815260200161014a565b6101a66105e6565b61021a61023e366004611155565b6105f9565b6006546001600160a01b031661017b565b61015b6107b0565b6101a661026a36600461118b565b6107bf565b61021a61027d36600461113c565b6001600160a01b03165f9081526009602052604090205490565b6101a66102a53660046111d8565b6107ca565b61015b6102b836600461101c565b6107e2565b61013e6102cb3660046112ad565b6108af565b6101a66102de36600461113c565b6108dc565b5f6001600160e01b031982166380ac58cd60e01b148061031357506001600160e01b03198216635b5e139f60e01b145b8061032e57506301ffc9a760e01b6001600160e01b03198316145b92915050565b60605f8054610342906112de565b80601f016020809104026020016040519081016040528092919081815260200182805461036e906112de565b80156103b95780601f10610390576101008083540402835291602001916103b9565b820191905f5260205f20905b81548152906001019060200180831161039c57829003601f168201915b5050505050905090565b5f6103cd82610916565b505f828152600460205260409020546001600160a01b031661032e565b6103f582823361094e565b5050565b6001600160a01b03821661042757604051633250574960e11b81525f60048201526024015b60405180910390fd5b5f61043383833361095b565b9050836001600160a01b0316816001600160a01b031614610481576040516364283d7b60e01b81526001600160a01b038086166004830152602482018490528216604482015260640161041e565b50505050565b6104a183838360405180602001604052805f8152506107ca565b505050565b6104ae6109f5565b6104b781610a22565b50565b6104c26109f5565b5f6104cc84610597565b6001600160a01b0316036104f25760405162461bcd60e51b815260040161041e90611316565b8061053f5760405162461bcd60e51b815260206004820152601e60248201527f43726564697450617373706f72743a20656d707479206d657461646174610000604482015260640161041e565b5f83815260086020526040902061055782848361139b565b50827f459157ba24c7ab9878b165ef465fa6ae2ab42bcd8445f576be378768b0c47309838360405161058a929190611455565b60405180910390a2505050565b5f61032e82610916565b5f6001600160a01b0382166105cb576040516322718ad960e21b81525f600482015260240161041e565b506001600160a01b03165f9081526003602052604090205490565b6105ee6109f5565b6105f75f610a5a565b565b5f6106026109f5565b6001600160a01b0384166106585760405162461bcd60e51b815260206004820152601c60248201527f43726564697450617373706f72743a207a65726f206164647265737300000000604482015260640161041e565b6001600160a01b0384165f90815260096020526040902054156106d15760405162461bcd60e51b815260206004820152602b60248201527f43726564697450617373706f72743a206661726d657220616c7265616479206860448201526a185cc81c185cdcdc1bdc9d60aa1b606482015260840161041e565b8161071e5760405162461bcd60e51b815260206004820152601e60248201527f43726564697450617373706f72743a20656d707479206d657461646174610000604482015260640161041e565b60075461072c816001611483565b6007556107398582610aab565b5f81815260086020526040902061075184868361139b565b506001600160a01b0385165f81815260096020526040908190208390555182907f82893e64b9fe46558e37bd32a596842af2713920c37462d6ac700f4f8a161da1906107a09088908890611455565b60405180910390a3949350505050565b606060018054610342906112de565b6103f5338383610b0c565b6107d58484846103f9565b6104813385858585610baa565b60605f6107ee83610597565b6001600160a01b0316036108145760405162461bcd60e51b815260040161041e90611316565b5f828152600860205260409020805461082c906112de565b80601f0160208091040260200160405190810160405280929190818152602001828054610858906112de565b80156108a35780601f1061087a576101008083540402835291602001916108a3565b820191905f5260205f20905b81548152906001019060200180831161088657829003601f168201915b50505050509050919050565b6001600160a01b039182165f90815260056020908152604080832093909416825291909152205460ff1690565b6108e46109f5565b6001600160a01b03811661090d57604051631e4fbdf760e01b81525f600482015260240161041e565b6104b781610a5a565b5f818152600260205260408120546001600160a01b03168061032e57604051637e27328960e01b81526004810184905260240161041e565b6104a18383836001610cd2565b5f828152600260205260408120546001600160a01b0316801580159061098957506001600160a01b03851615155b156109e15760405162461bcd60e51b815260206004820152602260248201527f43726564697450617373706f72743a20746f6b656e20697320736f756c626f756044820152611b9960f21b606482015260840161041e565b6109ec858585610dd6565b95945050505050565b6006546001600160a01b031633146105f75760405163118cdaa760e01b815233600482015260240161041e565b5f610a2e5f835f61095b565b90506001600160a01b0381166103f557604051637e27328960e01b81526004810183905260240161041e565b600680546001600160a01b038381166001600160a01b0319831681179093556040519116919082907f8be0079c531659141344cd1fd0a4f28419497f9722a3daafe3b4186f6b6457e0905f90a35050565b6001600160a01b038216610ad457604051633250574960e11b81525f600482015260240161041e565b5f610ae083835f61095b565b90506001600160a01b038116156104a1576040516339e3563760e11b81525f600482015260240161041e565b6001600160a01b038216610b3e57604051630b61174360e31b81526001600160a01b038316600482015260240161041e565b6001600160a01b038381165f81815260056020908152604080832094871680845294825291829020805460ff191686151590811790915591519182527f17307eab39ab6107e8899845ad3d59bd9653f200f220920489ca2b5937696c31910160405180910390a3505050565b6001600160a01b0383163b15610ccb57604051630a85bd0160e11b81526001600160a01b0384169063150b7a0290610bec9088908890879087906004016114a2565b6020604051808303815f875af1925050508015610c26575060408051601f3d908101601f19168201909252610c23918101906114de565b60015b610c8d573d808015610c53576040519150601f19603f3d011682016040523d82523d5f602084013e610c58565b606091505b5080515f03610c8557604051633250574960e11b81526001600160a01b038516600482015260240161041e565b805160208201fd5b6001600160e01b03198116630a85bd0160e11b14610cc957604051633250574960e11b81526001600160a01b038516600482015260240161041e565b505b5050505050565b8080610ce657506001600160a01b03821615155b15610da7575f610cf584610916565b90506001600160a01b03831615801590610d215750826001600160a01b0316816001600160a01b031614155b8015610d345750610d3281846108af565b155b15610d5d5760405163a9fbf51f60e01b81526001600160a01b038416600482015260240161041e565b8115610da55783856001600160a01b0316826001600160a01b03167f8c5be1e5ebec7d5bd14f71427d1e84f3dd0314c0f7b2291e5b200ac8c7c3b92560405160405180910390a45b505b50505f90815260046020526040902080546001600160a01b0319166001600160a01b0392909216919091179055565b5f828152600260205260408120546001600160a01b0390811690831615610e0257610e02818486610ec8565b6001600160a01b03811615610e3c57610e1d5f855f80610cd2565b6001600160a01b0381165f90815260036020526040902080545f190190555b6001600160a01b03851615610e6a576001600160a01b0385165f908152600360205260409020805460010190555b5f8481526002602052604080822080546001600160a01b0319166001600160a01b0389811691821790925591518793918516917fddf252ad1be2c89b69c2b068fc378daa952ba7f163c4a11628f55a4df523b3ef91a4949350505050565b610ed3838383610f2c565b6104a1576001600160a01b038316610f0157604051637e27328960e01b81526004810182905260240161041e565b60405163177e802f60e01b81526001600160a01b03831660048201526024810182905260440161041e565b5f6001600160a01b03831615801590610f885750826001600160a01b0316846001600160a01b03161480610f655750610f6584846108af565b80610f8857505f828152600460205260409020546001600160a01b038481169116145b949350505050565b6001600160e01b0319811681146104b7575f80fd5b5f60208284031215610fb5575f80fd5b8135610fc081610f90565b9392505050565b5f81518084525f5b81811015610feb57602081850181015186830182015201610fcf565b505f602082860101526020601f19601f83011685010191505092915050565b602081525f610fc06020830184610fc7565b5f6020828403121561102c575f80fd5b5035919050565b80356001600160a01b0381168114611049575f80fd5b919050565b5f806040838503121561105f575f80fd5b61106883611033565b946020939093013593505050565b5f805f60608486031215611088575f80fd5b61109184611033565b925061109f60208501611033565b9150604084013590509250925092565b5f8083601f8401126110bf575f80fd5b50813567ffffffffffffffff8111156110d6575f80fd5b6020830191508360208285010111156110ed575f80fd5b9250929050565b5f805f60408486031215611106575f80fd5b83359250602084013567ffffffffffffffff811115611123575f80fd5b61112f868287016110af565b9497909650939450505050565b5f6020828403121561114c575f80fd5b610fc082611033565b5f805f60408486031215611167575f80fd5b61117084611033565b9250602084013567ffffffffffffffff811115611123575f80fd5b5f806040838503121561119c575f80fd5b6111a583611033565b9150602083013580151581146111b9575f80fd5b809150509250929050565b634e487b7160e01b5f52604160045260245ffd5b5f805f80608085870312156111eb575f80fd5b6111f485611033565b935061120260208601611033565b925060408501359150606085013567ffffffffffffffff80821115611225575f80fd5b818701915087601f830112611238575f80fd5b81358181111561124a5761124a6111c4565b604051601f8201601f19908116603f01168101908382118183101715611272576112726111c4565b816040528281528a602084870101111561128a575f80fd5b826020860160208301375f60208483010152809550505050505092959194509250565b5f80604083850312156112be575f80fd5b6112c783611033565b91506112d560208401611033565b90509250929050565b600181811c908216806112f257607f821691505b60208210810361131057634e487b7160e01b5f52602260045260245ffd5b50919050565b60208082526021908201527f43726564697450617373706f72743a206e6f6e6578697374656e7420746f6b656040820152603760f91b606082015260800190565b601f8211156104a157805f5260205f20601f840160051c8101602085101561137c5750805b601f840160051c820191505b81811015610ccb575f8155600101611388565b67ffffffffffffffff8311156113b3576113b36111c4565b6113c7836113c183546112de565b83611357565b5f601f8411600181146113f8575f85156113e15750838201355b5f19600387901b1c1916600186901b178355610ccb565b5f83815260208120601f198716915b828110156114275786850135825560209485019460019092019101611407565b5086821015611443575f1960f88860031b161c19848701351681555b505060018560011b0183555050505050565b60208152816020820152818360408301375f818301604090810191909152601f909201601f19160101919050565b8082018082111561032e57634e487b7160e01b5f52601160045260245ffd5b6001600160a01b03858116825284166020820152604081018390526080606082018190525f906114d490830184610fc7565b9695505050505050565b5f602082840312156114ee575f80fd5b8151610fc081610f9056fea2646970667358221220be1229a7b2ec65d96db90ac5d2bdca140f2eeffa80ff900691e8294d0efdb74064736f6c63430008180033",
  "linkReferences": {},
  "deployedLinkReferences": {},
  "immutableReferences": {},
  "inputSourceName": "project/contracts/CreditPassport.sol",
  "buildInfoId": "solc-0_8_24-f67321deeabbe3fab8088611cc01cd072ee8709e"
}